:020000040000FA
:10000000C0060020AD010000B1010000B3010000F6
:1000100000000000000000000000000000000000E0
:10002000000000000000000000000000B50100001A
:100030000000000000000000B7010000B90100004E
:10004000BB010000BB010000BB010000BB010000C0
:10005000BB010000BB010000BB010000BB010000B0
:10006000BB010000BB010000BB010000BB010000A0
:10007000BB010000BB010000BB010000BB01000090
:10008000BB010000BB010000BB010000BB01000080
:10009000BB010000BB010000BB010000BB01000070
:1000A000BB010000BB010000BB010000BB01000060
:1000B000BB010000BB010000BB010000BB01000050
:1000C00000F002F800F03EF80CA030C80838241800
:1000D0002D18A246671EAB4654465D46AC4201D180
:1000E00000F030F87E460F3E0FCCB6460126334274
:1000F00000D0FB1AA246AB463343184760160000F7
:1001000090160000103A02D378C878C1FAD8520786
:1001100001D330C830C101D504680C6070470000BD
:100120000023002400250026103A01D378C1FBD813
:10013000520700D330C100D50B6070471FB51FBDFB
:1001400010B510BD00F040FC1146FFF7F7FF01F0BD
:1001500091F900F058FC03B4FFF7F2FF03BC00F084
:100160005FFC0000002802D000BF401EFDD1704798
:1001700070B505460C46164602E00FCC0FC5103E82
:10018000102EFAD2082E02D303CC03C5083E042E4B
:1001900007D301CC01C5361F03E021782970641C08
:1001A0006D1C761EF9D270BDC0BA70470648004774
:1001B000FEE7FEE7FEE7FEE7FEE7FEE70348044949
:1001C000044A054B70470000C1000000C000002039
:1001D000C0060020C0020020C0020020F8B5042A9A
:1001E0002CD3830712D00B78491C0370401C521E7D
:1001F00083070BD00B78491C0370401C521E8307E9
:1002000004D00B78491C0370401C521E8B079B0FB7
:1002100005D0C91ADF002023DE1B08C90AE0FFF75A
:10022000A7FFF8BD1D4608C9FD401C46B4402C433D
:1002300010C0121F042AF5D2F308C91A521EF0D4B6
:100240000B78491C0370401C521EEAD40B78491CE1
:100250000370401C012AE4D409780170F8BD0378CA
:10026000C2781946437812061B0219438378C07876
:100270001B04194311430902090A00060843704789
:10028000020A08704A70020C8A70020ECA70704727
:100290007047704770470000F0B5F94D0C091E0912
:1002A0002C402E402F468BB0A7437DD0B543FCD0C9
:1002B000002E7AD0002CFCD00D465D40ED0F25437A
:1002C000AC1BFF25AD0464190894C502440DC90296
:1002D0002143500DDC0204430120C00701430443C5
:1002E000D2020191200C110C00958C46010423468A
:1002F0008B430A9161460904E24D8A430991010A40
:100300007D4449198039097805464D4301266D1809
:10031000F605751B6943C90C640B891C4C436418B2
:10032000B5012C1B250C2E04B4434C434D43210C2A
:10033000691889090591009DE90701D00121C907C4
:1003400004912C4601996708CD072F434C08059D61
:10035000E10B4D432D0C29466646754302950D462B
:1003600045432E46029D7D1BB44100950D465D43DD
:1003700001942C0C2F040D465543AE462D0C3D43E5
:10038000029503947546049C2D04641B049406D2C4
:10039000029C039D641C002675410395029401ACE8
:1003A00070CC009F7D1B01E03EE162E1B441090495
:1003B0000095079101940599A4086143090C0C4626
:1003C0004443650BE7040C4666467443A646640B3B
:1003D0003C43039502947446049DE4042C1B04944E
:1003E00006D2029C039D641C00267541039502946D
:1003F00001AC70CC009F7D1BB44101940C465C4362
:100400000095650FE7000C465443A646640F3C4335
:10041000039502947446049DE4002C1B049406D2B8
:10042000029C039D641C002675410395029401AC57
:1004300070CC009F7D1BB441AE09AF06049DC9007E
:10044000AD092F43049DA406AD060495079D3443D2
:1004500069180791059DE10B4D432D0C2946664611
:10046000754302950D4645432E46029D7D1BB441C2
:1004700000950D465D4301942C0C2F040D46554309
:10048000AE462D0C3D43029503947546049C2D0405
:10049000641B049406D2029C039D641C00267541D3
:1004A0000395029401AC70CC009F7D1BB441019474
:1004B0008C050694079C890A611800950791019C98
:1004C0000599A4086143090C0D464543680BEF04E8
:1004D0000D46644665436C0B3C43049FED047D1B55
:1004E000AC4602D20025641C6841009E019D371B6A
:1004F00085410846584301950C46460FC5005443B4
:10050000600F28436546E4002C1B02D20025401CE6
:100510006E41019D3F1AB5412846BD09800628431A
:100520008446A009BF064E020699A4067618074322
:10053000079D002068410A99079019430020099BF4
:1005400000906046FF1913434041E20F64003A43B4
:10055000A4460446D71A8C41A04203D9012000903A
:1005600020463A46C70F941840416246D20F2243B4
:10057000644664000494009CBE466400D71AA446F6
:10058000044602978C417746002F01D1A04204D93E
:100590006046401C8446029A2046C40FA646941822
:1005A0004041049A0546D20F224364466400D31AA0
:1005B0008D417146002901D1A84202D928461A4628
:1005C000641C10430122002800D016436102002061
:1005D000079B891904465C410223002C02DB491861
:1005E00013466441089DCE0A2D145D194B0567051D
:1005F000E10A2C050D1908993E43C9076940002BF3
:1006000008D0934006D30022761C5141002B01D123
:10061000760876001C4A002D43DB154241D0AA43E0
:100620003FD030460BB0F0BD06180D464D41174C7B
:100630007642AC411AD395181C465C41134A6D4270
:10064000A24113D3012252054C00D4420AD15C00CE
:10065000D4420BD04B4002D592021143E2E749004D
:100660004908DFE75940C90FC90718E000200849C9
:10067000D8E7054801420DD10342F7D0F2E7000068
:100680000000FF07D51300000000F07F0000E0FF2E
:100690000000F87F114859400143C012414000203A
:1006A000C0E70123089A9B069A4205DC0322520701
:1006B0008918C90FC907B5E7052252078918074AE3
:1006C0001143D2125140ADE770B515461C460246A3
:1006D0000B4628462146FFF7DFFD70BDFFFFFF7F79
:1006E0000346CA02400D10B510430A1504D0012478
:1006F000E4072043002A05DB0A4CA21A04D4D040A8
:10070000FF2A00DD002010BD4A00002B01D001208F
:1007100000E00020101801225205D042F2D8C8177C
:10072000C04310BD1E0400001F22030C02D10F2283
:10073000000402D0030E03D004E0002001467047FD
:100740000002083A030F01D10001121F830F01D1EB
:100750008000921E002801DB4000521E1205511835
:100760004205C012411810467047C10FC90700D09A
:100770004042012292071143D6E701218907D3E7BE
:10078000F0B58B4C0F09254689B0BD437BD01D09C0
:100790002646AE43FAD00E465E402740F60F3E4353
:1007A000254071D024012142FBD0FF24AD19A404BF
:1007B0002D1B039501252D05DB02DB0AC9022B4306
:1007C000C90A29431E010901040F130F0501214322
:1007D0001701880B820391432D098C46A90B1E43F8
:1007E0008A039543B30B9A0396433F09BA0B9403CC
:1007F000A74302962E467E430497B6464E19D71954
:100800000C460196544305977E43371B7646BF1B23
:100810003601B646BE0B361900967646BC0437192B
:10082000009C01D3641C00946400002F01D00126B9
:100830003443029E049F754366467E4304967600C9
:1008400034196E0034190094029C019E1C196643F1
:10085000751BAE46069465464519059C05956C4387
:10086000594375460891691A0191049E0146514306
:10087000A41B0491611A009C0791E10605D061094F
:100880000122114302E072E06EE06109089D002739
:100890002C0A2D066918049D7C412A0A2D06691828
:1008A000019D6241AC0DAD026D185441079A910D46
:1008B000920255196141029A644658435443069B7B
:1008C000059A5A43121A131B9A0E9B015B187A4120
:1008D000010B0005C3185141220A200644195A4150
:1008E0009A4200D2491C01204002814203D31523C1
:1008F0000226F64302E014230326F6432020C51AFD
:10090000A9401746AF40DA400A4320460399D84031
:100910000914731819055118039A3843D207514026
:10092000AC4009D00122944006D30022401C514122
:10093000002C01D1400840001E4A934212D30122EC
:1009400003989206904207DB0520400709181A48D1
:100950000143C012414004E0032040070818C10FC2
:10096000C907002009B0F0BD0020F107FAE705181B
:100970000C464C4111486D42A04115D394181A46BB
:100980005A410E48644290410ED301204A0040056E
:10099000824209D35A00824206D35940C90F084AFD
:1009A000C90700201143DDE700200649DAE700000F
:1009B0000000FF07FE070000FFFFFF7F0000E0FFD1
:1009C0000000F07F0000F87F754600F025F8AE4685
:1009D000050069465346C008C000854618B020B5DA
:1009E000FFF7ECFB60BC00274908B6460026C0C5EF
:1009F000C0C5C0C5C0C5C0C5C0C5C0C5C0C5403DD7
:100A000049008D46704710B50446C046C046204692
:100A1000FFF7A1FB10BD0000004870475C000020FC
:100A200001491820ABBEFEE726000200704770B5F2
:100A30008C180578401C6B075B0F01D10378401CB4
:100A40002A1106D10278401C03E00678401C0E7083
:100A5000491C5B1EF9D12B0705D40023521E0DD46F
:100A60000B70491CFAE70378401CCB1A921C03E078
:100A70001D780D70491C5B1C521EF9D5A142D8D3BC
:100A8000002070BD00200749486088604861401E12
:100A90008861086288624863C86301200149403167
:100AA000C86070470080024010B5002801D10124C1
:100AB00000E000240C7000280CD001280BD0022884
:100AC00002D003280AD102E00124147006E00124B8
:100AD0001C7003E000BF002414701C7000BF10BD28
:100AE00070B504460B48046000BF0B4840680068BE
:100AF00009498968084308494968086000BF0648F1
:100B0000064D066801222946304600F00FFC00BF62
:100B100070BD0000340000209816000080F800002E
:100B200070B504460D462946204600F00DF8002811
:100B300000D170BD00BF0021204600F005F800285C
:100B4000F9D10120F5E7000070B504460D46002DEF
:100B50000AD0A200094B9958A200094B9858094A9B
:100B6000126800F011F870BDA200044B9958A20061
:100B7000034B9858002200F007F8F4E73416000001
:100B80001C00002034000020F8B504460F4615462E
:100B90003946206800F020FB0646002D01D0002ECB
:100BA00001D13046F8BD2846FFF7DCFA3946206807
:100BB00000F012FBB04201D13046F3E70020F1E72C
:100BC00010B5044600BF08484068006806498968B7
:100BD000084305494968086000BFE1B2024A10684D
:100BE000012200F0B5FB10BD5C160000034A11683D
:100BF0000A6842400A6000BF704700005C160000AF
:100C000070B504460848C569032028430649C861F1
:100C1000E20006490868382100F0AFFA034908608D
:100C20000148C56170BD0000000002400080014025
:100C3000054A916B890989010A460243C3001A4398
:100C4000014B9A637047000000800D4070B5054667
:100C50000C462846FFF7ECFF2046FFF7D1FF70BD9A
:100C600010B50446002C01D000F0C2FB014800681A
:100C700010BD00003800002070B504460E461E4826
:100C8000C568032000022840000A012801D1022083
:100C900070BD2078616800F043FA002801D101207E
:100CA000F6E7207AE16800F081FA002801D10320FC
:100CB000EEE7002E03D0617CA07CFFF7C7FF032086
:100CC000000205406078801C04210843217C090152
:100CD000084305430848C5608215032109022846D8
:100CE00000F04BFA0449C860002E03D1617CA07C5F
:100CF000FFF7ACFF0020CBE700000240F8B5044648
:100D00000D4616461F463B4632462946204600F011
:100D100007F800BF204600F069F80028FAD0F8BDB7
:100D2000FFB505460E4617461C460096601E80001D
:100D3000C0190190601E00010B4908400B49401882
:100D400002900B4989682A0188180099016001996D
:100D50004160029981600399C160012211462846D1
:100D600000F076F8FFBD0000F03F0000028002AE08
:100D700000800240F8B504460D4616461F463B4625
:100D800032462946204600F007F800BF204600F012
:100D90002DF80028FAD0F8BDFFB505460E461746D7
:100DA0001C46601E8000801900900197601E0001A3
:100DB0000B4908400B49401802900B4989682A01E9
:100DC0008818009901600199416002998160039936
:100DD000C16001221146284600F03AF8FFBD00002C
:100DE000F03F0000028002EA008002400146054810
:100DF000806A01228A401040002801D101207047FA
:100E00000020FCE70080024000B503480168034869
:100E100000F006F800BD00004C160000000C102089
:100E200003B502460848C069202108430649C86145
:100E3000FFF728FE05488260019840010121084320
:100E4000024948600CBD00000000024000800240E2
:100E500010B5034601249C402046002902D0084CCE
:100E6000A06301E0064CE063002A02D0044C6063FA
:100E700001E0034C2063024CA062606110BD0000E1
:100E80000080024010B502460B461C8814805C8826
:100E900054809C88948010BDFFB581B00646341DF7
:100EA00020460E30009002980E3887B220460499F2
:100EB000FFF7E8FFA01D0399FFF7E4FF38B2FFF743
:100EC00073F980B22073000A6073012503E0009873
:100ED0004555681C85B2BD42F9DB314638460E30B7
:100EE000FFF7CEF905B0F0BD018E203901867047BD
:100EF00010B50146CA8D4B8D934201DAD01A10BD50
:100F0000088801246403201A9C1A001BF7E7014695
:100F1000088D8A8D904201D0012070470020FCE7A7
:100F2000F8B504460D460120C0062618306800902A
:100F300068460088C01C87103B462A4631460E2072
:100F4000FFF7DCFE2046FFF7CFFF0098F8BDF8B5AD
:100F500005460C462846FFF7DAFF0646002E0CD061
:100F600000BF211D2846FFF7DBFF042269460090E1
:100F70002046FFF733F900BF00BF3046F8BDF8B593
:100F800006460C463046FFF7B3FF07462046FFF7FC
:100F900066F90830874201D9012000E000200546AB
:100FA000002D03D02146304600F002F82846F8BD57
:100FB000F8B504460D460120C0062018061D284637
:100FC000FFF74DF9C01C8008871CBBB2324629468A
:100FD0000F20FFF7CFFEF8BD818600BFC28E102321
:100FE0001A40002AFAD0828E01231A438286704763
:100FF00070B505460C46A1882846FFF7EDFF284648
:10100000216800F001F870BD70B504460D4668888F
:101010006080A888A080E888E0802889208168898D
:101020006081A889A081E889E081288A2082688A75
:101030006082A88AA082E88AE082288C208428889E
:101040002080A08D2085E08D6085688CA084E88B51
:10105000E083A88BA083288B2083688B6083FFF7B5
:10106000D3FE00BFE08B03210843E08300BF70BDC7
:1010700070B500244B2676012546002D08D1104975
:1010800088680422082100F073F80D49886005E0A3
:101090000B4880680C2108430949886000BF094952
:1010A000304600F0D9F90649486B49221206064934
:1010B00000F05EF80321090708430149486370BD49
:1010C0000000024011110000FF00073900BF0F4966
:1010D000418400BF00BF818D018500BF00BFC18D6D
:1010E000418500BF00BFC18B89088900C18300BF53
:1010F00000BF418B0122D2031143418300BF00BFD7
:10110000018B1143018300BF70470000FFDF000027
:101110000248006808210840C008704700000240EB
:1011200070B504460D462646002E08D10A49886847
:101130000122022100F021F80749886005E00648F5
:101140008068032108430449886000BF034928469A
:1011500000F082F970BD0000000002406111000043
:1011600002480068042108408008704700000240DF
:101170000346184688431043704703461846884381
:10118000104370470146084A50680F231B0202466D
:101190009A4310460A02121D104308220243024BD2
:1011A0005A601A46506070470000024070B505460C
:1011B0000C462846FFF7E6FF0249204600F04CF9AE
:1011C00070BD0000C91100000248006802210840FB
:1011D00040087047000002400246106808408842FC
:1011E00001D1012070470020FCE7F0B588B0074628
:1011F0000B4614466946384600F0BEF820780128B0
:1012000003D100981843009002E0009898430090A2
:101210006078012803D101981843019002E00198F9
:1012200098430190E078012803D103981843039074
:1012300002E0039898430390207A012803D107988D
:101240001843079002E007989843079060790128B7
:1012500003D104981843049002E004989843049042
:101260002079012804D1190404980843049003E06C
:101270001904049888430490A079012803D10598A3
:101280001843059002E0059898430590607A01287C
:1012900004D1190405980843059003E01904059842
:1012A00088430590002516E00120A840184000283A
:1012B00010D06E000321B14006988843E179B14017
:1012C000084306900321B14002988843A178B140B9
:1012D000084302906D1C102DE6D36946384600F095
:1012E00076F808B0F0BDFFB585B016461C460E9DD9
:1012F00002AF00203B462A4621460090304600F0CF
:101300004CF800BF02AA06990598FFF76EFF09B0D6
:10131000F0BDF8B505460E4617461C4600233A4672
:10132000314628460094FFF7DEFFF8BD7CB5044641
:101330000D461646054903C9019100906B46324699
:1013400029462046FFF7E5FF7CBD0000CC160000D3
:101350007CB505460E461446064903C90191009026
:10136000684684706B46002231462846FFF7D1FF5D
:101370007CBD0000BC16000002680A6042684A603A
:1013800082688A60C268CA6002690A6142694A6109
:1013900082698A61C269CA617047FFB581B00E4631
:1013A00015461C460A9F631D221D611C0198FFF70C
:1013B0007BFB2770A6702878E0706878A071A87809
:1013C000E071E87820722879607205B0F0BD0A6893
:1013D00002604A6842608A688260CA68C2600A69BC
:1013E00002614A6942618A698261CA69C261704761
:1013F00010B5164B1A68164BD96803231B020B4015
:10140000180A012803D08300124CE25812E0880722
:10141000800F031D9B000F4CE25804230B409808DB
:10142000002807D00A4B5B680F2424022340180AC7
:10143000431C5A43F0230B401809082803D3C31F49
:101440001446DC402246014B1A6010BD38000020D3
:10145000000002403C00002070B505460C4605E047
:10146000A047002801D0012070BD6D1E002DF7D1CE
:10147000A047F9E796B01422554911A8FEF778FE67
:10148000012111A8FFF7F8FB0120FFF7E9FB1090FD
:101490000320FFF795FB1098FFF76FF90446002231
:1014A0004C4BFFF76DF9064600224B4BFEF7F4FE5E
:1014B00000224A4B01910090FEF7EEFE039102904C
:1014C000FFF70EF90490FFF70BFBFFF7D1FD242285
:1014D0003F49143107A8FEF74BFE3D49383103C997
:1014E0000691059007A8059005A90D208006FFF735
:1014F0007FFD0D208006FFF7E9FD394B394A0121B8
:1015000089023948FFF7C8FC60E038490D208006A1
:10151000FFF71DFD002807D035480068401C3449FE
:1015200008600220FFF762FB01210020FFF7F8FAB4
:1015300000280DD040202C49086040212A48018213
:1015400001460D208006FFF71AFD0120FFF74EFB34
:1015500001210846FFF7E4FA00280DD08020224937
:10156000086080212048018201460D208006FFF797
:1015700006FD0120FFF73AFB01210220FFF7D0FA18
:1015800000280ED001204002174908600146164885
:10159000018201460D208006FFF7F1FC0120FFF7D4
:1015A00025FB01210320FFF7BBFA00280ED0012004
:1015B00080020D49086001460B48018201460D205A
:1015C0008006FFF7DCFC0120FFF710FB9DE7000021
:1015D000F41500000000244000408F40000010403F
:1015E0001000002008000020F4051020000010204A
:1015F00000000020000000000006000009000000BC
:1016000000060000000307000010123456789ABC50
:10161000000000000000000057007F00630004008D
:10162000FF06FA02802000300000605C000000002D
:101630000EE0000000100000000800000080000024
:1016400080000000004000000020000007000000B3
:1016500000800A401C0002400000200000000B40F7
:101660001C0002400000400000800B401C000240B3
:101670000000800000000C401C000240000000013F
:1016800000800C401C0002400000000200800E4060
:101690001C00024000000020008011403800024081
:1016A0000800000000801340380002408000000065
:1016B000000014403800024000010000010000005A
:1016C0000000000001000000000000000100000018
:1016D00000000000010000000080807F7E7D7C7B98
:1016E0007A7978777676757473727171706F6E6EC1
:1016F0006D6C6C6B6A6A696868676666656464636A
:101700006362616160605F5F5E5E5D5D5C5C5B5BF0
:101710005A5A59595858575756565555555454535F
:101720005352525251515050504F4F4F4E4E4D4DBB
:101730004D4C4C4C4B4B4B4A4A4A49494948484806
:101740004747474746464645454544444444434346
:101750004343424242424141410000008C17000095
:10176000000000205C00000004010000E8170000F9
:1017700000001020001000002E0A0000E8170000F2
:101780005C00002064060000200100000000000052
:1017900000000000112233445566000012345678D0
:1017A0009ABC0000981600009816000098160000D9
:1017B0009816000098160000981600009816000071
:1017C000401F000000127A0000127A0000000000A2
:1017D00000800000409C000000127A0000093D00DB
:1017E00000127A0000093D0001FF01FF01FF01FF27
:1017F00001FF01FF01FF01FF01FF01FF01FF01FFE9
:0C18000001FF01FF01FF01FF01100000CB
:04000005000000C136
:00000001FF
