:020000040000FA
:10000000E0250020B5010000BD010000BF01000097
:1000100000000000000000000000000000000000E0
:10002000000000000000000000000000C10100000E
:100030000000000000000000C3010000C501000036
:10004000C7010000C9010000CB010000CD01000084
:10005000CF010000D1010000D3010000D501000054
:10006000D7010000D9010000DB010000DD01000024
:1000700055340000693400007D34000091340000E4
:10008000E7010000E9010000E53F0000ED3F00004E
:10009000EF010000F1010000F3010000F501000094
:1000A000F7010000F9010000FB010000FD01000064
:1000B000FF01000001020000030200000502000031
:1000C00000F002F800F04AF80CA030C808382418F4
:1000D0002D18671EA246AB4654465D46AC4201D180
:1000E00000F03CF87E460F3EB6460FCC0126334268
:1000F00000D0FB1A3343A246AB4618472045000008
:10010000404500000023002400250026103A01D3BA
:1001100078C1FBD8520700D330C100D50B607047BF
:1001200010B5662902D104F0F5F810BD642902D19A
:1001300000F0FEF810BD632902D101F067FA10BD8E
:10014000002010BD1FB501F015FB040000200021A8
:1001500004F0CAF8E0601FBD10B510BD01F0C4FE88
:100160001146FFF7EFFF03F0C1FF01F0DCFE03B41F
:10017000FFF7F2FF03BC01F023FF000070B5054656
:100180000C46164602E00FCC0FC5103E102EFAD2D8
:10019000082E02D303CC03C5083E042E07D301CC9E
:1001A00001C5361F03E021782970641C6D1C761E82
:1001B000F9D270BD1748804717480047FEE7FEE7B1
:1001C000FEE7FEE7FEE7FEE7FEE7FEE7FEE7FEE707
:1001D000FEE7FEE7FEE7FEE7FEE7FEE7FEE7FEE7F7
:1001E000FEE7FEE7FEE7FEE7FEE7FEE7FEE7FEE7E7
:1001F000FEE7FEE7FEE7FEE7FEE7FEE7FEE7FEE7D7
:10020000FEE7FEE7FEE7000004480549054A064B05
:1002100070470000E9330000C1000000E005002045
:10022000E0250020E0150020E01500200FB405496E
:1002300010B503AA029801F0F5F910BC08BC04B08F
:1002400018470000500200200FB41CB5074B06AA47
:100250007B4469460090059801F0B5F90020694695
:1002600001F0C4F91CBC08BC04B018479913000085
:10027000F8B50E460446002020622046E168884713
:10028000002829D0252802D06268A16820E0E16812
:1002900020460027884705001ED0284641381928E7
:1002A00002D80127FF022035324620462760294622
:1002B000FFF736FF002808D0012804D0F61DF60805
:1002C000F6000836D9E7361DD7E762682846A168E8
:1002D0009047206A401CCFE7206AF8BD70B50C46F5
:1002E0000546012A05D02878800600D5EA69002352
:1002F00002E0012305E05B1C934202D2E05C00288F
:10030000F9D1A869E618C01AA861286AC01828623D
:100310002846C046C04604E06A682078A968641C84
:100320009047B442F8D32846C046C04670BD00008E
:10033000F7B5002575291068009914A611D0C0469C
:10034000C046002802DA404211A608E00099096878
:100350008A0701D50FA602E0490704D50EA601259C
:1003600001E0C046C046009F0024243704E001F0AD
:100370006DF930313955641C0028F8D12B463246CE
:100380002146009800F0B7FEFEBD0000000000000E
:100390002D0000002B0000002000000010B50446D6
:1003A00003E003F097FE401C08D020780549641C48
:1003B0000028F6D10A2003F08DFE10BD0020C043B6
:1003C00010BD000050020020F8B5042A2CD383078A
:1003D00012D00B78491C0370401C521E83070BD0AF
:1003E0000B78491C0370401C521E830704D00B7805
:1003F000491C0370401C521E8B079B0F05D0C91A65
:10040000DF002023DE1B08C90AE0FFF7B7FEF8BDB6
:100410001D4608C9FD401C46B4402C4310C0121FA5
:10042000042AF5D2F308C91A521EF0D40B78491CDD
:100430000370401C521EEAD40B78491C0370401C08
:10044000012AE4D409780170F8BD01E004C0091F55
:100450000429FBD28B0701D50280801CC90700D07C
:100460000270704700290BD0C30702D00270401CF5
:10047000491E022904D3830702D50280801C891EED
:10048000E3E70022EEE70022DFE7002203098B42C8
:100490002CD3030A8B4211D300239C464EE0034623
:1004A0000B433CD4002243088B4231D303098B42D7
:1004B0001CD3030A8B4201D394463FE0C3098B420D
:1004C00001D3CB01C01A524183098B4201D38B0166
:1004D000C01A524143098B4201D34B01C01A524109
:1004E00003098B4201D30B01C01A5241C3088B424E
:1004F00001D3CB00C01A524183088B4201D38B0039
:10050000C01A524143088B4201D34B00C01A5241DA
:10051000411A00D201465241104670475DE0CA0FB1
:1005200000D04942031000D3404253409C46002271
:1005300003098B422DD3030A8B4212D38901FC227B
:1005400012BA030A8B420CD3890192118B4208D351
:10055000890192118B4204D389013AD0921100E0B3
:100560008909C3098B4201D3CB01C01A52418309C7
:100570008B4201D38B01C01A524143098B4201D3F4
:100580004B01C01A524103098B4201D30B01C01A1F
:100590005241C3088B4201D3CB00C01A5241830899
:1005A0008B4201D38B00C01A5241D9D243088B42EF
:1005B00001D34B00C01A5241411A00D201465241A8
:1005C000104663465B1001D34042002B00D54942E0
:1005D000704763465B1000D3404201B50020C0461F
:1005E000C04602BD7047704770470000F0B50C462A
:1005F000871A9C410D46861A9D4103D2C01BA1411A
:10060000D21963410D0D1F0DC94EEC1BAE435CD0DA
:100610007F057F0D0026002F51D02D05AC46A94344
:10062000DD020123ED0A1B051D4320231B1B24D4DF
:100630001746E740381871412F46E740CC199D40D6
:100640002818314661410C0D27D161449A4013D5D9
:100650000023401C594152000ED1400840000122A5
:100660004B005205D34207D305204007C14201D5B4
:10067000B04900E0B0493046F0BD6B00002A00D020
:1006800001229A181F23203C1B1B01D5002302E0E6
:10069000E540281871410C0DD7D001242405091913
:1006A000C407CD0740084908E40F28436144002CE3
:1006B000D5D00024401C61419A40D0D1CDE76A05D5
:1006C000520DD9D1C90FC907D5E79C4D4E0000285E
:1006D00001D0012400E0002434195F00002A01D079
:1006E000012600E00026BE19954FAC420CD8AE4260
:1006F0000AD8B44206D001256D05EC42BCD01046A4
:100700001946F0BD9942FCD000203946F0BDF0B545
:100710001FB40C460F46811A9F412546861A9D41FB
:1007200006D20125ED076F40401ABC4152187B41AB
:10073000210D1E0D8D1BAC467D4D8D437ED0750564
:100740006D0D7CD00D05AE46AC431B031B0B794DE4
:1007500052429D41202366469B1B14D31746F74007
:10076000381800260090744160462F460741E4196E
:1007700000989D402818664116D4714671189A4019
:1007800025D5012320E093182A466A415200002B08
:1007900000D0521C1E23203E9B1B002B61DD3541E7
:1007A000EE1728186641E8D5001876415B1C9A4080
:1007B00000D3401C4B05F3181524E34010D3002B45
:1007C00052D071467118D30FC01802D3491C05B01E
:1007D000F0BD0123DB079A42F9D140084000F6E75B
:1007E00001225205B21801D1002853D00123CC0AAE
:1007F000DB029943891E002A08D1020C03D0020CA7
:100800000004103902E00246002020390023550B75
:1008100005D112020823550B01D152010D23550CAD
:1008200001D112011B1DD50C01D192009B1C150D8D
:1008300001D152005B1C2025EE1A01E02CE022E0E1
:100840000546F54015439840CA1AE1076918130593
:10085000C918002ABBDA032040070818C10FC907CE
:100860000FE071466118B2E7F107400808437110C4
:1008700071444A000CD001235B059A42A7D2C90FEC
:10088000C9070020A3E74905490D26D1002001E052
:100890000028F4D100219AE7284D6600002801D0F5
:1008A000012100E0002171185F00002A01D001261B
:1008B00000E00026BE19224FA94210D8AE420ED841
:1008C000B14208D001256D05E94206D01946A802BB
:1008D000414010467BE79C4201D0214677E700204B
:1008E000394674E710B50C465C4005D50124E40791
:1008F0006340FFF70CFF10BDFFF778FE10BD30B46A
:100900000C465C4004D50124E407634030BC6DE62E
:1009100030BCFCE670B50124E40761400D465D4043
:1009200002D4FFF763FE70BD6340FFF7F0FE70BDB9
:10093000FF0700000000F0FF0000F07F0000E0FF74
:100940000000F87FF0B5F94D0C091E092C402E402F
:100950002F468BB0A7437DD0B543FCD0002E7AD074
:10096000002CFCD00D465D40ED0F2543AC1BFF2550
:10097000AD0464190894C502440DC9022143500D09
:10098000DC0204430120C00701430443D202019169
:10099000200C110C00958C46010423468B430A91D0
:1009A00061460904E24D8A430991010A7D444919CF
:1009B0008039097805464D4301266D18F605751BEB
:1009C0006943C90C640B891C4C436418B5012C1B8A
:1009D000250C2E04B4434C434D43210C691889095E
:1009E0000591009DE90701D00121C90704912C461A
:1009F00001996708CD072F434C08059DE10B4D4336
:100A00002D0C29466646754302950D4645432E46F4
:100A1000029D7D1BB44100950D465D4301942C0C55
:100A20002F040D465543AE462D0C3D4302950394CD
:100A30007546049C2D04641B049406D2029C039DFD
:100A4000641C002675410395029401AC70CC009F94
:100A50007D1B01E03EE162E1B4410904009507918C
:100A600001940599A4086143090C0C464443650BA5
:100A7000E7040C4666467443A646640B3C43039564
:100A800002947446049DE4042C1B049406D2029C38
:100A9000039D641C002675410395029401AC70CC43
:100AA000009F7D1BB44101940C465C430095650F8B
:100AB000E7000C465443A646640F3C43039502945A
:100AC0007446049DE4002C1B049406D2029C039DF2
:100AD000641C002675410395029401AC70CC009F04
:100AE0007D1BB441AE09AF06049DC900AD092F437B
:100AF000049DA406AD060495079D3443691807912B
:100B0000059DE10B4D432D0C294666467543029524
:100B10000D4645432E46029D7D1BB44100950D4672
:100B20005D4301942C0C2F040D465543AE462D0C0D
:100B30003D43029503947546049C2D04641B049464
:100B400006D2029C039D641C002675410395029405
:100B500001AC70CC009F7D1BB44101948C050694C0
:100B6000079C890A611800950791019C0599A408C2
:100B70006143090C0D464543680BEF040D4664467E
:100B800065436C0B3C43049FED047D1BAC4602D2D5
:100B90000025641C6841009E019D371B8541084665
:100BA000584301950C46460FC5005443600F284337
:100BB0006546E4002C1B02D20025401C6E41019DBD
:100BC0003F1AB5412846BD09800628438446A0093E
:100BD000BF064E020699A40676180743079D00201B
:100BE00068410A99079019430020099B00906046CC
:100BF000FF1913434041E20F64003A43A446044600
:100C0000D71A8C41A04203D90120009020463A46D1
:100C1000C70F941840416246D20F224364466400D5
:100C20000494009CBE466400D71AA446044602976A
:100C30008C417746002F01D1A04204D96046401C68
:100C40008446029A2046C40FA64694184041049A4E
:100C50000546D20F224364466400D31A8D41714683
:100C6000002901D1A84202D928461A46641C104323
:100C70000122002800D0164361020020079B891939
:100C800004465C410223002C02DB491813466441F0
:100C9000089DCE0A2D145D194B056705E10A2C0548
:100CA0000D1908993E43C9076940002B08D09340AD
:100CB00006D30022761C5141002B01D17608760024
:100CC0001C4A002D43DB154241D0AA433FD0304699
:100CD0000BB0F0BD06180D464D41174C7642AC41A5
:100CE0001AD395181C465C41134A6D42A24113D396
:100CF000012252054C00D4420AD15C00D4420BD0F0
:100D00004B4002D592021143E2E749004908DFE770
:100D10005940C90FC90718E000200849D8E705481D
:100D200001420DD10342F7D0F2E700000000FF07B7
:100D3000743900000000F07F0000E0FF0000F87F41
:100D4000114859400143C01241400020C0E701232F
:100D5000089A9B069A4205DC032252078918C90F9C
:100D6000C907B5E7052252078918074A1143D2126D
:100D70005140ADE770B515461C4602460B46284665
:100D80002146FFF7DFFD70BDFFFFFF7F30B5034653
:100D9000CA02400D1043164D164C0A1502D02043CE
:100DA000002A06DBAA1A002A12DDD040FF2A0BDC3B
:100DB00030BD5205520D01D140004008AA1A07D497
:100DC000D0404042FF2A01DD002030BD0028FCDD7C
:100DD0004A00002B01D0012000E000201018012261
:100DE0005205D042F0D8C817C043604030BD000063
:100DF0001E040000000000800346CA02400D10B52A
:100E000010430A1504D00124E4072043002A05DB1F
:100E10000A4CA21A04D4D040FF2A00DD002010BDE5
:100E20004A00002B01D0012000E000201018012210
:100E30005205D042F2D8C817C04310BD1E040000AE
:100E40001F22030C02D10F22000402D0030E03D094
:100E500004E00020014670470002083A030F01D168
:100E60000001121F830F01D18000921E002801DBB8
:100E70004000521E120551184205C012411810467A
:100E80007047C10FC90700D04042012292071143A9
:100E9000D6E701218907D3E7F0B58B4C0F0925462A
:100EA00089B0BD437BD01D092646AE43FAD00E461D
:100EB0005E402740F60F3E43254071D02401214279
:100EC000FBD0FF24AD19A4042D1B039501252D058E
:100ED000DB02DB0AC9022B43C90A29431E010901AF
:100EE000040F130F050121431701880B820391435F
:100EF0002D098C46A90B1E438A039543B30B9A0315
:100F000096433F09BA0B9403A74302962E467E43AD
:100F10000497B6464E19D7190C46019654430597C7
:100F20007E43371B7646BF1B3601B646BE0B3619CD
:100F300000967646BC043719009C01D3641C0094CB
:100F40006400002F01D001263443029E049F7543A4
:100F500066467E430496760034196E003419009478
:100F6000029C019E1C196643751BAE46069465469D
:100F70004519059C05956C43594375460891691AB6
:100F80000191049E01465143A41B0491611A009CE7
:100F90000791E10605D061090122114302E072E0E8
:100FA0006EE06109089D00272C0A2D066918049D32
:100FB0007C412A0A2D066918019D6241AC0DAD02E3
:100FC0006D185441079A910D920255196141029A88
:100FD000644658435443069B059A5A43121A131BFE
:100FE0009A0E9B015B187A41010B0005C318514111
:100FF000220A200644195A419A4200D2491C012073
:101000004002814203D315230226F64302E0142353
:101010000326F6432020C51AA9401746AF40DA4000
:101020000A4320460399D84009147318190551182A
:10103000039A3843D2075140AC4009D00122944072
:1010400006D30022401C5141002C01D14008400031
:101050001E4A934212D3012203989206904207DB64
:101060000520400709181A480143C012414004E016
:10107000032040070818C10FC907002009B0F0BDC0
:101080000020F107FAE705180C464C4111486D4263
:10109000A04115D394181A465A410E486442904113
:1010A0000ED301204A004005824209D35A008242F1
:1010B00006D35940C90F084AC90700201143DDE78C
:1010C00000200649DAE700000000FF07FE070000E5
:1010D000FFFFFF7F0000E0FF0000F07F0000F87FCF
:1010E00010B500F04BFB006810BD10B5044600F0D1
:1010F00045FB046010BDFFB504460D4681B02430A9
:1011000000902168880604D51022E069914321608F
:1011100000E00120A84201DD471B00E00027049801
:10112000A1697A191018081AA0612078C00602D4A3
:101130002046C046C046002608E003986268A168C1
:10114000805D9047206A401C761C2062049886428D
:10115000F3DB2078C0060AD52046C046C04606E02C
:101160006268A16830209047206A401C206238469F
:101170007F1E0028F4DC07E000986268A168405DEB
:101180009047206A401C206228466D1E0028F3DC30
:101190002046C046C0462078000602D5022005B091
:1011A000F0BD0120FBE70000FFB50C461E468FB0E6
:1011B00003CA089009914F007D0D00D16D1E0021DA
:1011C00008460020C0460321099A89050840002AE4
:1011D00003DA8200801840080840800D01280A9038
:1011E00002DD0020C0430A90089807430DD0F04864
:1011F000F049281848430714189800281DD0754254
:10120000291E1DDD0A9842421BE01898012802D0D1
:101210000020302104E00020F24305E02154401C6E
:10122000B042FBDB30460022189B002121540F996D
:101230008B600A60486013B0F0BDBD1B6D1CDFE71A
:101240000A9A002900DA69420BA800F01DFB0BABDB
:1012500007CB03AB07C30899099800F081FB6B46E5
:1012600007C30146D4480918002D00910BDDD2496F
:1012700003980A9A49424018002303A9039068463C
:1012800000F0DEFD08E003990A9A0023081803A97C
:101290000390684600F07EFD6B4607C30004000C17
:1012A00003D00020C043410800E01046189A002AED
:1012B00003D00022009215461EE0751E05D400F0F2
:1012C00061FA303262556D1EF9D501220843079646
:1012D00002D000227F1C04E02078302801D10022B7
:1012E0007F1E002A069787D01EE0112D07DA00F036
:1012F00049FA303262556D1C02460A43F5D1084363
:1013000003D00098002819D00EE00021681E05E0E7
:10131000235C625C63542254401E491C8142F7DB0B
:10132000A81B401E07950690079A18990020A05404
:101330000F98079B069A81600CC07CE7112600205D
:10134000189059E7D21DF0B50D460446D10893B068
:10135000C90003C90C900D9102F08CFF02460D9854
:10136000C00F01D02D2007E02068810701D52B2078
:1013700002E04007C00F4001032A0F9001D0072A66
:1013800005DB03462946204600F03AFA0EE12078B4
:10139000800601D5E76900E006272846652D04D0C0
:1013A000662814D0672D69D12DE00020112F009000
:1013B00001DB112300E07B1C0CAA03A910A8FFF796
:1013C000F3FE1199002610987D1C0E9142E0012039
:1013D0003B460CAAC0070B900120009003A910A85F
:1013E000FFF7E2FE119D12981099002600280E9535
:1013F00001D1781C0D18781B02D446427D1C761E44
:10140000E81B00903AE0012F00DA01270020112F9D
:10141000009001DD112300E03B460CAA03A910A8AF
:10142000FFF7C2FE11993D46109800260E912178D3
:1014300009070BD40E99A94200DA0D4603A9012D24
:1014400004DD4A19203AD27F302A06D0B84201DAA8
:10145000011D04DA012100910FE06D1EEFE7002865
:1014600002DC86192D1A03E0411CA94200DD0D465D
:10147000801B401C00900120C0070B9020780007C3
:1014800005D40098A84202DB0020C04300906946C2
:101490000020C8720B98012102AF0337C9078842A8
:1014A00025D0022010902B2011900B9800280BDAE9
:1014B00040420B902D20119006E00B9800F0C6F8EA
:1014C00030317F1E0B9039701099481E0029109002
:1014D000F3DC0B980028F0D111987F1E387020881B
:1014E000000501D5452000E065207F1E387001A869
:1014F000C01BC01D0B900F98002800D0012041197F
:101500000098C01709180B980818A169081A401EFE
:10151000A0612078C00602D42046C046C0460F987D
:10152000002805D06268A1689047206A401C2062AC
:101530002078C00625D52046C046C04621E0002EB2
:1015400007DB0E98B04204DD03A86268805DA168E5
:1015500002E06268A16830209047206A761C401C37
:1015600020620098401E002800900AD100F002F985
:10157000C06862680168405CA1689047206A401CAE
:10158000206228466D1E0028D9DC07E062683878A2
:10159000A1687F1C9047206A401C20620B99481E5E
:1015A00000290B90F2DC2046C046C046032042E6EC
:1015B00001FCFFFF104D0000E1DFFFFF01694A1C45
:1015C00002610878704700B58FB002910021059143
:1015D0000549019379440391114604906846FEF74A
:1015E00047FE0FB000BD0000E5FFFFFF0A68107066
:1015F000521C0A60704710B54369002B02D0C046E8
:10160000C04601E0FEF76AFE012010BD12780146D7
:1016100024310A7000224A700122ECE7116800228E
:10162000D243E8E7084B70B50D467B44FFF7CBFF8C
:101630000446284602F04CFD002802D00020C0439A
:1016400070BD204670BD0000A72A0000014680083A
:10165000081A02091018020A1018020C1018C00803
:10166000820012185200891A01E0401C0A390A2926
:10167000FBD27047F0B53D4B02460C461C400020A3
:10168000002C63D03A4D8B4366D000296BDB0B0DE9
:101690001D05A94301252D0529430124FD33E34000
:1016A00001D392184941FF3381339C468B02940D3C
:1016B0000121234389074C42920200271B198C10F9
:1016C0005D1A04D42D1B02D42B46650049199218CB
:1016D0005B416408F4D15C1A08D40125ED07EE17CC
:1016E0005519744102D42A462346491C94185B417B
:1016F000012292071D46E61B8D4106D4B61A85418C
:1017000003D42B46550034467F1924195B415208F7
:10171000802AEFD1234300D0022338460A22D0404A
:1017200001D3012213438A0510436246890A120538
:101730008918002B09D00122D34002D30022401C7B
:101740005141002B01D140084000F0BD0B03134371
:1017500007D0C90FC907F0BD0803104303D1002902
:1017600001DB1046F0BD00202946F0BD0000F07FEF
:101770000000F87F00487047A00100200048704733
:10178000800100200B4670B5024689078008084397
:1017900019469D08141AA941250908070543080997
:1017A0002C194841250A01060D43010A2C19414113
:1017B000200C0D0428430D0C00194D410021401947
:1017C0004D41C00869070843E908840F8D0025438F
:1017D000840024184D4124196D41121BAB4107E0D0
:1017E0000925ED432C11521963410024401C61412D
:1017F0001C460A250026551BB441F1D270BD0000DD
:10180000F8B51F46044601230068DB0203260146A3
:101810001840072A05DB002801D017A506E017A508
:1018200004E0002801D016A500E016A51020814391
:101830002160A069C01E002FA06101D0401EA061E0
:101840002046C046C046002F09D038466268A168CD
:101850009047206A401C2062C01C206206E0206A7B
:10186000FAE762682878A1686D1C9047761EF8D266
:101870002046C046C046F8BD4E414E006E616E0027
:10188000494E4600696E6600F7B516468AB0334881
:1018900078446C4603467C33C06F5A689B680DC41D
:1018A0002E487844763003AC0DC80DC43720C001F3
:1018B000081837211B30FEF7F2FD05460C46803D27
:1018C0001B3C02D56442012000E000200027099063
:1018D00010E0E0070CD00C202049784379443246D0
:1018E0004C3941186846012300F054FA6B4607C38F
:1018F00064107F1C002CECD1184F7F442E3F16E063
:10190000E80712D02001C0190EC80691089307926B
:101910000068F04201D1981908903246012306A9C7
:1019200003A800F037FA03AB07C36D10641C002D49
:10193000E6D10998002806D032466946012303A85B
:1019400000F07EFA05E001233246694603A800F064
:1019500021FA0A9B07C30DB0F0BD0000102B000058
:10196000034640000A4610B5400D0BD00121C907BF
:101970000F24A40200191C0364082143540D2143C1
:10198000D20207E000210120F2E7D40F49002143F1
:101990005200401E0029F8DADB0FDB07184310BDA8
:1019A000FFB50D46144685B04868516802F04AFC00
:1019B00000910190A868A16802F044FC0291039094
:1019C000A868616802F03EFC029A121882420292F4
:1019D00001D2012000E00020019A0B18D218002843
:1019E000019202D08A4202D903E08A4201D2012048
:1019F00000E000200099081800906868A16802F0D3
:101A000021FC029A12188242029201D2012000E0C7
:101A10000020019A0B18D2180028019202D08A42A5
:101A200002D903E08A4201D2012000E0002000999F
:101A300008180090286821684000490040084908BB
:101A40004018FA49471814E001994000C90F0843AB
:101A50000090019802994000C90F08430190029834
:101A600003994000C90F08430290039840007F1E6D
:101A7000039000980028E7DA0898002801D0EC4E7F
:101A800000E00026B74201DA012000E00020002833
:101A900004902AD0F71BF806C00E15D0029B202117
:101AA000091A039A8B401A430392029A019BC2407F
:101AB0008B401A430292019A009BC2408B400099CE
:101AC0001A430192C14000917B110DD06F46032053
:101AD000C11A03D500218200B95003E08A008100B9
:101AE000BA587A50401EF3D5374603980299002819
:101AF00000D00120014308980291002808460CD02C
:101B0000002800D001200199019A490508430121CC
:101B1000D20AC902D202019200E001210E9B0122E9
:101B2000D207012B02D0002B03D013E0002807D1ED
:101B300020E0904204D890420CD1019B0B4209D086
:101B4000019B5918019105D10099491C009101D1BF
:101B50007F1C009200280DD0102108460020C046AE
:101B60000498002806D00F98002803D008210846C2
:101B70000020C04628682168019B009A4840C10F98
:101B80000598C90739430EC009B0F0BDFFB587B04D
:101B9000099A089808995368926840688968964637
:101BA0000022039317469446089A12685300099A34
:101BB0005B081268520052089A1A9E4BD4180A9A6F
:101BC000002A01D0352200E04022069200220123A3
:101BD00015460492DB07059324E0002D05D17546D8
:101BE0000346039E4D1BB34109D375466646039BCE
:101BF000491B049D9841059B7519AC465F4163469E
:101C00003B4308D0059B049EDD0776082E435B0806
:101C10000496059301E0521E641EC50FED07491896
:101C20004041521C069B9A42D7DB002D04D17546D9
:101C3000039A6B1A824101D203200CE0039A0B46EF
:101C40006B404240134303D0014303D0012002E024
:101C5000022000E0002061460191002100970291DE
:101C60000A99002905D0614640020143704B019159
:101C700002E08007002302909C4201DA012000E08C
:101C8000002007003AD01A1BD006C00E15D0029DC6
:101C90002021019C091AC5408C402543029C8C40A0
:101CA00000D001242543019C0295009DC4408D4035
:101CB00000992C430194C140009154111DD06D46F0
:101CC0000221002202290CD10320001B07E000287A
:101CD00004DB8600AE59002E00D00122401C0328F0
:101CE000F5DB081B02D588002A5004E08000285844
:101CF00010438A00A850491EE3D51C460A980028C4
:101D000002980CD0002800D001200199019A4905C1
:101D100008430121D20AC902D202019200E0012146
:101D2000109B0122D207012B02D0002B03D013E01D
:101D3000002807D11FE0904204D890420CD1019BAB
:101D40000B4209D0019B5918019105D10099491CFA
:101D5000009101D1641C009200280CD0102108468B
:101D60000020C046002F06D01198002803D008217B
:101D700008460020C04608980999019A009B00680F
:101D800009684840C10F0798C907214382600AC00B
:101D90000BB0F0BD00B585B0019300920A46014634
:101DA000002302A8FFF7FCFD02A807C805B000BD8C
:101DB000FFB50A461F4685B007990193012300919C
:101DC000014602A8FFF7ECFD02990398049ECA0F92
:101DD0004900D20700920F22490892028C1A002172
:101DE000002800DB0C46450013486D08844214D3DC
:101DF000079A002A04DA441E0026104DF64302E03A
:101E000004460D460E46102108460020C046002F0D
:101E100003D0042108460020C0462005E90A0843F3
:101E2000009908436905F20A1143ADE602C0FFFFBD
:101E3000013C0000FF3F0000FF070000FFFFFF7FA5
:101E400000B585B0019300920A460146002302A81E
:101E5000FFF79CFE02A807C8A8E7FFB50A461F4681
:101E600085B00799019301230091014602A8FFF76D
:101E70008DFE02990398049ECA0F4900D207009272
:101E80000F22490892028C1A0021002800DB0C4620
:101E9000450011486D08844214D3079A002A04DAD9
:101EA000441E00260D4DF64302E004460D460E4644
:101EB000102108460020C046002F03D00421084608
:101EC0000020C0462005E90A084300990843690537
:101ED000F20A114358E60000FF070000FFFFFF7FF2
:101EE00000487047800100207546FFF7F9FFAE46B5
:101EF000050069465346C008C000854618B020B5A5
:101F0000FEF782F960BCB64600260027C0C5C0C5F2
:101F1000C0C5C0C5C0C5C0C5C0C5C0C5403D4908D5
:101F200049008D46704710B50446C046C04620465D
:101F3000FEF71DF910BD0000024670B50A43920776
:101F40002AD11E4DEE0104C808C9541B94433440E5
:101F500017D0D0B2D9B2401A2106014310D190B2A5
:101F600099B2401A210401430AD110021902000A51
:101F7000090A401A2102014302D1100E190E401A1B
:101F800070BD9A42DFD010BA19BA884201D9012037
:101F900070BD0020C04370BD02780B78401C491C06
:101FA000002A09D09A4207D102780B78401C491CBC
:101FB000002A01D09A42EFD0D01A70BD0101010170
:101FC00001491820ABBEFEE726000200704770B53D
:101FD0008C180578401C6B075B0F01D10378401CFF
:101FE0002A1106D10278401C03E00678401C0E70CE
:101FF000491C5B1EF9D12B0705D40023521E0DD4BA
:102000000B70491CFAE70378401CCB1A921C03E0C2
:102010001D780D70491C5B1C521EF9D5A142D8D306
:10202000002070BDF8B520484068342800D2FEE793
:102030000020204B204D14E01C4909184C68896889
:102040006742E243A1423E4600D816468919184E1F
:10205000315019184968A14200D81746C9192950AA
:10206000001DC428E8D112486D46294601F0E6FF5C
:102070000346009A0C4C083410A12046FEF7E4F801
:102080000521204600F0A4FC0B48294601F0D6FFAC
:102090000346009A0DA12046FEF7D6F807212046F8
:1020A00000F096FCF8BDC046E00100204804002086
:1020B000B00200207C030020140500205065723D12
:1020C00025642020524D533D256400005769643D2E
:1020D00025642020524D533D2564000010B5444234
:1020E00044410C70022806D3032807D0022807D1E8
:1020F0000120107010BD0020107000E00120187049
:1021000010BD000080B516480068FF2100F005FAF8
:10211000002080BD704700207047000010B51049B6
:102120008A684B681C6814431C600B68034919607B
:10213000C1B20122184600F04AFA10BDA1AA558585
:10214000002901D10C2100E00821054A12685050F5
:102150007047C046024909684A6842404A60704771
:10216000484400000146144A105C002801D00023B6
:102170005354002800D001207047C04670B50D4D63
:102180000D4E0EA410E00068C1B24E29304606D0B4
:10219000452903D0432904D1701C00E0B01C012262
:1021A00002702046FEF742F8286800688169C90677
:1021B000E9D570BD70010020AC02002025630A0043
:1021C00070B511490C68114B1C4002021518060429
:1021D000AD190006281804430C600C691C40044328
:1021E0000C610C6A1C4004430C624868084B1840A0
:1021F000104348604869184010434861486A1840D5
:102200001043486270BDC04604110040F8F8F8F869
:10221000F8F8FFFF80B50078FFF7D2FF80BD00001F
:1022200080B5002801D001F0A1F80148006880BD08
:102230000000002070B51C4615460646244802687A
:102240000F2010400B2800D30B20A84201D1022000
:1022500070BD626823780846194600F09BF8002894
:1022600014D0049861780818C1B2E3682246083295
:10227000304600F0D9F800280AD0059B218A123494
:102280002846224600F006F8002070BD012070BDEF
:10229000032070BDF8B50C4605460D4E0D4F002BC2
:1022A0000AD01046FFF7B6FF0F2005403560706872
:1022B000384020437060F8BD0F20054035607068DD
:1022C0003840204370601046FFF7A4FFF8BDC046B9
:1022D000040000400000FFFF81B00090009800283B
:1022E00003D00098401E0090FBD101B07047000061
:1022F000B0B50D2803D1084600F038F8B0BD02464D
:10230000052803D8900011A10858B0BD0D48072A30
:1023100016D80D490C68A10F022911D86004450E8A
:1023200000D10225600F00F01BF868430F21214007
:10233000491CFEF7AAF8E106C90F491CFEF7A5F8EB
:10234000B0BDC04600127A007800004000127A004A
:1023500000127A0000127A00409C00000080000009
:102360008000014908587047A445000080B5002846
:1023700001D000F0FBFF0148406880BD0000002054
:1023800010B50446000FFFF7B3FFA1B2491CFEF7DA
:102390007CF810BD80B502290AD001290AD0002995
:1023A00012D10321090703688B430360012107E071
:1023B000072105E00121490703688B4303600321DE
:1023C000C90603680B430360114600F001F880BDA5
:1023D00080B50A46034908600349104601F00AFE29
:1023E00080BDC0464802002015400000B0B503681B
:1023F00054780F2525400B4C1C40490709194919F1
:1024000013785B065B0CC9189278D207D20E891834
:102410000322D2060A4302600122D2068918016013
:10242000B0BDC046E080FF17B0B51C460546FFF7BB
:10243000DDFF2846214600F001F8B0BD80B50A4610
:10244000034908600349104601F0D4FD80BDC04631
:102450004C02002029400000F0B58CB003460A462B
:1024600010320B920A460C320A920A46083209923E
:102470000A1D08920A461832079206920A4614323A
:10248000059204920A6802430A6000210A460291FA
:102490000B4629E00192D107CC0E0093990004ADC0
:1024A0006A18039208AE76180027029913E00122F9
:1024B0008A4002420CD00F22BA4033681D6815438F
:1024C0001D600322A240039B1B681D6815431D600D
:1024D000491CA41C3F1D202FE9D10299083102910B
:1024E000019A521C009B5B1C042BD3D10CB0F0BD95
:1024F000F0B593B014460D4606466F464C2138465B
:10250000FDF7C1FF284621463A4600F069F83046FB
:10251000394600F076F913B0F0BD70B588B00D46BD
:10252000044601AE1C213046FDF7ADFF284631467A
:10253000FFF792FF0198E06360616065069921668C
:1025400007996166E0600299A1620399E1620499CA
:102550002163059961636064E06408B070BDFEB5F5
:1025600016460C460546089A01AF304619463B46CA
:1025700000F04DF9284621463A46FFF7B9FFFEBD67
:1025800091705070012010707047F0B595B01E46E4
:1025900017460C46019002AD4C212846FDF773FF0B
:1025A000684605601A9B20463946324600F0C4F85A
:1025B00029461C3101982A4600F03CF915B0F0BDBF
:1025C0001CB56C4623600023FFF7C9FF1CBDE0B5B6
:1025D00001AB9A7001221A800022FFF7F1FF8CBD37
:1025E000F0B598B0034610463030179010462C30A6
:1025F000169010462830159010462430149010463E
:102600001030139010460C30129010460830119084
:10261000101D1090104648300F900E901046443018
:102620000D900C90104618300B900A901046143004
:1026300009900890106818431060039108780021F1
:1026400001280793184600D00846D3690343D36195
:10265000039840780128079800D00846136A03437E
:1026600013620398C0780128079800D00846536B7E
:1026700003435363039800790128079800D0084664
:10268000936B03439363039840790128079800D024
:102690000846D36B0343D3630398807901280798D6
:1026A00000D00846136C034313640E460A463EE00E
:1026B0000291C807C50E0092920008A880180690E3
:1026C00010AB981805900CAB9818049014ACA21895
:1026D0000024019623E00120B040079908421BD056
:1026E000039B9878A04011680F6807430F60D87962
:1026F000A840049909680F6807430F600F20A040A5
:10270000059909680F6807430F600320A8400699E0
:1027100009680F6807430F60AD1C761C241D202C30
:10272000D9D10299491C019E0836009A521C042AEC
:10273000BED118B0F0BD0000F0B501263546854089
:10274000059C676B2F436763012900D800268640EC
:10275000A76B3743A763E76B3743E7634E424E41AE
:102760008640216A31432162216829435D782160D6
:102770008540216C29432164C508032D27D84107D2
:10278000C90EC0467D442D796D00AF4401070E157A
:102790008A40656A15436562221D13E08A40A56A76
:1027A0001543A562224608320CE08A40E56A1543CB
:1027B000E56222460C3205E08A40256B154325630D
:1027C000224610320F258D401168294311600109FE
:1027D0000007C00E012908D0002911D19978814045
:1027E000626C0A436264143405E099788140A26CFB
:1027F0000A43A26418340321814020680843206002
:10280000F0BD80B50A461C3100F014F880BD70B5EB
:102810001C4615460E46591C1A1D5B1DFFF75EFC33
:10282000A670002020702878E0706878A071A878E1
:10283000E07170BD1368C363136843611368436537
:1028400053690366936943661368C3605368836280
:102850009368C362D3680363136943631368436473
:102860001268C2648A688261CA68C2610A690262C7
:102870004A694262CA6902640A6A82644A6A0265F3
:102880008A6A8265CA6AC2650A6882604A680261A9
:102890008969816370470000B0B50D460124204668
:1028A000FFF7BEFC4E480570002D06D04B20C0013E
:1028B00040220423214600F033FCB0BD10B50A28A5
:1028C0002DD8C046784400794000874405070E1093
:1028D000121A1C1E2022240039A00BE031A0002473
:1028E000214600F075F833A009E02AA014E026A0E4
:1028F00012E020A00024214600F06AF82148214679
:102900000BE018A008E013A006E00EA004E00AA067
:1029100002E006A000E002A0002100F059F810BD7E
:10292000436F756E7420455452000000434150209F
:10293000436F756E7400000043415020506572690A
:102940006F6400004341502053696D706C6573746F
:102950000000000050574D2045545220262042527E
:102960004B00000050574D2077697468204454474D
:102970000000000050574D2073696D706C657374D2
:1029800000000000D845000050756C736520576941
:1029900064746800436173636164652054696D65A4
:1029A00072000000436F756E742054696D436C6F44
:1029B000636B0000416C6C2044697273000000007E
:1029C00053696D706C6573742054696D6572000095
:1029D00080B503490978002901D0FDF7DFFC80BDEF
:1029E000A40200200020704700207047B0B54A685C
:1029F000002A35D01368002B07D01C785D78AD0015
:102A000025439B781B012B4343605368002B0AD05E
:102A10001C7824025D78AD02254344682C439B78E2
:102A20001B03234343609368002B07D01C785D7819
:102A30002D0125439B781B022B4383600468137B85
:102A40001B0323430360527B002A03D0212212027E
:102A5000134303604B689A68002A05D0032204E000
:102A600009224260022209E002221C685B68002CF5
:102A700002D19400641C4460002B09D10B78002B18
:102A800006D0436892021A4301231B02134343609A
:102A90004978C900C160B0BD02695204FCD401602C
:102AA000704780B502684068012181401068FFF7D7
:102AB00034FD80BDB0B50122D20300290DD00C79C0
:102AC000CB789B061B0E23430C788D782D01254374
:102AD0004978890129430A4300E005230021016068
:102AE00001660163026103650162B0BD7FB51E46E8
:102AF00015460446002003900290019000900029A2
:102B000007D06846FFF772FF0199039A0298009B6D
:102B100004E0082203923F490191034626602063A6
:102B2000680218432061226521627FBDF0B585B03F
:102B30001E46154604460020049003900290019022
:102B40000A9F002909D001A8FFF750FF0420049A2A
:102B5000024302990398019B05E0082104912D4945
:102B600002910C2203462660276620636802184300
:102B700020612265216205B0F0BDC046BCB50446A7
:102B8000002001AD2A46FFF7FBFC206881684268FF
:102B900013680B431360006804490160237A61687D
:102BA0006A4615600122FFF7F0FCBCBDA1AA55855D
:102BB00070B51D4614460E4600F04CF8754364216E
:102BC0002846FDF762FC01462046FFF765FF70BD11
:102BD00010B50B460446534364211846FDF755FCD7
:102BE00001462046FFF758FF10BD000010B50B4608
:102BF0000446534364211846FDF747FC206000203B
:102C000020630320800220610820206501482062A3
:102C100010BDC04609090000F8B51C4617460D4610
:102C2000064600F073F8B8000949095880200843A7
:102C30000699002903D069460860022302E069462C
:102C40000860002330462946224600F047F9F8BDC7
:102C500094450000C2685207FCD4491E8160704749
:102C6000B0B501680122CA60C3681C68184D2540D0
:102C70001204AC181C6000230B604B608B600B616E
:102C80004B618B61CB610B624B628B62CB620B63DE
:102C90004B638B63CB630B644B648B64CB640B65BE
:102CA0004B658B65CB650B664B668B66CB660B679E
:102CB0004B678B67CB6780240B5184240B5188248E
:102CC0000B518C240B51C068016891430160B0BD69
:102CD0000000FEFF10B5044610202056002809DB36
:102CE0001F2108400121814007480160BFF34F8F39
:102CF000BFF36F8F2046FFF7B3FF6068A1680268DB
:102D00008A43026010BDC04680E100E080B54168A2
:102D100082680B6813430B60FFF7A2FF80BD0000C1
:102D2000F8B50C460546887F00900F7F4E7F2846F9
:102D3000FFF7ECFFB00016490858012189023A025A
:102D400051180143009803010B43224610322846D4
:102D5000214600F033F8F8BDF8B50C460546887FEB
:102D600000900F7F4E7F2846FFF7D0FFB000084944
:102D700008580121C9023A02511801430098030181
:102D80000B43224610322846214600F017F8F8BDC2
:102D9000D0450000B0B50C460546FFF7B7FF2868E0
:102DA000A18B4160A07F80004B490B582246103216
:102DB0002846214600F002F8B0BDC046F0B50468D0
:102DC0004D686D1EA56004688D68256004681568EF
:102DD000A5650C7B012C00D003241C430368DC6038
:102DE000036800245C65137A002B2CD01023C35693
:102DF0005268002B16DB03251C46AC43E74D665991
:102E00009F07FF0EFF25BD40AE439201D2B2BA40EC
:102E10003243E24D62511F221A4001239340E04A9F
:102E2000136010E09C07E40EFF26A6400F251D400E
:102E3000083D03239D43D84BEF58B7439201D2B2CC
:102E4000A2403A43EA500978C0680268334B134005
:102E500059180160F0BDC046F8B51C4617460D462E
:102E60000646FFF753FF306847600698002804D0F5
:102E7000002069460860022302E0002368460360E0
:102E800030462946224600F029F8F8BD7CB5079C5B
:102E9000069D002D02D06D46022601E06D460026FB
:102EA0002E606C6000F002F87CBD0000F8B51C4696
:102EB00016460D460746FFF729FF38684660079813
:102EC00080000549085869460860069B384629462F
:102ED000224600F003F8F8BDC4440000B0B5046811
:102EE000521EA260026893650122049C1443056887
:102EF000EC60046800256565002B08D01023C356DC
:102F0000002B04DB1F2423409A40A54B1A60C068A5
:102F10000268024B134059180160B0BD0000FFFF6A
:102F20000168CA6801239A43CA601904C06802682C
:102F30008A43026070470168CA6801239A43CA60E5
:102F40001904C06802688A43026070470168CA6851
:102F500001239A43CA601904C06802688A43026068
:102F600070470168CA6801239A43CA601904C0689F
:102F700002688A43026070470168CA6801239A4365
:102F8000CA601904C06802688A4302607047016819
:102F9000CA6801239A43CA601904C06802688A4358
:102FA000026070470168CA6801239A43CA60190425
:102FB000C06802688A43026070470168CA680123DA
:102FC0009A43CA601904C06802688A430260704765
:102FD0000168CA6801239A43CA601904C06802687C
:102FE0008A430260704770B50C46418800888001B2
:102FF00041189000FDF749FA011B64204843FDF792
:1030000048FF05460E462046FDF743FF02460B46A5
:1030100028463146FDF796FC70BD10B50446890878
:103020001046FDF732FA3F210140618080B28009ED
:10303000208010BD4A6842628A688262CA68C262A1
:103040000A6802624A6942638A698263CA69826461
:10305000024A4264096901637047C046FF070000E5
:10306000FEB50C4607461D480068C1680A681C4B3F
:1030700013401C4A9A180A60012100F045F90546E0
:1030800002AE304621462A46FFF7C7FF13480068C4
:103090003946324600F04CF91348009078684007F2
:1030A00001D5002000E0114801906846022100F09F
:1030B0008FF8304621462A46FFF795FF05460E4613
:1030C0000BA0FDF76BF911A02146FDF7AFF81348EF
:1030D0002A463346FDF7AAF8FEBDC046700100201F
:1030E0000000FE0F000001D0DC440000D0440000CE
:1030F00057656C6C636F6D6520746F205541525439
:103100002044656275674F757421000042617564E3
:10311000526174653A2025640A000000E54500000C
:10312000F0B589B00C46014607AF7B713B71079241
:1031300001A80125857003260680002206920592CB
:103140000492039702922246FFF78AFF1148006813
:103150001021405600280FDB0146B1430F4A8B581F
:103160008407E40EFF26A640B3438B501F21014085
:103170008D400B4805600BE08107C90EFF228A4095
:103180000F2101400839B14303480B5893430B50BA
:1031900009B0F0BD700100201CED00E000E400E08B
:1031A00000E100E0F0B589B014460D46064601AFD7
:1031B00020213846FDF767F9284621463A4600F0B7
:1031C00035F830463946FFF735FF09B0F0BD00004D
:1031D0007CB50446002001AAFFF7D2F92168994D79
:1031E00000290FD00868826843681E6816431E6075
:1031F000006805600B7A496801AA6E4632600122B8
:10320000FFF7C3F9616800290FD008688268436836
:103210001C6814431C60006805600B7A496801AAA9
:103220006C4622600122FFF7B0F97CBDB0B50B8877
:1032300053604B882D4911613F241C4094604378B2
:103240009B002BA4E45883781D0103789B075B0E39
:103250002B432343D3600478042C03D1012424029C
:103260002343D3604468002C16D009252C40234307
:10327000D36043689C0702D52249116143685C070B
:1032800005D501231B025B1C194011614368DB0655
:1032900002D58023194311618368002B0AD01B6873
:1032A000936183685C79072525401B795B079B0E3A
:1032B0005B1953610369002B09D01B789B001943EC
:1032C00001230B43136101690979116000E00B468A
:1032D0004169002903D00968890259181161C06841
:1032E000002801D00068D061B0BDC04601030000D5
:1032F0000000000002000000060000008200000044
:10330000860000000102000010B504460648201A9D
:10331000421E90418000054A8058FFF731F8E1686D
:10332000096889B2884010BDB0440000880100409F
:10333000B0B58368446825681D4325600068FFF7C1
:1033400031FFB0BD10B50246044C05A12046FCF784
:103350007BFF05212046FFF73BFB10BD2802002024
:10336000506572696F643D2564000000B0B51C4C67
:1033700022680F210A40072A03D8900019490858EB
:1033800024E033480A2A21D8092A04D00A2A05D180
:1033900022469C3204E02246883201E02246743202
:1033A0001568AA0F022A11D86804420E00D1022221
:1033B000680F80000B4B185850432940491CFDF7FB
:1033C00064F8E906C90F491CFDF75FF861681F4CF6
:1033D000606089B2491CFDF758F82060B0BDC04656
:1033E00004000040A445000010B51548154A0260CD
:1033F00001210B0704691C430461046A1C43046235
:10340000046B1C43046389070A60CB6808241C43CF
:10341000CC600D490A6000224A658A65CA650A6661
:103420004A6604E08B180024E4431C62121D342A0F
:10343000F8D100220A60026004480549016010BD0D
:10344000F0100040A1AA5585003000400000002087
:1034500000127A0080B513480068800012490858AD
:103460004069804780BDC04680B50E480068800036
:103470000D4908588069804780BDC04680B509481D
:103480000068800008490858C069804780BDC04670
:1034900080B504480068800003490858006A8047E6
:1034A00080BDC046A8020020F445000001200004B1
:1034B000D349C9680A6802430A60D349C9680A68DF
:1034C00002430A60D149C9680A6802430A6070472A
:1034D00010B5CB48034CA047CB48A047CB48A047EA
:1034E00010BDC046D12F000010B50C4C2168032937
:1034F00001D3491E21600A48024610323223FFF7E9
:1035000057FB2068FFF71EFF18480021416001208B
:10351000400317490A6802430A6010BD7401002085
:1035200000C00840B0B5064C2578002D02D0FFF74A
:10353000CFFF01E0FFF7BAFF012045402570B0BD85
:103540007803002070477047704770477047704796
:103550007047704770470000044800214160012017
:10356000400303490A6802430A607047E0010020F3
:1035700058A00840B0B50C4D28780A30C1B2642973
:1035800000D900202870C2B2E120840007482146FB
:10359000FFF71EFB28786421081AC2B204482146AE
:1035A000FFF716FBB0BDC0467801002010C00840F0
:1035B00014D00840B0B5954C2046FFF7B1FC904DB3
:1035C0002846FFF7ADFC7F48FFF76BFA6048FFF72E
:1035D00068FA2846FFF77EFB2046FFF77BFBFFF7E4
:1035E00003FAB0BDB0B5894C2046FFF7A4FC844D6A
:1035F0002846FFF7A0FC7348FFF753FA5448FFF73B
:1036000050FA2046FFF766FB2846FFF763FBFEF7FC
:1036100079FDFFF7E9F9002801D1FFF7E3F9B0BD23
:10362000F8B539480C4CA047784D2846A047764E4F
:103630003046A047724F3846A047724C3846A047E4
:103640003046A0472846A0472F48A047FEF75AFD1E
:10365000FFF7C8F9F8BDC0464D2F0000F8B5684C1B
:103660000C4F2046B847684D2846B847674E30464D
:10367000B847644F2046B8472846B8473046B84751
:10368000FEF740FDFFF7B0F9002801D1FFF7AAF9D6
:10369000F8BDC046632F000070B55C4C2046FFF7B4
:1036A0006BFC194D2846FFF767FC4648464EB0476D
:1036B0004648B0471548B0471548B0472046FFF781
:1036C00009FB2846FFF706FBFFF78EF970BDC046E1
:1036D00070B54E4C2046FFF75AFC0B4D2846FFF7BD
:1036E00056FCE448384EB0473848B0470748B04722
:1036F0000748B0472046FFF7EDFA2846FFF7EAFAF9
:10370000FFF772F970BDC0469C44000030450000D0
:103710003C450000B0B5D64C2046FFF743FCD64DE3
:103720002846FFF73FFCD348FFF7BBF9D448FFF723
:10373000B8F92046FFF7CEFA2846FFF7CBFAFEF796
:10374000E1FCFFF751F9002801D1FFF74BF9B0BDBB
:10375000E8440000B0B5C84C2046FFF72EFCC44D2D
:103760002846FFF72AFCC348FFF79BF90648FFF7F6
:1037700098F92846FFF7AEFA2046FFF7ABFAFEF7B6
:10378000C1FCFFF72FF9B0BDF4440000B0B5E14C27
:103790002068C16801229143C1601004E1680A6891
:1037A00082430A60DC48084DA8470848A8470848F3
:1037B000A8470848A8472046FFF78CFAFFF714F9F6
:1037C000B0BDC04600450000A32A00001845000017
:1037D0000C4500002445000010B5FFF779FED048E5
:1037E000084CA0470848A047CA48A047FEF78AFCF3
:1037F000FFF7FAF8002801D1FFF7F4F810BDC04632
:1038000060440000D52C000074440000884400008F
:1038100080B5734802680168920605D4890406D50C
:1038200001214A03016800E0202291430160012048
:10383000FEF790FC80BDC04680B569480168022251
:10384000914301600120FEF785FC80BD80B564488E
:1038500001680222914301600120FEF77BFC80BDDC
:1038600080B541490A68022082430A60FEF772FC73
:1038700080BDC04680B53C490A68022082430A6088
:10388000FEF768FC80BDC04680B537490A68022053
:1038900082430A60FEF75EFC80BDC04680B550489A
:1038A0000168890706D50168022291430160012061
:1038B000FEF750FC80BDC04680B549490A6801202A
:1038C00082430A60FEF746FC80BDC04680B544488E
:1038D00001680222914301600120FEF73BFC80BD9C
:1038E00080B50F490868800705D50A680220824321
:1038F0000A60FEF72FFC80BD80B5094801680322ED
:10390000914301600220FEF725FC80BD80B504498B
:103910000A68022082430A60FEF71CFC80BDC04694
:1039200054B0084080B510480168890706D5016881
:103930000222914301600420FEF70CFC80BDC046CA
:1039400080B5094801680222914301600420FEF716
:1039500001FC80BD80B504480168022291430160EA
:103960000420FEF7F7FB80BD54C0084080B5064830
:103970000168890706D50168022291430160082089
:10398000FEF7E8FB80BDC04654D00840B0B51448EF
:103990000168890417D5014644390A6839494B68DA
:1039A0009C00104D2A51C2690F4D2A515B1C4B607F
:1039B0000E4A342B04D343681340436001230B7039
:1039C00001681140016010209E490856002805DB5F
:1039D0001F2108400121814005480160B0BDC0465B
:1039E00054A00840480400207C030020FFDFFFFFB4
:1039F00080E200E0FEB50820FEF760FF1B4C206867
:103A0000FFF7A0FC2368002568460560D8482946D2
:103A10002A46FFF721FA2168D6483222FFF7E6F856
:103A2000D54802263146FFF7A9F86846012461030C
:103A300022C0EB43834F384629462A46FFF736FA21
:103A400038480E49FFF736F837483146FFF796F801
:103A50000C4845602004F9680A6802430A60E84996
:103A6000C9680A6802430A60FEBDC04674010020AE
:103A70008844000000450000604400004845000004
:103A8000E8440000E0010020F0B585B00720FEF713
:103A900015FF03252846FEF741FB00242846214652
:103AA000FEF74EFB01210491684601607D20C200B3
:103AB00003924701D248042529463B46FFF7CCF93B
:103AC000D04832223946FFF791F8CF4802263146D6
:103AD000FFF754F86846446010490160CB48294616
:103AE000039A3B46FFF7E2F9CA482146FEF7E2FF98
:103AF000CA483146FFF742F804980004E449C9680F
:103B00000A6802430A60E349C9680A6802430A6016
:103B100005B0F0BD884400000045000020200000F2
:103B20006044000010A00840E8440000F8B50224FA
:103B30002046FEF7C3FE0F252846FEF7EFFA0027C2
:103B400028463946FEF7FCFA0125684605607D20C7
:103B5000C2004301CF4804263146FFF77DF968468D
:103B600005603A4831463A462346144FB8476846FE
:103B70000560C74831462A462346104FB847684675
:103B800005607E4F38463146224623460B4CA047FF
:103B90002804C049C9680A6802430A602B49C968F9
:103BA0000A6802430A60E549C9680A6802430A6074
:103BB000F9680A6802430A60F8BDC046192C000083
:103BC000F0B589B001242046FEF778FE0F26304676
:103BD000FEF7A4FA002530462946FEF7B1FA01AEF9
:103BE0003476357304203070B4777D20C100B18302
:103BF00003954001029006950594EF48124A31461C
:103C000090470227B77703200590ED4831460E4ACA
:103C10009047B5770597EB4D284631460A4A9047BD
:103C20002004E549C9680A6802430A60E449C96892
:103C30000A6802430A60E9680A6802430A6009B038
:103C4000F0BDC04660440000952D000074440000A3
:103C5000FEB50320FEF732FE0021029168460160A6
:103C6000E1208600D7480225642729463A46334694
:103C7000FFF7F2F818480278B1483146FEF7B6FF70
:103C8000B048B14C2946A047B0482946A0476846ED
:103C900002990160394C204629463A463346FFF7DF
:103CA000DBF80D480078381AC2B235483146FEF7C5
:103CB0009DFF34482946A44EB04733482946B047B3
:103CC00001200004BF49C9680A6802430A60E1682C
:103CD0000A6802430A60FEBD78010020F0B587B093
:103CE0000420FEF7EBFD02246846002606604460CF
:103CF000E12083000693B348642204922146FFF733
:103D0000C5F84B25AB0005938D480322039231463D
:103D1000FEF7ECFE8B488C4F2146B8478B48214676
:103D2000B847684606604460144F38462146049AF6
:103D3000069BFFF7ABF8E80069460860104831467B
:103D4000039A059BFEF7F2FE0E4821467E4DA847DA
:103D50000D482146A847012000049A49C9680A680D
:103D600002430A60F9680A6802430A6007B0F0BDBE
:103D70008844000010C00840004500009C4400003A
:103D800014D00840304500003C450000F8B509203B
:103D9000FEF794FD03242046FEF7C0F900212046DB
:103DA000FEF7CEF90127684607607D20C200450175
:103DB000844C042120462B46FFF74EF860483222FF
:103DC0002946FEF713FF5F4802252946FEF7D6FE77
:103DD000794E0F493046FEF7A3FF0E480E49FEF715
:103DE00069FE0E482946FEF7C9FE3804F1680A68E4
:103DF00002430A60E1680A6802430A60F8BDC046EF
:103E00008844000010C008400045000060440000E5
:103E10005445000010A008404D450000E844000053
:103E2000F8B50A20FEF74AFD03242046FEF776F98E
:103E3000002520462946FEF783F9012468460460E0
:103E40007D20C2004601F84804213346FFF704F8FC
:103E50003B4832223146FEF7C9FE3A480226314637
:103E6000FEF78CFEF34F0C493846FEF775FF3868B5
:103E700005650A483146FEF781FE2004F9680A68A4
:103E800002430A60E849C9680A6802430A60F8BD4B
:103E9000884400006044000074450000F4440000C1
:103EA000F0B58BB02348016840680990089122481A
:103EB000817807ACA170017840780002401820801A
:103EC000002506950595049503950520FEF7F6FC5B
:103ED00003A80990059468460560E124A300D24830
:103EE000022664223146FEF7B7FF630002931448AE
:103EF00008A906242246FEF7F9FD1248124F314662
:103F0000B84712483146B8470D48001D2946224699
:103F1000029BFEF7EBFD0E483146B8470D4831468F
:103F2000B84701200004C049C9680A6802430A6012
:103F30000BB0F0BDC84500003844000088440000C4
:103F400010C00840004500007D2B0000184500000F
:103F50000C45000024450000FEB500242046FEF775
:103F6000ADFC0F252846FEF7D9F828462146FEF776
:103F7000E7F80127684607607D20C50043010193EB
:103F8000AC48042631462A4602950C4CA0476846A8
:103F900007600B4831462A46019D2B46074CA04737
:103FA00068460760A0483146029A2B46A047FFF7B3
:103FB0007DFA05480770FEBD60440000592E0000E0
:103FC00074440000884400007803002010B5044CBD
:103FD0002078012803D1FEF725F80020207010BDBD
:103FE000E001002080B5FEF7C9F880BD80B5FEF77E
:103FF000C5F880BDB0B50C4601460D46A047002D62
:1040000002D0691E0028F8D0002D00D001252843D9
:10401000B0BD00000120000502490968096901409E
:10402000080D704748020020012000050249096878
:1040300009690140080D70474C020020F8B5009155
:10404000044600252F462E460BE06059FCF721FF61
:1040500002460B4638463146FCF744FC07460E46FE
:104060002D1DC02DF1D10025184B384631462A466A
:10407000FCF768FC06460F46FCF7BEFE0099086098
:1040800030463946FCF782FE00902F462E460EE061
:1040900060590099401A4043FCF7F3FE02460B4674
:1040A00038463146FCF71EFC07460E462D1DC02D36
:1040B000EED10022054B38463146FCF743FC00F0B8
:1040C000EFF8FCF799FE01B0F0BDC0460000484093
:1040D000002070470449096809688A699206FCD47F
:1040E000C2B20A607047C0467001002088B04548DF
:1040F000FEF7F2F803AD44A114222846FCF764F958
:1041000001246846022112C044490846283008228A
:104110002B46FEF78FF82046FEF782F8FCF7B9FE33
:1041200000253F4B2A46FCF7B7FEFF2293052A469F
:10413000FCF7B2FE3B4B2A46FCF704FCFCF75CFEA6
:10414000FDF7E8FF28462146FEF7A6FB3648C16882
:104150000A68364802400D231B07D2180A6034490A
:10416000C9680A680240D2180A603249C9680A68F8
:104170000240D0180860304E3560304800688047F3
:104180002F4F002528462146FDF7C5FF002804D102
:104190000020FDF7E7FF00280ED030688000385877
:1041A000406880473068401C092800D805463560C3
:1041B000A80038580068804701202146FDF7ABFF72
:1041C000002804D10120FDF7CDFF002804D030687D
:1041D000800038588068804702202146FDF79BFF09
:1041E000002804D10220FDF7BDFF002804D030686C
:1041F00080003858C06880473068800038580069AF
:104200008047BEE7C0CF6A00000000000006000043
:104210000A0001000080000000000600500000407D
:104220000000244000408F4088440000FFFFFF0F43
:104230009C44000060440000A80200204C010020C3
:10424000F4450000F8B5040C8BB2264682B25E43FA
:10425000104658430D0C370C3604002180191646C1
:1042600079416E43370C36048019264679416E43F6
:104270008919F8BD4900CA020243100000D0042089
:104280004A0D01D001221043044A490D914201D147
:1042900002210843012800D105207047FF070000D4
:1042A000F8B506460C46FDF7E5F9051E0F4600D0A9
:1042B0000120014349000B484908411AC90F0DD09C
:1042C000002E01D0012100E000210C4361004908CB
:1042D000401AC00F02D10120FCF707FF28463946DB
:1042E000F8BD00000000F07F10B500290AD0087862
:1042F000002807D005487844FDF71EFE002801D0AD
:10430000002010BD0248784410BD000046030000A4
:104310003E03000003B402487844844603BC60476F
:1043200029D0FFFF80807F7E7D7C7B7A79787776CD
:1043300076757473727171706F6E6E6D6C6C6B6A82
:104340006A69686867666665646463636261616020
:10435000605F5F5E5E5D5D5C5C5B5B5A5A5959589D
:104360005857575656555555545453535252525107
:10437000515050504F4F4F4E4E4D4D4D4C4C4C4B5D
:104380004B4B4A4A4A4949494848484747474746A4
:1043900046464545454444444443434343424242E0
:1043A0004241414102400000000000A00000000026
:1043B00005400000000000C8000000000C400000A4
:1043C0000000409C00000000194000000020BCBE1E
:1043D0000000000034400000BFC91B8E0000000434
:1043E000B5400000504BCFD06607E2CF010000007F
:1043F0006C4100003E8251AADFEEA73401000000AC
:10440000D9420000DCB5A0E23A301F97FFFFFFFF62
:10441000B4450000FD25A0C8E9A3C14FFFFFFFFF81
:10442000FF3F00000000008000000000FF3F000090
:1044300000000080000000000B00C80000000840E1
:104440000C00004000200000002008400C0000404C
:1044500000800000004008400C0000400000020006
:1044600000A008400C000040000080003001004027
:104470000C00000000B008400C00004000000001EB
:10448000340100400D00000000C008400C00004056
:1044900000000002380100400E00000000D008407B
:1044A0000C000040000000043C0100400F00000030
:1044B00000900940100000404000000088010040CA
:1044C0001200000000000000080000004000000092
:1044D0005444000010000000050000005444000097
:1044E0000F000000050000003C4400000800000030
:1044F000070000003C440000070000000700000027
:104500003C4400001C000000070000003C44000088
:104510001E000000070000003C4400001D000000D9
:10452000070000003C4400001F00000007000000DE
:104530003C4400001A000000080000003C44000059
:104540001900000008000000000000010100000048
:104550000001000004000000040000000000000052
:104560000000000002000000000000000100000048
:104570000000000004000000040000000000000033
:104580000000000002000000000000000100000028
:104590000000000000010000000200000003000015
:1045A000000A000000127A0000093D0000127A00A3
:1045B00000093D0000127A0000093D00409C000007
:1045C0000080000000000000010100000000000069
:1045D0008000000088000000616E642053796E63E3
:1045E0002052756E00426175644572726F723A2096
:1045F00025660A004C0100207400002050000020B5
:104600002801002098000020040100202C00002038
:1046100008000020BC000020E000002058460000F8
:104620000000002080010000CE1F0000184700009D
:104630008001002060240000040100001C00000034
:1046400043000000F8FFFFFF0C0000000E00000018
:104650000F0000002E0000001123127A190423F528
:104660003923B53523E9341A590823CD3F1A8D145F
:10467000A90423893A1AE51C9A45044B1138045AB7
:104680006108232D3B2321361A471C69041A9D1803
:104690001AE1041A25441A6D041AC1241A5D241A59
:1046A000491C69041AB9201AF9041A412029042363
:1046B000DD3C1AD1241A4D1C091604238D3D231507
:1046C000371A4F0C69041A394429045A75082321F2
:1046D0003E1A55241A511C69041A4D1829045A8986
:1046E000081AA1241A8D241A531C0916041A519071
:1046F0001A99901A750C29040A114B0423593F1A70
:10470000D9481A250C5A55041ACD601A0DD05A559D
:084710000423B04432C87232E8
:04000005000000C136
:00000001FF
