:020000040000FA
:1000000068200020650100006D0100006F01000004
:1000100000000000000000000000000000000000E0
:10002000000000000000000000000000710100005E
:10003000000000000000000073010000D10C00006F
:1000400077010000790100007B0100007D010000C4
:100050007F01000081010000830100008501000094
:1000600087010000890100008B0100008D01000064
:100070008F01000091010000930100009501000034
:1000800097010000990100009B0100009D01000004
:100090009F010000A1010000A3010000A5010000D4
:1000A000A7010000A9010000AB010000AD010000A4
:1000B000AF010000B1010000B3010000B501000074
:1000C00000F002F800F03EF80CA030C80838241800
:1000D0002D18671EA246AB4654465D46AC4201D180
:1000E00000F030F87E460F3EB6460FCC0126334274
:1000F00000D0FB1A3343A246AB461847E40C00007D
:10010000040D0000103A02D378C878C1FAD852071B
:1001100001D330C830C101D504680C6070470000BD
:100120000023002400250026103A01D378C1FBD813
:10013000520700D330C100D50B6070471FB51FBDFB
:1001400010B510BD00F006FC1146FFF7F7FF00F0F8
:10015000DFFD00F01EFC03B4FFF7F2FF03BC00F06C
:1001600025FC00001748804717480047FEE7FEE7D8
:10017000FEE7FEE7FEE7FEE7FEE7FEE7FEE7FEE757
:10018000FEE7FEE7FEE7FEE7FEE7FEE7FEE7FEE747
:10019000FEE7FEE7FEE7FEE7FEE7FEE7FEE7FEE737
:1001A000FEE7FEE7FEE7FEE7FEE7FEE7FEE7FEE727
:1001B000FEE7FEE7FEE7000004480549054A064B56
:1001C00070470000DD0C0000C10000006800002046
:1001D00068200020681000206810002001E004C0A2
:1001E000091F0429FBD28B0701D50280801CC90797
:1001F00000D00270704700290BD0C30702D00270F4
:10020000401C491E022904D3830702D50280801CAA
:10021000891EE3E70022EEE70022DFE77047704720
:1002200070470000F0B5F94D0C091E092C402E4016
:100230002F468BB0A7437DD0B543FCD0002E7AD09B
:10024000002CFCD00D465D40ED0F2543AC1BFF2577
:10025000AD0464190894C502440DC9022143500D30
:10026000DC0204430120C00701430443D202019190
:10027000200C110C00958C46010423468B430A91F7
:1002800061460904E24D8A430991010A7D444919F6
:100290008039097805464D4301266D18F605751B12
:1002A0006943C90C640B891C4C436418B5012C1BB1
:1002B000250C2E04B4434C434D43210C6918890985
:1002C0000591009DE90701D00121C90704912C4641
:1002D00001996708CD072F434C08059DE10B4D435D
:1002E0002D0C29466646754302950D4645432E461C
:1002F000029D7D1BB44100950D465D4301942C0C7D
:100300002F040D465543AE462D0C3D4302950394F4
:100310007546049C2D04641B049406D2029C039D24
:10032000641C002675410395029401AC70CC009FBB
:100330007D1B01E03EE162E1B441090400950791B3
:1003400001940599A4086143090C0C464443650BCC
:10035000E7040C4666467443A646640B3C4303958B
:1003600002947446049DE4042C1B049406D2029C5F
:10037000039D641C002675410395029401AC70CC6A
:10038000009F7D1BB44101940C465C430095650FB2
:10039000E7000C465443A646640F3C430395029481
:1003A0007446049DE4002C1B049406D2029C039D19
:1003B000641C002675410395029401AC70CC009F2B
:1003C0007D1BB441AE09AF06049DC900AD092F43A2
:1003D000049DA406AD060495079D34436918079152
:1003E000059DE10B4D432D0C29466646754302954C
:1003F0000D4645432E46029D7D1BB44100950D469A
:100400005D4301942C0C2F040D465543AE462D0C34
:100410003D43029503947546049C2D04641B04948B
:1004200006D2029C039D641C00267541039502942C
:1004300001AC70CC009F7D1BB44101948C050694E7
:10044000079C890A611800950791019C0599A408E9
:100450006143090C0D464543680BEF040D466446A5
:1004600065436C0B3C43049FED047D1BAC4602D2FC
:100470000025641C6841009E019D371B854108468C
:10048000584301950C46460FC5005443600F28435E
:100490006546E4002C1B02D20025401C6E41019DE4
:1004A0003F1AB5412846BD09800628438446A00965
:1004B000BF064E020699A40676180743079D002042
:1004C00068410A99079019430020099B00906046F3
:1004D000FF1913434041E20F64003A43A446044627
:1004E000D71A8C41A04203D90120009020463A46F9
:1004F000C70F941840416246D20F224364466400FD
:100500000494009CBE466400D71AA4460446029791
:100510008C417746002F01D1A04204D96046401C8F
:100520008446029A2046C40FA64694184041049A75
:100530000546D20F224364466400D31A8D417146AA
:10054000002901D1A84202D928461A46641C10434A
:100550000122002800D0164361020020079B891960
:1005600004465C410223002C02DB49181346644117
:10057000089DCE0A2D145D194B056705E10A2C056F
:100580000D1908993E43C9076940002B08D09340D4
:1005900006D30022761C5141002B01D1760876004B
:1005A0001C4A002D43DB154241D0AA433FD03046C0
:1005B0000BB0F0BD06180D464D41174C7642AC41CC
:1005C0001AD395181C465C41134A6D42A24113D3BD
:1005D000012252054C00D4420AD15C00D4420BD017
:1005E0004B4002D592021143E2E749004908DFE798
:1005F0005940C90FC90718E000200849D8E7054845
:1006000001420DD10342F7D0F2E700000000FF07DE
:10061000C40A00000000F07F0000E0FF0000F87F47
:10062000114859400143C01241400020C0E7012356
:10063000089A9B069A4205DC032252078918C90FC3
:10064000C907B5E7052252078918074A1143D21294
:100650005140ADE770B515461C4602460B4628468C
:100660002146FFF7DFFD70BDFFFFFF7F0346CA0293
:10067000400D10B510430A1504D00124E4072043AF
:10068000002A05DB0A4CA21A04D4D040FF2A00DD60
:10069000002010BD4A00002B01D0012000E0002006
:1006A000101801225205D042F2D8C817C04310BD1D
:1006B0001E0400001F22030C02D10F22000402D0EE
:1006C000030E03D004E00020014670470002083A00
:1006D000030F01D10001121F830F01D18000921E70
:1006E000002801DB4000521E120551184205C012BD
:1006F000411810467047C10FC90700D0404201227F
:1007000092071143D6E701218907D3E7F0B58B4C57
:100710000F09254689B0BD437BD01D092646AE434F
:10072000FAD00E465E402740F60F3E43254071D07A
:1007300024012142FBD0FF24AD19A4042D1B0395F5
:1007400001252D05DB02DB0AC9022B43C90A294317
:100750001E010901040F130F050121431701880B26
:10076000820391432D098C46A90B1E438A039543AE
:10077000B30B9A0396433F09BA0B9403A74302961F
:100780002E467E430497B6464E19D7190C4601965D
:10079000544305977E43371B7646BF1B3601B6464A
:1007A000BE0B361900967646BC043719009C01D35F
:1007B000641C00946400002F01D001263443029E83
:1007C000049F754366467E430496760034196E0096
:1007D00034190094029C019E1C196643751BAE4699
:1007E000069465464519059C05956C435943754625
:1007F0000891691A0191049E01465143A41B04917A
:10080000611A009C0791E10605D06109012211439C
:1008100002E072E06EE06109089D00272C0A2D06B7
:100820006918049D7C412A0A2D066918019D6241C0
:10083000AC0DAD026D185441079A910D92025519F5
:100840006141029A644658435443069B059A5A43B1
:10085000121A131B9A0E9B015B187A41010B0005BB
:10086000C3185141220A200644195A419A4200D223
:10087000491C01204002814203D315230226F6437E
:1008800002E014230326F6432020C51AA940174688
:10089000AF40DA400A4320460399D8400914731840
:1008A00019055118039A3843D2075140AC4009D07A
:1008B0000122944006D30022401C5141002C01D15A
:1008C000400840001E4A934212D301220398920628
:1008D000904207DB0520400709181A480143C0125F
:1008E000414004E0032040070818C10FC907002059
:1008F00009B0F0BD0020F107FAE705180C464C419D
:1009000011486D42A04115D394181A465A410E4819
:10091000644290410ED301204A004005824209D32F
:100920005A00824206D35940C90F084AC90700201D
:100930001143DDE700200649DAE700000000FF0769
:10094000FE070000FFFFFF7F0000E0FF0000F07FD8
:100950000000F87F754600F025F8AE4605006946B0
:100960005346C008C000854618B020B5FFF724FCE8
:1009700060BCB64600260027C0C5C0C5C0C5C0C5FE
:10098000C0C5C0C5C0C5C0C5403D490849008D4669
:10099000704710B50446C046C0462046FFF7DBFB53
:1009A00010BD0000004870470800002001491820D1
:1009B000ABBEFEE7260002007047B0B50024251A42
:1009C00045410D70022806D3032807D0022804D120
:1009D00001201070B0BD14701C70B0BD01201870E3
:1009E000B0BD000010B50F498A684B681C681443FD
:1009F0001C600B68C4491960C1B20122184600F09E
:100A000046F810BD074A13681A4608320C3300290D
:100A100000D11A4610607047024909684A6842408E
:100A20004A607047D40D000081B000900098002803
:100A300003D00098401E0090FBD101B07047F0B584
:100A400093B016460F4604466D464C212846FFF7E4
:100A5000E3FB384631462A4600F026F829461C3189
:100A600020462A4600F0D8F813B0F0BDFEB50C467B
:100A70000546089E01AF1046194632463B4600F037
:100A8000B8F8284621463A46FFF7D9FFFEBD1CB507
:100A900001AC0123237000236370A2706A461460C6
:100AA0001A46FFF7E3FF1CBDF0B596B0134624339A
:100AB000129313462833139313462C33149313467F
:100AC00030331593131D0E93134608330F931346BB
:100AD0000C331093134610331193134644330A9387
:100AE0000B93134648330C930D931346143306931C
:100AF000079313461833089309931368034313604D
:100B000002910B780021012B0490034600D00B4684
:100B1000D4691C43D46102984378012B049B00D014
:100B20000B46146A1C4314620298C378012B049B81
:100B300000D00B46546B1C43546302980379012B7D
:100B4000049B00D00B46946B1C439463029843793A
:100B5000012B049B00D00B46D46B1C43D46302983A
:100B60008379012B049B00D00B46146C1C43146446
:100B700001910846029D33E0039000910027019AFD
:100B800025E0059B9340049803421DD0AC78BC40FF
:100B90000398830012A8C058016821430160E879D6
:100BA000B0400AA9C9580C6804430C600F20B84033
:100BB0000EA9C9580C6804430C600320B04006A974
:100BC000C9580B6803430B60B61C521C3F1D202FF5
:100BD000D7D10099491C0198083001900398401C16
:100BE00001230A4605931A4016010428C4D116B001
:100BF000F0BD70B51C4615460E46611C221D631DD6
:100C0000FFF7DBFE00202070A6702878E07068787F
:100C1000A071A878E07170BD1368C3631368436165
:100C20001368436553690366936943661368C36039
:100C3000536883629368C362D36803631369436331
:100C40008B688361CB68C3610B6903624B69436244
:100C5000136843641268C264CA6902640A6A8264DF
:100C60004A6A02658A6A8265CA6AC2650A688260DF
:100C70004A680261896981637047000070B50C465B
:100C8000FFF741FD05460E462046FFF73CFD0246B4
:100C90000B4628463146FFF739FD0024094B224612
:100CA000FFF7C0FAFFF7E2FC0749884207D8401E69
:100CB000064948600020886007200860012420461B
:100CC00070BDC04600408F40FEFFFF0010E000E016
:100CD00080B50220FFF7A0FE80BD000009480A4948
:100CE00001600121090702690A430261026A0A439D
:100CF0000262026B0A430263002101600348144947
:100D00000160704738100040A1AA558500000020FE
:100D1000F8B5FF252846FFF765FE01212846FFF7B5
:100D200071FE0A4C2046FFF77FFE00212846FFF7A0
:100D300069FE7D20C0000649FFF7A0FF0120FFF7F4
:100D40006BFE2046FFF770FEF8E7C04640420F00FA
:100D500000127A0080807F7E7D7C7B7A797877763E
:100D600076757473727171706F6E6E6D6C6C6B6A88
:100D70006A69686867666665646463636261616026
:100D8000605F5F5E5E5D5D5C5C5B5B5A5A595958A3
:100D9000585757565655555554545353525252510D
:100DA000515050504F4F4F4E4E4D4D4D4C4C4C4B63
:100DB0004B4B4A4A4A4949494848484747474746AA
:100DC00046464545454444444443434343424242E6
:100DD00042414141002008400C00004000800000DA
:100DE000000E0000000000200800000004010000C8
:100DF000080E000008000020602000002001000014
:080E000000127A00000000005E
:04000005000000C136
:00000001FF
