:020000040000FA
:1000000038280020BD010000C5010000C701000024
:1000100000000000000000000000000000000000E0
:10002000000000000000000000000000C901000006
:100030000000000000000000CB010000CD01000026
:10004000CF010000D1010000D3010000D501000064
:10005000D7010000D9010000DB010000DD01000034
:10006000DF010000E1010000E3010000E501000004
:10007000E7010000E9010000EB010000ED010000D4
:10008000EF010000F1010000753A0000F5010000E9
:10009000F7010000F9010000FB010000FD01000074
:1000A000A52C0000F12C00003D2D000005020000F1
:1000B00007020000090200000B0200000D02000010
:1000C00000F002F800F04FF80CA030C808382418EF
:1000D0002D18A246671EAB4654465D46AC4201D180
:1000E00000F041F87E460F3E0FCCB6460126334263
:1000F00000D0FB1AA246AB4633431847904000009D
:10010000B04000000023002400250026103A01D34F
:1001100078C1FBD8520700D330C100D50B607047BF
:1001200010B5662902D103F0ADFE10BD642902D1DD
:1001300000F0EEF810BD632902D100F0D6FF10BD2B
:10014000732902D100F0D9FF10BD002010BD1FB5EA
:1001500001F000F804000020002103F07DFEE060C3
:100160001FBD10B510BD01F0C3FB1146FFF7EFFF37
:1001700003F09AFD01F0DBFB03B4FFF7F2FF03BCD1
:1001800001F022FC70B505460C46164602E00FCC85
:100190000FC5103E102EFAD2082E02D303CC03C591
:1001A000083E042E07D301CC01C5361F03E0217899
:1001B0002970641C6D1C761EF9D270BD17488047EB
:1001C00017480047FEE7FEE7FEE7FEE7FEE7FEE72B
:1001D000FEE7FEE7FEE7FEE7FEE7FEE7FEE7FEE7F7
:1001E000FEE7FEE7FEE7FEE7FEE7FEE7FEE7FEE7E7
:1001F000FEE7FEE7FEE7FEE7FEE7FEE7FEE7FEE7D7
:10020000FEE7FEE7FEE7FEE7FEE7FEE7FEE70000AB
:1002100004480549054A064B704700009531000027
:10022000C1000000380800203828002038180020BD
:10023000381800200FB4054910B503AA029800F041
:1002400061FF10BC08BC04B0184700004801002042
:10025000F8B50E460446002020622046E168884733
:10026000002829D0252802D06268A16820E0E16832
:1002700020460027884705001ED028464138192807
:1002800002D80127FF022035324620462760294642
:10029000FFF746FF002808D0012804D0F61DF60815
:1002A000F6000836D9E7361DD7E762682846A16808
:1002B0009047206A401CCFE7206AF8BD70B50C4615
:1002C0000546012A05D02878800600D5EA69002372
:1002D00002E0012305E05B1C934202D2E05C0028AF
:1002E000F9D1A869E618C01AA861286AC01828625E
:1002F0002846C046C04604E06A682078A968641CA5
:100300009047B442F8D32846C046C04670BD0000AE
:10031000F7B5002575291068009914A611D0C046BC
:10032000C046002802DA404211A608E00099096898
:100330008A0701D50FA602E0490704D50EA60125BC
:1003400001E0C046C046009F0024243704E000F0CE
:10035000EDFE30313955641C0028F8D12B46324669
:100360002146009800F052FCFEBD00000000000095
:100370002D0000002B0000002000000000220309D7
:100380008B422CD3030A8B4211D300239C464EE0B0
:1003900003460B433CD4002243088B4231D303096C
:1003A0008B421CD3030A8B4201D394463FE0C3091E
:1003B0008B4201D3CB01C01A524183098B4201D336
:1003C0008B01C01A524143098B4201D34B01C01A21
:1003D000524103098B4201D30B01C01A5241C30899
:1003E0008B4201D3CB00C01A524183088B4201D308
:1003F0008B00C01A524143088B4201D34B00C01AF4
:100400005241411A00D201465241104670475DE008
:10041000CA0F00D04942031000D34042534000228B
:100420009C4603098B422DD3030A8B4212D3FC2234
:10043000890112BA030A8B420CD3890192118B42B3
:1004400008D3890192118B4204D389013AD09211C9
:1004500000E08909C3098B4201D3CB01C01A524184
:1004600083098B4201D38B01C01A524143098B424D
:1004700001D34B01C01A524103098B4201D30B0136
:10048000C01A5241C3088B4201D3CB00C01A52415B
:1004900083088B4201D38B00C01A5241D9D2430842
:1004A0008B4201D34B00C01A5241411A00D201467F
:1004B000634652415B10104601D34042002B00D5E9
:1004C0004942704763465B1000D3404201B50020AB
:1004D000C046C04602BD704770477047F0B5F94D41
:1004E0000C091E092C402E402F468BB0A7437DD00F
:1004F000B543FCD0002E7AD0002CFCD00D465D40D8
:10050000ED0F2543AC1BFF25AD0464190894C5020B
:10051000440DC9022143500DDC0204430120C007F1
:1005200001430443D2020191200C110C00958C462A
:10053000010423468B430A9161460904E24D8A4334
:100540000991010A7D4449198039097805464D43CE
:1005500001266D18F605751B6943C90C640B891CCF
:100560004C436418B5012C1B250C2E04B4434C439A
:100570004D43210C691889090591009DE90701D0B7
:100580000121C90704912C4601996708CD072F4323
:100590004C08059DE10B4D432D0C294666467543DD
:1005A00002950D4645432E46029D7D1BB4410095A4
:1005B0000D465D4301942C0C2F040D465543AE4669
:1005C0002D0C3D43029503947546049C2D04641B39
:1005D000049406D2029C039D641C00267541039579
:1005E000029401AC70CC009F7D1B01E03EE162E112
:1005F000B44109040095079101940599A408614349
:10060000090C0C464443650BE7040C4666467443EC
:10061000A646640B3C43039502947446049DE4048F
:100620002C1B049406D2029C039D641C0026754179
:100630000395029401AC70CC009F7D1BB4410194E2
:100640000C465C430095650FE7000C465443A646F4
:10065000640F3C43039502947446049DE4002C1BF4
:10066000049406D2029C039D641C002675410395E8
:10067000029401AC70CC009F7D1BB441AE09AF0663
:10068000049DC900AD092F43049DA406AD06049541
:10069000079D344369180791059DE10B4D432D0CCF
:1006A00029466646754302950D4645432E46029DF2
:1006B0007D1BB44100950D465D4301942C0C2F0425
:1006C0000D465543AE462D0C3D43029503947546A9
:1006D000049C2D04641B049406D2029C039D641C9C
:1006E000002675410395029401AC70CC009F7D1BE0
:1006F000B44101948C050694079C890A6118009501
:100700000791019C0599A4086143090C0D464543D6
:10071000680BEF040D46644665436C0B3C43049F35
:10072000ED047D1BAC4602D20025641C6841009E8E
:10073000019D371B85410846584301950C46460FDD
:10074000C5005443600F28436546E4002C1B02D2C9
:100750000025401C6E41019D3F1AB5412846BD0948
:10076000800628438446A009BF064E020699A406C7
:1007700076180743079D002068410A99079019439E
:100780000020099B00906046FF1913434041E20F8F
:1007900064003A43A4460446D71A8C41A04203D9C8
:1007A0000120009020463A46C70F94184041624607
:1007B000D20F2243644664000494009CBE46640049
:1007C000D71AA446044602978C417746002F01D1E0
:1007D000A04204D96046401C8446029A2046C40FB9
:1007E000A64694184041049A0546D20F2243644617
:1007F0006400D31A8D417146002901D1A84202D963
:1008000028461A46641C10430122002800D01643D3
:1008100061020020079B891904465C410223002CD9
:1008200002DB491813466441089DCE0A2D145D1958
:100830004B056705E10A2C050D1908993E43C907C8
:100840006940002B08D0934006D30022761C51410A
:10085000002B01D1760876001C4A002D43DB15429F
:1008600041D0AA433FD030460BB0F0BD06180D462C
:100870004D41174C7642AC411AD395181C465C4149
:10088000134A6D42A24113D3012252054C00D442B7
:100890000AD15C00D4420BD04B4002D592021143E6
:1008A000E2E749004908DFE75940C90FC90718E0E6
:1008B00000200849D8E7054801420DD10342F7D08E
:1008C000F2E700000000FF07303B00000000F07F6F
:1008D0000000E0FF0000F87F114859400143C012BA
:1008E00041400020C0E70123089A9B069A4205DC9C
:1008F000032252078918C90FC907B5E70522520715
:100900008918074A1143D2125140ADE770B5154618
:100910001C4602460B4628462146FFF7DFFD70BD08
:10092000FFFFFF7F0346CA02400D10B510430A15B2
:1009300004D00124E4072043002A05DB0A4CA21A54
:1009400004D4D040FF2A00DD002010BD4A00002B57
:1009500001D0012000E00020101801225205D042F1
:10096000F2D8C817C04310BD1E0400001F22030C9C
:1009700002D10F22000402D0030E03D004E00020B5
:10098000014670470002083A030F01D10001121F0F
:10099000830F01D18000921E002801DB4000521E0F
:1009A000120551184205C012411810467047C10F78
:1009B000C90700D04042012292071143D6E7012126
:1009C0008907D3E7F0B58B4C0F09254689B0BD43A5
:1009D0007BD01D092646AE43FAD00E465E40274026
:1009E000F60F3E43254071D024012142FBD0FF2465
:1009F000AD19A4042D1B039501252D05DB02DB0A8F
:100A0000C9022B43C90A29431E010901040F130F10
:100A1000050121431701880B820391432D098C4660
:100A2000A90B1E438A039543B30B9A0396433F09D0
:100A3000BA0B9403A74302962E467E430497B6460C
:100A40004E19D7190C460196544305977E43371B20
:100A50007646BF1B3601B646BE0B36190096764663
:100A6000BC043719009C01D3641C00946400002F5F
:100A700001D001263443029E049F754366467E439F
:100A80000496760034196E0034190094029C019E7D
:100A90001C196643751BAE46069465464519059CB0
:100AA00005956C43594375460891691A0191049E56
:100AB00001465143A41B0491611A009C0791E10671
:100AC00005D061090122114302E072E06EE0610984
:100AD000089D00272C0A2D066918049D7C412A0ACE
:100AE0002D066918019D6241AC0DAD026D1854418F
:100AF000079A910D920255196141029A6446584332
:100B00005443069B059A5A43121A131B9A0E9B01D3
:100B10005B187A41010B0005C3185141220A2006D7
:100B200044195A419A4200D2491C01204002814294
:100B300003D315230226F64302E014230326F643CB
:100B40002020C51AA9401746AF40DA400A43204684
:100B50000399D8400914731819055118039A38439A
:100B6000D2075140AC4009D00122944006D3002264
:100B7000401C5141002C01D1400840001E4A9342C4
:100B800012D3012203989206904207DB052040070A
:100B900009181A480143C012414004E003204007ED
:100BA0000818C10FC907002009B0F0BD0020F107E7
:100BB000FAE705180C464C4111486D42A04115D387
:100BC00094181A465A410E48644290410ED30120AF
:100BD0004A004005824209D35A00824206D3594056
:100BE000C90F084AC90700201143DDE70020064964
:100BF000DAE700000000FF07FE070000FFFFFF7FAD
:100C00000000E0FF0000F07F0000F87FFFB5044621
:100C10000D4681B0243000902168880604D510224A
:100C2000E0699143216000E00120A84201DD471BFB
:100C300000E000270498A1697A191018081AA06129
:100C40002078C00602D42046C046C046002608E0F0
:100C500003986268A168805D9047206A401C761CFA
:100C6000206204988642F3DB2078C0060AD520462D
:100C7000C046C04606E06268A16830209047206AFE
:100C8000401C206238467F1E0028F4DC07E00098F4
:100C90006268A168405D9047206A401C2062284637
:100CA0006D1E0028F3DC2046C046C04620780006B2
:100CB00002D5022005B0F0BD0120FBE77047FFB56B
:100CC0000C461E468FB003CA089009914F007D0D57
:100CD00000D16D1E002108460020C0460321099A5C
:100CE00089050840002A03DA82008018400808407D
:100CF000800D01280A9002DD0020C0430A90089868
:100D000007430DD0F048F1492818484307141898B4
:100D100000281DD07542291E1DDD0A9842421BE0A5
:100D20001898012802D00020302104E00020F2436E
:100D300005E02154401CB042FBDB30460022189BEA
:100D4000002121540F998B600A60486013B0F0BDF8
:100D5000BD1B6D1CDFE70A9A002900DA69420BA867
:100D600000F096FA0BAB07CB03AB07C308990998C1
:100D700000F0FAFA6B4607C30146D5480918002D62
:100D800000910BDDD24903980A9A4942401800238A
:100D900003A90390684600F057FD08E003990A9AFA
:100DA0000023081803A90390684600F0F7FC6B467F
:100DB00007C30004000C03D00020C043410800E03A
:100DC0001046189A002A03D00022009215461EE011
:100DD000751E05D400F0C2F9303262556D1EF9D58A
:100DE00001220843079602D000227F1C04E02078ED
:100DF000302801D100227F1E002A069787D01EE0EE
:100E0000112D07DA00F0AAF9303262556D1C024646
:100E10000A43F5D1084303D00098002819D00EE00A
:100E20000021681E05E0235C625C63542254401E6E
:100E3000491C8142F7DBA81B401E07950690079AC4
:100E400018990020A0540F98079B069A81600CC047
:100E50007CE711260020189059E7D21DF0B50D4609
:100E60000446D10893B0C90003C90C900D9102F05B
:100E700073FE02460D98C00F01D02D2007E02068B8
:100E8000810701D52B2002E04007C00F4001032A53
:100E90000F9001D0072A05DB03462946204600F0C3
:100EA000B3F90EE12078800601D5E76900E0062756
:100EB0002846652D04D0662814D0672D69D12DE011
:100EC0000020112F009001DB112300E07B1C0CAAF5
:100ED00003A910A8FFF7F3FE1199002610987D1CB6
:100EE0000E9142E001203B460CAAC0070B90012066
:100EF000009003A910A8FFF7E2FE119D1298109927
:100F0000002600280E9501D1781C0D18781B02D4FC
:100F100046427D1C761EE81B00903AE0012F00DA65
:100F200001270020112F009001DD112300E03B4636
:100F30000CAA03A910A8FFF7C2FE11993D4610980C
:100F400000260E91217809070BD40E99A94200DAE8
:100F50000D4603A9012D04DD4A19203AD27F302A1B
:100F600006D0B84201DA011D04DA012100910FE038
:100F70006D1EEFE7002802DC86192D1A03E0411CE4
:100F8000A94200DD0D46801B401C00900120C007D7
:100F90000B902078000705D40098A84202DB0020BF
:100FA000C043009069460020C8720B98012102AF2F
:100FB0000337C907884225D0022010902B201190BA
:100FC0000B9800280BDA40420B902D20119006E080
:100FD0000B9800F0ABF830317F1E0B9039701099F0
:100FE000481E00291090F3DC0B980028F0D11198CE
:100FF0007F1E38702088000501D5452000E065205F
:101000007F1E387001A8C01BC01D0B900F980028D0
:1010100000D0012041190098C01709180B98081832
:10102000A169081A401EA0612078C00602D420469B
:10103000C046C0460F98002805D06268A168904756
:10104000206A401C20622078C00625D52046C04674
:10105000C04621E0002E07DB0E98B04204DD03A855
:101060006268805DA16802E06268A16830209047F4
:10107000206A761C401C20620098401E00280090C8
:101080000AD100F067F8C06862680168405CA16836
:101090009047206A401C206228466D1E0028D9DC3B
:1010A00007E062683878A1687F1C9047206A401C7E
:1010B00020620B99481E00290B90F2DC2046C046A6
:1010C000C046032042E6000001FCFFFF104D000077
:1010D000E1DFFFFF10B54369002B02D0C046C046D8
:1010E00001E0FFF7EBF8012010BD12780146243132
:1010F0000A7000224A700122ECE711680022D243F4
:10110000E8E70000084B70B50D467B4400F069F835
:101110000446284602F0AEFD002802D00020C0435D
:1011200070BD204670BD00006F2B00000146800896
:10113000081A02091018020A1018020C1018C00828
:10114000820012185200891A01E0401C0A390A294B
:10115000FBD2704700487047F40700200B4670B57B
:10116000024689078008084319469D08141AA941B8
:1011700025090807054308092C194841250A0106D5
:101180000D43010A2C194141200C0D0428430D0C7C
:1011900000194D41002140194D41C008690708431D
:1011A000E908840F8D002543840024184D4124193B
:1011B0006D41121BAB4107E00925ED432C1152197B
:1011C00063410024401C61411C460A250026551B32
:1011D000B441F1D270BD000001694A1C0261087877
:1011E000704700B58FB00291002105910549019328
:1011F00079440391114604906846FFF729F80FB02F
:1012000000BD0000E5FFFFFFF8B51F4604460123BF
:101210000068DB02032601461840072A05DB002888
:1012200001D017A506E017A504E0002801D016A5F7
:1012300000E016A5102081432160A069C01E002F88
:10124000A06101D0401EA0612046C046C046002FCC
:1012500009D038466268A1689047206A401C206225
:10126000C01C206206E0206AFAE762682878A1685C
:101270006D1C9047761EF8D22046C046C046F8BD89
:101280004E414E006E616E00494E4600696E66002A
:10129000F7B516468AB0334878446C4603467C332B
:1012A000C06F5A689B680DC42E487844763003ACF2
:1012B0000DC80DC43720C001081837211B30FFF7B7
:1012C00067F805460C46803D1B3C02D56442012070
:1012D00000E000200027099010E0E0070CD00C206F
:1012E00020497843794432464C39411868460123F5
:1012F00000F054FA6B4607C364107F1C002CECD13D
:10130000184F7F442E3F16E0E80712D02001C01985
:101310000EC80691089307920068F04201D198190F
:1013200008903246012306A903A800F037FA03AB60
:1013300007C36D10641C002DE6D10998002806D063
:1013400032466946012303A800F07EFA05E0012336
:101350003246694603A800F021FA0A9B07C30DB084
:10136000F0BD00005C2E0000034640000A4610B5A8
:10137000400D0BD00121C9070F24A40200191C0342
:1013800064082143540D2143D20207E000210120CB
:10139000F2E7D40F490021435200401E0029F8DA39
:1013A000DB0FDB07184310BDFFB50D46144685B0B3
:1013B0004868516802F0B8FB00910190A868A168E4
:1013C00002F0B2FB02910390A868616802F0ACFBE6
:1013D000029A12188242029201D2012000E00020FB
:1013E000019A0B18D2180028019202D08A4202D921
:1013F00003E08A4201D2012000E000200099081891
:1014000000906868A16802F08FFB029A121882426D
:10141000029201D2012000E00020019A0B18D2189C
:101420000028019202D08A4202D903E08A4201D206
:10143000012000E000200099081800902868216829
:1014400040004900400849084018FA49471814E08C
:1014500001994000C90F084300900198029940008B
:10146000C90F08430190029803994000C90F08432F
:101470000290039840007F1E039000980028E7DA4E
:101480000898002801D0EC4E00E00026B74201DAAF
:10149000012000E00020002804902AD0F71BF80665
:1014A000C00E15D0029B2021091A039A8B401A43C3
:1014B0000392029A019BC2408B401A430292019A06
:1014C000009BC2408B4000991A430192C140009199
:1014D0007B110DD06F460320C11A03D50021820075
:1014E000B95003E08A008100BA587A50401EF3D503
:1014F000374603980299002800D00120014308983C
:101500000291002808460CD0002800D00120019943
:10151000019A490508430121D20AC902D202019267
:1015200000E001210E9B0122D207012B02D0002BEB
:1015300003D013E0002807D120E0904204D8904265
:101540000CD1019B0B4209D0019B5918019105D187
:101550000099491C009101D17F1C009200280DD0F8
:10156000102108460020C0460498002806D00F9895
:10157000002803D0082108460020C04628682168BA
:10158000019B009A4840C10F0598C90739430EC016
:1015900009B0F0BDFFB587B0099A0898089953685B
:1015A00092684068896896460022039317469446DD
:1015B000089A12685300099A5B0812685200520890
:1015C0009A1A9E4BD4180A9A002A01D0352200E0BC
:1015D000402206920022012315460492DB07059360
:1015E00024E0002D05D175460346039E4D1BB341F3
:1015F00009D375466646039B491B049D9841059B8C
:101600007519AC465F4163463B4308D0059B049E79
:10161000DD0776082E435B080496059301E0521E11
:10162000641EC50FED0749184041521C069B9A42A3
:10163000D7DB002D04D17546039A6B1A824101D283
:1016400003200CE0039A0B466B404240134303D047
:10165000014303D0012002E0022000E000206146A7
:1016600001910021009702910A99002905D0614655
:1016700040020143704B019102E080070023029079
:101680009C4201DA012000E0002007003AD01A1B3A
:10169000D006C00E15D0029D2021019C091AC5401C
:1016A0008C402543029C8C4000D001242543019CA2
:1016B0000295009DC4408D4000992C430194C14087
:1016C000009154111DD06D460221002202290CD137
:1016D0000320001B07E0002804DB8600AE59002E23
:1016E00000D00122401C0328F5DB081B02D588002E
:1016F0002A5004E08000285810438A00A850491E50
:10170000E3D51C460A98002802980CD0002800D087
:1017100001200199019A490508430121D20AC90211
:10172000D202019200E00121109B0122D207012B7D
:1017300002D0002B03D013E0002807D11FE0904215
:1017400004D890420CD1019B0B4209D0019B59183F
:10175000019105D10099491C009101D1641C0092AE
:1017600000280CD0102108460020C046002F06D0CB
:101770001198002803D0082108460020C046089888
:101780000999019A009B006809684840C10F0798B1
:10179000C907214382600AC00BB0F0BD00B585B017
:1017A000019300920A460146002302A8FFF7FCFDC0
:1017B00002A807C805B000BDFFB50A461F4685B0A0
:1017C0000799019301230091014602A8FFF7ECFD60
:1017D00002990398049ECA0F4900D20700920F2273
:1017E000490892028C1A0021002800DB0C464500B3
:1017F00013486D08844214D3079A002A04DA441E61
:101800000026104DF64302E004460D460E46102118
:1018100008460020C046002F03D0042108460020BF
:10182000C0462005E90A0843009908436905F20A01
:101830001143ADE602C0FFFF013C0000FF3F000086
:10184000FF070000FFFFFF7F00B585B00193009206
:101850000A460146002302A8FFF79CFE02A807C81B
:10186000A8E7FFB50A461F4685B0079901930123F3
:101870000091014602A8FFF78DFE02990398049E8D
:10188000CA0F4900D20700920F22490892028C1A0F
:101890000021002800DB0C46450011486D088442F9
:1018A00014D3079A002A04DA441E00260D4DF6438D
:1018B00002E004460D460E46102108460020C046B0
:1018C000002F03D0042108460020C0462005E90A65
:1018D0000843009908436905F20A114358E60000DD
:1018E000FF070000FFFFFF7F00487047D40700207C
:1018F0007546FFF7F9FFAE46050069465346C00836
:10190000C000854618B020B5FEF782FC60BC0027F9
:101910004908B6460026C0C5C0C5C0C5C0C5C0C5BB
:10192000C0C5C0C5C0C5403D49008D46704710B513
:101930000446C046C0462046FEF71EFC10BD00000F
:10194000024670B50A4392072AD11E4DEE0104C823
:1019500008C9541B9443344017D0D0B2D9B2401AAE
:101960002106014310D190B299B2401A21040143DB
:101970000AD110021902000A090A401A2102014381
:1019800002D1100E190E401A70BD9A42DFD010BA63
:1019900019BA884201D9012070BD0020C04370BD32
:1019A00002780B78401C491C002A09D09A4207D1C2
:1019B00002780B78401C491C002A01D09A42EFD0D3
:1019C000D01A70BD0101010101491820ABBEFEE72C
:1019D00026000200704770B58C180578401C6B0714
:1019E0005B0F01D10378401C2A1106D10278401CFC
:1019F00003E00678401C0E70491C5B1EF9D12B07D2
:101A000005D40023521E0DD40B70491CFAE703784D
:101A1000401CCB1A921C03E01D780D70491C5B1C06
:101A2000521EF9D5A142D8D3002070BD01461048FE
:101A3000814201D1012070470E48814201D102202C
:101A4000F9E70D48814201D10320F4E70B488142B8
:101A500001D10420EFE70A48814201D10520EAE7DD
:101A60000848814201D10620E5E70020E3E70000B5
:101A7000C43F0000D83F0000EC3F000000400000E1
:101A8000144000002840000005480079801C0449EB
:101A90000871084600791E2801DD02200871704790
:101AA000240000200B4800780F2806D103200949A4
:101AB00008700F20084908800BE006480078401C99
:101AC00004490870044800884004000C401C024986
:101AD00008807047240000202A00002006488078F3
:101AE000032803D100200449887004E0024880786C
:101AF000401C014988707047240000200648407847
:101B0000012803D100200449487004E002484078CD
:101B1000401C0149487070472400002010B504465D
:101B2000054A2146054801F015FA054A21460548AF
:101B300001F010FA10BD00005C010020083F000019
:101B400060030020183F000070B500241BE0302225
:101B50006243104BD118A3000E4AC032D25810680D
:101B600000F005FC302363430A4D5A194C236343AC
:101B7000FF3D313D5919A500064BC0335B5918682C
:101B800000F0E0FB641C0348D0300068A042DED8BF
:101B900070BD00008C02002070B500240FE04C23C3
:101BA00063430A4D5A1930236343FF3531355919C0
:101BB000A500074B5B59186800F0F2FB641C044851
:101BC00010300068A042EAD870BD00005C0100201F
:101BD0004C03002070B500241BE030226243104B00
:101BE000D118A3000E4AC032D258106800F0BFFBD3
:101BF000302363430A4D5A194C236343FF3D313D63
:101C00005919A500064BC0335B59186800F09AFBC0
:101C1000641C0348D0300068A042DED870BD0000CC
:101C20009004002070B500240FE04C2363430A4D5C
:101C30005A1930236343FF3531355919A500074B35
:101C40005B59186800F0ACFB641C04481030006855
:101C5000A042EAD870BD00006003002050050020BB
:101C600008484078002804D0012804D0022806D172
:101C700003E005A0704705A0FCE705A0FAE705A072
:101C8000F8E7000024000020535049005353490056
:101C90004D4352004572720070B50025002411E0DA
:101CA00060000D49085A61000C4A515A884207D118
:101CB00060000949085A6100094A515A884200D017
:101CC0006D1C641C642CEBD3FFF7ACFFFFF764FFC3
:101CD000284600F04FF870BD640500202C06002057
:101CE000F406002010B5002801D1012400E00024F2
:101CF0000C7000280CD001280BD0022802D0032839
:101D00000AD102E00124147006E001241C7003E0F3
:101D100000BF002414701C7000BF10BDF8B504464D
:101D20000D460C480078421C29460BA0FEF782FAAB
:101D30002046FFF77BFE0646FFF792FF0746054861
:101D400000790090034883783246394605A0FEF7B3
:101D500071FAF8BD24000020257320423A25640A58
:101D60000000000025732564204D3A256420443A84
:101D700025640A0010B50446002C03D104A0FEF728
:101D800059FA03E0214607A0FEF754FA10BD0000FF
:101D900053756363657373205472616E7366657205
:101DA0000A000000636E744572723D25640A0000EB
:101DB00010B502A0FEF73EFA10BD00005374617228
:101DC0007465642E2E2E0A0070470246002070476C
:101DD00070B50446224D2002204321040843210609
:101DE000084306461F4948683246294600F088F9EC
:101DF0001C4948601B49103148683246294600F0AA
:101E00007FF9184910314860164920314868324638
:101E1000294600F075F91349203148602D1420023D
:101E2000004306460F4988683246294600F068F9A3
:101E30000C4988600B49103188683246294600F009
:101E40005FF90849103188600649203188683246B8
:101E5000294600F055F903492031886070BD000023
:101E600007070707001100400120800740680107AD
:101E7000090F0A2901D8C8B270470B20FCE710B53A
:101E800004462078FFF7A4FF10BD000010B50446FB
:101E9000002C01D001F01CF90148006810BD0000C1
:101EA0004C010020FFB581B00E4615461C460A9F26
:101EB000FFF7DAFFA84202D1022005B0F0BD217879
:101EC0003046626800F0DFF8002801D10120F4E715
:101ED0006078002801D0781CC7B222460832394603
:101EE000E368019800F038F9002801D10320E4E705
:101EF000218A2246123228460B9B00F003F800206C
:101F0000DBE70000F8B504460D4617461E46002ED6
:101F100002D03846FFF7B3FF00BF2007000F0121B2
:101F20008907486000BF00BF88682A46064900F05C
:101F3000E7F801218907886000BF002E02D13846EA
:101F4000FFF79DFFF8BD0000FFFF000008B50090FF
:101F50000099002905D000BF0099491E0091002971
:101F6000FAD108BD4168096882681143426811606E
:101F70000149026811607047A1AA55854168096846
:101F8000826811434268116001490268116070471C
:101F9000A1AA5585F3B585B00546254801900D2DBC
:101FA00004D1069800F052F801903DE0052D04D8C8
:101FB000A80020490858019036E0072D34D8019830
:101FC000092802D00A2806D102E01B48C46806E0AE
:101FD0001948046A03E018484038846B00BF00BF0A
:101FE000600F0290029806281ED2029800F026F890
:101FF00006462007000F049010202040000903909F
:102000007F2000022040070A002F00D1022731461E
:10201000794308460499491CFEF7B0F900900399EA
:10202000491CFEF7ABF90190019807B0F0BD000024
:1020300000127A00B03F0000800000400146880096
:10204000014A105870470000443F000010B5044694
:10205000002C01D001F03CF80148006810BD0000E0
:102060005001002073B50C460099080F2146FFF778
:1020700091FF0546009886B2711C2846FEF77EF94E
:10208000054628467CBD70B504460D4616462846D2
:10209000002804D001280DD002281CD115E02168A9
:1020A000032212079143216021680122D2061143C5
:1020B000216010E0216801225207914321602168CC
:1020C0000322D2061143216005E021680722D206CF
:1020D0001143216000BF00BF00BF3146204600F021
:1020E00001F870BD70B505460C460348056003490C
:1020F000204601F0F3FC70BD54010020F93A0000C5
:1021000003461846884310437047034618468843E1
:102110001043704770B50B4601680E4C214014788F
:1021200024027F252D022C4055782D072D0F2C439E
:1021300095782D01102635402C435D076D0F6D07F6
:102140002C43F5052C4321436C000C4304600160D3
:1021500070BD0000E080FF1FF8B505460E4617462B
:102160001C463A4631462846FFF7D4FF214628460A
:1021700000F002F8F8BD000070B505460C460348B3
:1021800005600349204601F0A9FC70BD58010020FC
:10219000113B000001680968426811430268116040
:1021A0007047000030B585682C68044A551C4B19EF
:1021B000254695431D438268156030BDFFFF000032
:1021C0000021016041608160C16001614161816104
:1021D00070470021016041608160C160016141611F
:1021E0008161C161016241628162C1627047012304
:1021F0001370507091707047F0B595B007460C465B
:1022000015461E4609A8FFF7E4FF02A8FFF7D8FF0E
:1022100002A800903246294620461A9B00F007F893
:1022200002AA09A9384600F0BBF815B0F0BDFFB509
:1022300083B007460C9804461C340C9D6B4601AADB
:1022400002A90498FFF74EFD6946097AB940606813
:10225000084360600121B940A0690843A061684655
:102260000079B840E1690143E16169460978B94004
:10227000206A08432062606A06994978B940084399
:1022800060620121B9402868084328607807C60EBB
:10229000F808002806D001280FD0022818D00328FB
:1022A0002CD120E0A1680598B0400143A1600F2126
:1022B000B14068680843686020E0E1680598B04074
:1022C0000143E1600F21B140A8680843A86015E010
:1022D00021690598B040014321610F21B140E868B0
:1022E0000843E8600AE061690598B0400143616114
:1022F0000F21B14028690843286100BF00BF38079B
:10230000C60E3809002802D0012818D10BE0A06AB7
:1023100006998978B1400843A0620321B1406869F9
:10232000084368610BE0E06A06998978B140084388
:10233000E0620321B140A8690843A86100BF00BF63
:1023400007B0F0BD70B505460C461646224621463C
:102350001C31284600F024F870BD00B50246104636
:10236000FFF72EFF10461C30FFF733FF00BD426819
:102370000A6002694A6082698A60C269CA60026A48
:102380000A61426A4A61826B8A61026CCA61826C2C
:102390000A62026D4A62826D8A62C26DCA627047C9
:1023A0001368C36313684361136843655369036625
:1023B000936943661368C360536883629368C3621A
:1023C000D368036313694363136843641368C36486
:1023D0008B688361CB68C3610B6903624B6943629D
:1023E000CB6903640B6A83644B6A03658B6A8365FC
:1023F000CB6AC3650B6883604B6803618B69836339
:10240000704702681209120113460B4303607047BC
:1024100030B5436800244460026830251446AC435C
:102420002246002903D0C0251446AC4322460C01A5
:1024300014430460436030BD70B5446800254560B6
:102440000368FF2636021D46B5432B460D021D4389
:1024500005600261446070BD30B54368002444608B
:102460000268C0251446AC4322468C011443046024
:10247000436030BD00E08168C1680422114000293A
:10248000F9D1704741681022114341607047002123
:1024900041600160022101610021416101624162EC
:1024A000704710B504462046FFF7F1FF2046FFF7BE
:1024B000E9FF2046FFF7DEFF10BD03B5019941613A
:1024C0000CBD002902D10222426001E003224260D9
:1024D0007047002902D10622426001E00E224260CC
:1024E000704708B50146C8690090009808BD08B556
:1024F0000146C8680090009808BD30B503460C46F8
:10250000002058602078617809010843E1780902C9
:10251000084305466078002802D1A0788001054371
:102520001D602079186100205861586203201862EC
:102530001846FFF7A7FF1846FFF79CFF30BD30B5E0
:1025400004460D462946204600F04CF8204600F08F
:1025500037F830BD014610200856002815DBC306A9
:10256000DB0E01229A400A4B1A6000BF00BF00BF79
:10257000BFF34F8F00BF00BF00BF00BF00BF00BF51
:10258000BFF36F8F00BF00BF00BF00BF70470000E8
:1025900080E100E070B504460D461020205600286A
:1025A00005DBC206D20E01219140044A116000BF32
:1025B00010202056294601F021FB70BD00E100E00B
:1025C0000CB5024600BF1046FFF791FF0190009046
:1025D000684600784007C00F0028F4D000BF90681C
:1025E00080B20CBD1CB504460A4600BF00BF2046A1
:1025F000FFF77DFF01900090684600788007C00FCC
:102600000028F3D000BFA26000BF1CBD70B5044617
:102610000D4629462068FFF7F4FE70BD70B50446EC
:102620000D4629462068FFF7ECFE70BD70B50446E4
:102630000D4629462068FFF7E4FE70BD70B50446DC
:102640000D4629462068FFF7E3FE70BD10B504462D
:102650002068FFF726FF00BFE06800680121090439
:102660008843E168086000BF00BF60680068A16837
:1026700088436168086000BF10BD13B50446206838
:102680000199FFF71AFF1CBD70B504460D46294697
:102690002068FFF716FF70BD38B504462068FFF7C5
:1026A00020FF009038BD70B504460E461546201D2B
:1026B000FFF770FD2946201DFFF774FD31462068A5
:1026C000FFF71BFF70BD70B504460D462946206814
:1026D000FFF735FF70BD01460868806880B270471B
:1026E0000168496908229143026851617047026894
:1026F00091607047F0B585B004460D4616462288B5
:1027000092016388D118B000FDF738FE07462846CD
:10271000FEF755F903910290791B64225143084654
:10272000FEF74DF901910090039B029AFDF7D6FE4A
:1027300005B0F0BDF8B504460D461646A90830466A
:10274000FDF71CFE07463804800D2080B806800E79
:102750006080F8BD4A6842628A688262CA68C26262
:102760000A6802624A6942638A698263CA6982644A
:10277000024A42640A69026370470000FF070000D2
:102780000021016041608160C1600161416181613E
:10279000C1617047026B036B5B085B00036381637D
:1027A00002637047F0B58BB0074614460D22002136
:1027B0002348006800F058F901212148006800F022
:1027C00021F90A90394609A80A9AFFF7B3FF002CAD
:1027D00006D109AA1B491A48006800F033F90DE038
:1027E0001822184901A8FDF7CDFC0020029009AA83
:1027F00001A91348006800F025F900BF12480790AE
:10280000002C02D01148089001E00020089002211D
:1028100007A800F04EF8394609A80A9AFFF76AFFA0
:1028200005460E460AA0FDF705FD39460FA0FDF747
:1028300001FD2A46334611A0FDF7FCFC0BB0F0BDAC
:102840002C010020300100202C3F0000383F000008
:1028500057656C6C636F6D6520746F2055415254E1
:102860002044656275674F7574210A004261756482
:10287000526174653A2025640A0000004261756463
:102880004572726F723A2025660A000070B588B0F2
:1028900006460C4615466846FFF772FF6A4629460B
:1028A000204600F039F86946304600F02DF808B0AF
:1028B00070BD7CB504460D4601AA29460020FFF7ED
:1028C00096FC206800280DD021680868FFF756FBA9
:1028D00001A800902268137A5168126810680122DA
:1028E000FFF78AFC606800280DD061680868FFF770
:1028F00045FB01A800906268137A5168126810685D
:102900000122FFF779FC7CBD10B503460C46214639
:102910001846FFF71FFF10BD30B50B8853608B784A
:102920009B069B0E9360354B136103785B0160241B
:1029300023408478240123434478A400304D2C594B
:102940002343D3600378042B04D1FF240134D368DC
:102950002343D3604368002B20D0D3680925446803
:102960002C402343D360022443682340002B03D030
:10297000E4011369A3431361042443682340002B3B
:1029800003D0E4011369A343136110244368234077
:10299000002B03D080241369234313618368002B29
:1029A0000DD083681B68936183681B79DB00382432
:1029B0002340846864796407640F23435361036987
:1029C000002B0AD0136904692478A40001252C4344
:1029D0002343136103691B7913604369002B05D0FE
:1029E000136944692468A40223431361C368002B5C
:1029F00002D0C3681B68D36130BD00000103000032
:102A000064400000FEB504460F460C48844203D1E2
:102A1000C0680068019003E00948C0680068019040
:102A2000019839460090FFF71DFB0646E0680568EF
:102A3000ADB23046A84006463046FEBD3C400000E0
:102A40005040000070B504460D46164600BF606851
:102A50000068A16808436168086000BF32462946E3
:102A60002068FFF713FF70BD70B505460E4614468B
:102A7000134885420BD100BF2207124988680F21F5
:102A80000907FFF742FB0F49886000BF0BE000BF5A
:102A900022070C49C8680F210907FFF736FB0949CF
:102AA000C86000BF00BF00BFE968086801210904D1
:102AB0007218491EFFF729FBE968086000BF70BD66
:102AC0003C40000080010040FEB5002521480488FC
:102AD00000200190FFF738F8FFF77CF80020009005
:102AE0002DE01D48076821463868FFF77BFD00BFD1
:102AF00029461A480068FFF7E6FD02901648076865
:102B00003868FFF75DFD064600BF0298A04201D17C
:102B1000AE4202D00198401C01900E4800888542C8
:102B200001DB002501E0681C85B2002C02D10948B8
:102B3000048801E0601E84B20098401C00900121CE
:102B4000090400988842CCD3FFF76CF8FFF724F80B
:102B50000198FEBD2A0000204C0000204800002003
:102B6000F8B506460024002700250EE02146304631
:102B7000FFF7A9FD0746A74200D06D1C0548008855
:102B8000844200D102E0601C84B2EFE700BF284617
:102B9000F8BD00002A000020FEB500242148058869
:102BA00000200190FEF7D0FFFFF714F800200090FE
:102BB0002CE01D48076829463868FFF713FD00BF61
:102BC0001A48076821463868FFF7B9FC06461648D8
:102BD00007683868FFF7F4FCC0B20290AE4202D139
:102BE0000298A04202D00198401C0190FF2C01DB0A
:102BF000002401E0601CC4B2002D02D10948058800
:102C000001E0681E85B20098401C00900121090473
:102C100000988842CDD3FFF705F8FEF7BDFF019875
:102C2000FEBD00002A0000204C00002048000020CB
:102C300006480078401C05490870084600780628B8
:102C400001D300200870014800787047440000203C
:102C500000201AE00E49098842000E4B99520C4997
:102C60000988491C0A4A1180114609880A4A1288B3
:102C7000914202DB0021064A118000214200074BED
:102C800099524200064B9952401C6428E2D3704787
:102C9000C0000020640500202A0000202C0600202F
:102CA000F406002010B50D480D490968884207D187
:102CB0000C49096889000C4A5158086980470BE0A3
:102CC00006480A490968884206D106490968890008
:102CD000054A51584869804710BD0000C43F0000B4
:102CE0004800002050000020000000204C00002080
:102CF00010B50D480D490968884207D10C4909688B
:102D000089000C4A5158086980470BE006480A4977
:102D10000968884206D1064909688900054A515860
:102D20004869804710BD0000D83F000048000020DF
:102D300050000020000000204C00002010B50D487D
:102D40000D490968884207D10C49096889000C4A75
:102D50005158086980470BE006480A4909688842CB
:102D600006D1064909688900054A515848698047D3
:102D700010BD00000040000048000020500000206E
:102D8000000000204C0000207CB505460C4628467B
:102D9000FFF782FC01900090684600784007C00F62
:102DA000002820D0606864281BD2002616E0284640
:102DB000FFF791FC62685200A16888526068401C6D
:102DC00060606068642808D300BF286840690421F7
:102DD00088432968486100BF00BF761C032EE6D3F4
:102DE00001E000BFFEE72846FFF756FC0190009087
:102DF000684600788007C00F00282CD060686428DF
:102E000027D216E02846FFF766FC62685200A168E8
:102E100088526068401C60606068642809D300BF05
:102E200028684069022188432968486100BF012061
:102E30007CBD00BF2868FFF75AFB019000906846F0
:102E400000784007C00F0121484048400028D9D1F0
:102E500001E000BFFEE70020EAE70000FEB50746FC
:102E60000C463846FFF718FC02900190684600793E
:102E70000007C00F002827D03846FFF731FC00BFFD
:102E80003868FFF734FB00900290019068460079A3
:102E9000C007C00F002801D0082500E004252068E5
:102EA0004019642802D9642120680D1A002609E01F
:102EB0002268501C20605000044A115A3846FFF71F
:102EC00016FC761CAE42F3D3FEBD00006405002064
:102ED0007CB505460C462846FFF7DEFB01900090C6
:102EE000684600780007C00F00282ED020686428AC
:102EF00029D20FE020684000144A115A2846FFF7F3
:102F0000F6FB2068401C20602068642802D3284615
:102F1000FFF7E6FB00BF2868FFF7E9FA0190009091
:102F2000684600788007C00F0121484048400028CB
:102F3000E0D107490868016849690822114302681D
:102F4000516100BF01E000BFFEE77CBD64050020C9
:102F500048000020F7B582B0044615460026F64327
:102F6000002C01D105B0F0BD002705E04C217943CC
:102F70004819FFF7F2F97F1C042FF7D301AA0020AC
:102F80000399FFF734F92068002816D0002620683E
:102F9000B20001682846FF30F1308150216808688E
:102FA000FEF7E0FF4C2070434019009021680A7A38
:102FB00001AB48680121FFF73AF9606800281FD08B
:102FC00060680168FF20F130405981420CD0012631
:102FD0006068B20001682846FF30F13081506168B6
:102FE0000868FEF7BFFF00E000264C207043401940
:102FF000009061680A7A01AB48680121FFF717F970
:10300000A068002828D0A0680168FF20F13040594E
:10301000814201D1002614E0A0680168FF20F5304C
:103020004059814201D101260BE00226A068B2007E
:1030300001682846FF30F1308150A1680868FEF72A
:1030400091FF4C20704340190090A1680A7A01ABAF
:1030500048680121FFF7EBF8E068002831D0E0680C
:103060000168FF20F1304059814201D100261DE066
:10307000E0680168FF20F5304059814201D1012606
:1030800014E0E0680168FF20F9304059814201D125
:1030900002260BE00326E068B20001682846FF30F4
:1030A000F1308150E1680868FEF75CFF4C20704306
:1030B00040190090E1680A7A01AB48680121FFF7E6
:1030C000B6F8701C01214902485100BF4AE70000D0
:1030D000F0B587B00120800740680607360F082E3C
:1030E00003D2B00026490D583AE00A2E37D8092EEF
:1030F00002D00A2E06D102E02248C46806E0214828
:10310000046A03E01F484038846B00BF00BF600FB3
:1031100003900398062820D2039880001849085885
:1031200006902007000F0590102020400009049011
:103130007F2000022040070A002F00D102270699B5
:10314000794308460599491CFDF718F9019004993F
:10315000491CFDF713F9054602E00B4D00E00A4D4E
:1031600001208007806881B20291084805600299B9
:10317000491C2846FDF702F90549086007B0F0BD73
:10318000443F00008000004000127A0050010020FF
:103190004C0100202049214A11632049403109682F
:1031A0000122120711431D4A40321160114609697C
:1031B00012051143194A403211611146096A12057C
:1031C0001143164A4032116213498A071160890778
:1031D000C96808221143D206D1600F49104A116014
:1031E00000210F4A403251619161D16111625162F7
:1031F000002006E00022D243094920318300CA5052
:10320000401C0D28F6D30021054A1160034A1163C2
:103210000449054A11607047A1AA5585C0100040B5
:103220000030004000127A004C01002010B5FEF77B
:1032300039FC0948017809480068FFF7E7F90648B2
:10324000017807480068FFF7E1F906A10348006824
:10325000FEF764FD10BD000024000020480000209F
:103260004C0000204D43522042697473000000005E
:1032700010B5FEF743FC0948417809480068FFF79C
:10328000DDF90648417807480068FFF7D7F906A13D
:1032900003480068FEF742FD10BD00002400002036
:1032A000480000204C0000204D732D536C204672C6
:1032B000616D650010B5FEF7F5FB09480178094816
:1032C0000068FFF7B3F90648017807480068FFF780
:1032D000ADF906A103480068FEF720FD10BD00000F
:1032E00024000020480000204C00002049525120BA
:1032F000426974730000000070B5FEF7EFFB0748E9
:1033000004680748857829462068FFF7A5F800BFBC
:1033100004A102480068FEF701FD70BD48000020CE
:10332000240000204C424D0010B511490978890055
:10333000104A5058FFF78AF9FFF77AFC0C490978D0
:1033400089000C4A505800220B49FFF7ACF9084994
:1033500009788900074A50580121FFF795F9044977
:1033600009788900034A505804A1FEF7D7FC10BD24
:10337000440000202C000020240000204C424D205E
:10338000414C4C0070B5FEF77FFB084800250468EF
:1033900007480679324629462068FFF74DF800BFF6
:1033A00004A102480068FEF7B9FC70BD4800002087
:1033B0002400002054582D5258205261746500009A
:1033C00010B5FEF76FFB0948017809480068FFF760
:1033D00025F90648017807480068FFF71FF906A19C
:1033E00003480068FEF79AFC10BD0000240000208E
:1033F000480000204C0000204D732D536C20426982
:103400007473000070B5FEF73FFB08480468084875
:10341000C5780679324629462068FFF70DF800BFC7
:1034200004A102480068FEF779FC70BD4800002046
:10343000240000204D732D536C20526174650000F0
:1034400010B50024FEF7B4FCFFF7A6FB04462046A7
:10345000FEF790FC10BD10B50024FEF7A9FCFFF7A5
:1034600033FB04462046FEF785FC10BD10B5002452
:10347000FEF79EFCFFF728FB04462046FEF77AFC89
:1034800010BD000008B5FEF793FC0020134908604A
:10349000134948600860134888600020124948605A
:1034A000086012488860FFF7D3FBFEF74DFBFEF77C
:1034B00091FB0F48006800900E4800990068FFF7E4
:1034C000DCF86946087808218843083069460870A6
:1034D000094800990068FFF7D0F808BDBC0000203B
:1034E000BC0700202C060020C8070020F40600209E
:1034F000283F0000480000204C00002010B5FEF7D7
:1035000057FCFEF721FB05480068FFF729FB04463E
:10351000FEF742FB2046FEF72DFC10BD48000020C0
:1035200010B5FEF745FCFEF70FFB07490978890047
:10353000064A5058FFF714FB0446FEF72DFB2046C1
:10354000FEF718FC10BD0000440000202C000020F5
:1035500010B50024FEF72CFCFFF7B6FA044620460F
:10356000FEF708FC10BD000010B5FEF721FCFEF7C9
:10357000EBFA05480068FFF7F3FA0446FEF70CFB88
:103580002046FEF7F7FB10BD4800002010B50648A6
:103590000068FFF75BF805480068FFF757F8044834
:1035A00000780449487010BD480000204C000020FD
:1035B0006C0000202400002010B504480068FFF7CC
:1035C00045F803480068FFF741F810BD48000020A7
:1035D0004C00002010B504480068FFF737F8034896
:1035E0000068FFF733F810BD480000204C000020B1
:1035F00010B50A480068FFF729F809480068FFF786
:1036000025F806480068FEF7A5FF05480068FEF7A4
:10361000A1FF044800780449087110BD480000204B
:103620004C000020B80000202400002010B5044801
:103630000068FFF70BF8034800780349087110BDD4
:1036400048000020DC0000202400002010B50649BE
:1036500009788900054A5058FEF7F8FF04480078B9
:103660000449087110BD0000440000202C00002017
:10367000F80000202400002010B502480068FEF782
:10368000E5FF10BD4800002010B502480068FEF7B5
:10369000DDFF10BD4800002070477047704770473D
:1036A000704770477047000070B500201749C87018
:1036B000084600790C2801DA0C200871134840787C
:1036C000134908700220114948700022114800680F
:1036D000FEF7E9FF0F480025046829462068FEF739
:1036E000F0FE00BF002209490B480068FEF7DBFF2F
:1036F00009480024056821462868FEF7EAFE00BF55
:1037000006A104480068FEF709FB70BD24000020F4
:103710006C000020480000204C0000204D43522047
:10372000426974730000000070B500201449C8702D
:10373000084600790C2801DA0C2008710022104993
:1037400010480068FEF7AFFF0E48002504682946C0
:103750002068FEF7B6FE00BF002209490A4800684B
:10376000FEF7A1FF0848046829462068FEF7B1FE6D
:1037700000BF06A103480068FEF7D0FA70BD000044
:1037800024000020480000204C0000204D732D53E1
:103790006C2042697473000070B500201449C87031
:1037A000084600790C2801DA0C2008710022104923
:1037B00010480068FEF777FF0E4800250468294688
:1037C0002068FEF77EFE00BF002209490A48006813
:1037D000FEF769FF0848046829462068FEF779FE6D
:1037E00000BF06A103480068FEF798FA70BD00000C
:1037F00024000020480000204C0000204D732D5371
:103800006C204672616D650070B51A4800791A49DE
:10381000087000201749C870FE2008710022174860
:103820000068FEF740FF1548002504682946206817
:10383000FEF747FE00BF002110480068FEF7AAFE11
:1038400000220C490E480068FEF72DFF0C480024AA
:10385000056821462868FEF73CFE00BF00210848A5
:103860000068FEF797FE07A104480068FEF756FAC5
:1038700070BD000024000020B80000204800002097
:103880004C0000204952512042697473000000002E
:1038900070B50E4800790E49087000200B49C870B9
:1038A0000220087100220B480068FEF7FCFE094860
:1038B0000125046829462068FEF703FE00BF06A123
:1038C00004480068FEF72AFA70BD000024000020BA
:1038D000DC000020480000204C424D0010B511488B
:1038E00000791149087000200E49C8700220087143
:1038F0000E49097889000E4A505800220949FEF7FE
:10390000D2FE0A4909788900094A50580121FEF778
:10391000BBFE064909788900054A505805A1FEF703
:10392000FDF910BD24000020F80000204400002014
:103930002C0000204C424D20414C4C0070B5002022
:103940001449C870084600790C2801DA0C20087167
:103950000022104910480068FEF7A5FE0E48002519
:10396000046829462068FEF7ACFD00BF0022094923
:103970000A480068FEF797FE084804682946206850
:10398000FEF7A7FD00BF06A103480068FEF7C6F9D1
:1039900070BD000024000020480000204C000020E2
:1039A0004D732D536C2052617465000070B5002278
:1039B00009490A480068FEF776FE084800250468B1
:1039C00029462068FEF77DFD00BF05A10348006879
:1039D000FEF7A4F970BD000024000020480000207C
:1039E00054582D52582052617465000010B50D498D
:1039F0000D480068FFF7C8F900280CD00B48006894
:103A0000012108430949086008460068032807D1D6
:103A1000FEF742F904E0034903480068FFF71EFA85
:103A200010BD0000BC07002048000020BC000020A2
:103A300010B50D490D480068FFF7A6F900280CD015
:103A40000B480068022108430949086008460068DD
:103A5000032807D1FEF720F904E003490348006872
:103A6000FFF736FA10BD0000C80700204C00002008
:103A7000BC00002010B51DE0134909680868016802
:103A80008CB200BFE0B2432807D0452809D04E28A9
:103A90000BD101200D49087007E001200C49087086
:103AA00003E001200B49087000BF00BFE1B20AA08B
:103AB000FCF7C0FB04490968086881690A0901210B
:103AC00091430029D8D110BD2C01002020000020F6
:103AD000210000202200002025630A0070B5054661
:103AE0000C4605E0A047002801D0012070BD6D1EE6
:103AF000002DF7D1A047F9E70449086801690122C0
:103B000012051140090D08467047000054010020BD
:103B1000044908680169012212051140090D08468F
:103B20007047000058010020F8B5040C8BB22646FF
:103B300082B25E43104658430D0C370C3604002108
:103B40008019164679416E43370C36048019264693
:103B500079416E438919F8BD4900CA020243100039
:103B600000D004204A0D01D001221043044A490D1F
:103B7000914201D102210843012800D1052070475C
:103B8000FF07000010B5002819DB1A4A03231B02A7
:103B9000D21883089B00D2588307DC0EFF23A34072
:103BA0009A438B071B0E8407E40EA3401A43114B64
:103BB000032424021B198408A4001A5118E00E4A99
:103BC00003071B0F083B9B089B00D2588307DC0EA2
:103BD000FF23A3409A438B071B0E8407E40EA340E8
:103BE0001A43054B0407240F083CA408A4001A51EB
:103BF00010BD000000E100E01CED00E010B5002861
:103C000019DB1A4A03231B02D21883089B00D258DF
:103C10008307DC0EFF23A3409A438B071B0E840708
:103C2000E40EA3401A43114B032424021B198408F9
:103C3000A4001A5118E00E4A03071B0F083B9B080B
:103C40009B00D2588307DC0EFF23A3409A438B07C7
:103C50001B0E8407E40EA3401A43054B0407240FF0
:103C6000083CA408A4001A5110BD000000E100E0C7
:103C70001CED00E0014600207047000010B50B4627
:103C800000BF084A126811688A6954090122A243D8
:103C9000002AF6D0034C2468C2B221680A6000BF33
:103CA00010BD00002C0100208CB008200A905B4859
:103CB000FEF74CF900BF5A4881070860594908636C
:103CC00000BF1422584905A8FCF75CFA05AC012591
:103CD0000220564901950090544828302346082276
:103CE000FEF7E0F80120FEF7D1F80B900B98FCF7F7
:103CF00066FE044600224E4BFCF764FE0646002298
:103D00004C4BFCF7EBFB00224B4B01910090FCF776
:103D1000E5FB03910290FCF705FE0490FEF754F8D2
:103D2000012211464B20C001FEF73CFD43490968C2
:103D300008684021FEF72EFD404800250468102049
:103D400020562946FFF71EFF10202056002805DBCD
:103D5000C206D20E01219140394A116000BF00BF56
:103D60000220FDF7DBFE0020364908600968890063
:103D7000354A5158086880474FE001210020FEF77E
:103D800024F8002803D13148007800281DD02D499F
:103D9000096889002C4A51584868804729480068BA
:103DA000401C28490860084601680A98814202D3ED
:103DB000002024490860234909688900224A515893
:103DC0000868804700202149087001210846FDF756
:103DD000FCFF002803D11E480078002809D01949AB
:103DE00009688900184A5158886880470020184996
:103DF000087001210220FDF7E8FF002803D11548D3
:103E00000078002809D00F49096889000E4A5158E6
:103E1000C868804700200F490870AEE7C0CF6A002D
:103E2000A1AA5585C0100040943E000050000040FB
:103E3000000034400000204000408F402C01002052
:103E400000E100E0500000200000002020000020E1
:103E5000210000202200002010B500290AD0087897
:103E6000002807D005487844FDF76AFD002801D0F6
:103E7000002010BD0248784410BD00004603000039
:103E80003E03000003B402487844844603BC604704
:103E9000CFCFFFFF00000000000600000A00010075
:103EA0000080000000000600883F000008000000BD
:103EB00006000000883F0000090000000600000026
:103EC000883F00000A00000006000000883F000054
:103ED0000700000006000000883F00000C00000002
:103EE00006000000883F00000D00000006000000F2
:103EF000883F00000E00000006000000883F000020
:103F00000B00000006000000D83E0000FC3E000050
:103F1000F03E0000E43E0000A83E0000CC3E000061
:103F2000C03E0000B43E000006000000943F0000C8
:103F30000F00000005000000943F0000100000008A
:103F40000500000000127A0000093D0000127A000E
:103F500000093D0000127A0000093D00409C00006D
:103F600000800000000008400C000040002000001D
:103F7000001008400C0000400040000000200840F5
:103F80000C00004000800000003008400C000040A1
:103F900000000100004008400C000040000002004A
:103FA000010000000100000001000000010000000D
:103FB00000127A0000127A0000127A00409C000081
:103FC0000080000000500940100000400400000084
:103FD000A0010040180000000060094010000040EF
:103FE00008000000A4010040190000000070094012
:103FF0001000004010000000A80100401A0000005E
:10400000008009401000004020000000AC0100408A
:104010001B00000000100B4010000040000000409A
:10402000B00100401C00000000200B4010000040C8
:1040300000000080B40100401D0000000090094015
:104040001000004040000000880100401200000005
:1040500000A0094010000040800000008C010040DA
:104060001300000000000000020000000600000035
:10407000820000008600000080807F7E7D7C7B7A4D
:104080007978777676757473727171706F6E6E6D04
:104090006C6C6B6A6A6968686766666564646363AA
:1040A00062616160605F5F5E5E5D5D5C5C5B5B5A30
:1040B0005A5959585857575656555555545453539D
:1040C00052525251515050504F4F4F4E4E4D4D4DF8
:1040D0004C4C4C4B4B4B4A4A4A4949494848484743
:1040E0004747474646464545454444444443434381
:1040F000434242424241414102400000000000A0D0
:104100000000000005400000000000C800000000A2
:104110000C4000000000409C00000000194000001E
:104120000020BCBE0000000034400000BFC91B8E50
:1041300000000004B5400000504BCFD06607E2CF2E
:10414000010000006C4100003E8251AADFEEA7345E
:1041500001000000D9420000DCB5A0E23A301F9710
:10416000FFFFFFFFB4450000FD25A0C8E9A3C14F34
:10417000FFFFFFFFFF3F0000000000800000000085
:10418000FF3F00000000008000000000C841000068
:10419000000000205C010000D61900009C420000D5
:1041A0005C010020DC260000040100001C0000006F
:1041B00043000000F8FFFFFF0C0000000E000000AD
:1041C0000F0000002E00000022C4142014011B2048
:1041D000FC081A70041A88041A54041AA0041AE07D
:1041E0000441320F120E25FFFFC43F1AD8041AEC07
:1041F000041122401A14041A2804412918292041C4
:1042000023A936238D35232D322341341A991029C1
:1042100004412329371AB91C23C1331A571C1A9B8E
:104220001829041A99181AD5181A71341A6D181AFF
:104230009D1429042309381AF1181AB5181A85187B
:1042400023ED39E3313A1A91241A2D2C1AF9241A44
:10425000FD241A9F0C2904411ADD1C1A4D0C1A2941
:10426000701A21481AA10C2904411A3D4C1A790CE4
:104270001A05341A511C1AA30C29041AAD181A89EC
:10428000081A85341A69181AA50C29041A3CEC126C
:0C4290000312010218044B127A047100A2
:04000005000000C136
:00000001FF
