:020000040000FA
:1000000048280020BD010000C5010000C701000014
:1000100000000000000000000000000000000000E0
:10002000000000000000000000000000C901000006
:100030000000000000000000CB010000CD01000026
:10004000CF010000D1010000D3010000D501000064
:10005000D7010000D9010000DB010000DD01000034
:10006000DF010000E1010000E3010000E501000004
:10007000E7010000E9010000EB010000ED010000D4
:10008000EF010000F1010000593A0000F501000005
:10009000F7010000F9010000FB010000FD01000074
:1000A0005D2C0000A92C0000F52C000005020000CA
:1000B00007020000090200000B0200000D02000010
:1000C00000F002F800F04FF80CA030C808382418EF
:1000D0002D18A246671EAB4654465D46AC4201D180
:1000E00000F041F87E460F3E0FCCB6460126334263
:1000F00000D0FB1AA246AB46334318478C400000A1
:10010000AC4000000023002400250026103A01D353
:1001100078C1FBD8520700D330C100D50B607047BF
:1001200010B5662902D103F0ABFE10BD642902D1DF
:1001300000F0EEF810BD632902D100F0D6FF10BD2B
:10014000732902D100F0D9FF10BD002010BD1FB5EA
:1001500001F000F804000020002103F07BFEE060C5
:100160001FBD10B510BD01F0C3FB1146FFF7EFFF37
:1001700003F098FD01F0DBFB03B4FFF7F2FF03BCD3
:1001800001F022FC70B505460C46164602E00FCC85
:100190000FC5103E102EFAD2082E02D303CC03C591
:1001A000083E042E07D301CC01C5361F03E0217899
:1001B0002970641C6D1C761EF9D270BD17488047EB
:1001C00017480047FEE7FEE7FEE7FEE7FEE7FEE72B
:1001D000FEE7FEE7FEE7FEE7FEE7FEE7FEE7FEE7F7
:1001E000FEE7FEE7FEE7FEE7FEE7FEE7FEE7FEE7E7
:1001F000FEE7FEE7FEE7FEE7FEE7FEE7FEE7FEE7D7
:10020000FEE7FEE7FEE7FEE7FEE7FEE7FEE70000AB
:1002100004480549054A064B704700004D3100006F
:10022000C10000004808002048280020481800208D
:10023000481800200FB4054910B503AA029800F031
:1002400061FF10BC08BC04B0184700005C0100202E
:10025000F8B50E460446002020622046E168884733
:10026000002829D0252802D06268A16820E0E16832
:1002700020460027884705001ED028464138192807
:1002800002D80127FF022035324620462760294642
:10029000FFF746FF002808D0012804D0F61DF60815
:1002A000F6000836D9E7361DD7E762682846A16808
:1002B0009047206A401CCFE7206AF8BD70B50C4615
:1002C0000546012A05D02878800600D5EA69002372
:1002D00002E0012305E05B1C934202D2E05C0028AF
:1002E000F9D1A869E618C01AA861286AC01828625E
:1002F0002846C046C04604E06A682078A968641CA5
:100300009047B442F8D32846C046C04670BD0000AE
:10031000F7B5002575291068009914A611D0C046BC
:10032000C046002802DA404211A608E00099096898
:100330008A0701D50FA602E0490704D50EA60125BC
:1003400001E0C046C046009F0024243704E000F0CE
:10035000EDFE30313955641C0028F8D12B46324669
:100360002146009800F052FCFEBD00000000000095
:100370002D0000002B0000002000000000220309D7
:100380008B422CD3030A8B4211D300239C464EE0B0
:1003900003460B433CD4002243088B4231D303096C
:1003A0008B421CD3030A8B4201D394463FE0C3091E
:1003B0008B4201D3CB01C01A524183098B4201D336
:1003C0008B01C01A524143098B4201D34B01C01A21
:1003D000524103098B4201D30B01C01A5241C30899
:1003E0008B4201D3CB00C01A524183088B4201D308
:1003F0008B00C01A524143088B4201D34B00C01AF4
:100400005241411A00D201465241104670475DE008
:10041000CA0F00D04942031000D34042534000228B
:100420009C4603098B422DD3030A8B4212D3FC2234
:10043000890112BA030A8B420CD3890192118B42B3
:1004400008D3890192118B4204D389013AD09211C9
:1004500000E08909C3098B4201D3CB01C01A524184
:1004600083098B4201D38B01C01A524143098B424D
:1004700001D34B01C01A524103098B4201D30B0136
:10048000C01A5241C3088B4201D3CB00C01A52415B
:1004900083088B4201D38B00C01A5241D9D2430842
:1004A0008B4201D34B00C01A5241411A00D201467F
:1004B000634652415B10104601D34042002B00D5E9
:1004C0004942704763465B1000D3404201B50020AB
:1004D000C046C04602BD704770477047F0B5F94D41
:1004E0000C091E092C402E402F468BB0A7437DD00F
:1004F000B543FCD0002E7AD0002CFCD00D465D40D8
:10050000ED0F2543AC1BFF25AD0464190894C5020B
:10051000440DC9022143500DDC0204430120C007F1
:1005200001430443D2020191200C110C00958C462A
:10053000010423468B430A9161460904E24D8A4334
:100540000991010A7D4449198039097805464D43CE
:1005500001266D18F605751B6943C90C640B891CCF
:100560004C436418B5012C1B250C2E04B4434C439A
:100570004D43210C691889090591009DE90701D0B7
:100580000121C90704912C4601996708CD072F4323
:100590004C08059DE10B4D432D0C294666467543DD
:1005A00002950D4645432E46029D7D1BB4410095A4
:1005B0000D465D4301942C0C2F040D465543AE4669
:1005C0002D0C3D43029503947546049C2D04641B39
:1005D000049406D2029C039D641C00267541039579
:1005E000029401AC70CC009F7D1B01E03EE162E112
:1005F000B44109040095079101940599A408614349
:10060000090C0C464443650BE7040C4666467443EC
:10061000A646640B3C43039502947446049DE4048F
:100620002C1B049406D2029C039D641C0026754179
:100630000395029401AC70CC009F7D1BB4410194E2
:100640000C465C430095650FE7000C465443A646F4
:10065000640F3C43039502947446049DE4002C1BF4
:10066000049406D2029C039D641C002675410395E8
:10067000029401AC70CC009F7D1BB441AE09AF0663
:10068000049DC900AD092F43049DA406AD06049541
:10069000079D344369180791059DE10B4D432D0CCF
:1006A00029466646754302950D4645432E46029DF2
:1006B0007D1BB44100950D465D4301942C0C2F0425
:1006C0000D465543AE462D0C3D43029503947546A9
:1006D000049C2D04641B049406D2029C039D641C9C
:1006E000002675410395029401AC70CC009F7D1BE0
:1006F000B44101948C050694079C890A6118009501
:100700000791019C0599A4086143090C0D464543D6
:10071000680BEF040D46644665436C0B3C43049F35
:10072000ED047D1BAC4602D20025641C6841009E8E
:10073000019D371B85410846584301950C46460FDD
:10074000C5005443600F28436546E4002C1B02D2C9
:100750000025401C6E41019D3F1AB5412846BD0948
:10076000800628438446A009BF064E020699A406C7
:1007700076180743079D002068410A99079019439E
:100780000020099B00906046FF1913434041E20F8F
:1007900064003A43A4460446D71A8C41A04203D9C8
:1007A0000120009020463A46C70F94184041624607
:1007B000D20F2243644664000494009CBE46640049
:1007C000D71AA446044602978C417746002F01D1E0
:1007D000A04204D96046401C8446029A2046C40FB9
:1007E000A64694184041049A0546D20F2243644617
:1007F0006400D31A8D417146002901D1A84202D963
:1008000028461A46641C10430122002800D01643D3
:1008100061020020079B891904465C410223002CD9
:1008200002DB491813466441089DCE0A2D145D1958
:100830004B056705E10A2C050D1908993E43C907C8
:100840006940002B08D0934006D30022761C51410A
:10085000002B01D1760876001C4A002D43DB15429F
:1008600041D0AA433FD030460BB0F0BD06180D462C
:100870004D41174C7642AC411AD395181C465C4149
:10088000134A6D42A24113D3012252054C00D442B7
:100890000AD15C00D4420BD04B4002D592021143E6
:1008A000E2E749004908DFE75940C90FC90718E0E6
:1008B00000200849D8E7054801420DD10342F7D08E
:1008C000F2E700000000FF072C3B00000000F07F73
:1008D0000000E0FF0000F87F114859400143C012BA
:1008E00041400020C0E70123089A9B069A4205DC9C
:1008F000032252078918C90FC907B5E70522520715
:100900008918074A1143D2125140ADE770B5154618
:100910001C4602460B4628462146FFF7DFFD70BD08
:10092000FFFFFF7F0346CA02400D10B510430A15B2
:1009300004D00124E4072043002A05DB0A4CA21A54
:1009400004D4D040FF2A00DD002010BD4A00002B57
:1009500001D0012000E00020101801225205D042F1
:10096000F2D8C817C04310BD1E0400001F22030C9C
:1009700002D10F22000402D0030E03D004E00020B5
:10098000014670470002083A030F01D10001121F0F
:10099000830F01D18000921E002801DB4000521E0F
:1009A000120551184205C012411810467047C10F78
:1009B000C90700D04042012292071143D6E7012126
:1009C0008907D3E7F0B58B4C0F09254689B0BD43A5
:1009D0007BD01D092646AE43FAD00E465E40274026
:1009E000F60F3E43254071D024012142FBD0FF2465
:1009F000AD19A4042D1B039501252D05DB02DB0A8F
:100A0000C9022B43C90A29431E010901040F130F10
:100A1000050121431701880B820391432D098C4660
:100A2000A90B1E438A039543B30B9A0396433F09D0
:100A3000BA0B9403A74302962E467E430497B6460C
:100A40004E19D7190C460196544305977E43371B20
:100A50007646BF1B3601B646BE0B36190096764663
:100A6000BC043719009C01D3641C00946400002F5F
:100A700001D001263443029E049F754366467E439F
:100A80000496760034196E0034190094029C019E7D
:100A90001C196643751BAE46069465464519059CB0
:100AA00005956C43594375460891691A0191049E56
:100AB00001465143A41B0491611A009C0791E10671
:100AC00005D061090122114302E072E06EE0610984
:100AD000089D00272C0A2D066918049D7C412A0ACE
:100AE0002D066918019D6241AC0DAD026D1854418F
:100AF000079A910D920255196141029A6446584332
:100B00005443069B059A5A43121A131B9A0E9B01D3
:100B10005B187A41010B0005C3185141220A2006D7
:100B200044195A419A4200D2491C01204002814294
:100B300003D315230226F64302E014230326F643CB
:100B40002020C51AA9401746AF40DA400A43204684
:100B50000399D8400914731819055118039A38439A
:100B6000D2075140AC4009D00122944006D3002264
:100B7000401C5141002C01D1400840001E4A9342C4
:100B800012D3012203989206904207DB052040070A
:100B900009181A480143C012414004E003204007ED
:100BA0000818C10FC907002009B0F0BD0020F107E7
:100BB000FAE705180C464C4111486D42A04115D387
:100BC00094181A465A410E48644290410ED30120AF
:100BD0004A004005824209D35A00824206D3594056
:100BE000C90F084AC90700201143DDE70020064964
:100BF000DAE700000000FF07FE070000FFFFFF7FAD
:100C00000000E0FF0000F07F0000F87FFFB5044621
:100C10000D4681B0243000902168880604D510224A
:100C2000E0699143216000E00120A84201DD471BFB
:100C300000E000270498A1697A191018081AA06129
:100C40002078C00602D42046C046C046002608E0F0
:100C500003986268A168805D9047206A401C761CFA
:100C6000206204988642F3DB2078C0060AD520462D
:100C7000C046C04606E06268A16830209047206AFE
:100C8000401C206238467F1E0028F4DC07E00098F4
:100C90006268A168405D9047206A401C2062284637
:100CA0006D1E0028F3DC2046C046C04620780006B2
:100CB00002D5022005B0F0BD0120FBE77047FFB56B
:100CC0000C461E468FB003CA089009914F007D0D57
:100CD00000D16D1E002108460020C0460321099A5C
:100CE00089050840002A03DA82008018400808407D
:100CF000800D01280A9002DD0020C0430A90089868
:100D000007430DD0F048F1492818484307141898B4
:100D100000281DD07542291E1DDD0A9842421BE0A5
:100D20001898012802D00020302104E00020F2436E
:100D300005E02154401CB042FBDB30460022189BEA
:100D4000002121540F998B600A60486013B0F0BDF8
:100D5000BD1B6D1CDFE70A9A002900DA69420BA867
:100D600000F096FA0BAB07CB03AB07C308990998C1
:100D700000F0FAFA6B4607C30146D5480918002D62
:100D800000910BDDD24903980A9A4942401800238A
:100D900003A90390684600F057FD08E003990A9AFA
:100DA0000023081803A90390684600F0F7FC6B467F
:100DB00007C30004000C03D00020C043410800E03A
:100DC0001046189A002A03D00022009215461EE011
:100DD000751E05D400F0C2F9303262556D1EF9D58A
:100DE00001220843079602D000227F1C04E02078ED
:100DF000302801D100227F1E002A069787D01EE0EE
:100E0000112D07DA00F0AAF9303262556D1C024646
:100E10000A43F5D1084303D00098002819D00EE00A
:100E20000021681E05E0235C625C63542254401E6E
:100E3000491C8142F7DBA81B401E07950690079AC4
:100E400018990020A0540F98079B069A81600CC047
:100E50007CE711260020189059E7D21DF0B50D4609
:100E60000446D10893B0C90003C90C900D9102F05B
:100E700065FE02460D98C00F01D02D2007E02068C6
:100E8000810701D52B2002E04007C00F4001032A53
:100E90000F9001D0072A05DB03462946204600F0C3
:100EA000B3F90EE12078800601D5E76900E0062756
:100EB0002846652D04D0662814D0672D69D12DE011
:100EC0000020112F009001DB112300E07B1C0CAAF5
:100ED00003A910A8FFF7F3FE1199002610987D1CB6
:100EE0000E9142E001203B460CAAC0070B90012066
:100EF000009003A910A8FFF7E2FE119D1298109927
:100F0000002600280E9501D1781C0D18781B02D4FC
:100F100046427D1C761EE81B00903AE0012F00DA65
:100F200001270020112F009001DD112300E03B4636
:100F30000CAA03A910A8FFF7C2FE11993D4610980C
:100F400000260E91217809070BD40E99A94200DAE8
:100F50000D4603A9012D04DD4A19203AD27F302A1B
:100F600006D0B84201DA011D04DA012100910FE038
:100F70006D1EEFE7002802DC86192D1A03E0411CE4
:100F8000A94200DD0D46801B401C00900120C007D7
:100F90000B902078000705D40098A84202DB0020BF
:100FA000C043009069460020C8720B98012102AF2F
:100FB0000337C907884225D0022010902B201190BA
:100FC0000B9800280BDA40420B902D20119006E080
:100FD0000B9800F0ABF830317F1E0B9039701099F0
:100FE000481E00291090F3DC0B980028F0D11198CE
:100FF0007F1E38702088000501D5452000E065205F
:101000007F1E387001A8C01BC01D0B900F980028D0
:1010100000D0012041190098C01709180B98081832
:10102000A169081A401EA0612078C00602D420469B
:10103000C046C0460F98002805D06268A168904756
:10104000206A401C20622078C00625D52046C04674
:10105000C04621E0002E07DB0E98B04204DD03A855
:101060006268805DA16802E06268A16830209047F4
:10107000206A761C401C20620098401E00280090C8
:101080000AD100F067F8C06862680168405CA16836
:101090009047206A401C206228466D1E0028D9DC3B
:1010A00007E062683878A1687F1C9047206A401C7E
:1010B00020620B99481E00290B90F2DC2046C046A6
:1010C000C046032042E6000001FCFFFF104D000077
:1010D000E1DFFFFF10B54369002B02D0C046C046D8
:1010E00001E0FFF7EBF8012010BD12780146243132
:1010F0000A7000224A700122ECE711680022D243F4
:10110000E8E70000084B70B50D467B4400F069F835
:101110000446284602F0ACFD002802D00020C0435F
:1011200070BD204670BD00006B2B0000014680089A
:10113000081A02091018020A1018020C1018C00828
:10114000820012185200891A01E0401C0A390A294B
:10115000FBD2704700487047080800200B4670B566
:10116000024689078008084319469D08141AA941B8
:1011700025090807054308092C194841250A0106D5
:101180000D43010A2C194141200C0D0428430D0C7C
:1011900000194D41002140194D41C008690708431D
:1011A000E908840F8D002543840024184D4124193B
:1011B0006D41121BAB4107E00925ED432C1152197B
:1011C00063410024401C61411C460A250026551B32
:1011D000B441F1D270BD000001694A1C0261087877
:1011E000704700B58FB00291002105910549019328
:1011F00079440391114604906846FFF729F80FB02F
:1012000000BD0000E5FFFFFFF8B51F4604460123BF
:101210000068DB02032601461840072A05DB002888
:1012200001D017A506E017A504E0002801D016A5F7
:1012300000E016A5102081432160A069C01E002F88
:10124000A06101D0401EA0612046C046C046002FCC
:1012500009D038466268A1689047206A401C206225
:10126000C01C206206E0206AFAE762682878A1685C
:101270006D1C9047761EF8D22046C046C046F8BD89
:101280004E414E006E616E00494E4600696E66002A
:10129000F7B516468AB0334878446C4603467C332B
:1012A000C06F5A689B680DC42E487844763003ACF2
:1012B0000DC80DC43720C001081837211B30FFF7B7
:1012C00067F805460C46803D1B3C02D56442012070
:1012D00000E000200027099010E0E0070CD00C206F
:1012E00020497843794432464C39411868460123F5
:1012F00000F054FA6B4607C364107F1C002CECD13D
:10130000184F7F442E3F16E0E80712D02001C01985
:101310000EC80691089307920068F04201D198190F
:1013200008903246012306A903A800F037FA03AB60
:1013300007C36D10641C002DE6D10998002806D063
:1013400032466946012303A800F07EFA05E0012336
:101350003246694603A800F021FA0A9B07C30DB084
:10136000F0BD0000582E0000034640000A4610B5AC
:10137000400D0BD00121C9070F24A40200191C0342
:1013800064082143540D2143D20207E000210120CB
:10139000F2E7D40F490021435200401E0029F8DA39
:1013A000DB0FDB07184310BDFFB50D46144685B0B3
:1013B0004868516802F0AAFB00910190A868A168F2
:1013C00002F0A4FB02910390A868616802F09EFB02
:1013D000029A12188242029201D2012000E00020FB
:1013E000019A0B18D2180028019202D08A4202D921
:1013F00003E08A4201D2012000E000200099081891
:1014000000906868A16802F081FB029A121882427B
:10141000029201D2012000E00020019A0B18D2189C
:101420000028019202D08A4202D903E08A4201D206
:10143000012000E000200099081800902868216829
:1014400040004900400849084018FA49471814E08C
:1014500001994000C90F084300900198029940008B
:10146000C90F08430190029803994000C90F08432F
:101470000290039840007F1E039000980028E7DA4E
:101480000898002801D0EC4E00E00026B74201DAAF
:10149000012000E00020002804902AD0F71BF80665
:1014A000C00E15D0029B2021091A039A8B401A43C3
:1014B0000392029A019BC2408B401A430292019A06
:1014C000009BC2408B4000991A430192C140009199
:1014D0007B110DD06F460320C11A03D50021820075
:1014E000B95003E08A008100BA587A50401EF3D503
:1014F000374603980299002800D00120014308983C
:101500000291002808460CD0002800D00120019943
:10151000019A490508430121D20AC902D202019267
:1015200000E001210E9B0122D207012B02D0002BEB
:1015300003D013E0002807D120E0904204D8904265
:101540000CD1019B0B4209D0019B5918019105D187
:101550000099491C009101D17F1C009200280DD0F8
:10156000102108460020C0460498002806D00F9895
:10157000002803D0082108460020C04628682168BA
:10158000019B009A4840C10F0598C90739430EC016
:1015900009B0F0BDFFB587B0099A0898089953685B
:1015A00092684068896896460022039317469446DD
:1015B000089A12685300099A5B0812685200520890
:1015C0009A1A9E4BD4180A9A002A01D0352200E0BC
:1015D000402206920022012315460492DB07059360
:1015E00024E0002D05D175460346039E4D1BB341F3
:1015F00009D375466646039B491B049D9841059B8C
:101600007519AC465F4163463B4308D0059B049E79
:10161000DD0776082E435B080496059301E0521E11
:10162000641EC50FED0749184041521C069B9A42A3
:10163000D7DB002D04D17546039A6B1A824101D283
:1016400003200CE0039A0B466B404240134303D047
:10165000014303D0012002E0022000E000206146A7
:1016600001910021009702910A99002905D0614655
:1016700040020143704B019102E080070023029079
:101680009C4201DA012000E0002007003AD01A1B3A
:10169000D006C00E15D0029D2021019C091AC5401C
:1016A0008C402543029C8C4000D001242543019CA2
:1016B0000295009DC4408D4000992C430194C14087
:1016C000009154111DD06D460221002202290CD137
:1016D0000320001B07E0002804DB8600AE59002E23
:1016E00000D00122401C0328F5DB081B02D588002E
:1016F0002A5004E08000285810438A00A850491E50
:10170000E3D51C460A98002802980CD0002800D087
:1017100001200199019A490508430121D20AC90211
:10172000D202019200E00121109B0122D207012B7D
:1017300002D0002B03D013E0002807D11FE0904215
:1017400004D890420CD1019B0B4209D0019B59183F
:10175000019105D10099491C009101D1641C0092AE
:1017600000280CD0102108460020C046002F06D0CB
:101770001198002803D0082108460020C046089888
:101780000999019A009B006809684840C10F0798B1
:10179000C907214382600AC00BB0F0BD00B585B017
:1017A000019300920A460146002302A8FFF7FCFDC0
:1017B00002A807C805B000BDFFB50A461F4685B0A0
:1017C0000799019301230091014602A8FFF7ECFD60
:1017D00002990398049ECA0F4900D20700920F2273
:1017E000490892028C1A0021002800DB0C464500B3
:1017F00013486D08844214D3079A002A04DA441E61
:101800000026104DF64302E004460D460E46102118
:1018100008460020C046002F03D0042108460020BF
:10182000C0462005E90A0843009908436905F20A01
:101830001143ADE602C0FFFF013C0000FF3F000086
:10184000FF070000FFFFFF7F00B585B00193009206
:101850000A460146002302A8FFF79CFE02A807C81B
:10186000A8E7FFB50A461F4685B0079901930123F3
:101870000091014602A8FFF78DFE02990398049E8D
:10188000CA0F4900D20700920F22490892028C1A0F
:101890000021002800DB0C46450011486D088442F9
:1018A00014D3079A002A04DA441E00260D4DF6438D
:1018B00002E004460D460E46102108460020C046B0
:1018C000002F03D0042108460020C0462005E90A65
:1018D0000843009908436905F20A114358E60000DD
:1018E000FF070000FFFFFF7F00487047E807002068
:1018F0007546FFF7F9FFAE46050069465346C00836
:10190000C000854618B020B5FEF782FC60BC0027F9
:101910004908B6460026C0C5C0C5C0C5C0C5C0C5BB
:10192000C0C5C0C5C0C5403D49008D46704710B513
:101930000446C046C0462046FEF71EFC10BD00000F
:10194000024670B50A4392072AD11E4DEE0104C823
:1019500008C9541B9443344017D0D0B2D9B2401AAE
:101960002106014310D190B299B2401A21040143DB
:101970000AD110021902000A090A401A2102014381
:1019800002D1100E190E401A70BD9A42DFD010BA63
:1019900019BA884201D9012070BD0020C04370BD32
:1019A00002780B78401C491C002A09D09A4207D1C2
:1019B00002780B78401C491C002A01D09A42EFD0D3
:1019C000D01A70BD0101010101491820ABBEFEE72C
:1019D00026000200704770B58C180578401C6B0714
:1019E0005B0F01D10378401C2A1106D10278401CFC
:1019F00003E00678401C0E70491C5B1EF9D12B07D2
:101A000005D40023521E0DD40B70491CFAE703784D
:101A1000401CCB1A921C03E01D780D70491C5B1C06
:101A2000521EF9D5A142D8D3002070BD01460B4803
:101A3000814201D1012070470948814201D1022031
:101A4000F9E70848814201D10320F4E706488142C2
:101A500001D10420EFE70020EDE70000C03F0000C7
:101A6000D43F0000E83F0000FC3F00000848406809
:101A70000079801C0649496808710548406800796A
:101A80001E2803DD022002494968087170470000E2
:101A90002C0000200B4800780F2806D103200949AC
:101AA00008700F20084908800BE006480078401CA9
:101AB00004490870044800884004000C401C024996
:101AC00008807047240000203C00002006488078F1
:101AD000032803D100200449887004E0024880787C
:101AE000401C014988707047240000200648407857
:101AF000012803D100200449487004E002484078DE
:101B0000401C0149487070472400002010B504466D
:101B1000054A2146054801F0F9F9054A21460548DC
:101B200001F0F4F910BD000070010020043F000036
:101B300074030020143F000070B500241BE0302225
:101B40006243104BD118A3000E4AC032D25810681D
:101B500000F009FC302363430A4D5A194C236343B8
:101B6000FF3D313D5919A500064BC0335B5918683C
:101B700000F0E4FB641C0348D0300068A042DED8CB
:101B800070BD0000A002002070B500240FE04C23BF
:101B900063430A4D5A1930236343FF3531355919D0
:101BA000A500074B5B59186800F0F6FB641C04485D
:101BB00010300068A042EAD870BD0000700100201B
:101BC0006003002070B500241BE030226243104BFC
:101BD000D118A3000E4AC032D258106800F0C3FBDF
:101BE000302363430A4D5A194C236343FF3D313D73
:101BF0005919A500064BC0335B59186800F09EFBCD
:101C0000641C0348D0300068A042DED870BD0000DC
:101C1000A404002070B500240FE04C2363430A4D58
:101C20005A1930236343FF3531355919A500074B45
:101C30005B59186800F0B0FB641C04481030006861
:101C4000A042EAD870BD00007403002064050020A3
:101C500008484078002804D0012804D0022806D182
:101C600003E005A0704705A0FCE705A0FAE705A082
:101C7000F8E7000024000020535049005353490066
:101C80004D4352004572720070B50025002411E0EA
:101C900060000D49085A61000C4A515A884207D128
:101CA00060000949085A6100094A515A884200D027
:101CB0006D1C641C642CEBD3FFF7ACFFFFF764FFD3
:101CC000284600F053F870BD78050020400600203B
:101CD0000807002010B5002801D1012400E00024ED
:101CE0000C7000280CD001280BD0022802D0032849
:101CF0000AD102E00124147006E001241C7003E004
:101D000000BF002414701C7000BF10BDF8B504465D
:101D10000D460E4840680078421C29460CA0FEF78C
:101D200089FA2046FFF782FE0646FFF791FF074635
:101D3000064840680079009004484068837832463D
:101D4000394606A0FEF776FAF8BD00002C00002008
:101D5000257320423A25640A00000000257325649B
:101D6000204D3A256420443A25640A0010B5044603
:101D7000002C03D104A0FEF75DFA03E0214607A082
:101D8000FEF758FA10BD0000537563636573732046
:101D90005472616E736665720A000000636E74456A
:101DA00072723D25640A000010B502A0FEF742FAE7
:101DB00010BD0000537461727465642E2E2E0A00EB
:101DC000704702460020704770B50446224D20023D
:101DD0002043210408432106084306461F4948685A
:101DE0003246294600F088F91C4948601B491031E9
:101DF00048683246294600F07FF91849103148609A
:101E00001649203148683246294600F075F91349D1
:101E1000203148602D142002004306460F4988688F
:101E20003246294600F068F90C4988600B491031A8
:101E300088683246294600F05FF908491031886009
:101E40000649203188683246294600F055F9034991
:101E50002031886070BD00000707070700110040AF
:101E60000120800740680107090F0A2901D8C8B27C
:101E700070470B20FCE710B504462078FFF7A4FF5D
:101E800010BD000010B50446002C01D001F0FCF894
:101E90000148006810BD000060010020FFB581B05E
:101EA0000E4615461C460A9FFFF7DAFFA84202D1EC
:101EB000022005B0F0BD21783046626800F0DFF8FE
:101EC000002801D10120F4E76078002801D0781CB7
:101ED000C7B2224608323946E368019800F038F963
:101EE000002801D10320E4E7218A22461232284645
:101EF0000B9B00F003F80020DBE70000F8B5044678
:101F00000D4617461E46002E02D03846FFF7B3FF97
:101F100000BF2007000F01218907486000BF00BFF4
:101F200088682A46064900F0E7F801218907886099
:101F300000BF002E02D13846FFF79DFFF8BD00001C
:101F4000FFFF000008B500900099002905D000BFF0
:101F50000099491E00910029FAD108BD416809681D
:101F6000826811434268116001490268116070473C
:101F7000A1AA5585416809688268114342681160C9
:101F80000149026811607047A1AA5585F3B585B073
:101F90000546254801900D2D04D1069800F052F811
:101FA00001903DE0052D04D8A80020490858019073
:101FB00036E0072D34D80198092802D00A2806D126
:101FC00002E01B48C46806E01948046A03E01848A8
:101FD0004038846B00BF00BF600F02900298062853
:101FE0001ED2029800F026F806462007000F049043
:101FF00010202040000903907F2000022040070AA3
:10200000002F00D102273146794308460499491C24
:10201000FEF7B4F900900399491CFEF7AFF901905F
:10202000019807B0F0BD000000127A00AC3F00003C
:102030008000004001468800014A105870470000A7
:10204000403F000010B50446002C01D001F01CF800
:102050000148006810BD00006401002073B50C4603
:102060000099080F2146FFF791FF0546009886B2B8
:10207000711C2846FEF782F9054628467CBD70B5DE
:1020800004460D4616462846002804D001280DD0E7
:1020900002281CD115E02168032212079143216018
:1020A00021680122D2061143216010E0216801223B
:1020B00052079143216021680322D2061143216017
:1020C00005E021680722D2061143216000BF00BF4E
:1020D00000BF3146204600F001F870BD70B50546DE
:1020E0000C46034805600349204601F0E9FC70BD39
:1020F00068010020DD3A000003461846884310437B
:1021000070470346184688431043704770B50B4626
:1021100001680E4C2140147824027F252D022C40AA
:1021200055782D072D0F2C4395782D01102635401D
:102130002C435D076D0F6D072C43F5052C432143A0
:102140006C000C430460016070BD0000E080FF1F64
:10215000F8B505460E4617461C463A46314628460F
:10216000FFF7D4FF2146284600F002F8F8BD000032
:1021700070B505460C46034805600349204601F04A
:102180009FFC70BD6C010020F53A000001680968F1
:1021900042681143026811607047000030B58568DD
:1021A0002C68044A551C4B19254695431D438268EB
:1021B000156030BDFFFF00000021016041608160BB
:1021C000C16001614161816170470021016041602E
:1021D0008160C160016141618161C16101624162EF
:1021E0008162C16270470123137050709170704713
:1021F000F0B595B007460C4615461E4609A8FFF7F0
:10220000E4FF02A8FFF7D8FF02A800903246294653
:1022100020461A9B00F007F802AA09A9384600F0E8
:10222000BBF815B0F0BDFFB583B007460C98044667
:102230001C340C9D6B4601AA02A90498FFF74AFDC5
:102240006946097AB9406068084360600121B94075
:10225000A0690843A06168460079B840E16901437C
:10226000E16169460978B940206A08432062606AE2
:1022700006994978B940084360620121B94028684D
:10228000084328607807C60EF808002806D0012801
:102290000FD0022818D003282CD120E0A16805987F
:1022A000B0400143A1600F21B140686808436860F5
:1022B00020E0E1680598B0400143E1600F21B140A2
:1022C000A8680843A86015E021690598B04001435B
:1022D00021610F21B140E8680843E8600AE06169C4
:1022E0000598B040014361610F21B140286908435E
:1022F000286100BF00BF3807C60E3809002802D089
:10230000012818D10BE0A06A06998978B1400843EA
:10231000A0620321B1406869084368610BE0E06A8C
:1023200006998978B1400843E0620321B140A86969
:102330000843A86100BF00BF07B0F0BD70B50546F7
:102340000C461646224621461C31284600F024F849
:1023500070BD00B502461046FFF72EFF10461C3038
:10236000FFF733FF00BD42680A6002694A60826974
:102370008A60C269CA60026A0A61426A4A61826B03
:102380008A61026CCA61826C0A62026D4A62826D65
:102390008A62C26DCA6270471368C363136843617F
:1023A0001368436553690366936943661368C360A2
:1023B000536883629368C362D3680363136943639A
:1023C000136843641368C3648B688361CB68C3611B
:1023D0000B6903624B694362CB6903640B6A8364D4
:1023E0004B6A03658B6A8365CB6AC3650B68836040
:1023F0004B6803618B69836370470268120912019D
:1024000013460B430360704730B5436800244460B3
:10241000026830251446AC432246002903D0C0256B
:102420001446AC4322460C0114430460436030BDA3
:1024300070B54468002545600368FF2636021D46D6
:10244000B5432B460D021D4305600261446070BD1B
:1024500030B54368002444600268C0251446AC438C
:1024600022468C0114430460436030BD00E0816863
:10247000C168042211400029F9D17047014608467D
:1024800080300222026000E0C268CA68D207D20F20
:10249000002AF9D0002202607047002141600160EB
:1024A000022101610021416101624162704710B562
:1024B00004462046FFF7F1FF2046FFF7DFFF2046E6
:1024C000FFF7D4FF10BD03B5019941610CBD002990
:1024D00002D10222426001E00322426070470029DB
:1024E00002D10622426001E00E224260704708B528
:1024F0000146C8690090009808BD08B50146C86843
:102500000090009808BD30B503460C460020586086
:102510002078617809010843E178090208430546FB
:102520006078002802D1A078800105431D602079E1
:102530001861002058615862032018621846FFF79E
:102540009DFF1846FFF792FF30BD30B504460D469B
:102550002946204600F016F8204600F001F830BD6C
:102560000CB5024600BF1046FFF7C7FF0190009070
:10257000684600784007C00F0028F4D000BF90687C
:1025800080B20CBD1CB504460A4600BF00BF204601
:10259000FFF7B3FF01900090684600788007C00FF6
:1025A0000028F3D000BFA26000BF1CBD70B5044678
:1025B0000D4629462068FFF720FF70BD70B5044620
:1025C0000D4629462068FFF718FF70BD70B5044618
:1025D0000D4629462068FFF710FF70BD70B5044610
:1025E0000D4629462068FFF70FFF70BD10B5044661
:1025F0002068FFF75CFF00BFE06800680121090464
:102600008843E168086000BF00BF60680068A16897
:1026100088436168086000BF10BD13B50446206898
:102620000199FFF750FF1CBD70B504460D462946C1
:102630002068FFF74CFF70BD38B504462068FFF7EF
:1026400056FF009038BD70B504460D46201DFFF7BB
:102650009DFD2978201DFFF7A1FD69682068FFF71F
:1026600052FF287B002808D01020205601F07CFA69
:1026700010202056A96801F0BFFA70BD70B504465D
:102680000D4629462068FFF760FF70BD01460868C7
:10269000806880B2704701684969082291430268E6
:1026A00051617047026891607047F0B585B004468B
:1026B0000D461646228892016388D118B000FDF7B6
:1026C0005DFE07462846FEF77AF903910290791BD2
:1026D000642251430846FEF772F901910090039B72
:1026E000029AFDF7FBFE05B0F0BDF8B504460D46B5
:1026F0001646A9083046FDF741FE07463804800D0E
:102700002080B806800E6080F8BD00004A684262F2
:102710008A688262CA68C2620A6802624A6942635F
:102720008A698263CA698264024A42640A690263EE
:1027300070470000FF0700000021016041608160D8
:10274000C160016141618161C1617047026B036BCE
:102750005B085B000363816302637047F0B58BB075
:10276000074614460D2200212348006800F058F95E
:1027700001212148006800F021F90A90394609A892
:102780000A9AFFF7B2FF002C06D109AA1B491A4882
:10279000006800F033F90DE01822184901A8FDF790
:1027A000F1FC0020029009AA01A91348006800F07A
:1027B00025F900BF12480790002C02D0114808905C
:1027C00001E000200890022107A800F04EF83946E9
:1027D00009A80A9AFFF769FF05460E460AA0FDF709
:1027E00029FD39460FA0FDF725FD2A46334611A0E5
:1027F000FDF720FD0BB0F0BD40010020440100209A
:10280000283F0000343F000057656C6C636F6D65B6
:1028100020746F20554152542044656275674F758E
:1028200074210A0042617564526174653A2025641E
:102830000A000000426175644572726F723A202589
:10284000660A000070B588B006460C461546684614
:10285000FFF772FF6A462946204600F039F86946BC
:10286000304600F02DF808B070BD7CB504460D462A
:1028700001AA29460020FFF7B6FC206800280DD0E9
:1028800021680868FFF776FB01A800902268137A98
:102890005168126810680122FFF7AAFC60680028DE
:1028A0000DD061680868FFF765FB01A800906268B9
:1028B000137A5168126810680122FFF799FC7CBDF9
:1028C00010B503460C4621461846FFF71FFF10BD02
:1028D00030B50B8853608B789B069B0E9360354B0D
:1028E000136103785B01602423408478240123432F
:1028F0004478A400304D2C592343D3600378042B33
:1029000004D1FF240134D3682343D3604368002BF0
:1029100020D0D368092544682C402343D360022487
:1029200043682340002B03D0E4011369A3431361E0
:10293000042443682340002B03D0E4011369A3431C
:102940001361102443682340002B03D080241369B3
:10295000234313618368002B0DD083681B68936148
:1029600083681B79DB00382423408468647964071A
:10297000640F234353610369002B0AD01369046970
:102980002478A40001252C432343136103691B7998
:1029900013604369002B05D0136944692468A402BD
:1029A00023431361C368002B02D0C3681B68D36143
:1029B00030BD00000103000060400000FEB5044689
:1029C0000F460C48844203D1C0680068019003E0C0
:1029D0000948C06800680190019839460090FFF7E7
:1029E0003DFB0646E0680568ADB23046A8400646A5
:1029F0003046FEBD384000004C40000070B5044633
:102A00000D46164600BF60680068A168084361680B
:102A1000086000BF324629462068FFF713FF70BDEB
:102A200070B505460E461446134885420BD100BFCB
:102A30002207124988680F210907FFF762FB0F4937
:102A4000886000BF0BE000BF22070C49C8680F2157
:102A50000907FFF756FB0949C86000BF00BF00BF68
:102A6000E9680868012109047218491EFFF749FB4B
:102A7000E968086000BF70BD384000008001004078
:102A8000FEB500252148048800200190FFF754F886
:102A9000FFF798F8002000902DE01D4807682146B8
:102AA0003868FFF76FFD00BF29461A480068FFF736
:102AB000E5FD0290164807683868FFF751FD0646A5
:102AC00000BF0298A04201D1AE4202D00198401C42
:102AD00001900E480088854201DB002501E0681C5A
:102AE00085B2002C02D10948048801E0601E84B23E
:102AF0000098401C00900121090400988842CCD322
:102B0000FFF788F8FFF740F80198FEBD3C00002071
:102B1000600000205C000020F8B506460024002775
:102B200000250EE021463046FFF7A8FD0746A742E4
:102B300000D06D1C05480088844200D102E0601C72
:102B400084B2EFE700BF2846F8BD00003C0000203B
:102B5000FEB500242148058800200190FEF7ECFF17
:102B6000FFF730F8002000902CE01D480768294648
:102B70003868FFF707FD00BF1A4807682146386824
:102B8000FFF7E3FC0646164807683868FFF7E8FCDD
:102B9000C0B20290AE4202D10298A04202D0019887
:102BA000401C0190FF2C01DB002401E0601CC4B23A
:102BB000002D02D10948058801E0681E85B2009801
:102BC000401C00900121090400988842CDD3FFF7F2
:102BD00021F8FEF7D9FF0198FEBD00003C0000205F
:102BE000600000205C00002006480078401C054979
:102BF000087008460078062801D3002008700148B4
:102C0000007870475800002000201AE00E4909881B
:102C100042000E4B99520C490988491C0A4A1180FE
:102C2000114609880A4A1288914202DB0021064AAD
:102C3000118000214200074B99524200064B9952E5
:102C4000401C6428E2D37047D4000020780500209F
:102C50003C000020400600200807002010B50D4869
:102C60000D490968884207D10C49096889000C4A56
:102C70005158086980470BE006480A4909688842AC
:102C800006D1064909688900054A515848698047B4
:102C900010BD0000C03F00005C0000206400002068
:102CA000000000206000002010B50D480D490968A3
:102CB000884207D10C49096889000C4A51580869B3
:102CC00080470BE006480A490968884206D1064950
:102CD00009688900054A51584869804710BD0000BD
:102CE000D43F00005C0000206400002000000020B1
:102CF0006000002010B50D480D490968884207D1D1
:102D00000C49096889000C4A5158086980470BE052
:102D100006480A490968884206D1064909688900B7
:102D2000054A51584869804710BD0000FC3F00002B
:102D30005C000020640000200000002060000020F3
:102D40007CB505460C462846FFF776FC01900090BE
:102D5000684600784007C00F002820D060686428CB
:102D60001BD2002616E02846FFF790FC626852004E
:102D7000A16888526068401C60606068642808D35D
:102D800000BF28684069042188432968486100BF62
:102D900000BF761C032EE6D301E000BFFEE7284605
:102DA000FFF74AFC01900090684600788007C00F4A
:102DB00000282CD06068642827D216E02846FFF748
:102DC00065FC62685200A16888526068401C6060BF
:102DD0006068642809D300BF2868406902218843DD
:102DE0002968486100BF01207CBD00BF2868FFF74B
:102DF00084FB01900090684600784007C00F0121D5
:102E0000484048400028D9D101E000BFFEE700203B
:102E1000EAE70000FEB507460C463846FFF70CFC13
:102E200002900190684600790007C00F002827D063
:102E30003846FFF730FC00BF3868FFF75EFB0090B4
:102E40000290019068460079C007C00F002801D0A9
:102E5000082500E0042520684019642802D964216F
:102E600020680D1A002609E02268501C20605000DE
:102E7000044A115A3846FFF715FC761CAE42F3D3CC
:102E8000FEBD0000780500207CB505460C462846AE
:102E9000FFF7D2FB01900090684600780007C00F52
:102EA00000282ED02068642829D20FE02068400036
:102EB000144A115A2846FFF7F5FB2068401C206091
:102EC0002068642802D32846FFF7E5FB00BF286886
:102ED000FFF713FB01900090684600788007C00F51
:102EE0000121484048400028E0D1074908680168AE
:102EF0004969082211430268516100BF01E000BF27
:102F0000FEE77CBD780500205C000020F7B582B0AC
:102F1000044615460026F643002C01D105B0F0BD4D
:102F2000002705E04C2179434819FFF712FA7F1C6E
:102F3000042FF7D301AA00200399FFF754F9206862
:102F4000002816D000262068B20001682846FF300D
:102F5000F130815021680868FFF700F84C20704379
:102F60004019009021680A7A01AB48680121FFF7F7
:102F70005AF9606800281FD060680168FF20F130AE
:102F8000405981420CD001266068B2000168284691
:102F9000FF30F130815061680868FEF7DFFF00E024
:102FA00000264C2070434019009061680A7A01ABFA
:102FB00048680121FFF737F9A068002828D0A068E9
:102FC0000168FF20F1304059814201D1002614E010
:102FD000A0680168FF20F5304059814201D10126E7
:102FE0000BE00226A068B20001682846FF30F130ED
:102FF0008150A1680868FEF7B1FF4C20704340196A
:103000000090A1680A7A01AB48680121FFF70BF92B
:10301000E068002831D0E0680168FF20F1304059B5
:10302000814201D100261DE0E0680168FF20F530F3
:103030004059814201D1012614E0E0680168FF2077
:10304000F9304059814201D102260BE00326E068A5
:10305000B20001682846FF30F1308150E16808680D
:10306000FEF77CFF4C20704340190090E1680A7A1B
:1030700001AB48680121FFF7D6F8701C0121490215
:10308000485100BF4AE70000F0B587B00120800733
:1030900040680607360F082E03D2B00026490D58A7
:1030A0003AE00A2E37D8092E02D00A2E06D102E0C5
:1030B0002248C46806E02148046A03E01F484038FB
:1030C000846B00BF00BF600F03900398062820D2D6
:1030D000039880001849085806902007000F0590B3
:1030E00010202040000904907F2000022040070AA1
:1030F000002F00D102270699794308460599491CFB
:10310000FDF73CF901900499491CFDF737F9054694
:1031100002E00B4D00E00A4D01208007806881B27B
:103120000291084805600299491C2846FDF726F9D6
:103130000549086007B0F0BD403F00008000004036
:1031400000127A0064010020600100202049214A19
:1031500011632049403109680122120711431D4AB9
:10316000403211601146096912051143194A403273
:1031700011611146096A12051143164A4032116263
:1031800013498A0711608907C96808221143D206CA
:10319000D1600F49104A116000210F4A403251613D
:1031A0009161D16111625162002006E00022D24398
:1031B000094920318300CA50401C0D28F6D3002154
:1031C000054A1160034A11630449054A11607047BA
:1031D000A1AA5585C01000400030004000127A00BE
:1031E0006001002010B5FEF755FC0A4840680178E0
:1031F00009480068FFF7DAF906484068017807488F
:103200000068FFF7D3F906A103480068FEF77EFDCA
:1032100010BD00002C0000205C0000206000002099
:103220004D435220426974730000000010B5FEF750
:103230005DFC0A484068417809480068FFF7CEF90C
:1032400006484068417807480068FFF7C7F906A1BB
:1032500003480068FEF75AFD10BD00002C00002056
:103260005C000020600000204D732D536C204672DE
:10327000616D650010B5FEF70DFC0A4840680178E5
:1032800009480068FFF7A2F9064840680178074836
:103290000068FFF79BF906A103480068FEF736FDBA
:1032A00010BD00002C0000205C0000206000002009
:1032B00049525120426974730000000070B5FEF756
:1032C00005FC084804680848406885782946206855
:1032D000FFF7BEF800BF05A102480068FEF716FD23
:1032E00070BD00005C0000202C0000204C424D000E
:1032F00010B5114909788900104A5058FFF776F93E
:10330000FFF772FC0C49097889000C4A50580C49A7
:10331000FFF799F9084909788900084A50580121AE
:10332000FFF782F9044909788900044A505805A139
:10333000FEF7ECFC10BD000058000020400000200B
:103340002C0000204C424D20414C4C0070B5FEF743
:103350008DFB094800250468084840680679324614
:1033600029462068FFF764F800BF05A102480068FD
:10337000FEF7CCFC70BD00005C0000202C0000209B
:1033800054582D52582052617465000010B5FEF754
:1033900081FB0A484068017809480068FFF70EF988
:1033A00006484068017807480068FFF707F906A15A
:1033B00003480068FEF7AAFC10BD00002C000020A6
:1033C0005C000020600000204D732D536C2042698A
:1033D0007473000070B5FEF749FB0A4804680A4898
:1033E0004068C57808484068067932462946206812
:1033F000FFF71EF800BF05A102480068FEF786FC33
:1034000070BD00005C0000202C0000204D732D5387
:103410006C2052617465000010B50024FEF7C4FCF6
:10342000FFF796FB04462046FEF7A0FC10BD10B542
:103430000024FEF7B9FCFFF723FB04462046FEF705
:1034400095FC10BD10B50024FEF7AEFCFFF718FB8D
:1034500004462046FEF78AFC10BD000008B5FEF7C2
:10346000A3FC002013490860134948600860134812
:103470008860002012494860086012488860FFF7A1
:10348000C3FBFEF759FBFEF79DFB0F480068009059
:103490000E4800990068FFF7C0F8694608780821CF
:1034A0008843083069460870094800990068FFF7AA
:1034B000B4F808BDD0000020D0070020400600204E
:1034C000DC07002008070020243F00005C000020EB
:1034D0006000002010B5FEF767FCFEF72DFB0548E5
:1034E0000068FFF719FB0446FEF74EFB2046FEF787
:1034F0003DFC10BD5C00002010B5FEF755FCFEF74A
:103500001BFB074909788900064A5058FFF704FB5E
:103510000446FEF739FB2046FEF728FC10BD0000EC
:10352000580000204000002010B50024FEF73CFCAD
:10353000FFF7A6FA04462046FEF718FC10BD00006F
:1035400010B5FEF731FCFEF7F7FA05480068FFF703
:10355000E3FA0446FEF718FB2046FEF707FC10BD11
:103560005C00002010B507480068FFF73FF80648E8
:103570000068FFF73BF8054800780549496848703E
:1035800010BD00005C0000206000002080000020D2
:103590002C00002010B504480068FFF727F8034806
:1035A0000068FFF723F810BD5C00002060000020D9
:1035B00010B504480068FFF719F803480068FFF7E2
:1035C00015F810BD5C0000206000002010B5074811
:1035D0000068FFF70BF806480068FFF707F8054892
:1035E000007805494968087110BD00005C000020A2
:1035F00060000020CC0000202C00002010B5054801
:103600000068FEF7F3FF0448007804494968087130
:1036100010BD00005C000020F00000202C00002005
:1036200010B5064909788900054A5058FEF7DEFFB3
:103630000448007804494968087110BD580000200A
:10364000400000200C0100202C00002010B5024892
:103650000068FEF7CBFF10BD5C00002010B50248EB
:103660000068FEF7C3FF10BD5C0000207047704784
:1036700070477047704770477047000070B5002072
:1036800019494968C8701848406800790C2803DA5D
:103690000C2015494968087113484068407813495F
:1036A000087002201049496848700F4910480068A6
:1036B000FEF7C9FF0E480025046829462068FEF77A
:1036C00006FF00BF08490B480068FEF7BCFF094829
:1036D000046829462068FEF702FF00BF06A10448DF
:1036E0000068FEF713FB70BD2C0000208000002056
:1036F0005C000020600000204D435220426974733A
:103700000000000070B5002015494968C8701448D1
:10371000406800790C2803DA0C20114949680871C7
:103720000F4910480068FEF78EFF0E480025046818
:1037300029462068FEF7CBFE00BF09490A48006809
:10374000FEF781FF08480024056821462868FEF737
:10375000C6FE00BF05A103480068FEF7D7FA70BD9A
:103760002C0000205C000020600000204D732D53D1
:103770006C2042697473000070B5002015494968D7
:10378000C8701448406800790C2803DA0C201149ED
:10379000496808710F4910480068FEF754FF0E4849
:1037A0000025046829462068FEF791FE00BF0949FC
:1037B0000A480068FEF747FF0848002405682146CC
:1037C0002868FEF78CFE00BF05A103480068FEF7DD
:1037D0009DFA70BD2C0000205C00002060000020DD
:1037E0004D732D536C204672616D650070B516489F
:1037F0004068007915490870002013494968C8706D
:10380000FE201149496808710F4911480068FEF708
:103810001AFF0F480025046829462068FEF757FE66
:1038200000BF09490B480068FEF70DFF0948002456
:10383000056821462868FEF752FE00BF06A104482D
:103840000068FEF763FA70BD2C000020CC00002059
:103850005C000020600000204952512042697473CE
:103860000000000070B51048406800790F490870EA
:1038700000200D494968C87002200B494968087149
:1038800009490B480068FEF7DEFE09480125046877
:1038900029462068FEF71BFE00BF06A10448006809
:1038A000FEF734FA70BD00002C000020F00000206C
:1038B0005C0000204C424D0010B513484068007970
:1038C00012490870002010494968C87002200E494A
:1038D000496808710E49097889000E4A50580A490A
:1038E000FEF7B1FE0A49097889000A4A50580121B9
:1038F000FEF79AFE064909788900064A505806A143
:10390000FEF704FA10BD00002C0000200C0100207E
:1039100058000020400000204C424D20414C4C00FB
:1039200070B5002015494968C8701448406800798E
:103930000C2803DA0C201149496808710F49104816
:103940000068FEF780FE0E480025046829462068BE
:10395000FEF7BDFD00BF09490A480068FEF773FE87
:1039600008480024056821462868FEF7B8FD00BF16
:1039700005A103480068FEF7C9F970BD2C000020BE
:103980005C000020600000204D732D536C205261BC
:103990007465000070B5094909480068FEF753FED8
:1039A00007480025046829462068FEF790FD00BFFF
:1039B00004A103480068FEF7A9F970BD2C0000209F
:1039C0005C00002054582D5258205261746500004C
:1039D00010B50D490D480068FFF7B2F900280CD06A
:1039E0000B4800680121084309490860084600683F
:1039F000032807D1FEF748F904E0034903480068AB
:103A0000FFF708FA10BD0000D00700205C0000207E
:103A1000D000002010B50D490D480068FFF790F95F
:103A200000280CD00B4800680221084309490860AF
:103A300008460068032807D1FEF726F904E0034989
:103A400003480068FFF720FA10BD0000DC070020E3
:103A500060000020D000002010B51DE01349096867
:103A6000086801688CB200BFE0B2432807D045283F
:103A700009D04E280BD101200D49087007E0012024
:103A80000C49087003E001200B49087000BF00BF1B
:103A9000E1B20AA0FCF7CEFB044909680868816915
:103AA0000A09012191430029D8D110BD400100200D
:103AB00020000020210000202200002025630A00B1
:103AC00070B505460C4605E0A047002801D001204E
:103AD00070BD6D1E002DF7D1A047F9E704490868B5
:103AE0000169012212051140090D084670470000C6
:103AF000680100200449086801690122120511408B
:103B0000090D0846704700006C010020F8B5040C50
:103B10008BB2264682B25E43104658430D0C370CDA
:103B2000360400218019164679416E43370C36045D
:103B30008019264679416E438919F8BD4900CA02A9
:103B40000243100000D004204A0D01D0012210438E
:103B5000044A490D914201D102210843012800D1B4
:103B600005207047FF070000002805DBC206D20EC3
:103B700001219140014A11607047000000E100E01E
:103B800010B5002819DB1A4A03231B02D218830838
:103B90009B00D2588307DC0EFF23A3409A438B0778
:103BA0001B0E8407E40EA3401A43114B0324240286
:103BB0001B198408A4001A5118E00E4A03071B0FB2
:103BC000083B9B089B00D2588307DC0EFF23A340D1
:103BD0009A438B071B0E8407E40EA3401A43054B40
:103BE0000407240F083CA408A4001A5110BD0000CB
:103BF00000E100E01CED00E010B5002819DB1A4AD6
:103C000003231B02D21883089B00D2588307DC0EC3
:103C1000FF23A3409A438B071B0E8407E40EA340A7
:103C20001A43114B032424021B198408A4001A51BF
:103C300018E00E4A03071B0F083B9B089B00D25855
:103C40008307DC0EFF23A3409A438B071B0E8407D8
:103C5000E40EA3401A43054B0407240F083CA408B4
:103C6000A4001A5110BD000000E100E01CED00E0CE
:103C7000014600207047000010B50B4600BF084AFF
:103C8000126811688A6954090122A243002AF6D0F9
:103C9000034C2468C2B221680A6000BF10BD000056
:103CA000400100208CB008200A905B48FEF74AF9DA
:103CB00000BF5A48810708605949086300BF1422B1
:103CC000584905A8FCF75EFA05AC012502205649C3
:103CD000019500905448283023460822FEF7DEF86C
:103CE0000120FEF7CFF80B900B98FCF768FE044616
:103CF00000224E4BFCF766FE064600224C4BFCF7BA
:103D0000EDFB00224B4B01910090FCF7E7FB039188
:103D10000290FCF707FE0490FEF752F801221146CC
:103D20004B20C001FEF71AFD43490968086840218D
:103D3000FEF70CFD40480025046810202056294657
:103D4000FFF71EFF10202056002805DBC206D20E0A
:103D500001219140394A116000BF00BF0220FDF7E8
:103D6000D5FE00203649086009688900354A515857
:103D7000086880474FE001210020FEF722F8002864
:103D800003D13148007800281DD02D4909688900E9
:103D90002C4A51584868804729480068401C2849E7
:103DA0000860084601680A98814202D3002024492D
:103DB0000860234909688900224A515808688047E9
:103DC00000202149087001210846FDF7FAFF00286C
:103DD00003D11E480078002809D0194909688900D4
:103DE000184A5158886880470020184908700121F6
:103DF0000220FDF7E6FF002803D1154800780028CF
:103E000009D00F49096889000E4A5158C86880478F
:103E100000200F490870AEE7C0CF6A00A1AA5585FF
:103E2000C0100040903E00005000004000003440B0
:103E30000000204000408F404001002000E100E0F1
:103E4000640000200000002020000020210000204D
:103E50002200002010B500290AD00878002807D0D9
:103E600005487844FDF76CFD002801D0002010BD06
:103E70000248784410BD0000460300003E030000E5
:103E800003B402487844844603BC6047D3CFFFFFA5
:103E900000000000000600000A0001000080000091
:103EA00000000600843F000008000000060000003B
:103EB000843F00000900000006000000843F00006D
:103EC0000A00000006000000843F00000700000018
:103ED00006000000843F00000C0000000600000007
:103EE000843F00000D00000006000000843F000039
:103EF0000E00000006000000843F00000B000000E0
:103F000006000000D43E0000F83E0000EC3E000039
:103F1000E03E0000A43E0000C83E0000BC3E0000A1
:103F2000B03E000006000000903F00000F000000BF
:103F300005000000903F0000100000000500000098
:103F400000127A0000093D0000127A0000093D00CD
:103F500000127A0000093D00409C00000080000033
:103F6000000008400C000040002000000010084045
:103F70000C00004000400000002008400C00004001
:103F800000800000003008400C00004000000100EC
:103F9000004008400C00004000000200010000004A
:103FA00001000000010000000100000000127A0082
:103FB00000127A0000127A00409C0000008000008D
:103FC000005009401000004004000000A001004023
:103FD00018000000006009401000004008000000C8
:103FE000A4010040190000000070094010000040CA
:103FF00010000000A80100401A00000000800940E5
:104000001000004020000000AC0100401B00000038
:1040100000100B401000004000000040B0010040C4
:104020001C00000000200B40100000400000008039
:10403000B40100401D000000009009401000004045
:1040400040000000880100401200000000A009406C
:1040500010000040800000008C01004013000000B0
:1040600000000000020000000600000082000000C6
:104070008600000080807F7E7D7C7B7A79787776F1
:1040800076757473727171706F6E6E6D6C6C6B6A35
:104090006A696868676666656464636362616160D3
:1040A000605F5F5E5E5D5D5C5C5B5B5A5A59595850
:1040B00058575756565555555454535352525251BA
:1040C000515050504F4F4F4E4E4D4D4D4C4C4C4B10
:1040D0004B4B4A4A4A494949484848474747474657
:1040E0004646454545444444444343434342424293
:1040F0004241414102400000000000A000000000D9
:1041000005400000000000C8000000000C40000056
:104110000000409C00000000194000000020BCBED0
:104120000000000034400000BFC91B8E00000004E6
:10413000B5400000504BCFD06607E2CF0100000031
:104140006C4100003E8251AADFEEA734010000005E
:10415000D9420000DCB5A0E23A301F97FFFFFFFF15
:10416000B4450000FD25A0C8E9A3C14FFFFFFFFF34
:10417000FF3F00000000008000000000FF3F000043
:104180000000008000000000C4410000000000208A
:1041900070010000D6190000A0420000700100204C
:1041A000D8260000040100001C00000043000000AD
:1041B000F8FFFFFF0C0000000E0000000F000000E1
:1041C0002E00000022D8142028011B2010041A847D
:1041D0000C1A9C041A68041AB4041AF40441320F2D
:1041E000720E1A24143201290423FFFF23C03F1A40
:1041F000D4041AE8041AFC041B10402419044129B1
:1042000018292041237D3623653523E531231934D0
:104210001A6D102904412305371A951C238D331A72
:104220002F1C1A6F1829041A79181AB118232D3265
:104230001A45181A711429041AED181ACD181A758E
:10424000181A5D1823D139E3153A2365381AFD246D
:104250001ABD241AD5241A73382904411AB91C1A14
:10426000210C1AF11C1AF91C1A750C2904411A2187
:104270004C1A4D0C1AD58C1A29401A770C29041A9D
:1042800095181A5D081A4D181A41182A79A01904B0
:104290001A38EC120312010218044B127A0471004E
:04000005000000C136
:00000001FF
