:020000040000FA
:10000000802000209D010000A5010000A701000044
:1000100000000000000000000000000000000000E0
:10002000000000000000000000000000A901000026
:100030000000000000000000AB01000045110000BE
:10004000AF010000B1010000B3010000B5010000E4
:10005000B7010000B9010000BB010000BD010000B4
:10006000BF010000C1010000C3010000C501000084
:10007000C7010000C9010000CB010000CD01000054
:10008000CF010000D1010000D3010000D501000024
:10009000D7010000D9010000DB010000DD010000F4
:1000A000DF010000E1010000E3010000E5010000C4
:1000B000E7010000E9010000EB010000ED01000094
:1000C00000F002F800F03EF80CA030C80838241800
:1000D0002D18671EA246AB4654465D46AC4201D180
:1000E00000F030F87E460F3EB6460FCC0126334274
:1000F00000D0FB1A3343A246AB4618474C1200000F
:100100006C120000103A02D378C878C1FAD85207AE
:1001100001D330C830C101D504680C6070470000BD
:100120000023002400250026103A01D378C1FBD813
:10013000520700D330C100D50B6070471FB51FBDFB
:1001400010B510BD00F062FC1146FFF7F7FF01F09B
:1001500043F800F07AFC03B4FFF7F2FF03BC00F0B1
:1001600081FC000070B505460C46164602E00FCC37
:100170000FC5103E102EFAD2082E02D303CC03C5B1
:10018000083E042E07D301CC01C5361F03E02178B9
:100190002970641C6D1C761EF9D270BD174880470B
:1001A00017480047FEE7FEE7FEE7FEE7FEE7FEE74B
:1001B000FEE7FEE7FEE7FEE7FEE7FEE7FEE7FEE717
:1001C000FEE7FEE7FEE7FEE7FEE7FEE7FEE7FEE707
:1001D000FEE7FEE7FEE7FEE7FEE7FEE7FEE7FEE7F7
:1001E000FEE7FEE7FEE7FEE7FEE7FEE7FEE70000CC
:1001F00004480549054A064B704700006511000098
:10020000C10000008000002080200020801000201D
:1002100080100020F8B5042A2CD3830712D00B7865
:10022000491C0370401C521E83070BD00B78491CDD
:100230000370401C521E830704D00B78491C0370C6
:10024000401C521E8B079B0F05D0C91ADF002023CC
:10025000DE1B08C90AE0FFF785FFF8BD1D4608C987
:10026000FD401C46B4402C4310C0121F042AF5D296
:10027000F308C91A521EF0D40B78491C0370401CB5
:10028000521EEAD40B78491C0370401C012AE4D4A6
:1002900009780170F8BD01E004C0091F0429FBD2F0
:1002A0008B0701D50280801CC90700D002707047FF
:1002B00000290BD0C30702D00270401C491E02293E
:1002C00004D3830702D50280801C891EE3E7002245
:1002D000EEE70022DFE7704770477047F0B5F94D51
:1002E0000C091E092C402E402F468BB0A7437DD011
:1002F000B543FCD0002E7AD0002CFCD00D465D40DA
:10030000ED0F2543AC1BFF25AD0464190894C5020D
:10031000440DC9022143500DDC0204430120C007F3
:1003200001430443D2020191200C110C00958C462C
:10033000010423468B430A9161460904E24D8A4336
:100340000991010A7D4449198039097805464D43D0
:1003500001266D18F605751B6943C90C640B891CD1
:100360004C436418B5012C1B250C2E04B4434C439C
:100370004D43210C691889090591009DE90701D0B9
:100380000121C90704912C4601996708CD072F4325
:100390004C08059DE10B4D432D0C294666467543DF
:1003A00002950D4645432E46029D7D1BB4410095A6
:1003B0000D465D4301942C0C2F040D465543AE466B
:1003C0002D0C3D43029503947546049C2D04641B3B
:1003D000049406D2029C039D641C0026754103957B
:1003E000029401AC70CC009F7D1B01E03EE162E114
:1003F000B44109040095079101940599A40861434B
:10040000090C0C464443650BE7040C4666467443EE
:10041000A646640B3C43039502947446049DE40491
:100420002C1B049406D2029C039D641C002675417B
:100430000395029401AC70CC009F7D1BB4410194E4
:100440000C465C430095650FE7000C465443A646F6
:10045000640F3C43039502947446049DE4002C1BF6
:10046000049406D2029C039D641C002675410395EA
:10047000029401AC70CC009F7D1BB441AE09AF0665
:10048000049DC900AD092F43049DA406AD06049543
:10049000079D344369180791059DE10B4D432D0CD1
:1004A00029466646754302950D4645432E46029DF4
:1004B0007D1BB44100950D465D4301942C0C2F0427
:1004C0000D465543AE462D0C3D43029503947546AB
:1004D000049C2D04641B049406D2029C039D641C9E
:1004E000002675410395029401AC70CC009F7D1BE2
:1004F000B44101948C050694079C890A6118009503
:100500000791019C0599A4086143090C0D464543D8
:10051000680BEF040D46644665436C0B3C43049F37
:10052000ED047D1BAC4602D20025641C6841009E90
:10053000019D371B85410846584301950C46460FDF
:10054000C5005443600F28436546E4002C1B02D2CB
:100550000025401C6E41019D3F1AB5412846BD094A
:10056000800628438446A009BF064E020699A406C9
:1005700076180743079D002068410A9907901943A0
:100580000020099B00906046FF1913434041E20F91
:1005900064003A43A4460446D71A8C41A04203D9CA
:1005A0000120009020463A46C70F94184041624609
:1005B000D20F2243644664000494009CBE4664004B
:1005C000D71AA446044602978C417746002F01D1E2
:1005D000A04204D96046401C8446029A2046C40FBB
:1005E000A64694184041049A0546D20F2243644619
:1005F0006400D31A8D417146002901D1A84202D965
:1006000028461A46641C10430122002800D01643D5
:1006100061020020079B891904465C410223002CDB
:1006200002DB491813466441089DCE0A2D145D195A
:100630004B056705E10A2C050D1908993E43C907CA
:100640006940002B08D0934006D30022761C51410C
:10065000002B01D1760876001C4A002D43DB1542A1
:1006600041D0AA433FD030460BB0F0BD06180D462E
:100670004D41174C7642AC411AD395181C465C414B
:10068000134A6D42A24113D3012252054C00D442B9
:100690000AD15C00D4420BD04B4002D592021143E8
:1006A000E2E749004908DFE75940C90FC90718E0E8
:1006B00000200849D8E7054801420DD10342F7D090
:1006C000F2E700000000FF071C0F00000000F07FB1
:1006D0000000E0FF0000F87F114859400143C012BC
:1006E00041400020C0E70123089A9B069A4205DC9E
:1006F000032252078918C90FC907B5E70522520717
:100700008918074A1143D2125140ADE770B515461A
:100710001C4602460B4628462146FFF7DFFD70BD0A
:10072000FFFFFF7F0346CA02400D10B510430A15B4
:1007300004D00124E4072043002A05DB0A4CA21A56
:1007400004D4D040FF2A00DD002010BD4A00002B59
:1007500001D0012000E00020101801225205D042F3
:10076000F2D8C817C04310BD1E0400001F22030C9E
:1007700002D10F22000402D0030E03D004E00020B7
:10078000014670470002083A030F01D10001121F11
:10079000830F01D18000921E002801DB4000521E11
:1007A000120551184205C012411810467047C10F7A
:1007B000C90700D04042012292071143D6E7012128
:1007C0008907D3E7F0B58B4C0F09254689B0BD43A7
:1007D0007BD01D092646AE43FAD00E465E40274028
:1007E000F60F3E43254071D024012142FBD0FF2467
:1007F000AD19A4042D1B039501252D05DB02DB0A91
:10080000C9022B43C90A29431E010901040F130F12
:10081000050121431701880B820391432D098C4662
:10082000A90B1E438A039543B30B9A0396433F09D2
:10083000BA0B9403A74302962E467E430497B6460E
:100840004E19D7190C460196544305977E43371B22
:100850007646BF1B3601B646BE0B36190096764665
:10086000BC043719009C01D3641C00946400002F61
:1008700001D001263443029E049F754366467E43A1
:100880000496760034196E0034190094029C019E7F
:100890001C196643751BAE46069465464519059CB2
:1008A00005956C43594375460891691A0191049E58
:1008B00001465143A41B0491611A009C0791E10673
:1008C00005D061090122114302E072E06EE0610986
:1008D000089D00272C0A2D066918049D7C412A0AD0
:1008E0002D066918019D6241AC0DAD026D18544191
:1008F000079A910D920255196141029A6446584334
:100900005443069B059A5A43121A131B9A0E9B01D5
:100910005B187A41010B0005C3185141220A2006D9
:1009200044195A419A4200D2491C01204002814296
:1009300003D315230226F64302E014230326F643CD
:100940002020C51AA9401746AF40DA400A43204686
:100950000399D8400914731819055118039A38439C
:10096000D2075140AC4009D00122944006D3002266
:10097000401C5141002C01D1400840001E4A9342C6
:1009800012D3012203989206904207DB052040070C
:1009900009181A480143C012414004E003204007EF
:1009A0000818C10FC907002009B0F0BD0020F107E9
:1009B000FAE705180C464C4111486D42A04115D389
:1009C00094181A465A410E48644290410ED30120B1
:1009D0004A004005824209D35A00824206D3594058
:1009E000C90F084AC90700201143DDE70020064966
:1009F000DAE700000000FF07FE070000FFFFFF7FAF
:100A00000000E0FF0000F07F0000F87F754600F076
:100A100025F8AE46050069465346C008C000854625
:100A200018B020B5FFF7E4FB60BCB64600260027EF
:100A3000C0C5C0C5C0C5C0C5C0C5C0C5C0C5C0C58E
:100A4000403D490849008D46704710B50446C046F0
:100A5000C0462046FFF77FFB10BD000000487047EE
:100A60001000002001491820ABBEFEE7260002005E
:100A70007047000080B5CD4A136883431360136943
:100A800083431361136A83431362084600F002F83C
:100A900080BDC046C5490A6802430A600A6902432C
:100AA0000A610A6A02430A627047C04610B54442AE
:100AB00044410C70022806D3032807D0022807D12E
:100AC0000120107010BD0020107000E0012018708F
:100AD00010BD00007FB5044869460A4678C878C250
:100AE000052000F027F87FBD3813000010B510492D
:100AF0008A684B681C6814431C600B6803491960C2
:100B0000C1B20122184600F0B4F910BDA1AA558562
:100B1000002901D10C2100E00821054A126850503B
:100B20007047C046024909684A6842404A607047B7
:100B3000EC120000FEB50A888B881B049A180292FA
:100B40004A88CB881B049A1803928A68C968049261
:100B50007F22120509041143019101A900F002F856
:100B600006B080BD80000B4A12584B6813608B683A
:100B70005360CB689360084A105809680268074BB5
:100B800013400B430F2109041A468A430260036095
:100B90007047C04618130000F8120000FFFF00F86D
:100BA00070B511490C68114B1C400202151806045F
:100BB000AD190006281804430C600C691C4004435E
:100BC0000C610C6A1C4004430C624868084B1840D6
:100BD000104348604869184010434861486A18400B
:100BE0001043486270BDC04604110040F8F8F8F8A0
:100BF000F8F8FFFF80B50078FFF7D2FF80BDB0B5F1
:100C000014460546007800F0B3F800280AD02A1DE3
:100C100069886878002807D00120234600F04EF844
:100C2000002506E0012504E000252846234600F0C3
:100C300045F82846B0BD0000E0B507498A886846F7
:100C400082800A8849880904891800910321490291
:100C50000022FFF7D4FF8CBDE412000070B51C46E3
:100C600015460646244802680F2010400B2800D382
:100C70000B20A84201D1022070BD6268237808468B
:100C8000194600F048F8002814D004986178081834
:100C9000C1B2E36822460832304600F0A7F80028C7
:100CA0000AD0059B218A12342846224600F006F815
:100CB000002070BD012070BD032070BDF8B50C464A
:100CC00005460D4E0D4F002B0AD01046FFF792FF40
:100CD0000F20054035607068384020437060F8BDD3
:100CE0000F20054035607068384020437060104622
:100CF000FFF780FFF8BDC046040000400000FFFF82
:100D000081B000900098002803D00098401E009009
:100D1000FBD101B0704780B502290AD001290AD061
:100D2000002912D10321090703688B4303600121C5
:100D300007E0072105E00121490703688B430360B1
:100D40000321C90603680B430360114600F002F853
:100D500080BD000080B50A4603490860034910467B
:100D600000F016FA80BDC04678000020B1110000E6
:100D700010B50C4601218905000641183F200006E8
:100D8000FFF778FE0249204600F002FA10BDC04687
:100D9000950D00000548016802690A40006A10408C
:100DA0000121C9050140C80D7047C0460C11004023
:100DB000B0B5036854780F2525400B4C1C404907FB
:100DC0000919491913785B065B0CC9189278D20788
:100DD000D20E89180322D2060A4302600122D206EB
:100DE00089180160B0BDC046E080FF17B0B51C4651
:100DF0000546FFF7DDFF2846214600F001F8B0BDAB
:100E000080B50A46F34908600249104600F0C0F96F
:100E100080BDC046C5110000F0B593B014460D4624
:100E200006466F464C213846FFF753FA28462146BE
:100E30003A4600F027F83046394600F0CEF813B0B5
:100E4000F0BDFEB516460C460546089A01AF304681
:100E500019463B4600F0C7F8284621463A46FFF7B8
:100E6000DBFFFEBD1CB56C4623600023FFF7E9FFE6
:100E70001CBDE0B501AB9A7001221A800022FFF779
:100E8000F1FF8CBDF0B598B0034610463030179096
:100E900010462C30169010462830159010462430FD
:100EA000149010461030139010460C3012901046DB
:100EB00008301190101D1090104648300F900E9081
:100EC000104644300D900C90104618300B900A904C
:100ED0001046143009900890106818431060039170
:100EE0000878002101280793184600D00846D369E6
:100EF0000343D361039840780128079800D008463F
:100F0000136A034313620398C0780128079800D03E
:100F10000846536B034353630398007901280798ED
:100F200000D00846936B03439363039840790128EC
:100F3000079800D00846D36B0343D36303988079A6
:100F40000128079800D00846136C034313640E462B
:100F50000A463EE00291C807C50E0092920008A81A
:100F60008018069010AB981805900CAB9818049058
:100F700014ACA2180024019623E00120B040079988
:100F800008421BD0039B9878A04011680F68074364
:100F90000F60D879A840049909680F6807430F606B
:100FA0000F20A040059909680F6807430F600320D0
:100FB000A840069909680F6807430F60AD1C761CAE
:100FC000241D202CD9D10299491C019E0836009A73
:100FD000521C042ABED118B0F0BD80B50A461C319F
:100FE00000F014F880BD70B51C4615460E46591C1D
:100FF0001A1D5B1DFFF75AFDA6700020207028788F
:10100000E0706878A071A878E07170BD1368C36360
:1010100013684361136843655369036693694366C4
:101020001368C360536883629368C362D3680363C1
:1010300013694363136843641268C2648A688261F7
:10104000CA68C2610A6902624A694262CA69026484
:101050000A6A82644A6A02658A6A8265CA6AC265E5
:101060000A6882604A68026189698163704700008A
:1010700070B50C46FFF7A3FB05460E462046FFF76A
:101080009EFB02460B4628463146FFF79BFB002499
:10109000094B2246FFF722F9FFF744FB0749884234
:1010A00007D8401E06494860002088600720086075
:1010B0000124204670BDC04600408F40FEFFFF0067
:1010C00010E000E010B5FFF7B7FD012000050B4967
:1010D0004C6921688143216000F012F83F204005EF
:1010E0002168014321607F200005216801430F2012
:1010F00000040A4682432260216010BDF8120000FD
:1011000010B588B003AC09A114222046FFF782F87D
:101110000120694602220A604860094908462830D1
:1011200008222346FFF79AFD08B010BD000000001A
:10113000000600000A000100008000000000060018
:101140005000004010B501242046FFF7EBFC434857
:101150004168491C41600A2902D3047000214160A2
:1011600010BDC0463C483B490160012109070269A6
:101170000A430261026A0A430262026B0A43026383
:1011800000210160014832490160704700000020E1
:10119000B0B50C4601460D46A047002D02D0691E91
:1011A0000028F8D0002D00D001252843B0BD000054
:1011B000012000050249096809690140080D7047CE
:1011C00078000020012000050249096809690140F2
:1011D000080D70477C00002082B0FFF72DFDFF2630
:1011E0003046FFF783FC012430462146FFF790FC90
:1011F0001648FFF785FD002530462946FFF788FC95
:101200007D20C0001249FFF733FFA107114801916B
:10121000086011490860FFF773FFFFF75BFC2E467B
:101220000E4F0F4D38780028FCD03E7028780028EB
:1012300006D0E006019B996F81439967204602E042
:10124000FFF740FF287860402870EBE740420F002E
:1012500000127A00A1AA5585F0100040700000200D
:101260000800002080807F7E7D7C7B7A797877768D
:1012700076757473727171706F6E6E6D6C6C6B6A73
:101280006A69686867666665646463636261616011
:10129000605F5F5E5E5D5D5C5C5B5B5A5A5959588E
:1012A00058575756565555555454535352525251F8
:1012B000515050504F4F4F4E4E4D4D4D4C4C4C4B4E
:1012C0004B4B4A4A4A494949484848474747474695
:1012D00046464545454444444443434343424242D1
:1012E0004241414120000000000000000020084071
:1012F0000C00004000800000080000402400004076
:101300003C00004050000040640000407800004075
:101310008C000040A0000040140000402800004065
:101320004000004054000040680000407C00004045
:1013300090000040A40000400000270008000400C6
:101340000A0B0A0C0F0000006813000000000020C8
:1013500010000000040100007813000010000020BD
:10136000702000002001000000127A0000127A00B4
:08137000010000000000000074
:04000005000000C136
:00000001FF
