:020000040000FA
:10000000782000209D010000A5010000A70100004C
:1000100000000000000000000000000000000000E0
:10002000000000000000000000000000A901000026
:100030000000000000000000AB010000C112000041
:10004000AF010000B1010000B3010000B5010000E4
:10005000B7010000B9010000BB010000BD010000B4
:10006000BF010000C1010000C3010000C501000084
:10007000C7010000C9010000CB010000CD01000054
:10008000CF010000D1010000D3010000D501000024
:10009000D7010000D9010000DB010000DD010000F4
:1000A000DF010000E1010000E3010000E5010000C4
:1000B000E7010000E9010000EB010000ED01000094
:1000C00000F002F800F03EF80CA030C80838241800
:1000D0002D18A246671EAB4654465D46AC4201D180
:1000E00000F030F87E460F3E0FCCB6460126334274
:1000F00000D0FB1AA246AB463343184778140000E1
:1001000098140000103A02D378C878C1FAD8520780
:1001100001D330C830C101D504680C6070470000BD
:100120000023002400250026103A01D378C1FBD813
:10013000520700D330C100D50B6070471FB51FBDFB
:1001400010B510BD00F002FC1146FFF7F7FF01F0FB
:100150001FF900F01AFC03B4FFF7F2FF03BC00F034
:1001600021FC000070B505460C46164602E00FCC97
:100170000FC5103E102EFAD2082E02D303CC03C5B1
:10018000083E042E07D301CC01C5361F03E02178B9
:100190002970641C6D1C761EF9D270BD174880470B
:1001A00017480047FEE7FEE7FEE7FEE7FEE7FEE74B
:1001B000FEE7FEE7FEE7FEE7FEE7FEE7FEE7FEE717
:1001C000FEE7FEE7FEE7FEE7FEE7FEE7FEE7FEE707
:1001D000FEE7FEE7FEE7FEE7FEE7FEE7FEE7FEE7F7
:1001E000FEE7FEE7FEE7FEE7FEE7FEE7FEE70000CC
:1001F00004480549054A064B70470000F11200000B
:10020000C100000078000020782000207810002035
:10021000781000207047704770470000F0B5F94D26
:100220000C091E092C402E402F468BB0A7437DD0D1
:10023000B543FCD0002E7AD0002CFCD00D465D409A
:10024000ED0F2543AC1BFF25AD0464190894C502CE
:10025000440DC9022143500DDC0204430120C007B4
:1002600001430443D2020191200C110C00958C46ED
:10027000010423468B430A9161460904E24D8A43F7
:100280000991010A7D4449198039097805464D4391
:1002900001266D18F605751B6943C90C640B891C92
:1002A0004C436418B5012C1B250C2E04B4434C435D
:1002B0004D43210C691889090591009DE90701D07A
:1002C0000121C90704912C4601996708CD072F43E6
:1002D0004C08059DE10B4D432D0C294666467543A0
:1002E00002950D4645432E46029D7D1BB441009567
:1002F0000D465D4301942C0C2F040D465543AE462C
:100300002D0C3D43029503947546049C2D04641BFB
:10031000049406D2029C039D641C0026754103953B
:10032000029401AC70CC009F7D1B01E03EE162E1D4
:10033000B44109040095079101940599A40861430B
:10034000090C0C464443650BE7040C4666467443AF
:10035000A646640B3C43039502947446049DE40452
:100360002C1B049406D2029C039D641C002675413C
:100370000395029401AC70CC009F7D1BB4410194A5
:100380000C465C430095650FE7000C465443A646B7
:10039000640F3C43039502947446049DE4002C1BB7
:1003A000049406D2029C039D641C002675410395AB
:1003B000029401AC70CC009F7D1BB441AE09AF0626
:1003C000049DC900AD092F43049DA406AD06049504
:1003D000079D344369180791059DE10B4D432D0C92
:1003E00029466646754302950D4645432E46029DB5
:1003F0007D1BB44100950D465D4301942C0C2F04E8
:100400000D465543AE462D0C3D430295039475466B
:10041000049C2D04641B049406D2029C039D641C5E
:10042000002675410395029401AC70CC009F7D1BA2
:10043000B44101948C050694079C890A61180095C3
:100440000791019C0599A4086143090C0D46454399
:10045000680BEF040D46644665436C0B3C43049FF8
:10046000ED047D1BAC4602D20025641C6841009E51
:10047000019D371B85410846584301950C46460FA0
:10048000C5005443600F28436546E4002C1B02D28C
:100490000025401C6E41019D3F1AB5412846BD090B
:1004A000800628438446A009BF064E020699A4068A
:1004B00076180743079D002068410A990790194361
:1004C0000020099B00906046FF1913434041E20F52
:1004D00064003A43A4460446D71A8C41A04203D98B
:1004E0000120009020463A46C70F941840416246CA
:1004F000D20F2243644664000494009CBE4664000C
:10050000D71AA446044602978C417746002F01D1A2
:10051000A04204D96046401C8446029A2046C40F7B
:10052000A64694184041049A0546D20F22436446D9
:100530006400D31A8D417146002901D1A84202D925
:1005400028461A46641C10430122002800D0164396
:1005500061020020079B891904465C410223002C9C
:1005600002DB491813466441089DCE0A2D145D191B
:100570004B056705E10A2C050D1908993E43C9078B
:100580006940002B08D0934006D30022761C5141CD
:10059000002B01D1760876001C4A002D43DB154262
:1005A00041D0AA433FD030460BB0F0BD06180D46EF
:1005B0004D41174C7642AC411AD395181C465C410C
:1005C000134A6D42A24113D3012252054C00D4427A
:1005D0000AD15C00D4420BD04B4002D592021143A9
:1005E000E2E749004908DFE75940C90FC90718E0A9
:1005F00000200849D8E7054801420DD10342F7D051
:10060000F2E700000000FF076B1200000000F07F1F
:100610000000E0FF0000F87F114859400143C0127C
:1006200041400020C0E70123089A9B069A4205DC5E
:10063000032252078918C90FC907B5E705225207D7
:100640008918074A1143D2125140ADE770B51546DB
:100650001C4602460B4628462146FFF7DFFD70BDCB
:10066000FFFFFF7F0346CA02400D10B510430A1575
:1006700004D00124E4072043002A05DB0A4CA21A17
:1006800004D4D040FF2A00DD002010BD4A00002B1A
:1006900001D0012000E00020101801225205D042B4
:1006A000F2D8C817C04310BD1E0400001F22030C5F
:1006B00002D10F22000402D0030E03D004E0002078
:1006C000014670470002083A030F01D10001121FD2
:1006D000830F01D18000921E002801DB4000521ED2
:1006E000120551184205C012411810467047C10F3B
:1006F000C90700D04042012292071143D6E70121E9
:100700008907D3E7F0B58B4C0F09254689B0BD4367
:100710007BD01D092646AE43FAD00E465E402740E8
:10072000F60F3E43254071D024012142FBD0FF2427
:10073000AD19A4042D1B039501252D05DB02DB0A51
:10074000C9022B43C90A29431E010901040F130FD3
:10075000050121431701880B820391432D098C4623
:10076000A90B1E438A039543B30B9A0396433F0993
:10077000BA0B9403A74302962E467E430497B646CF
:100780004E19D7190C460196544305977E43371BE3
:100790007646BF1B3601B646BE0B36190096764626
:1007A000BC043719009C01D3641C00946400002F22
:1007B00001D001263443029E049F754366467E4362
:1007C0000496760034196E0034190094029C019E40
:1007D0001C196643751BAE46069465464519059C73
:1007E00005956C43594375460891691A0191049E19
:1007F00001465143A41B0491611A009C0791E10634
:1008000005D061090122114302E072E06EE0610946
:10081000089D00272C0A2D066918049D7C412A0A90
:100820002D066918019D6241AC0DAD026D18544151
:10083000079A910D920255196141029A64465843F4
:100840005443069B059A5A43121A131B9A0E9B0196
:100850005B187A41010B0005C3185141220A20069A
:1008600044195A419A4200D2491C01204002814257
:1008700003D315230226F64302E014230326F6438E
:100880002020C51AA9401746AF40DA400A43204647
:100890000399D8400914731819055118039A38435D
:1008A000D2075140AC4009D00122944006D3002227
:1008B000401C5141002C01D1400840001E4A934287
:1008C00012D3012203989206904207DB05204007CD
:1008D00009181A480143C012414004E003204007B0
:1008E0000818C10FC907002009B0F0BD0020F107AA
:1008F000FAE705180C464C4111486D42A04115D34A
:1009000094181A465A410E48644290410ED3012071
:100910004A004005824209D35A00824206D3594018
:10092000C90F084AC90700201143DDE70020064926
:10093000DAE700000000FF07FE070000FFFFFF7F6F
:100940000000E0FF0000F07F0000F87F754600F037
:1009500025F8AE46050069465346C008C0008546E6
:1009600018B020B5FFF744FC60BC00274908B64624
:100970000026C0C5C0C5C0C5C0C5C0C5C0C5C0C5AE
:10098000C0C5403D49008D46704710B50446C0467D
:10099000C0462046FFF7DFFB10BD0000004870474F
:1009A0001800002001491820ABBEFEE72600020017
:1009B0007047000070B504460D462046C0430C4900
:1009C000C96801400A4AD16009491031C96801402B
:1009D000074A1032D16006492031C9680140044AF3
:1009E0002032D16000BF284600F012F870BD000030
:1009F000001100400548C06804491031C96808402A
:100A000002492031C96808407047000000110040C9
:100A10000949C9680143084AD16007491031C968CA
:100A20000143054A1032D16003492031C9680143AE
:100A3000014A2032D1607047001100400348806BAA
:100A40000121C9068843014988637047400000407E
:100A500010B5002801D1012400E000240C7000280A
:100A60000CD001280BD0022802D003280AD102E0C2
:100A70000124147006E001241C7003E000BF002470
:100A800014701C7000BF10BD1FB5044B0FCB6C461B
:100A90000FC46946052000F03DF81FBD3814000062
:100AA00010B5044600BF0A484068006808498968D4
:100AB000084307494968086006480549096808600D
:100AC00000BFE1B2024A1068012200F057FA10BDDF
:100AD000C0140000A1AA558570B504460D46002D2E
:100AE00005D006490868214600F019FB04E00349D7
:100AF0000868214600F0F4F970BD0000C014000041
:100B0000034A11684A6842404A6000BF70470000CB
:100B1000C014000030B585B005460C462088A18879
:100B20000904090C0904084301906088E18809045C
:100B3000090C090408430290207A617A0902FF2215
:100B4000120211400843A17A09041202114008431D
:100B5000E17A0906090E090608430390A0890004FA
:100B60007F210905084300906946284600F002F8F5
:100B700005B030BDF8B582000F4CA3584A681A6022
:100B80008A685A60CA689A600A6884000B4D2C59BA
:100B900026680B4F3546BD43154300950F252D04A0
:100BA000009CAC438500054E75592C608500755935
:100BB000009C2C6000BFF8BD4814000088140000A1
:100BC0000000FF0770B50446224D20022043210497
:100BD00008432106084306461F494868324629460D
:100BE00000F038F91C4948601B491031486832460A
:100BF000294600F02FF91849103148601649203174
:100C000048683246294600F025F9134920314860EA
:100C10002D142002004306460F49886832462946B3
:100C200000F018F90C4988600B4910318868324689
:100C3000294600F00FF90849103188600649203133
:100C400088683246294600F005F90349203188605A
:100C500070BD000007070707001100400120800752
:100C600040680107090F0A2901D8C8B270470B2054
:100C7000FCE710B504462078FFF7A4FF10BD70B55F
:100C800004460E4615462078314600F0C5F8002887
:100C900001D1012070BD6078002806D061882B4604
:100CA000221D012000F04AF805E061882B46221D34
:100CB000002000F043F80020ECE700001CB50446DB
:100CC000054903C901910090224603214902684663
:100CD000FFF7D5FF1CBD00001C140000FFB581B05C
:100CE0000E4615461C460A9FFFF7B8FFA84202D1E0
:100CF000022005B0F0BD21783046626800F04EF861
:100D0000002801D10120F4E76078002801D0781C88
:100D1000C7B2224608323946E368019800F0C2F8AB
:100D2000002801D10320E4E7218A22461232284616
:100D30000B9B00F003F80020DBE70000F8B5044649
:100D40000D4617461E46002E02D03846FFF791FF8B
:100D500000BF2007000F01218907486000BF00BFC6
:100D600088682A46064900F075F8012189078860DD
:100D700000BF002E02D13846FFF77BFFF8BD000010
:100D8000FFFF000008B500900099002905D000BFC2
:100D90000099491E00910029FAD108BD70B504469A
:100DA0000D4616462846002804D001280DD00228FA
:100DB0001CD115E0216803221207914321602168AC
:100DC0000122D2061143216010E02168012252075E
:100DD0009143216021680322D2061143216005E07E
:100DE00021680722D2061143216000BF00BF00BF67
:100DF0003146204600F002F870BD000070B505468F
:100E00000C46034805600349204600F09BFA70BD7C
:100E1000100000206113000070B504460D4600BFAD
:100E2000200601229205104301463F200006FFF7ED
:100E3000C1FD00BF0249284600F084FA70BD0000E1
:100E4000450E000010B5FFF7D5FD0121C90508408A
:100E5000C00D10BD0346184688431043704700007C
:100E600070B50B4601680E4C2140147824027F2592
:100E70002D022C4055782D072D0F2C4395782D01F0
:100E8000102635402C435D076D0F6D072C43F5058B
:100E90002C4321436C000C430460016070BD0000D2
:100EA000E080FF1FF8B505460E4617461C463A4639
:100EB00031462846FFF7D4FF2146284600F002F8C5
:100EC000F8BD000070B505460C46034805600349AF
:100ED000204600F037FA70BD14000020791300009E
:100EE000C16070470021016041608160C1600161A3
:100EF0004161816170470021016041608160C16092
:100F0000016141618161C161016241628162C162CD
:100F1000704770B594B006460C46154608A8FFF712
:100F2000EAFF01A8FFF7DEFF01AA2946204600F0EC
:100F300037F801A9304600F0E8F814B070BDFEB5EE
:100F400006460F4614461D466B4629462046089A1B
:100F500000F0E7F86A4639463046FFF7DAFFFEBD93
:100F6000F8B505460E4617461C4600233A4631465C
:100F700028460094FFF7E3FFF8BD0000F8B50546EA
:100F80000E461446054800680090684684706B461B
:100F9000002231462846FFF7E3FFF8BDE4140000C5
:100FA000F7B594B00C4610461C301346054608357C
:100FB0000C952D1D0D952D1D0E952D1D0F951D1D8F
:100FC00008952D1D09952D1D0A952D1D0B9505467E
:100FD0002835049505952D1D069507951D46143554
:100FE000009501952D1D029503951D68149E3543AE
:100FF0001D6026780568012E01D1149E00E00026B0
:101000003543056066784568012E01D1149E00E0E5
:10101000002635434560E6788569012E01D1149E8E
:1010200000E00026354385612679C569012E01D18E
:10103000149E00E000263543C5616679056A012EDD
:1010400001D1149E00E0002635430562A679456A69
:10105000012E01D1149E00E0002635434562002197
:101060004FE0CD001295CD07ED0E1095002513959C
:1010700043E0129E139DAD1911950126119DAE40BE
:10108000149D2E40002E35D0A578139EB600B54095
:101090008E000CAFBE59366835438E00BE593560A0
:1010A000E579139E7700109EBE19B5408E0004AFFF
:1010B000BE59366835438E00BE5935608D0008AE86
:1010C00075592D68139EB7000F26BE4035438E001C
:1010D00008AFBE5935608D006E4675592D68139E58
:1010E0007700109EBF190326BE4035438E006F4621
:1010F000BE593560139D6D1C1395139D082DB8D3F3
:10110000491C0429ADD317B0F0BD30B505460C46D7
:10111000224621461C31284600F018F830BD816077
:101120007047F8B507460E4615461C46631D221D3E
:10113000611C3846FFF78CFC00202070A6702878D0
:10114000E0706878A071A878E071F8BD1368C36397
:101150001368436113684365536903669369436683
:101160001368C360536883629368C362D368036380
:10117000136943638B688361CB68C3610B69036246
:101180004B694362136843641368C364CB690364A7
:101190000B6A83644B6A03658B6A8365CB6AC3659C
:1011A0000B6883604B6803618B6983637047000041
:1011B000411E034A5161002191610721116170476D
:1011C00000E000E0F3B587B00C462046FFF797FA41
:1011D00005460E460798FFF792FA2A4633460191D4
:1011E0000090FFF78FFA00220A4B03910290FFF75D
:1011F00015F805910490FFF735FA0746064887422F
:1012000005D23846FFF7D4FF012009B0F0BD002019
:10121000FBE7000000408F40FFFFFF0010B50020FB
:10122000FFF74CFD05208100174A5158096801223B
:10123000120591438200144B9A58116000BF00F0D0
:1012400025F805208100104A515809683F225205AF
:10125000114382000C4B9A58116000BF00BF8200FE
:101260009A5812687F231B051A4311460F231B044B
:101270000A469A438300044CE3581A6082002346CE
:101280009A58116000BF10BD8814000030B587B0B7
:101290001422094902A8FEF765FF02AC01250220CD
:1012A0000649019500900548283023460822FFF79B
:1012B00015FD07B030BD00002414000050000040B0
:1012C00010B50120FFF71CFC07480068401C0649C8
:1012D0000860084600680A2804D30020086001203E
:1012E0000249087010BD0000000000200500002029
:1012F000104811490863104840300068012109076F
:1013000008430D4940310860084600690905084353
:101310000949403108610846006A09050843064941
:101320004031086200200449086304480449086009
:1013300070470000A1AA5585C010004000127A0035
:101340000800002070B505460C4605E0A0470028BF
:1013500001D0012070BD6D1E002DF7D1A047F9E727
:10136000044908680169012212051140090D084667
:10137000704700001000002004490868016901223C
:1013800012051140090D08467047000014000020A6
:101390000020FFF793FCFF20FFF782FB0121FF20D5
:1013A000FFF79AFB1748FFF7EDFC0021FF20FFF73E
:1013B00093FB15497D20C000FFF704FF00BF1348D1
:1013C000810708601249086300BFFFF75FFFFFF75E
:1013D0005BFB15E00F480078002811D000200D4974
:1013E00008700D480078002802D0FFF727FB01E0C5
:1013F000FFF714FF084800780121484006490870AB
:10140000E8E7000040420F0000127A00A1AA5585CB
:10141000C010004005000020040000202000000053
:101420000000000000000000000600000A000100AB
:1014300000800000000006000000270008000400F3
:101440000A0B0A0C0F0000001400004028000040A6
:101450004000004054000040680000407C00004014
:1014600090000040A40000402000004034000040F4
:101470004C000040600000407400004088000040C4
:101480009C000040B00000400800004024000040E4
:101490003C000040500000406400004078000040E4
:1014A0008C000040A0000040000008400C000040FC
:1014B00000200000001008400C0000400040000028
:1014C000002008400C000040008000000030084070
:1014D0000C00004000000100004008400C000040EB
:1014E00000000200010000000100000001000000F7
:1014F00001000080807F7E7D7C7B7A7978777676AC
:10150000757473727171706F6E6E6D6C6C6B6A6AEC
:101510006968686766666564646363626161606088
:101520005F5F5E5E5D5D5C5C5B5B5A5A5959585803
:10153000575756565555555454535352525251516C
:101540005050504F4F4F4E4E4D4D4D4C4C4C4B4BC1
:101550004B4A4A4A49494948484847474747464607
:101560004645454544444444434343434242424242
:1015700041414100941500000000002018000000C7
:1015800004010000AC1500001800002060200000DD
:1015900020010000000000000100000000127A009D
:0C15A00000127A000000000000000000B3
:04000005000000C136
:00000001FF
