:020000040000FA
:10000000082C00209D010000A5010000A7010000B0
:1000100000000000000000000000000000000000E0
:10002000000000000000000000000000A901000026
:100030000000000000000000AB010000AD01000066
:10004000AF010000B1010000B3010000B5010000E4
:10005000B7010000B9010000B9040000BD010000B3
:10006000BF010000C1010000C3010000C501000084
:10007000C7010000C9010000CB010000CD01000054
:10008000CF010000D1010000D3010000D501000024
:10009000D7010000D9010000DB010000DD010000F4
:1000A000DF010000E1010000E3010000E5010000C4
:1000B000E7010000E9010000EB010000ED01000094
:1000C00000F002F800F03EF80CA030C80838241800
:1000D0002D18671EA246AB4654465D46AC4201D180
:1000E00000F030F87E460F3EB6460FCC0126334274
:1000F00000D0FB1A3343A246AB461847B4100000A9
:10010000D4100000103A02D378C878C1FAD8520748
:1001100001D330C830C101D504680C6070470000BD
:100120000023002400250026103A01D378C1FBD813
:10013000520700D330C100D50B6070471FB51FBDFB
:1001400010B510BD00F077F91146FFF7F7FF00F08A
:1001500055FF00F08FF903B4FFF7F2FF03BC00F086
:1001600095F9000070B505460C46164602E00FCC26
:100170000FC5103E102EFAD2082E02D303CC03C5B1
:10018000083E042E07D301CC01C5361F03E02178B9
:100190002970641C6D1C761EF9D270BD174880470B
:1001A00017480047FEE7FEE7FEE7FEE7FEE7FEE74B
:1001B000FEE7FEE7FEE7FEE7FEE7FEE7FEE7FEE717
:1001C000FEE7FEE7FEE7FEE7FEE7FEE7FEE7FEE707
:1001D000FEE7FEE7FEE7FEE7FEE7FEE7FEE7FEE7F7
:1001E000FEE7FEE7FEE7FEE7FEE7FEE7FEE70000CC
:1001F00004480549054A064B70470000490F0000B6
:10020000C1000000080C0020082C0020081C002061
:10021000081C0020F8B5042A2CD3830712D00B78D1
:10022000491C0370401C521E83070BD00B78491CDD
:100230000370401C521E830704D00B78491C0370C6
:10024000401C521E8B079B0F05D0C91ADF002023CC
:10025000DE1B08C90AE0FFF785FFF8BD1D4608C987
:10026000FD401C46B4402C4310C0121F042AF5D296
:10027000F308C91A521EF0D40B78491C0370401CB5
:10028000521EEAD40B78491C0370401C012AE4D4A6
:1002900009780170F8BD01E004C0091F0429FBD2F0
:1002A0008B0701D50280801CC90700D002707047FF
:1002B00000290BD0C30702D00270401C491E02293E
:1002C00004D3830702D50280801C891EE3E7002245
:1002D000EEE70022DFE7002203098B422CD3030A5A
:1002E0008B4211D300239C464EE003460B433CD483
:1002F000002243088B4231D303098B421CD3030AEB
:100300008B4201D394463FE0C3098B4201D3CB011A
:10031000C01A524183098B4201D38B01C01A52414A
:1003200043098B4201D34B01C01A524103098B424E
:1003300001D30B01C01A5241C3088B4201D3CB0039
:10034000C01A524183088B4201D38B00C01A52411C
:1003500043088B4201D34B00C01A5241411A00D2CC
:1003600001465241104670475DE0CA0F00D0494235
:10037000031000D3404253409C46002203098B42A5
:100380002DD3030A8B4212D38901FC2212BA030A2D
:100390008B420CD3890192118B4208D389019211AF
:1003A0008B4204D389013AD0921100E08909C30934
:1003B0008B4201D3CB01C01A524183098B4201D336
:1003C0008B01C01A524143098B4201D34B01C01A21
:1003D000524103098B4201D30B01C01A5241C30899
:1003E0008B4201D3CB00C01A524183088B4201D308
:1003F0008B00C01A5241D9D243088B4201D34B0023
:10040000C01A5241411A00D2014652411046634679
:100410005B1001D34042002B00D549427047634630
:100420005B1000D3404201B50020C046C04602BD6B
:10043000704770477047754600F024F8AE460500D7
:1004400069465346C008C000854618B020B5FFF77E
:10045000CFFE60BCB64600260027C0C5C0C5C0C5DB
:10046000C0C5C0C5C0C5C0C5C0C5403D49084900DC
:100470008D46704710B50446C046C0462046FFF77B
:100480006AFE10BD00487047000400200149182092
:10049000ABBEFEE726000200704700009348002133
:1004A000016041600161C9434161C1614162016311
:1004B000816301218164704780B504480168002090
:1004C00000F030F9012000F029F880BD6004002020
:1004D00010B5444244410C70022806D3032807D0CB
:1004E000022807D10120107010BD0020107000E01C
:1004F0000120187010BD000010B50B498A684B68C8
:100500001C6814431C600B6803491960C1B20122C6
:10051000184600F0F8F910BDA1AA558502490968EE
:100520004A6842404A6070473811000070B511496E
:100530000C68114B1C40020215180604AD19000688
:10054000281804430C600C691C4004430C610C6ABD
:100550001C4004430C624868084B18401043486034
:100560004869184010434861486A1840104348627F
:1005700070BDC04604110040F8F8F8F8F8F8FFFF25
:1005800080B50078FFF7D2FF80BD000080B500285D
:1005900001D000F09BFC0148006880BD20000020D5
:1005A00070B51C4615460646244802680F201040C8
:1005B0000B2800D30B20A84201D1022070BD626835
:1005C00023780846194600F0EEF8002814D0049865
:1005D00061780818C1B2E36822460832304600F05C
:1005E0002DF900280AD0059B218A1234284622467C
:1005F00000F006F8002070BD012070BD032070BD22
:10060000F8B50C4605460D4E0D4F002B0AD010468E
:10061000FFF7B6FF0F200540356070683840204373
:100620007060F8BD0F200540356070683840204389
:1006300070601046FFF7A4FFF8BDC04604000040FC
:100640000000FFFF70B51C682401A50F049C032D5A
:1006500002D0561EAE40301820601D6807202E467E
:100660000640042E01D10C3105E0AD0F032D02D060
:10067000561EAE4071186160032109071D682E01E6
:100680000E4011010A4A89181140294331435A6822
:10069000002A02D01268920400E0820411439A6892
:1006A000002A00D0106840050143A16070BDC0461B
:1006B000F03F000080B50248072100F003F880BD3C
:1006C00000080020B0B50C4605460120C0020649CE
:1006D0000A6802430A60FFF7E1FE044845606101D1
:1006E000491C0160B0BDC0460C00004004600040E1
:1006F000BFB51D46044601A86B461860089B084616
:1007000011462A46FFF79EFF0C4800682101019A16
:10071000425040180299416003998160039804B0E7
:10072000B0BDC04618B500910101009A034B1C688A
:1007300061188A6001218140196218BD086000407B
:10074000B0B5032283079043044A8458DB0EFF258B
:100750009D40AC43994021438150B0BD5060004062
:1007600010B5012484400948002901D0046000E04C
:100770004460002A01D0046200E04462002B01D0F2
:10078000C46100E08461C460046110BD1860004071
:1007900081B000900098002803D00098401E00907F
:1007A000FBD101B0704780B502290AD001290AD0D7
:1007B000002912D10321090703688B43036001213B
:1007C00007E0072105E00121490703688B43036027
:1007D0000321C90603680B430360114600F002F8C9
:1007E00080BD000080B50A460349086003491046F1
:1007F00000F0E0FB80BDC046000C0020D50F0000DB
:10080000B0B5036854780F2525400B4C1C404907B0
:100810000919491913785B065B0CC9189278D2073D
:10082000D20E89180322D2060A4302600122D206A0
:1008300089180160B0BDC046E080FF17B0B51C4606
:100840000546FFF7DDFF2846214600F001F8B0BD60
:1008500080B50A46034908600349104600F0AAFB28
:1008600080BDC046040C0020E90F0000F0B593B035
:1008700014460D4606466F464C213846FFF729FDC3
:10088000284621463A4600F047F83046394600F0FF
:1008900054F913B0F0BDFEB516460C460546089A4D
:1008A00001AF304619463B4600F04DF92846214637
:1008B0003A46FFF7DBFFFEBD9170507001201070CB
:1008C0007047F0B595B01E4617460C46019002AD34
:1008D0004C212846FFF7FDFC684605601A9B204620
:1008E0003946324600F0C4F829461C3101982A46A0
:1008F00000F03CF915B0F0BD1CB56C462360002338
:10090000FFF7C9FF1CBDE0B501AB9A7001221A8048
:100910000022FFF7F1FF8CBDF0B598B003461046FA
:100920003030179010462C30169010462830159015
:1009300010462430149010461030139010460C309E
:100940001290104608301190101D1090104648303B
:100950000F900E90104644300D900C9010461830B9
:100960000B900A90104614300990089010681843B4
:10097000106003910878002101280793184600D0E1
:100980000846D3690343D361039840780128079848
:1009900000D00846136A034313620398C078012805
:1009A000079800D00846536B0343536303980079BC
:1009B0000128079800D00846936B0343936303987C
:1009C00040790128079800D00846D36B0343D363CE
:1009D000039880790128079800D00846136C0343D8
:1009E00013640E460A463EE00291C807C50E009207
:1009F000920008A88018069010AB981805900CABD0
:100A00009818049014ACA2180024019623E0012049
:100A1000B040079908421BD0039B9878A04011680A
:100A20000F6807430F60D879A840049909680F68D8
:100A300007430F600F20A040059909680F6807431E
:100A40000F600320A840069909680F6807430F60EC
:100A5000AD1C761C241D202CD9D10299491C019E65
:100A60000836009A521C042ABED118B0F0BD00000E
:100A7000F0B5012635468540059C676B2F436763BB
:100A8000012900D800268640A76B3743A763E76B90
:100A90003743E7634E424E418640216A314321622B
:100AA000216829435D7821608540216C29432164B8
:100AB000C508032D27D84107C90EC0467D442D79AE
:100AC0006D00AF4401070E158A40656A15436562E3
:100AD000221D13E08A40A56A1543A562224608320A
:100AE0000CE08A40E56A1543E56222460C3205E0D7
:100AF0008A40256B15432563224610320F258D4011
:100B000011682943116001090007C00E012908D0AE
:100B1000002911D199788140626C0A4362641434CF
:100B200005E099788140A26C0A43A264183403213D
:100B30008140206808432060F0BD80B50A461C3122
:100B400000F014F880BD70B51C4615460E46591CC1
:100B50001A1D5B1DFFF7BCFCA670002020702878D2
:100B6000E0706878A071A878E07170BD1368C36305
:100B70001368436113684365536903669369436669
:100B80001368C360536883629368C362D368036366
:100B900013694363136843641268C2648A6882619C
:100BA000CA68C2610A6902624A694262CA69026429
:100BB0000A6A82644A6A02658A6A8265CA6AC2658A
:100BC0000A6882604A68026189698163704700002F
:100BD000B0B51C461546024608461146FFF77BFB9A
:100BE000411C03D000212180286003E002482860D6
:100BF000012020800120B0BDFFFFFF7FB0B501685C
:100C00000122CA60C3681C68184D25401204AC1844
:100C10001C6000230B604B608B600B614B618B6130
:100C2000CB610B624B628B62CB620B634B638B635A
:100C3000CB630B644B648B64CB640B654B658B653A
:100C4000CB650B664B668B66CB660B674B678B671A
:100C5000CB6780240B5184240B5188240B518C24A6
:100C60000B51C068016891430160B0BD0000FEFFF8
:100C700080B5416882680B6813430B60FFF7BEFFC5
:100C800080BDF8B51C4617460D460646FFF7F0FF37
:100C9000306847600698002804D000206946086044
:100CA000022302E0002368460360304629462246BC
:100CB00000F002F8F8BD0000B0B50468521EA26052
:100CC000026893650122049C14430568EC60046883
:100CD00000256565002B08D01023C356002B04DBCC
:100CE0001F2423409A40044B1A60C0680268034BDB
:100CF000134059180160B0BD00E100E00000FFFFA3
:100D00004A6842628A688262CA68C2620A6802628B
:100D10004A6942638A698263CA698264024A426498
:100D2000096901637047C046FF070000F0B589B04C
:100D300014460D46064601AF20213846FFF7C9FA92
:100D4000284621463A4600F035F830463946FFF746
:100D5000D7FF09B0F0BD00007CB50446002001AA11
:100D6000FFF7AAFD21688F4D00290FD0086882681F
:100D700043681E6816431E60006805600B7A496868
:100D800001AA6E4632600122FFF79BFD61680029CF
:100D90000FD00868826843681C6814431C600068B0
:100DA00005600B7A496801AA6C4622600122FFF7B0
:100DB00088FD7CBDB0B50B8853604B882D4911610F
:100DC0003F241C40946043789B002BA4E458837814
:100DD0001D0103789B075B0E2B432343D3600478EC
:100DE000042C03D1012424022343D3604468002C43
:100DF00016D009252C402343D36043689C0702D5B5
:100E00002249116143685C0705D501231B025B1C65
:100E1000194011614368DB0602D580231943116133
:100E20008368002B0AD01B68936183685C7907256F
:100E300025401B795B079B0E5B1953610369002BEF
:100E400009D01B789B00194301230B4313610169EF
:100E50000979116000E00B464169002903D0096857
:100E6000890259181161C068002801D00068D0615A
:100E7000B0BDC046010300000000000002000000F9
:100E80000600000082000000860000000102000051
:100E9000BCB50C46054691081846FFF71CFA3F21E1
:100EA000014001AA518080B2800910802846214665
:100EB00000F001F8BCBDB0B58368446825681D43E7
:100EC00025600068FFF732FFB0BD0000B0B51C4CD4
:100ED00022680F210A40072A03D8900019490858B0
:100EE00024E033480A2A21D8092A04D00A2A05D145
:100EF00022469C3204E02246883201E022467432C7
:100F00001568AA0F022A11D86804420E00D10222E5
:100F1000680F80000B4B185850432940491CFFF7BD
:100F2000DAF9E906C90F491CFFF7D5F961681F4CCA
:100F3000606089B2491CFFF7CEF92060B0BDC046A1
:100F4000040000409011000010B51548154A0260D9
:100F500001210B0704691C430461046A1C430462F9
:100F6000046B1C43046389070A60CB6808241C4394
:100F7000CC600D490A6000224A658A65CA650A6626
:100F80004A6604E08B180024E4431C62121D342AD4
:100F9000F8D100220A60026004480549016010BDD2
:100FA000F0100040A1AA558500300040200000202C
:100FB00000127A00B0B50C4601460D46A047002D40
:100FC00002D0691E0028F8D0002D00D0012528434A
:100FD000B0BD00000120000502490968096901400F
:100FE000080D7047000C0020012000050249096827
:100FF00009690140080D7047040C00208AB03D4883
:10100000FFF7C6FB03AE3CA114223046FFF702F9FE
:10101000012468460227076044603C49084628309E
:1010200008223346FFF7BCFA2046FFF7AFFA054621
:101030002046FFF761FA3648C3681968354A0A4006
:10104000354951181960354E314608314B22D201CD
:1010500002952B463D46FFF71BFF30463946FFF70A
:101060007BFE00202E4E04E03118421C3030087107
:1010700010460A28F8D1FFF71DFB2A486946086088
:10108000311D2348026800270A233846FFF730FB4A
:1010900009900998306008213846FFF751FB224833
:1010A0004021016021480160FF20000420490A68B6
:1010B00082430A60384639463A462346FFF750FBDA
:1010C00009AA08AE204602993346FFF781FD32880F
:1010D000099B68460760174E30463946FFF7D1FD39
:1010E0003068C16D2943C1652004F1680A68024374
:1010F0000A60FEE7C0CF6A000000000000060000A2
:101100000A000100008000000000060050000040BE
:10111000641100000000FE0F000001D0000000205C
:10112000600400208411000080E200E000E100E0A3
:1011300004E400E050110000002008400C000040D2
:1011400000800000004008400C0000400000020049
:1011500000A008400C00004000008000300100406A
:101160000C0000000090094010000040400000000A
:101170008801004012000000441100000F00000030
:1011800005000000010000C0000000000000000099
:1011900000127A0000093D0000127A0000093D00AB
:1011A00000127A0000093D00409C00000080000011
:1011B00000140000000000200004000004010000F2
:1011C0000018000000040020082800002001000092
:1011D000000000000000000000000000000000000F
:1011E00000000000000000000000000000000000FF
:1011F00000000000000000000000000000000000EF
:1012000000000000000000000000000000000000DE
:101400007811000000000000030000000000000050
:1014100000000000000000000000000000000000CC
:1014200000127A0000127A000000000000000000A4
:1014300000000000000000000000000000000000AC
:10144000000000000000000000000000000000009C
:10145000000000000000000000000000000000008C
:10146000000000000000000000000000000000007C
:04000005000000C136
:00000001FF
