:020000040000FA
:10000000A02300204901000051010000530100001D
:1000100000000000000000000000000000000000E0
:10002000000000000000000000000000550100007A
:100030000000000000000000570100009D140000B7
:100040005B0100005D0100005F0100006101000034
:100050006301000065010000670100006901000004
:100060006B0100006D0100006F01000071010000D4
:1000700073010000750100007701000079010000A4
:100080007B0100007D0100007F0100008101000074
:100090008301000085010000870100008901000044
:1000A0008B0100008D0100008F0100009101000014
:1000B00093010000950100009701000099010000E4
:1000C00000F002F800F030F80CA030C8083824180E
:1000D0002D18A246671EAB4654465D46AC4201D180
:1000E00000F022F87E460F3E0FCCB6460126334282
:1000F00000D0FB1AA246AB4633431847A0160000B7
:10010000C01600000023002400250026103A01D369
:1001100078C1FBD8520700D330C100D50B607047BF
:100120001FB51FBD10B510BD00F092FC1146FFF7C2
:10013000F7FF01F083FA00F0AAFC03B4FFF7F2FF27
:1001400003BC00F0B1FC0000174880471748004787
:10015000FEE7FEE7FEE7FEE7FEE7FEE7FEE7FEE777
:10016000FEE7FEE7FEE7FEE7FEE7FEE7FEE7FEE767
:10017000FEE7FEE7FEE7FEE7FEE7FEE7FEE7FEE757
:10018000FEE7FEE7FEE7FEE7FEE7FEE7FEE7FEE747
:10019000FEE7FEE7FEE7FEE7FEE70000044805494C
:1001A000054A064B7047000055150000C1000000CD
:1001B000A0030020A0230020A0130020A0130020F3
:1001C000002203098B422CD3030A8B4211D3002354
:1001D0009C464EE003460B433CD4002243088B422E
:1001E00031D303098B421CD3030A8B4201D39446BB
:1001F0003FE0C3098B4201D3CB01C01A52418309AE
:100200008B4201D38B01C01A524143098B4201D367
:100210004B01C01A524103098B4201D30B01C01A92
:100220005241C3088B4201D3CB00C01A524183080C
:100230008B4201D38B00C01A524143088B4201D339
:100240004B00C01A5241411A00D201465241104699
:1002500070475DE0CA0F00D04942031000D340420E
:10026000534000229C4603098B422DD3030A8B4244
:1002700012D3FC22890112BA030A8B420CD38901E2
:1002800092118B4208D3890192118B4204D38901C8
:100290003AD0921100E08909C3098B4201D3CB0106
:1002A000C01A524183098B4201D38B01C01A5241BB
:1002B00043098B4201D34B01C01A524103098B42BF
:1002C00001D30B01C01A5241C3088B4201D3CB00AA
:1002D000C01A524183088B4201D38B00C01A52418D
:1002E000D9D243088B4201D34B00C01A5241411A64
:1002F00000D20146634652415B10104601D3404292
:10030000002B00D54942704763465B1000D3404242
:1003100001B50020C046C04602BD70477047704717
:10032000F0B5F94D0C091E092C402E402F468BB01C
:10033000A7437DD0B543FCD0002E7AD0002CFCD052
:100340000D465D40ED0F2543AC1BFF25AD04641940
:100350000894C502440DC9022143500DDC02044338
:100360000120C00701430443D2020191200C110C6B
:1003700000958C46010423468B430A91614609048B
:10038000E24D8A430991010A7D444919803909786F
:1003900005464D4301266D18F605751B6943C90CCA
:1003A000640B891C4C436418B5012C1B250C2E04CE
:1003B000B4434C434D43210C691889090591009DB4
:1003C000E90701D00121C90704912C46019967086A
:1003D000CD072F434C08059DE10B4D432D0C2946BD
:1003E0006646754302950D4645432E46029D7D1B8C
:1003F000B44100950D465D4301942C0C2F040D462D
:100400005543AE462D0C3D43029503947546049C1E
:100410002D04641B049406D2029C039D641C0026D8
:1004200075410395029401AC70CC009F7D1B01E0E7
:100430003EE162E1B44109040095079101940599F8
:10044000A4086143090C0C464443650BE7040C46C1
:1004500066467443A646640B3C4303950294744677
:10046000049DE4042C1B049406D2029C039D641C8E
:10047000002675410395029401AC70CC009F7D1B52
:10048000B44101940C465C430095650FE7000C46AF
:100490005443A646640F3C43039502947446049D5E
:1004A000E4002C1B049406D2029C039D641C0026CD
:1004B00075410395029401AC70CC009F7D1BB44143
:1004C000AE09AF06049DC900AD092F43049DA406E3
:1004D000AD060495079D344369180791059DE10B0E
:1004E0004D432D0C29466646754302950D464543FE
:1004F0002E46029D7D1BB44100950D465D4301943F
:100500002C0C2F040D465543AE462D0C3D43029551
:1005100003947546049C2D04641B049406D2029C2B
:10052000039D641C002675410395029401AC70CCB8
:10053000009F7D1BB44101948C050694079C890A99
:10054000611800950791019C0599A4086143090C65
:100550000D464543680BEF040D46644665436C0B3E
:100560003C43049FED047D1BAC4602D20025641C75
:100570006841009E019D371B8541084658430195FF
:100580000C46460FC5005443600F28436546E400FF
:100590002C1B02D20025401C6E41019D3F1AB54123
:1005A0002846BD09800628438446A009BF064E029E
:1005B0000699A40676180743079D002068410A990A
:1005C000079019430020099B00906046FF191343D0
:1005D0004041E20F64003A43A4460446D71A8C41D6
:1005E000A04203D90120009020463A46C70F941834
:1005F00040416246D20F2243644664000494009C4A
:10060000BE466400D71AA446044602978C4177463A
:10061000002F01D1A04204D96046401C8446029AB2
:100620002046C40FA64694184041049A0546D20FAE
:10063000224364466400D31A8D417146002901D1DA
:10064000A84202D928461A46641C104301220028F9
:1006500000D0164361020020079B891904465C41C3
:100660000223002C02DB491813466441089DCE0A80
:100670002D145D194B056705E10A2C050D19089924
:100680003E43C9076940002B08D0934006D300229F
:10069000761C5141002B01D1760876001C4A002DB2
:1006A00043DB154241D0AA433FD030460BB0F0BDEA
:1006B00006180D464D41174C7642AC411AD3951899
:1006C0001C465C41134A6D42A24113D301225205DC
:1006D0004C00D4420AD15C00D4420BD04B4002D52E
:1006E00092021143E2E749004908DFE75940C90F88
:1006F000C90718E000200849D8E7054801420DD194
:100700000342F7D0F2E700000000FF078F1300005C
:100710000000F07F0000E0FF0000F87F1148594022
:100720000143C01241400020C0E70123089A9B0604
:100730009A4205DC032252078918C90FC907B5E799
:10074000052252078918074A1143D2125140ADE7DA
:1007500070B515461C4602460B4628462146FFF753
:10076000DFFD70BDFFFFFF7F0346CA02400D10B5DD
:1007700010430A1504D00124E4072043002A05DBB6
:100780000A4CA21A04D4D040FF2A00DD002010BD7C
:100790004A00002B01D0012000E0002010180122A7
:1007A0005205D042F2D8C817C04310BD1E04000045
:1007B0001F22030C02D10F22000402D0030E03D02B
:1007C00004E00020014670470002083A030F01D1FF
:1007D0000001121F830F01D18000921E002801DB4F
:1007E0004000521E120551184205C0124118104611
:1007F0007047C10FC90700D0404201229207114340
:10080000D6E701218907D3E7F0B58B4C0F092546C0
:1008100089B0BD437BD01D092646AE43FAD00E46B3
:100820005E402740F60F3E43254071D0240121420F
:10083000FBD0FF24AD19A4042D1B039501252D0524
:10084000DB02DB0AC9022B43C90A29431E01090145
:10085000040F130F050121431701880B82039143F5
:100860002D098C46A90B1E438A039543B30B9A03AB
:1008700096433F09BA0B9403A74302962E467E4344
:100880000497B6464E19D7190C460196544305975E
:100890007E43371B7646BF1B3601B646BE0B361964
:1008A00000967646BC043719009C01D3641C009462
:1008B0006400002F01D001263443029E049F75433B
:1008C00066467E430496760034196E00341900940F
:1008D000029C019E1C196643751BAE460694654634
:1008E0004519059C05956C43594375460891691A4D
:1008F0000191049E01465143A41B0491611A009C7E
:100900000791E10605D061090122114302E072E07E
:100910006EE06109089D00272C0A2D066918049DC8
:100920007C412A0A2D066918019D6241AC0DAD0279
:100930006D185441079A910D920255196141029A1E
:10094000644658435443069B059A5A43121A131B94
:100950009A0E9B015B187A41010B0005C3185141A7
:10096000220A200644195A419A4200D2491C012009
:100970004002814203D315230226F64302E01423EA
:100980000326F6432020C51AA9401746AF40DA4097
:100990000A4320460399D8400914731819055118C1
:1009A000039A3843D2075140AC4009D00122944009
:1009B00006D30022401C5141002C01D140084000C8
:1009C0001E4A934212D3012203989206904207DBFB
:1009D0000520400709181A480143C012414004E0AD
:1009E000032040070818C10FC907002009B0F0BD57
:1009F0000020F107FAE705180C464C4111486D42FA
:100A0000A04115D394181A465A410E4864429041A9
:100A10000ED301204A004005824209D35A00824287
:100A200006D35940C90F084AC90700201143DDE722
:100A300000200649DAE700000000FF07FE0700007B
:100A4000FFFFFF7F0000E0FF0000F07F0000F87F65
:100A5000754600F025F8AE46050069465346C008C5
:100A6000C000854618B020B5FFF798FB60BC002792
:100A70004908B6460026C0C5C0C5C0C5C0C5C0C56A
:100A8000C0C5C0C5C0C5403D49008D46704710B5C2
:100A90000446C046C0462046FFF74FFB10BD00008D
:100AA000004870473C03002001491820ABBEFEE718
:100AB00026000200704770B58C180578401C6B0743
:100AC0005B0F01D10378401C2A1106D10278401C2B
:100AD00003E00678401C0E70491C5B1EF9D12B0701
:100AE00005D40023521E0DD40B70491CFAE703787D
:100AF000401CCB1A921C03E01D780D70491C5B1C36
:100B0000521EF9D5A142D8D3002070BD10B5074AB6
:100B1000C043D3680340D360D3690340D361D36A31
:100B20000340D362084600F00DF810BD00110040EC
:100B30000349C868CA69C96A104008407047000084
:100B4000001100400549CA680243CA60CA690243ED
:100B5000CA61CA6A0243CA627047000000110040BD
:100B6000FEB50446002000F06BF9E168884201D22E
:100B7000012200E0002227783F4D3F4E0121C903AA
:100B80003D48143528363B0000F04AFD06040A0EA5
:100B900014253E7403214902606800F09FF9FEBDF0
:100BA000606800F06FF9FEBD03214902606800F043
:100BB00051F9FEBD207A0B4600286068009202467B
:100BC00005D02D480421143800F001FAFEBD2A4852
:100BD00002212838F8E7617A00290AD060680129E3
:100BE00000920CD0024600230A21304600F0C3F9DF
:100BF000FEBD6168009200230A460821F6E7002343
:100C0000024609212846F1E7217A0029617A0ED0AF
:100C10000427002922D0636801290097019224D07B
:100C200015490A221439304600F076F9FEBD022734
:100C3000002908D063680129009701920AD00E4963
:100C40000A222839EFE7636801920B4908220097CE
:100C50002839E9E708490922283909E0636801923F
:100C60000549082200971439DEE70349092214399F
:100C70002846D9E70420FEBD7800004010B50028C2
:100C80000CD000240C7000280CD001280AD00121BF
:100C9000022805D0032800D1197010BD0124F1E706
:100CA000117010BD00201070187010BD10B5084AEA
:100CB00051680968936819435368196013680549B6
:100CC0001960C1B21068012200F08AFA10BD00005C
:100CD00000170000A1AA558530B503460020074C37
:100CE000014601252A468A401A4202D08A00A258AB
:100CF0001043491C0829F5D330BD0000C016000080
:100D0000034A0029116801D088607047C8607047A5
:100D100000170000024909684A6842404A6070476B
:100D20000017000010B501020A46014304042143E4
:100D3000000601430E480D4B44689C430C4344603D
:100D400044699C430C434461446A9C430C434462A1
:100D500084681B149C431443846084699C4314433B
:100D60008461846A9C431443846210BD07070707AB
:100D7000001100400120800740680007000F0A288A
:100D800000D90B207047000010B500F063F8002870
:100D900001D0002010BD0020012189074860886033
:100DA000C860086148618861C861086248628862F9
:100DB000C862086348638863C8631F490860486065
:100DC0008860C860086148618861C86108624862DB
:100DD0008862C862086348638863C8631649403103
:100DE000086048608860C860086148618861C861BF
:100DF000086248628862C86208630F49C03188612E
:100E0000C861086348638863C8630C498860C86028
:100E1000086148618863C863084940318860C860D8
:100E2000086248628862C862086348630349803187
:100E3000C860012010BD000040000040400100409B
:100E400010B5002801D000F047FB0148006810BD34
:100E50003003002070B504461546007800F024F9F0
:100E6000002807D06078618800282B4604D0221D16
:100E7000012003E0012070BD221D002000F0C3F816
:100E8000002070BD70B5044600780D46002804D0DF
:100E9000012805D002280DD108E001210D4802E00B
:100EA000012003218003FFF731FE03E00948401CC5
:100EB000FFF748FE0849284600F094FB002807D0B9
:100EC00061880023221D072000F09DF8002070BDDE
:100ED000012070BD02400000D910000070B504462A
:100EE0000D46007801210004C90341181F200004A9
:100EF000FFF70CFE0749284600F074FB002807D0D6
:100F000061880023221D062000F07DF8002070BDBE
:100F1000012070BDE5100000FFB581B01C461646EB
:100F20000F460A9DFFF726FFB04202D1022005B00E
:100F3000F0BD21783846626800F085F8002816D0A8
:100F40006078002801D06D1CEDB222460832294697
:100F5000E368019800F0E8F800280AD02246218AC8
:100F6000123230460B9B00F04EF80020DFE70120E4
:100F7000DDE70320DBE7F8B51D4614460E460746BD
:100F8000FFF7F8FEB04201D10220F8BD2078616879
:100F900000F08AF8002816D06078002801D06D1C77
:100FA000EDB22246083229463846E36800F0BCF824
:100FB00000280AD02246218A12323046069B00F0D1
:100FC00022F80020F8BD0120F8BD0320F8BD70B55F
:100FD0000E46144611781A46049D00F034F8002895
:100FE00008D060786188002806D0761CF0B22B46C5
:100FF000221D04E0012070BD2B46221D304600F06A
:1010000002F8002070BDF0B51D0016460C460746DC
:1010100002D03078FFF786FE3907090F01208007DC
:1010200041608168090C090421438160002D02D1CF
:101030003078FFF777FEF0BD08B50090002801D0AA
:10104000401EFAE708BD10B5002904D001290BD0D5
:10105000022917D111E0016803231B07994301609E
:1010600001680123DB060BE0016801235B0799435C
:10107000016001680323DB0602E001680723DB0649
:1010800019430160114600F001F810BD10B5044A83
:101090000B4610600349184600F0A4FA10BD00008A
:1010A000340300200116000010B50C460121000693
:1010B000890541183F200006FFF728FD0249204618
:1010C00000F090FA10BD0000CD10000010B5FFF741
:1010D0002FFD0002C00F10BD10B5FFF729FD8004E1
:1010E000C00F10BD10B5FFF723FD8002C00F10BD6B
:1010F00030B504680B4B55781C40137892785B062A
:101100002D075B0C2D0FD2072B43D20E134349073B
:101110000B4301212343C9060B43490019430160D6
:10112000036030BDE080FF1F70B51D460446FFF729
:10113000DFFF2946204600F001F870BD10B5044AD3
:101140000B4650600349184600F04CFA10BD0000F1
:10115000340300201116000000210160416081600D
:10116000C16001614161816170470021016041609E
:101170008160C160016141618161C161016241625F
:101180008162C162704730B593B0044613460D4684
:1011900007A8FFF7EAFF6846FFF7DEFF6A46194631
:1011A000284600F029F86946204600F0BBF813B045
:1011B00030BDFEB51E4617460C4605466B46314609
:1011C0003846089A00F0B4F86A4621462846FFF7E8
:1011D000DAFFFEBD08B500930023FFF7EAFF08BD64
:1011E00008B5044B1B6800936B469A700022FFF70A
:1011F000F1FF08BD0C170000F0B5144693B024347D
:101200000094241D0194241D0294241D0394141D94
:101210000494241D0594241D0694241D079434343D
:1012200008940994241D0A940B94343C13461C33EF
:101230000C940D941C1F0E940F94146804431460B6
:101240000A781C68012A61D0002214431C604A7885
:101250005C68012A5CD0002214435C60CA789C69F7
:10126000012A57D0002214439C610A79DC69012AC3
:1012700052D000221443DC614A791C6A012A4DD005
:10128000002214431C628A795C6A012A48D0002239
:1012900014435C620023DA001292DA07D20E119234
:1012A0000022129C01251419A540054226D08E78F3
:1012B0009500AE4010959C006D462D592F683E4319
:1012C0002E60119D5700CE797D19AE46AE4008AD17
:1012D0002D592F683E432E6004AD2D590F27AC4683
:1012E0002E68109DAF403E4365462E600CAD2C59D4
:1012F000754603272668AF403E432660521C082AE5
:10130000CFD35B1C042BC6D313B0F0BD02469CE7C1
:101310000246A1E70246A6E70246ABE70246B0E76F
:101320000246B5E700B50A461C3100F014F800BDCE
:1013300070B51C4615460E465B1D221D611CFFF74D
:101340009DFC00202070A6702878E0706878A0715D
:10135000A878E07170BD1368C363136843611368B4
:10136000436553690366936943661368C3605368B2
:1013700083629368C362D3680363136943638B68B2
:101380008361CB68C3610B6903624B694362136875
:1013900043641268C264CA6902640A6A82644A6A5F
:1013A00002658A6A8265CA6AC2650A6882604A689A
:1013B00002618969816370470349401E48610020CA
:1013C000886107200861704700E000E00248016979
:1013D000490849000161704700E000E070B505462A
:1013E000FFF7F4FF0021FF20FFF78AFC284C61681B
:1013F000481901D5102002E0112800DB0020244DFF
:1014000060601C35285C2421224E4843801900F07E
:10141000DFF8A07002280CD100F0BAF8A070002804
:1014200007D160682421285C4843801900F0D0F877
:10143000A07061680006000E1CD0401CFFF74CFC39
:1014400001212061FFF75CFC0120FFF7F9FCFFF7A9
:10145000D8F9114D00222B46FFF7D6F900222B4672
:10146000FEF75EFFFFF780F96061010E07D07D2176
:10147000C90005E0481CFFF72FFC2061E4E70121CB
:10148000A160FEF79DFE6061FFF796FF70BD000052
:1014900000000020CC00002000408F4010B50D4C13
:1014A000E068401CE060A168884212D3A078002860
:1014B00002D12069FFF72EFC0021E160607800284E
:1014C00007D0A069401CA0610A2802D10120207029
:1014D000A16110BD0000002070B5012080074068A8
:1014E00018490007000F184C082802D2800008583D
:1014F00023E0164B0A2822D8154A092811D00A28B9
:1015000011D013484038826B500F062817D2800044
:1015100008581107D306090FDD0F5204520E04D0EC
:1015200004E0D268F0E7126AEEE702225043491C59
:10153000FEF746FE691CFEF743FE206070BD236087
:1015400070BD0000E01600003003002000127A0099
:10155000800000400B4B0A4818630A48403002687C
:1015600001050A43026002690A430261026A0A43F2
:1015700002620020186305490348086070470000B4
:10158000A1AA5585C010004000127A003003002047
:101590001CB50020FFF754FC0B49884201D2012200
:1015A00000E0002209498868C96801910090032180
:1015B00049026846FFF74EFC040002D10120FFF704
:1015C0003FFC20461CBD000000127A00B01600004F
:1015D00010B5FFF7C5FA040002D10120FFF730FC77
:1015E000204610BD70B50D46044605E0A84700280A
:1015F00001D0012070BD641E002CF7D1A84770BD3A
:10160000024800680069C002C00F70473403002020
:10161000024840680069C002C00F704734030020D0
:1016200030B47446641E2578641CAB4200D21D465B
:10163000635D5B00E31830BC184700001CB5174C15
:101640002046FFF7F9FC1649012203C901910090D9
:10165000032149026846FFF797FBFF20FFF726FBAF
:101660000121FF20FFF74CFB2046FFF7E5FC00219E
:10167000FF20FFF745FB0B48810708600A49086314
:101680000020FFF7ABFE094C002520780028FCD095
:101690000120FFF7A3FE2570F7E7000080841E00FD
:1016A000B0160000A1AA5585C0100040000000201F
:1016B00020000000000000002000000000000000EA
:1016C000010000000200000004000000080000000B
:1016D000100000002000000040000000800000001A
:1016E00000127A0000093D0000127A0000093D0056
:1016F00000127A0000093D00409C000000800000BC
:10170000002008400C0000400080000001000000A4
:10171000010000000100000001000080807F7E7D4C
:101720007C7B7A7978777676757473727171706F65
:101730006E6E6D6C6C6B6A6A696868676666656414
:1017400064636362616160605F5F5E5E5D5D5C5C9F
:101750005B5B5A5A59595858575756565555555410
:1017600054535352525251515050504F4F4F4E4E6E
:101770004D4D4D4C4C4C4B4B4B4A4A4A49494948BC
:1017800048484747474746464645454544444444FC
:10179000434343434242424241414100BC1700009F
:1017A000000000203C030000B60A0000C018000042
:1017B0003C030020642000000401000011220132DB
:1017C0000219070112101101020304050607080996
:1017D0000A0B0C0D0E0F107A082A120152207A20E3
:1017E000393A051B1906491A22062A0A114A800DA0
:1017F00069140B1012011469283A013E09103C6962
:1018000014A93CE928693C5A2E7F23409C0C104CBB
:101810005349D3315A3424293804114C53453202E8
:101820006A3A2413127A0A11484829246A40242B60
:10183000093D24F32F323203BA46480310453029BC
:1018400024BA4C48EB453049694829BC59480A1626
:10185000314839244948EA314832046A546C1E5AE6
:1018600062025030B6BB5F349429242A6824194997
:101870002F80A81201503124EB3336242A7C2432E5
:10188000022E2D3101503224BA32483205DA906CE2
:10189000CB45306D2924DAA46C1924B96D2924DADA
:1018A000B86C1924B96D696C39FC696C0A14316C17
:1018B000AA016C0A14316CAA016CDA31D993127A3C
:04000005000000C136
:00000001FF
