:020000040100F9
:10000000083C0020310400014D0400014F040001B0
:1000100051040001530400015504000100000000D8
:100020000000000000000000000000005704000174
:100030000000000000000000590400015B04000102
:1000400000000000000000000000000000000000B0
:1000500000000000000000000000000000000000A0
:100060000000000000000000000000000000000090
:100070000000000000000000000000000000000080
:100080000000000000000000000000000000000070
:100090000000000000000000000000000000000060
:1000A0000000000000000000000000000000000050
:1000B0000000000000000000000000000000000040
:1000C0005D0400015D0400015D0400015D040001A8
:1000D0005F040001000000006104000163040001EE
:1000E0006504000165040001650400016504000168
:1000F0006504000165040001650400016504000158
:1001000067040001690400016B0400013D06000161
:10011000690600016D0400016D0400016D04000119
:100120006D0400016D0400016D0400016D04000107
:100130006D0400016D0400016D0400016D040001F7
:100140006D0400016D0400016D0400016D040001E7
:100150006D0400016D0400016D0400016D040001D7
:100160006D0400016D0400016D0400016D040001C7
:100170006D0400016D0400016D0400016D040001B7
:100180006D0400016D0400016D0400016F040001A5
:1001900071040001730400017504000100000000F7
:1001A0000000000077040001790400017B040001D5
:1001B0007D0400017D0400017D0400017D04000137
:1001C0007D0400017D0400017D0400017D04000127
:1001D0007F0400017F0400017F0400017F0400010F
:1001E0007F0400017F0400017F0400017F040001FF
:1001F00081040001810400018104000181040001E7
:1002000081040001810400018104000181040001D6
:1002100081040001830400018304000183040001C0
:1002200083040001830400018304000183040001AE
:10023000830400018304000185040001850400019A
:100240008504000185040001850400018504000186
:100250008504000185040001850400018704000174
:10026000870400018704000187040001870400015E
:10027000870400018704000187040001870400014E
:10028000890400018B0400018D0400018D0400012C
:100290008D0400018D0400018D0400018D04000116
:1002A0008D0400018D0400018F0400018F04000102
:1002B0008F0400018F0400019104000191040001EA
:1002C00000000000000000009304000193040001FE
:1002D00093040001930400019504000195040001BA
:1002E00095040001950400019504000195040001A6
:1002F0009504000195040001950400019504000196
:100300009504000195040001950400019504000185
:100310009504000195040001950400019504000175
:100320009504000195040001950400019504000165
:100330009504000195040001950400019504000155
:10034000950400019704000197040001970400013F
:100350009704000199040001990400019904000127
:100360009904000199040001990400019904000115
:100370009904000199040001990400019904000105
:10038000990400019B040001000000008B0400019F
:1003900000F002F800F03CF80AA090E8000C82445B
:1003A0008344AAF10107DA4501D100F031F8AFF238
:1003B000090EBAE80F0013F0010F18BFFB1A43F043
:1003C000010318479C150000BC150000103A24BF1B
:1003D00078C878C1FAD8520724BF30C830C144BFAA
:1003E00004680C60704700000023002400250026EC
:1003F000103A28BF78C1FBD8520728BF30C148BF88
:100400000B6070471FB501F00FFA1FBD10B510BD8E
:1004100000F082F81146FFF7F5FF00F061FE00F0F2
:10042000A0F803B4FFF7F2FF03BC00F0A7F8000048
:10043000DFF87400016841F470010160BFF34F8F71
:10044000BFF36F8F1948804719480047FEE7FEE762
:10045000FEE7FEE7FEE7FEE7FEE7FEE7FEE7FEE774
:10046000FEE7FEE7FEE7FEE7FEE7FEE7FEE7FEE764
:10047000FEE7FEE7FEE7FEE7FEE7FEE7FEE7FEE754
:10048000FEE7FEE7FEE7FEE7FEE7FEE7FEE7FEE744
:10049000FEE7FEE7FEE7FEE7FEE7FEE70548064962
:1004A000064A074B7047000088ED00E07910000114
:1004B00091030001081C0020083C0020082C0020AB
:1004C000082C00204FF0000200B5134694469646D3
:1004D000203922BFA0E80C50A0E80C50B1F1200157
:1004E000BFF4F7AF090728BFA0E80C5048BF0CC005
:1004F0005DF804EB890028BF40F8042B08BF704763
:1005000048BF20F8022B11F0804F18BF00F8012BD4
:100510007047704770477047754600F02BF8AE463D
:1005200005006946534620F00700854618B020B5FF
:10053000FFF7B4FFBDE820404FF000064FF0000782
:100540004FF000084FF0000BAC46ACE8C009ACE837
:10055000C009ACE8C009ACE8C00921F007018D462C
:10056000704710B50446AFF300802046BDE8104048
:10057000FFF757BF004870470004002001491820CA
:10058000ABBEFEE7260002007047000080B5DFF832
:100590005CCDDFF84CED0020002307E03CF81010A4
:1005A0003EF8102001308A4218BF0133B0F5806F49
:1005B000F4D1B3FA83F0400980BD00BF2DE9F041CA
:1005C0000A4D0B4E0B4F4FF000080024B4F5806F1E
:1005D00008BFBDE8F0812868411C296000F0E5FCF7
:1005E00026F8140027F814800134EFE76C0400208B
:1005F000740C0020740400200648074A0168013189
:100600009142016038BF7047002101604FF48010B3
:1006100000F0D4B870040020A1860100D448002165
:100620000160416001614FF0FF314161C161416290
:100630000163816301218164704700BF10B5154CCF
:10064000207808B101200AE013480068C00705D1EE
:10065000002000F0DFF90120207000E00020617828
:100660000840A07010BD00BFB0B50A4C607808B15A
:1006700001250AE008480068800705D4012001250B
:1006800000F0C8F9657000E0002520782840A070CF
:10069000B0BD00BF60040020282004E0B0FA80FC58
:1006A00002284FEA5C1C81F800C007D3032808D059
:1006B000022818BF7047012010707047002010708A
:1006C00000E0012018707047214908603E49D1E9D7
:1006D00000028968136819431160524901604FF0A4
:1006E000784100F04DBA00BF10B5044600F00CF898
:1006F00038B12046002100F007F80028F9D1012088
:1007000010BD002010BD0000104B0A4601460AA093
:1007100050F82100002A53F8211003D00C4A126827
:1007200000F018B80068406821EA0000401AB0FAEA
:1007300080F04009704700BF601800016018000198
:100740006018000160180001601800018C18000199
:100750000800002070B5054600680C46002A406875
:1007600021EA00060AD0A64208D1104600F05CF942
:100770002868406826EA0000001B00E0301BB0FA41
:1007800080F0400970BD00000F4991E80C10196815
:1007900041EA0C0119602349116000F4A8111046C8
:1007A000012200F0FDB900BF002907494FF00C02FB
:1007B00018BF082209688850704700BF02490968BD
:1007C0004A68504048607047601800010A490A684A
:1007D00022F4604242EA40320A600A6822F0700263
:1007E00042EA0012C1F88C204A6822F0700242EA04
:1007F00000104860704700BF0411004010B5044667
:100800004078FFF7E3FF0649064A20780A604A6805
:1008100022F00F02104348600020086010BD00BFA6
:1008200000600040A1AA558520B180B500F0DEFB34
:10083000BDE8804001480068704700BF000000200C
:10084000F8B506462548006800F00F000C2828BFC0
:100850000C20884201D102201DE00C46516810781E
:100860001F46154600F0EAF890B16878EB6805F18C
:1008700008023844C1B2304600F01DF950B1069B61
:10088000298A05F11202204600F008F8002002E053
:10089000012000E0032001B0F0BD00BF70B50F4E95
:1008A0000C46054663B11046FFF7A8FF05F00F00A0
:1008B0004FF6FF713060706888432044706070BDEF
:1008C00005F00F004FF6FF713060706888432044D8
:1008D00070601046BDE87040FFF790BF0400004014
:1008E00010B5D3F800C0CCF3816EDDF808C0BEF1BE
:1008F000030F1EBF541E04FA0EF42044CCF800006F
:10090000186800F00704042C01D10C3106E0800FB8
:1009100003281EBF541E04FA00F0014443F6F07091
:10092000CCF8041000EB02110140D3E90020114380
:1009300002F04072002841EA02111ABF006841EA41
:10094000804041F4E010996800291ABF096840EA24
:10095000415040F46000CCF8080010BD80B5FFF7AE
:100960005DFE034803494160E121016080BD00BF95
:10097000042004E0001800201FB59C46044601A88E
:10098000069B0090084611466246FFF7A9FF0748FC
:1009900021010068019A425000EB04100299416065
:1009A00003998160039804B010BD00BF082004E0E3
:1009B000012101FA00F0024908604860704700BF59
:1009C000242004E0B0B5074D20F00302182404EA07
:1009D000C000FF245359844001FA00F0A343184398
:1009E0005051B0BD502004E010B50124002904FA94
:1009F00000F0074C0CBF60602060002A0CBF6062F2
:100A00002062002B0CBFA061E061E060206110BD9E
:100A1000182004E0012101FA00F002490860886012
:100A2000704700BF202004E081B00090009818B10A
:100A3000009801380090FBD101B0704710B5124CFE
:100A40000A4638B102280CD001280ED1C0206FF020
:100A5000005302E080206FF060032168194021609C
:100A600000E0E02021680843206003491046BDE80B
:100A7000104000F01FBB00BF7D0A00010248006863
:100A8000C0F30010704700BF0C110040036892F8DB
:100A900001C06FF3140361F39443117892789203C9
:100AA00043EA41110CF01F03194492B2114401F5BD
:100AB000003101607047B0B51C460546FFF7E6FF00
:100AC00028462146BDE8B040AFF300800A460349FE
:100AD00008600349104600F0EDBA00BF001C00207A
:100AE000D1100001F0B593B06F460D4606464C217B
:100AF00014463846FFF7E6FC284621463A4600F001
:100B00005AF83046394600F081F913B0F0BDFEB511
:100B10001446089A01AF0E460546194620463B4644
:100B200000F078F9284631463A46FFF7DBFFFEBD74
:100B3000917050700120107070472DE9F04194B011
:100B400001AF0E4680464C211C4615463846FFF73D
:100B5000B9FC1A9B304629462246009700F0C6F899
:100B600007F11C0140463A4600F067F914B0BDE8B1
:100B7000F081E0B500930023FFF7C9FF8CBD0000B2
:100B8000E0B5064A937812888DF80630ADF8042057
:100B900001AB0122FFF7EDFF8CBD00BF4218000141
:100BA000E0B58DF80620012201ABADF8042000224B
:100BB000FFF7DFFF8CBD2DE9F04F92B002F130035B
:100BC0004FF0010A0DF1280B4FF0030E0DF108094B
:100BD0004FF00008119302F12C03109302F1280347
:100BE0000F9302F124030E9302F110030D9302F10F
:100BF0000C030C9302F108030B93131D0A9302F1EB
:100C00004803CDE9083302F14403CDE9063302F18C
:100C10001803CDE9043302F11403CDE9023313685C
:100C2000D2E90776556B034313600B78012B08BF9D
:100C30000743D7614B78012B08BF06431662CB7878
:100C4000012B08BF054355630F79936B012F08BF34
:100C5000034393634F79D36B012F08BF0343D363DF
:100C60008F79136C012F08BF034313640022002304
:100C7000042A04BF12B0BDE8F08F03F00104002580
:100C80000193CDF80080240126E00AFA08FC1CEA52
:100C9000000F1DD00EAB8E7853F82270AE403B682B
:100CA00033433B6006AF57F82270CB793E68A340D0
:100CB00033433B600F235BF82270AB403E68334305
:100CC0003B600EFA04F359F822703E6833433B60F0
:100CD000023408F101080435202DD6D1019BDDF83E
:100CE00000800132013308F10808C1E72DE9F04125
:100CF000DDF818C0B1FA81F44FF0010E01294FEA76
:100D00005414DCF8205004FA00F4DCF80080DCE92C
:100D10000D7645EA04050EFA00F4CCF8205047EAB7
:100D20000405CCF834504FF0000588BF012505FAC2
:100D300000F146EA0105CCF83850DCF83C50294374
:100D4000CCF83C1048EA04015C78CCF8001004FAB6
:100D500000F1DCF840402143C408032CCCF84010DB
:100D60002FD81C2101EA8001DFE804F0020B141DDA
:100D7000DCF824408A402243CCF824200CF1040201
:100D800019E0DCF828408A402243CCF828200CF1F6
:100D9000080210E0DCF82C408A402243CCF82C20DA
:100DA0000CF10C0207E0DCF830408A402243CCF81A
:100DB00030200CF110020F2404FA01F114682143D1
:100DC00011601E21BEEB101F01EA40010DD0000989
:100DD00018BFBDE8F0819878DCF8442088401043C3
:100DE000CCF844000CF1140008E09878DCF84820B6
:100DF00088401043CCF848000CF11800032202FA96
:100E000001F1026811430160BDE8F0810A461C311E
:100E100000F013B870B515460E461C46591C1A1D35
:100E20000533FFF73BFC0020A67020702878E070A7
:100E30006878A071A878E07170BD1368C363136807
:100E40004361136843655369036693694366136896
:100E5000C360536883629368C362D3680363136992
:100E60004363136843641268C2648A688261CA6813
:100E7000C2610A6902624A694262CA6902640A6A14
:100E800082644A6A02658A6A8265CA6AC2650A68B9
:100E900082604A680261896981637047C168490755
:100EA00058BF70478168F9E70222002918BF032262
:100EB000426070470622002918BF0E224260704728
:100EC00010B54FF0000CC0F804C04A7891F800E06B
:100ED000CC784EEA0213002A43EA042302D18A782E
:100EE00043EA82130360097901610321C0F814C049
:100EF000C0F824C00162416841F010014160BDE8C2
:100F00001040FFF7CBBF0000FEB502AC0546002045
:100F10002246FFF70DFE2968614F0868D0E90123DA
:100F20001668334313600122006807600B7A496832
:100F30000094FFF702FE696869B10868D0E90123EF
:100F40001668334313600122006807600B7A496812
:100F50000094FFF7F2FDA96869B10868D0E90123A0
:100F60001668334313600122006807600B7A4968F2
:100F70000094FFF7E2FDE96869B10868D0E9012350
:100F80001668334313600122006807600B7A4968D2
:100F90000094FFF7D2FDFEBDD0E9012C136843EAAF
:100FA0000C0313600068FFF78BBF81B00090002135
:100FB0006A46002006E0535C0131184400EB8020B3
:100FC00080EA90100429F6D14FF4807104E000EB20
:100FD0008020013980EA90100029F8D100EBC00090
:100FE00080EAD02000EBC03001B070472048016893
:100FF00001F00F02072A03D81E4951F822102DE0F4
:101000002B490B2A2AD8092A08D00B2A09D00A2AE8
:1010100014BF00F1740200F19C0204E000F18802A8
:1010200001E000F1B0021268C2F38243052B15D82B
:10103000104951F82310C2F34813002B08BF0223B4
:10104000594302F01F03C2F381320133012AB1FB7D
:10105000F3F18EBF89080132B1FBF2F14068012340
:10106000124A13FA80F0B1FBF0F0C2E900017047B8
:10107000040000404019000109484FF080418122DE
:1010800008600848016841F08061016006490A6013
:10109000016821F0806101600448054901607047E2
:1010A000A1AA55851000004008E00A400000002079
:1010B00000127A00B0B50C4601460D46A04715B1A6
:1010C000691E0028F9D0002D18BF01252843B0BDA6
:1010D000024800680069C0F300507047001C0020FF
:1010E00088B071A00127031D00690ECB069003A8EC
:1010F0000EC002AA0821022300976B4802906F4895
:10110000FFF79EFB0120FFF78FFB00F07CFA9FEDBD
:10111000600B53EC102B00F089FA9FED5F0B53EC42
:10112000102B00F083FA9FED5E0B53EC102B00F0B8
:10113000E5F800F03BFAFFF7C7FA4FF4A010FFF70D
:1011400023FB5F485F4BDFF88481C16899460468E0
:101150000A681A405C4B1A439A460A604146FFF7F8
:101160001BFF204600210026FFF79EFE5848032162
:10117000FFF7CAFE5748C16805680A6802EA090213
:1011800042EA0A020A604146FFF706FF28460021AC
:10119000FFF790FE50480321FFF7B6FE606A40F06B
:1011A00002006062686A40F001006862FFF7D6FBE7
:1011B0004A484B4904F108024FF480630090002034
:1011C000FFF7DAFB0790474C484A05F108014FF456
:1011D000806307986060444800900120FFF7CCFBD3
:1011E00007901D210798A0600020FFF7EBFB01206E
:1011F0002021FFF7E7FB3E484FF480114FF4002217
:101200000123C0F8801101603A494E70C0F8802176
:1012100002600E70012000210022FFF7E5FB364D31
:1012200000200121FFF760FA10B34FF4A010012154
:10123000FFF7BAFAFFF7C2F9F807268007D00020B7
:101240000021002201230027FFF7CEFB10E0D4E9A4
:101250000101079107992A68916107900798296809
:1012600088600120FFF7A4FB00200027FFF7A0FB08
:10127000A07840B1FFF78AF920B14FF48020002117
:10128000FFF792FAA670FFF7B7F9C9E700BF00BFF2
:101290000000000000002440000000000000C03FEB
:1012A0000000000000408F40000000000006000029
:1012B0001E000100008000000000040378000040D0
:1012C000A01800010000FE0F000001D00C0000205B
:1012D0006C180001B41800017C18000134190001D9
:1012E000740C002060040020281900017404002000
:1012F00004E100E033E400E0082004E02DE9C0410F
:1013000030B4DFF8A0C23CEA111418BF3CEA131451
:1013100000F0EC801CEA111481EA030544EAD5745C
:1013200018BF1CEA131500F0C780A4EB050404F1F4
:101330007F7404F500344FF0004545EAC12145EAC9
:10134000C32341EA505143EA52534FEAC0204FEAC7
:10135000C222994208BF904200F09C804FEA136578
:101360000FF24016765D4FEA134506FB05F7C7F10D
:10137000807706FB07F74FEAD737A7FB036876426B
:10138000A7FB06CEC8F5803838BFA8F1010807FBD7
:1013900008E6A6FB028C4FF0000EE6FB03CEDCF164
:1013A000000CCEF1004E38BFAEF1010EA6FB0C587A
:1013B0004FF00007E6FB0E87A1FB08C6A0FB07CE97
:1013C00016EB0E064FF0000545F10005E1FB076541
:1013D00015F1E04E7EBFA4F580345FEA46066D410C
:1013E00016F1800745F100054FEA172747EA056720
:1013F0004FEA15254FEA0666A6F1DE46B6F1805F94
:101400001FD9384605EBC47124F0010C01EB0C1117
:10141000BCF1FE6F02D8F0BCBDE8008124425CBF85
:1014200001F5801E9EEAC47F02D4F0BCBDE80081B5
:10143000244238D4A1F1C041F0BCBDE8004100F025
:10144000EDB94FEAD02040EA41504FEAD1214FEAAE
:10145000D22242EA43524FEAD323A7FB028607FB7C
:10146000036605FB02661EEA0E0F58BFA6EB005688
:10147000B6EB00564FEA520E4EEAC37E18EB0E0E44
:1014800056EB530EBDD518EB02085E417F1C55F19B
:101490000005B6E74FF480154FF000074FF0000647
:1014A0004FF00008ADE701F1C04101F000414FF0FD
:1014B0000000F0BCBDE800810CEA131511EA0C1F16
:1014C00000D00CE013EA0C1F00F025804FF0000064
:1014D00081EA030101F00041F0BCBDE80081F0BCED
:1014E000BDE8004181EA030100F098B9F0BCBDE815
:1014F000004170B500F044F9097EFC3E00F007B8E9
:101500004FF0000081EA030101F00041704781EAD9
:10151000030100F083B9F0BCBDE8004122494FF05F
:1015200000007047FFFDFBF9F7F5F4F2F0EEEDEB8C
:10153000E9E8E6E4E3E1E0DEDDDBDAD8D7D5D4D3D1
:10154000D1D0CFCDCCCBCAC8C7C6C5C4C2C1C0BF1D
:10155000BEBDBCBBBAB9B8B7B6B5B4B3B2B1B0AF23
:10156000AEADACABAAA9A8A8A7A6A5A4A3A3A2A107
:10157000A09F9F9E9D9C9C9B9A99999897979695C2
:1015800095949393929191908F8F8E8E8D8C8C8B5E
:101590008B8A8989888887878685858484838382E6
:1015A000828181800000FF070000F87F4FEA11531D
:1015B000A3F58063D3F11E03A8BFD3F1200C08DB91
:1015C0004FF0004242EAC12252EA505232FA03F08E
:1015D000704709420BD4102BC4BF0020704703F59D
:1015E000787CBCF1FF3F05D04FF0FF3070474FF0E3
:1015F0000000704770B500F0C3F800BF4992248026
:1016000000207047F0E7B0FA80F310FA03F10AD037
:10161000C3F11D0303F580634FEA03524FEA4150C3
:1016200002EBD12170474FF00000704770B5DFF832
:1016300048C11CEA111E1EBF1CEA13159EEA0C0FBE
:1016400095EA0C0F00F06F8081EA03044EEAD47E25
:10165000AE4421EA4C1123EA4C1341F4801143F4C7
:101660008013AEF17F7EA1FB024CA0FB036536190F
:1016700055EB0C05A1FB034C4CF10003A0FB021C35
:1016800016EB0C06654153F10003094218BF46F002
:10169000010613F4007F0BD14FEA03314FEA053006
:1016A00041EA155140EA165034036FF003020AE094
:1016B0004FEAC3214FEAC52041EA555140EA56504E
:1016C000F4026FF0020202EB2E4201EB025585EAB2
:1016D000CE710AD05FEA440C18BF24F0004450F1E8
:1016E000000041F1000120EAD47040F2FE7C624526
:1016F00000D270BDA84214BF4FF080444FF0404468
:10170000002E08BF0024BEF1806FA8BFA1F1C04128
:10171000BDE8704080F2828001F1C04101F00041DB
:101720004FF0000070470CEA13159EEA0C0F18BF2B
:1017300095EA0C0F06D081EA030E4FF000000EF080
:10174000004170BD00F01CF88900013E00F007B8B0
:1017500000F009B84FEA430C5FEA5C5C08D081EA0C
:10176000030100F05BB84FEA410C5FEA5C5CF6D124
:1017700002494FF0000070470000FF070000F87FAB
:101780000EF1020E2EF0030E5EF8046B364205D405
:10179000012A43EB030515F5001F12D8012841EB80
:1017A000010C1CF5001F0CD80ED14FEAD17C0CEBBC
:1017B0004C0C0CF1020C15F5001F08BF4CEBD37C50
:1017C00004E04FF0080C01E04FEAD37C0CEB4C0531
:1017D00026FA05F606F00706B6F1040C06D20EEB63
:1017E000860CBDE870404CF0010C6047DFE80CF05F
:1017F000090B02024FF00041A1F500214FF000005B
:1018000070BD19461046012851EB010418BFD4F5EC
:10181000001484BF002001F0004170BD0808A0F54D
:1018200000114FEA31017047F1EE100A4FF6FF71D7
:10183000C0F2C03120EA010040F04070E1EE100A31
:101840007047010000000000000008400C0000404C
:1018500000200000001008400C0000400040000084
:10186000002008400C00004000800000C818000163
:1018700010190001F8180001E0180001D418000147
:101880001C19000104190001EC18000100000010EF
:101890000000002000000040000000080000008060
:1018A000009008400C00004000004000D8000040BC
:1018B0005C00000000A008400C0000400000800018
:1018C000DC0000406400000048180001180000001F
:1018D000060000005418000114000000060000007B
:1018E0004818000111000000060000005418000113
:1018F000150000000600000048180001120000005A
:101900000600000054180001160000000600000048
:1019100048180001130000000600000054180001E0
:1019200017000000060000000100004D000000004C
:1019300000000000010000C50000000000000000E1
:1019400000127A0000093D0000127A0000093D00F3
:1019500000127A0000093D00409C00000080000059
:10196000001C00010000002000040000CC03000166
:10197000002000010004002008380000E8030001F6
:101980000000000000000000000000000000000057
:101990000000000000000000000000000000000047
:1019A0000000000000000000000000000000000037
:1019B0000000000000000000000000000000000027
:101C000000127A0000127A00401F00000F0000004E
:101C100020000000000000000000000000000000A4
:101C200000000000000000000000000000000000B4
:101C300000000000000000000000000000000000A4
:101C40000000000000000000000000000000000094
:101C50000000000000000000000000000000000084
:040000050100039162
:00000001FF
