:020000040000FA
:10000000F8200020D1010000D9010000DB01000030
:1000100000000000000000000000000000000000E0
:10002000000000000000000000000000DD010000F2
:100030000000000000000000DF010000E1010000FE
:10004000E3010000E5010000E7010000E901000014
:10005000EB010000ED010000EF010000F1010000E4
:10006000F3010000F5010000F7010000F9010000B4
:10007000FB010000FD010000FF0100000102000083
:100080000302000005020000F52600001127000011
:100090000B0200000D0200000F0200001102000020
:1000A00013020000150200001702000019020000F0
:1000B0001B0200001D0200001F02000021020000C0
:1000C00000F002F800F058F80CA030C808382418E6
:1000D0002D18A246671EAB4654465D46AC4201D180
:1000E00000F04AF87E460F3E0FCCB646012633425A
:1000F00000D0FB1AA246AB4633431847802A0000C3
:10010000A02A0000103A02D378C878C1FAD8520762
:1001100001D330C830C101D504680C6070470000BD
:100120000023002400250026103A01D378C1FBD813
:10013000520700D330C100D50B60704710B5662957
:1001400002D102F015FC10BD642902D100F0EAF8DA
:1001500010BD632902D100F0D0FF10BD002010BDFA
:100160001FB500F0FFFF04000020002102F0EAFBB1
:10017000E0601FBD10B510BD01F05EFB1146FFF73A
:10018000EFFF02F07DFB01F076FB03B4FFF7F2FF17
:1001900003BC01F0BDFB000070B505460C461646D9
:1001A00002E00FCC0FC5103E102EFAD2082E02D35B
:1001B00003CC03C5083E042E07D301CC01C5361F6E
:1001C00003E021782970641C6D1C761EF9D270BD85
:1001D0001748804717480047FEE7FEE7FEE7FEE7BF
:1001E000FEE7FEE7FEE7FEE7FEE7FEE7FEE7FEE7E7
:1001F000FEE7FEE7FEE7FEE7FEE7FEE7FEE7FEE7D7
:10020000FEE7FEE7FEE7FEE7FEE7FEE7FEE7FEE7C6
:10021000FEE7FEE7FEE7FEE7FEE7FEE7FEE7FEE7B6
:10022000FEE7000004480549054A064B70470000F8
:1002300075240000C1000000F8000020F820002014
:10024000F8100020F81000200FB4054910B503AADB
:10025000029800F05FFF10BC08BC04B01847000013
:1002600080000020F8B50E4604460020206220469B
:10027000E1688847002829D0252802D06268A16853
:1002800020E0E16820460027884705001ED0284668
:100290004138192802D80127FF022035324620466E
:1002A00027602946FFF74AFF002808D0012804D01C
:1002B000F61DF608F6000836D9E7361DD7E762685E
:1002C0002846A1689047206A401CCFE7206AF8BD05
:1002D00070B50C460546012A05D02878800600D561
:1002E000EA69002302E0012305E05B1C934202D28D
:1002F000E05C0028F9D1A869E618C01AA861286A4C
:10030000C01828622846C046C04604E06A682078C3
:10031000A968641C9047B442F8D32846C046C0463A
:1003200070BD0000F7B5002575291068009914A666
:1003300011D0C046C046002802DA404211A608E0AB
:10034000009909688A0701D50FA602E0490704D57C
:100350000EA6012501E0C046C046009F00242437B8
:1003600004E000F0EBFE30313955641C0028F8D170
:100370002B4632462146009800F052FCFEBD00009C
:10038000000000002D0000002B00000020000000F5
:10039000002203098B422CD3030A8B4211D3002382
:1003A0009C464EE003460B433CD4002243088B425C
:1003B00031D303098B421CD3030A8B4201D39446E9
:1003C0003FE0C3098B4201D3CB01C01A52418309DC
:1003D0008B4201D38B01C01A524143098B4201D396
:1003E0004B01C01A524103098B4201D30B01C01AC1
:1003F0005241C3088B4201D3CB00C01A524183083B
:100400008B4201D38B00C01A524143088B4201D367
:100410004B00C01A5241411A00D2014652411046C7
:1004200070475DE0CA0F00D04942031000D340423C
:10043000534000229C4603098B422DD3030A8B4272
:1004400012D3FC22890112BA030A8B420CD3890110
:1004500092118B4208D3890192118B4204D38901F6
:100460003AD0921100E08909C3098B4201D3CB0134
:10047000C01A524183098B4201D38B01C01A5241E9
:1004800043098B4201D34B01C01A524103098B42ED
:1004900001D30B01C01A5241C3088B4201D3CB00D8
:1004A000C01A524183088B4201D38B00C01A5241BB
:1004B000D9D243088B4201D34B00C01A5241411A92
:1004C00000D20146634652415B10104601D34042C0
:1004D000002B00D54942704763465B1000D3404271
:1004E00001B50020C046C04602BD70477047704746
:1004F000F0B5F94D0C091E092C402E402F468BB04B
:10050000A7437DD0B543FCD0002E7AD0002CFCD080
:100510000D465D40ED0F2543AC1BFF25AD0464196E
:100520000894C502440DC9022143500DDC02044366
:100530000120C00701430443D2020191200C110C99
:1005400000958C46010423468B430A9161460904B9
:10055000E24D8A430991010A7D444919803909789D
:1005600005464D4301266D18F605751B6943C90CF8
:10057000640B891C4C436418B5012C1B250C2E04FC
:10058000B4434C434D43210C691889090591009DE2
:10059000E90701D00121C90704912C460199670898
:1005A000CD072F434C08059DE10B4D432D0C2946EB
:1005B0006646754302950D4645432E46029D7D1BBA
:1005C000B44100950D465D4301942C0C2F040D465B
:1005D0005543AE462D0C3D43029503947546049C4D
:1005E0002D04641B049406D2029C039D641C002607
:1005F00075410395029401AC70CC009F7D1B01E016
:100600003EE162E1B4410904009507910194059926
:10061000A4086143090C0C464443650BE7040C46EF
:1006200066467443A646640B3C43039502947446A5
:10063000049DE4042C1B049406D2029C039D641CBC
:10064000002675410395029401AC70CC009F7D1B80
:10065000B44101940C465C430095650FE7000C46DD
:100660005443A646640F3C43039502947446049D8C
:10067000E4002C1B049406D2029C039D641C0026FB
:1006800075410395029401AC70CC009F7D1BB44171
:10069000AE09AF06049DC900AD092F43049DA40611
:1006A000AD060495079D344369180791059DE10B3C
:1006B0004D432D0C29466646754302950D4645432C
:1006C0002E46029D7D1BB44100950D465D4301946D
:1006D0002C0C2F040D465543AE462D0C3D43029580
:1006E00003947546049C2D04641B049406D2029C5A
:1006F000039D641C002675410395029401AC70CCE7
:10070000009F7D1BB44101948C050694079C890AC7
:10071000611800950791019C0599A4086143090C93
:100720000D464543680BEF040D46644665436C0B6C
:100730003C43049FED047D1BAC4602D20025641CA3
:100740006841009E019D371B85410846584301952D
:100750000C46460FC5005443600F28436546E4002D
:100760002C1B02D20025401C6E41019D3F1AB54151
:100770002846BD09800628438446A009BF064E02CC
:100780000699A40676180743079D002068410A9938
:10079000079019430020099B00906046FF191343FE
:1007A0004041E20F64003A43A4460446D71A8C4104
:1007B000A04203D90120009020463A46C70F941862
:1007C00040416246D20F2243644664000494009C78
:1007D000BE466400D71AA446044602978C41774669
:1007E000002F01D1A04204D96046401C8446029AE1
:1007F0002046C40FA64694184041049A0546D20FDD
:10080000224364466400D31A8D417146002901D108
:10081000A84202D928461A46641C10430122002827
:1008200000D0164361020020079B891904465C41F1
:100830000223002C02DB491813466441089DCE0AAE
:100840002D145D194B056705E10A2C050D19089952
:100850003E43C9076940002B08D0934006D30022CD
:10086000761C5141002B01D1760876001C4A002DE0
:1008700043DB154241D0AA433FD030460BB0F0BD18
:1008800006180D464D41174C7642AC411AD39518C7
:100890001C465C41134A6D42A24113D3012252050A
:1008A0004C00D4420AD15C00D4420BD04B4002D55C
:1008B00092021143E2E749004908DFE75940C90FB6
:1008C000C90718E000200849D8E7054801420DD1C2
:1008D0000342F7D0F2E700000000FF070C250000FC
:1008E0000000F07F0000E0FF0000F87F1148594051
:1008F0000143C01241400020C0E70123089A9B0633
:100900009A4205DC032252078918C90FC907B5E7C7
:10091000052252078918074A1143D2125140ADE708
:1009200070B515461C4602460B4628462146FFF781
:10093000DFFD70BDFFFFFF7F0346CA02400D10B50B
:1009400010430A1504D00124E4072043002A05DBE4
:100950000A4CA21A04D4D040FF2A00DD002010BDAA
:100960004A00002B01D0012000E0002010180122D5
:100970005205D042F2D8C817C04310BD1E04000073
:100980001F22030C02D10F22000402D0030E03D059
:1009900004E00020014670470002083A030F01D12D
:1009A0000001121F830F01D18000921E002801DB7D
:1009B0004000521E120551184205C012411810463F
:1009C0007047C10FC90700D040420122920711436E
:1009D000D6E701218907D3E7F0B58B4C0F092546EF
:1009E00089B0BD437BD01D092646AE43FAD00E46E2
:1009F0005E402740F60F3E43254071D0240121423E
:100A0000FBD0FF24AD19A4042D1B039501252D0552
:100A1000DB02DB0AC9022B43C90A29431E01090173
:100A2000040F130F050121431701880B8203914323
:100A30002D098C46A90B1E438A039543B30B9A03D9
:100A400096433F09BA0B9403A74302962E467E4372
:100A50000497B6464E19D7190C460196544305978C
:100A60007E43371B7646BF1B3601B646BE0B361992
:100A700000967646BC043719009C01D3641C009490
:100A80006400002F01D001263443029E049F754369
:100A900066467E430496760034196E00341900943D
:100AA000029C019E1C196643751BAE460694654662
:100AB0004519059C05956C43594375460891691A7B
:100AC0000191049E01465143A41B0491611A009CAC
:100AD0000791E10605D061090122114302E072E0AD
:100AE0006EE06109089D00272C0A2D066918049DF7
:100AF0007C412A0A2D066918019D6241AC0DAD02A8
:100B00006D185441079A910D920255196141029A4C
:100B1000644658435443069B059A5A43121A131BC2
:100B20009A0E9B015B187A41010B0005C3185141D5
:100B3000220A200644195A419A4200D2491C012037
:100B40004002814203D315230226F64302E0142318
:100B50000326F6432020C51AA9401746AF40DA40C5
:100B60000A4320460399D8400914731819055118EF
:100B7000039A3843D2075140AC4009D00122944037
:100B800006D30022401C5141002C01D140084000F6
:100B90001E4A934212D3012203989206904207DB29
:100BA0000520400709181A480143C012414004E0DB
:100BB000032040070818C10FC907002009B0F0BD85
:100BC0000020F107FAE705180C464C4111486D4228
:100BD000A04115D394181A465A410E4864429041D8
:100BE0000ED301204A004005824209D35A008242B6
:100BF00006D35940C90F084AC90700201143DDE751
:100C000000200649DAE700000000FF07FE070000A9
:100C1000FFFFFF7F0000E0FF0000F07F0000F87F93
:100C2000FFB504460D4681B0243000902168880647
:100C300004D51022E0699143216000E00120A84220
:100C400001DD471B00E000270498A1697A191018FC
:100C5000081AA0612078C00602D42046C046C046CB
:100C6000002608E003986268A168805D9047206ACA
:100C7000401C761C206204988642F3DB2078C00674
:100C80000AD52046C046C04606E06268A16830200A
:100C90009047206A401C206238467F1E0028F4DC02
:100CA00007E000986268A168405D9047206A401C98
:100CB000206228466D1E0028F3DC2046C046C04650
:100CC0002078000602D5022005B0F0BD0120FBE728
:100CD0007047FFB50C461E468FB003CA08900991B5
:100CE0004F007D0D00D16D1E002108460020C0463A
:100CF0000321099A89050840002A03DA8200801836
:100D000040080840800D01280A9002DD0020C04301
:100D10000A90089807430DD0EF48F0492818484337
:100D20000714189800281DD07542291E1DDD0A9849
:100D300042421BE01898012802D00020302104E034
:100D40000020F24305E02154401CB042FBDB30465A
:100D50000022189B002121540F998B600A60486083
:100D600013B0F0BDBD1B6D1CDFE70A9A002900DA45
:100D700069420BA800F094FA0BAB07CB03AB07C397
:100D80000899099800F0F0FA6B4607C30146D44869
:100D90000918002D00910ADDD14903980A9A4942A9
:100DA000401803A90390684600F011FD07E003997D
:100DB0000A9A081803A90390684600F0D0FC6B4615
:100DC00007C30004000C03D00020C043410800E02A
:100DD0001046189A002A03D00022009215461EE001
:100DE000751E05D400F0C2F9303262556D1EF9D57A
:100DF00001220843079602D000227F1C04E02078DD
:100E0000302801D100227F1E002A069789D01EE0DB
:100E1000112D07DA00F0AAF9303262556D1C024636
:100E20000A43F5D1084303D00098002819D00EE0FA
:100E30000021681E05E0235C625C63542254401E5E
:100E4000491C8142F7DBA81B401E07950690079AB4
:100E500018990020A0540F98079B069A81600CC037
:100E60007EE71126002018905BE7D21DF0B50D46F5
:100E70000446D10893B0C90003C90C900D9101F04C
:100E800093FC02460D98C00F01D02D2007E020688A
:100E9000810701D52B2002E04007C00F4001032A43
:100EA0000F9001D0072A05DB03462946204600F0B3
:100EB000B3F90EE12078800601D5E76900E0062746
:100EC0002846652D04D0662814D0672D69D12DE001
:100ED0000020112F009001DB112300E07B1C0CAAE5
:100EE00003A910A8FFF7F5FE1199002610987D1CA4
:100EF0000E9142E001203B460CAAC0070B90012056
:100F0000009003A910A8FFF7E4FE119D1298109914
:100F1000002600280E9501D1781C0D18781B02D4EC
:100F200046427D1C761EE81B00903AE0012F00DA55
:100F300001270020112F009001DD112300E03B4626
:100F40000CAA03A910A8FFF7C4FE11993D461098FA
:100F500000260E91217809070BD40E99A94200DAD8
:100F60000D4603A9012D04DD4A19203AD27F302A0B
:100F700006D0B84201DA011D04DA012100910FE028
:100F80006D1EEFE7002802DC86192D1A03E0411CD4
:100F9000A94200DD0D46801B401C00900120C007C7
:100FA0000B902078000705D40098A84202DB0020AF
:100FB000C043009069460020C8720B98012102AF1F
:100FC0000337C907884225D0022010902B201190AA
:100FD0000B9800280BDA40420B902D20119006E070
:100FE0000B9800F0ABF830317F1E0B9039701099E0
:100FF000481E00291090F3DC0B980028F0D11198BE
:101000007F1E38702088000501D5452000E065204E
:101010007F1E387001A8C01BC01D0B900F980028C0
:1010200000D0012041190098C01709180B98081822
:10103000A169081A401EA0612078C00602D420468B
:10104000C046C0460F98002805D06268A168904746
:10105000206A401C20622078C00625D52046C04664
:10106000C04621E0002E07DB0E98B04204DD03A845
:101070006268805DA16802E06268A16830209047E4
:10108000206A761C401C20620098401E00280090B8
:101090000AD100F067F8C06862680168405CA16826
:1010A0009047206A401C206228466D1E0028D9DC2B
:1010B00007E062683878A1687F1C9047206A401C6E
:1010C00020620B99481E00290B90F2DC2046C04696
:1010D000C046032044E6000001FCFFFF104D000065
:1010E000E1DFFFFF10B54369002B02D0C046C046C8
:1010F00001E0FFF7EDF8012010BD12780146243120
:101100000A7000224A700122ECE711680022D243E3
:10111000E8E70000084B70B50D467B4400F069F825
:101120000446284601F092FB002802D00020C0436C
:1011300070BD204670BD00003717000001468008D2
:10114000081A02091018020A1018020C1018C00818
:10115000820012185200891A01E0401C0A390A293B
:10116000FBD2704700487047B40000200B4670B5B2
:10117000024689078008084319469D08141AA941A8
:1011800025090807054308092C194841250A0106C5
:101190000D43010A2C194141200C0D0428430D0C6C
:1011A00000194D41002140194D41C008690708430D
:1011B000E908840F8D002543840024184D4124192B
:1011C0006D41121BAB4107E00925ED432C1152196B
:1011D00063410024401C61411C460A250026551B22
:1011E000B441F1D270BD000001694A1C0261087867
:1011F000704700B58FB00291002105910549019318
:1012000079440391114604906846FFF72BF80FB01C
:1012100000BD0000E5FFFFFFF8B51F4604460123AF
:101220000068DB02032601461840072A05DB002878
:1012300001D017A506E017A504E0002801D016A5E7
:1012400000E016A5102081432160A069C01E002F78
:10125000A06101D0401EA0612046C046C046002FBC
:1012600009D038466268A1689047206A401C206215
:10127000C01C206206E0206AFAE762682878A1684C
:101280006D1C9047761EF8D22046C046C046F8BD79
:101290004E414E006E616E00494E4600696E66001A
:1012A000F7B516468AB02F4878446C4603467C331F
:1012B000C06F5A689B680DC42A487844763003ACE6
:1012C0000DC80DC43720C001081837211B30FFF7A7
:1012D00069F805460C46803D1B3C02D5644201205E
:1012E00000E00020002709900FE0E0070BD00C2061
:1012F0001C497843794432464C394118684600F01D
:101300002EFA6B4607C364107F1C002CEDD1154FDD
:101310007F442C3F15E0E80711D02001C0190EC80A
:101320000691089307920068F04201D1981908903D
:10133000324606A903A800F012FA03AB07C36D10EA
:10134000641C002DE7D1324669460998002803A89D
:1013500002D000F03CFA01E000F001FA0A9B07C35A
:101360000DB0F0BD3C180000034640000A4610B521
:10137000400D0BD00121C9070F24A40200191C0342
:1013800064082143540D2143D20207E000210120CB
:10139000F2E7D40F490021435200401E0029F8DA39
:1013A000DB0FDB07184310BDFFB50D46144685B0B3
:1013B0004868516801F0E0F900910190A868A168BF
:1013C00001F0DAF902910390A868616801F0D4F99C
:1013D000029A12188242029201D2012000E00020FB
:1013E000019A0B18D2180028019202D08A4202D921
:1013F00003E08A4201D2012000E000200099081891
:1014000000906868A16801F0B7F9029A1218824248
:10141000029201D2012000E00020019A0B18D2189C
:101420000028019202D08A4202D903E08A4201D206
:10143000012000E000200099081800902868216829
:1014400040004900400849084018F549471814E091
:1014500001994000C90F084300900198029940008B
:10146000C90F08430190029803994000C90F08432F
:101470000290039840007F1E039000980028E7DA4E
:101480000898002801D0E74E00E00026B74228DA8D
:10149000F71BF806C00E15D0029B2021091A039AEB
:1014A0008B401A430392029A019BC2408B401A431D
:1014B0000292019A009BC2408B4000991A4301920C
:1014C000C14000917A110BD06B460320811A01D5DF
:1014D000002101E0890059588700401ED951F5D5F7
:1014E000374603980299002800D00120014308984C
:1014F0000291002808460CD0002800D00120019954
:10150000019A490508430121D20AC902D202019277
:1015100000E001210E9B0122D207012B02D0002BFB
:1015200003D013E0002807D116E0904204D890427F
:101530000CD1019B0B4209D0019B5918019105D197
:101540000099491C009101D17F1C0092002803D012
:10155000102108460020C04628682168019B009A97
:101560004840C10F0598C90739430EC009B0F0BD06
:10157000FFB587B0099A089808995368926840683F
:10158000896896460022039317469446089A126883
:101590005300099A5B081268520052089A1AA24B2B
:1015A000D4180A9A002A01D0352200E0402206927F
:1015B0000022012315460492DB07059324E0002D49
:1015C00005D175460346039E4D1BB34109D37546AD
:1015D0006646039B491B049D9841059B7519AC46C3
:1015E0005F4163463B4308D0059B049EDD077608B8
:1015F0002E435B080496059301E0521E641EC50F3E
:10160000ED0749184041521C069B9A42D7DB002D3A
:1016100004D17546039A6B1A824101D203200CE073
:10162000039A0B466B404240134303D0014303D05F
:10163000012002E0022000E000206146019100212B
:10164000009702910A99002905D0614640020143A2
:10165000744B019102E08007002302909C423ADA29
:101660001A1BD006C00E15D0029D2021019C091A1C
:10167000C5408C402543029C8C4000D0012425436A
:10168000019C02953D46C4408D4039462C43C140E3
:101690000194009154111DD06D46022100220229AF
:1016A0000CD10320001B07E0002804DB8600AE59A4
:1016B000002E00D00122401C0328F5DB081B02D5B8
:1016C00088002A5004E08000285810438A00A8505F
:1016D000491EE3D51C460A98002802980CD0002821
:1016E00000D001200199019A490508430121D20A3D
:1016F000C902D202019200E00121109B0122D2070F
:10170000012B02D0002B03D013E0002807D116E0F4
:10171000904204D890420CD1019B0B4209D0019B0E
:101720005918019105D10099491C009101D1641CFF
:101730000092002803D0102108460020C0460898D7
:101740000999019A0068096848400099C30F0798F1
:10175000DB0723430360826041600BB0F0BD1FB51F
:10176000002300920A46014601A8FFF71DFE01ABC7
:1017700007CB04B010BDF0B585B0012300920A4636
:10178000014601A8FFF710FE01990F22029892026C
:10179000CF0F4900039E49088C1AFF07002100283B
:1017A00000DB0C46450021486D08844206D30D46F7
:1017B0000E460446102108460020C0462005E90ACE
:1017C000084369053843F20A05B01143F0BD1FB55F
:1017D000002300920A46014601A8FFF7C9FE01ABAB
:1017E00007CBC6E71FB5012300920A46014601A8B0
:1017F000FFF7BEFE01AB0F2407CBA402C30F4000CE
:10180000DB074008001B002900DB00204900000521
:101810004908CC0A204349051843D20A1143A8E7D6
:1018200002C0FFFF013C0000FF3F0000FF07000077
:1018300000487047940000207546FFF7F9FFAE4658
:10184000050069465346C008C000854618B020B55B
:10185000FEF7E8FC60BC00274908B6460026C0C574
:10186000C0C5C0C5C0C5C0C5C0C5C0C5C0C5403D58
:1018700049008D46704710B50446C046C046204614
:10188000FEF783FC10BD0000024670B50A439207C4
:101890002AD11E4DEE0104C808C9541B944334409C
:1018A00017D0D0B2D9B2401A2106014310D190B25C
:1018B00099B2401A210401430AD110021902000A08
:1018C000090A401A2102014302D1100E190E401AD2
:1018D00070BD9A42DFD010BA19BA884201D90120EE
:1018E00070BD0020C04370BD02780B78401C491CBD
:1018F000002A09D09A4207D102780B78401C491C73
:10190000002A01D09A42EFD0D01A70BD0101010126
:1019100001491820ABBEFEE726000200704710B553
:10192000002801D1012400E000240C7000280CD014
:1019300001280BD0022802D003280AD102E001249A
:10194000147006E001241C7003E000BF0024147032
:101950001C7000BF10BD000070B50446224D20026F
:101960002043210408432106084306461F494868CE
:101970003246294600F07CF91C4948601B49103169
:1019800048683246294600F073F91849103148601A
:101990001649203148683246294600F069F9134952
:1019A000203148602D142002004306460F49886804
:1019B0003246294600F05CF90C4988600B49103129
:1019C00088683246294600F053F90849103188608A
:1019D0000649203188683246294600F049F9034912
:1019E0002031886070BD0000070707070011004024
:1019F0000120800740680107090F0A2901D8C8B2F1
:101A000070470B20FCE710B504462078FFF7A4FFD1
:101A100010BD000010B50446002C01D000F0C8FC39
:101A20000148006810BD000084000020FFB581B0AF
:101A30000E4615461C460A9FFFF7DAFFA84202D160
:101A4000022005B0F0BD21783046626800F0D3F87E
:101A5000002801D10120F4E76078002801D0781C2B
:101A6000C7B2224608323946E368019800F02CF9E3
:101A7000002801D10320E4E7218A224612322846B9
:101A80000B9B00F003F80020DBE70000F8B50446EC
:101A90000D4617461E46002E02D03846FFF7B3FF0C
:101AA00000BF2007000F01218907486000BF00BF69
:101AB00088682A46064900F0DBF80121890788601A
:101AC00000BF002E02D13846FFF79DFFF8BD000091
:101AD000FFFF000008B500900099002905D000BF65
:101AE0000099491E00910029FAD108BD4168096892
:101AF00082681143426811600149026811607047B1
:101B0000A1AA5585F3B585B00546254801900D2D50
:101B100004D1069800F052F801903DE0052D04D85C
:101B2000A80020490858019036E0072D34D80198C4
:101B3000092802D00A2806D102E01B48C46806E042
:101B40001948046A03E018484038846B00BF00BF9E
:101B5000600F0290029806281ED2029800F026F824
:101B600006462007000F0490102020400009039033
:101B70007F2000022040070A002F00D102273146B3
:101B8000794308460499491CFEF702FC009003992A
:101B9000491CFEF7FDFB0190019807B0F0BD000065
:101BA00000127A00182A00008000004001468800D8
:101BB000014A105870470000AC29000010B50446D7
:101BC000002C01D000F0F4FB0148006810BD0000BB
:101BD0008800002073B50C460099080F2146FFF7D6
:101BE00091FF0546009886B2711C2846FEF7D0FB8F
:101BF000054628467CBD70B504460D461646284667
:101C0000002804D001280DD002281CD115E021683D
:101C1000032212079143216021680122D206114359
:101C2000216010E021680122520791432160216860
:101C30000322D2061143216005E021680722D20663
:101C40001143216000BF00BF00BF3146204600F0B5
:101C500001F870BD70B505460C46034805600349A0
:101C6000204600F063FD70BD8C0000204927000075
:101C70000346184688431043704703461846884376
:101C80001043704770B50B4601680E4C2140147824
:101C900024027F252D022C4055782D072D0F2C4333
:101CA00095782D01102635402C435D076D0F6D078B
:101CB0002C43F5052C4321436C000C430460016068
:101CC00070BD0000E080FF1FF8B505460E461746C0
:101CD0001C463A4631462846FFF7D4FF214628469F
:101CE00000F002F8F8BD000070B505460C46034848
:101CF00005600349204600F019FD70BD90000020EA
:101D0000612700000021016041608160C1600161C4
:101D10004161816170470021016041608160C16063
:101D2000016141618161C161016241628162C1629F
:101D3000704701231370507091707047F0B595B0E3
:101D400007460C4615461E4609A8FFF7E4FF02A801
:101D5000FFF7D8FF02A800903246294620461A9B7A
:101D600000F007F802AA09A9384600F079F815B082
:101D7000F0BDFFB583B007460C9804461C340C9D9B
:101D80006B4601AA02A90498FFF7C9FD0020206054
:101D90006846007AB84060600120B840A06168469B
:101DA0000079B840E06168460078B8402062069843
:101DB0004078B84060620120B84028600020A060F0
:101DC000E060206160616860A860E8602861780771
:101DD000C60EF808002806D001280BD0022810D023
:101DE00003281CD114E00598B040A0600F20B0403B
:101DF000686014E00598B040E0600F20B040A86033
:101E00000DE00598B04020610F20B040E86006E08A
:101E10000598B04060610F20B040286100BF00BF4E
:101E20000020A062E0626861A8613807C60E380928
:101E3000002802D0012810D107E006988078B04031
:101E4000A0620320B040686107E006988078B04047
:101E5000E0620320B040A86100BF00BF07B0F0BD42
:101E60001368C3631368436113684365536903666A
:101E7000936943661368C360536883629368C3625F
:101E8000D3680363136943638B688361CB68C36161
:101E90000B6903624B694362136843641368C3644C
:101EA000CB6903640B6A83644B6A03658B6A836541
:101EB000CB6AC3650B6883604B6803618B6983637E
:101EC0007047F0B585B004460D461646228892014B
:101ED0006388D118B000FEF75BFA07462846FEF784
:101EE00078FD03910290791B642251430846FEF766
:101EF00070FD01910090039B029AFEF7F9FA05B07C
:101F0000F0BDF8B504460D461646A9083046FEF762
:101F10003FFA07463804800D2080B806800E6080A6
:101F2000F8BD01468869020901209043704700000E
:101F30004A6842628A688262CA68C2620A68026249
:101F40004A6942638A698263CA698264024A426456
:101F50000A69026370470000FF070000002101606A
:101F600041608160C160016141618161C16170470F
:101F7000026B036B5B085B00036381630263704762
:101F800030B5026BC36A00BF846908252C40002C61
:101F9000FAD1046B6408640004630C8844624C88C2
:101FA0008462C362026330BD0021016341628162C9
:101FB000C162016241638163816401494164704788
:101FC000FF070000F8B5044601211048006800F042
:101FD0009BF907463A4621466846FFF792FF3A4684
:101FE00021466846FFF76DFF05460E46214608A0CC
:101FF000FEF72AF92A4633460BA0FEF725F90349D6
:10200000096808686946FFF7BBFFF8BD5400002067
:102010004261756452617465204368616E676564EE
:102020003A2025640A000000426175644572726FAF
:10203000723A2025660A000010B50248006800F0D8
:102040004BF910BD5400002010B500214B20C001F9
:1020500000F002F810BD0000F3B58FB00C460D2063
:102060002A4FB9680F22120703070F4697431F43F1
:1020700026498F6000BF01212548006800F044F91F
:102080000E900DA80E9A0F99FFF73BFF002C06D17A
:102090000DAA20491E48006800F056F913E01822E6
:1020A0001D4905A8FEF778F81A4B0FCB01AD0FC5F7
:1020B0000020069005A802900DAA01A91448006806
:1020C00000F042F900BF15480B90002C02D01448D4
:1020D0000C9001E000200C9002210BA800F059F8B0
:1020E0000DA80E9A0F99FFF7ECFE05460E460DA0BF
:1020F000FEF7AAF812A00F99FEF7A6F82A46334673
:1021000013A0FEF7A1F811B0F0BD0000800100405F
:102110005400002070000020580000209429000086
:10212000A029000057656C6C636F6D6520746F208B
:10213000554152542044656275674F7574210A00F9
:1021400042617564526174653A2025640A0000009A
:10215000426175644572726F723A2025660A00000A
:1021600000B502461046FFF71FFF00BD70B588B0EE
:1021700006460C4615466846FFF7F0FE6A462946B5
:10218000204600F03DF86946304600F02DF808B0D2
:1021900070BD7CB504460D4601AA29460020FFF714
:1021A000C8FD206800280DD021680868FFF79EFC54
:1021B00001A800902268137A516812681068012201
:1021C000FFF7BCFD606800280DD061680868FFF764
:1021D0008DFC01A800906268137A5168126810683B
:1021E0000122FFF7ABFD7CBD10B503460C4621462E
:1021F0001846FFF79DFE10BD0146086880B2704783
:1022000030B50B8853608B789B069B0E9360304BE8
:10221000136103785B018478240123434478A4008C
:102220002C4D2C592343D3604368002B20D0D36816
:10223000092544682C402343D3600224436823408B
:10224000002B03D0E4011369A34313610424436802
:102250002340002B03D0E4011369A343136110242E
:1022600043682340002B03D0802413692343136168
:102270008368002B0DD083681B68936183681B798A
:10228000DB0038242340846864796407640F2343A7
:1022900053610369002B0AD0136904692478A400F0
:1022A00001252C432343136103691B7913604369A0
:1022B000002B05D0136944692468A40223431361E9
:1022C000C368002B02D0C3681B68D36130BD000017
:1022D00001030000542A000000B503461868FFF708
:1022E0003FFF00BFD8680068012109048843D9680E
:1022F000086000BF00BF5868006899688843596843
:10230000086000BF00BD0000FEB504460F460C4843
:10231000844203D1C0680068019003E00948C068A6
:1023200000680190019839460090FFF753FC06467B
:10233000E0680568ADB23046A84006463046FEBDAE
:102340002C2A0000402A0000F8B504460D46164627
:1023500000BF60680068A16808436168086000BF4A
:102360002F78E1680868012109047A18491EFFF7EF
:1023700084FCE168086000BF696832462068FFF7A6
:10238000F5FE287B00280FD010202056002805DB02
:10239000C206D20E01219140044A116000BF1020F4
:1023A0002056A96800F016FAF8BD000000E100E030
:1023B000F0B587B00120800740680607360F082E69
:1023C00003D2B00026490D583AE00A2E37D8092E1C
:1023D00002D00A2E06D102E02248C46806E0214855
:1023E000046A03E01F484038846B00BF00BF600FE1
:1023F00003900398062820D20398800018490858B3
:1024000006902007000F059010202040000904903E
:102410007F2000022040070A002F00D102270699E2
:10242000794308460599491CFDF7B2FF01900499CC
:10243000491CFDF7ADFF054602E00B4D00E00A4DDB
:1024400001208007806881B20291084805600299E6
:10245000491C2846FDF79CFF0549086007B0F0BD00
:10246000AC2900008000004000127A0088000020A3
:10247000840000201048114908631048403000686B
:102480000121090708430D494031086008460069E9
:10249000090508430949403108610846006A0905F1
:1024A0000843064940310862002004490863044893
:1024B0000449086070470000A1AA5585C01000407B
:1024C00000127A00840000207047000010B502A0BE
:1024D000FDF7BAFE10BD000048656C6C6F21204905
:1024E000276D2046696E6521200A000010B5FFF7B0
:1024F000A3FD10BD70B5002400261F4909680868B7
:10250000FFF70FFD002830D01B4909680868FFF766
:1025100073FEC5B2522D04D0294618A0FDF794FED3
:1025200000E0761C144909680868FFF7FAFC0028E7
:1025300011D0114909680868FFF75EFEC4B2204651
:102540003038C4B2062C04DB214612A0FDF77CFE15
:1025500004E0761C02E016A0FDF776FE022E04D100
:10256000A100184A5058FFF72DFD034A12681021A8
:102570001068416400BF70BD54000020556E646552
:1025800066696E656420436F6D6D616E643A2025E7
:10259000630A0000556E646566696E656420526169
:1025A0007465496E6465783A2025640A000000006D
:1025B00053656E642074776F206368617273210ABB
:1025C000000000003C0000207047000010B5FFF73D
:1025D0003BFD02A0FDF738FE10BD000044656275AA
:1025E00067207072696E742074657374210A00002C
:1025F00010B501214B20C001FFF72EFD15490968D8
:1026000008681021FFF7B4FC124909681020085629
:10261000002805DBC206D20E012191400E4A11604E
:1026200000BF0EA0FDF710FE13A0FDF70DFE19A0D0
:10263000FDF70AFE1BA0FDF707FE1EA0FDF704FE36
:1026400020A0FDF701FE23A0FDF7FEFD25A0FDF76C
:10265000FBFD10BD5400002000E100E04465627500
:1026600067206368616E67652072617465207465B8
:102670007374210A00000000546F206368616E6764
:10268000652062617564526174652073656E643A99
:102690000A000000202052303A202D2039363030F8
:1026A0000A000000202052313A202D2031393230EA
:1026B000300A0000202052323A202D2033383430A6
:1026C000300A0000202052333A202D203537363092
:1026D000300A0000202052343A202D20313135328A
:1026E00030300A00202052353A202D203233303449
:1026F00030300A0010B5044909688900034A51586E
:102700000869804710BD000008000020000000207C
:1027100010B5044909688900034A5158486980473F
:1027200010BD0000080000200000002070B5054624
:102730000C4605E0A047002801D0012070BD6D1EA9
:10274000002DF7D1A047F9E7044908680169012283
:1027500012051140090D0846704700008C0000204A
:10276000044908680169012212051140090D084653
:102770007047000090000020F8B5040C8BB226468C
:1027800082B25E43104658430D0C370C36040021CC
:102790008019164679416E43370C36048019264657
:1027A00079416E438919F8BD4900CA0202431000FD
:1027B00000D004204A0D01D001221043044A490DE3
:1027C000914201D102210843012800D10520704720
:1027D000FF07000010B5002819DB1A4A03231B026B
:1027E000D21883089B00D2588307DC0EFF23A34036
:1027F0009A438B071B0E8407E40EA3401A43114B28
:10280000032424021B198408A4001A5118E00E4A5C
:1028100003071B0F083B9B089B00D2588307DC0E65
:10282000FF23A3409A438B071B0E8407E40EA340AB
:102830001A43054B0407240F083CA408A4001A51AE
:1028400010BD000000E100E01CED00E001460020AA
:102850007047000010B50B4600BF084A12681168A7
:102860008A6954090122A243002AF6D0034C246845
:10287000C2B221680A6000BF10BD000054000020F1
:102880008CB02748FFF726F91422264905A8FDF742
:1028900083FC05AC012502202349019500902248C4
:1028A000283023460822FFF7C1F80120FFF7B2F8CD
:1028B0000A900D201D4CA1680F22120703070C4639
:1028C00094431C4319498C6000BF19490968890069
:1028D000184A51580868804720E00A98FEF779F8AE
:1028E00004460022144BFEF777F806460022134BED
:1028F000FDF7FEFD0022124B01910090FDF7F8FD5F
:1029000003910290FEF718F80490FFF7E3F80849E6
:1029100009688900074A5158C8688047DDE7000008
:10292000C0CF6A00802900005000004080010040B4
:10293000080000200000002000409F4000002040D0
:1029400000408F4010B500290AD00878002807D031
:1029500005487844FEF798FF002801D0002010BDFC
:102960000248784410BD00004A0200004202000004
:1029700003B402487844844603BC6047F3E4FFFF95
:1029800000000000000600000A00010000800000B6
:1029900000000600FC2900000F00000005000000F8
:1029A000FC290000100000000500000000127A0061
:1029B00000093D0000127A0000093D0000127A0073
:1029C00000093D00409C000000800000000008401D
:1029D0000C00004000200000001008400C000040E7
:1029E00000400000002008400C0000400080000073
:1029F000003008400C00004000000100004008408A
:102A00000C00004000000200010000000100000076
:102A1000010000000100000000127A0000127A009C
:102A200000127A00409C00000080000000900940E5
:102A3000100000404000000088010040120000002B
:102A400000A0094010000040800000008C01004000
:102A5000130000000000000002000000060000005B
:102A6000820000008600000080807F7E7D7C7B7A73
:102A70007978777676757473727171706F6E6E6D2A
:102A80006C6C6B6A6A6968686766666564646363D0
:102A900062616160605F5F5E5E5D5D5C5C5B5B5A56
:102AA0005A595958585757565655555554545353C3
:102AB00052525251515050504F4F4F4E4E4D4D4D1E
:102AC0004C4C4C4B4B4B4A4A4A4949494848484769
:102AD00047474746464645454544444444434343A7
:102AE000434242424241414102400000000000A0F6
:102AF0000000000005400000000000C800000000C9
:102B00000C4000000000409C000000001940000044
:102B10000020BCBE0000000034400000BFC91B8E76
:102B200000000004B5400000504BCFD06607E2CF54
:102B3000010000006C4100003E8251AADFEEA73484
:102B400001000000D9420000DCB5A0E23A301F9736
:102B5000FFFFFFFFB4450000FD25A0C8E9A3C14F5A
:102B6000FFFFFFFFFF3F00000000008000000000AB
:102B7000FF3F00000000008000000000B82B0000B4
:102B80000000002094000000040100004C2C000014
:102B90009400002064200000200100001C000000C0
:102BA00043000000F8FFFFFF0C0000000E000000D3
:102BB0000F0000002E0000000C0000202400002068
:102BC00001000000CD250000ED240000C924000014
:102BD000CD240000C9250000C9250000F125000012
:102BE000ED240000C9240000CD240000F5240000DD
:102BF000F524000080250000004B00000096000036
:102C000000E1000000C20100008403002C2A000043
:102C100003000100040000000000000000000000AC
:102C2000000000000000000000000000580000202C
:102C300000000000000000000000000000127A0008
:0C2C400000127A000000000000000000FC
:04000005000000C136
:00000001FF
