:020000040000FA
:10000000E8200020D1010000D9010000DB01000040
:1000100000000000000000000000000000000000E0
:10002000000000000000000000000000DD010000F2
:100030000000000000000000DF010000E1010000FE
:10004000E3010000E5010000E7010000E901000014
:10005000EB010000ED010000EF010000F1010000E4
:10006000F3010000F5010000F7010000F9010000B4
:10007000FB010000FD010000FF0100000102000083
:100080000302000005020000CD270000D927000070
:100090000B0200000D0200000F0200001102000020
:1000A00013020000150200001702000019020000F0
:1000B0001B0200001D0200001F02000021020000C0
:1000C00000F002F800F058F80CA030C808382418E6
:1000D0002D18671EA246AB4654465D46AC4201D180
:1000E00000F04AF87E460F3EB6460FCC012633425A
:1000F00000D0FB1A3343A246AB461847042A00003F
:10010000242A0000103A02D378C878C1FAD85207DE
:1001100001D330C830C101D504680C6070470000BD
:100120000023002400250026103A01D378C1FBD813
:10013000520700D330C100D50B60704710B5662957
:1001400002D102F017FC10BD642902D100F0EAF8D8
:1001500010BD632902D101F048F810BD002010BD88
:100160001FB501F077F804000020002102F0ECFB3D
:10017000E0601FBD10B510BD01F03AFC1146FFF75D
:10018000EFFF02F061FB01F052FC03B4FFF7F2FF56
:1001900003BC01F099FC000070B505460C461646FC
:1001A00002E00FCC0FC5103E102EFAD2082E02D35B
:1001B00003CC03C5083E042E07D301CC01C5361F6E
:1001C00003E021782970641C6D1C761EF9D270BD85
:1001D0001748804717480047FEE7FEE7FEE7FEE7BF
:1001E000FEE7FEE7FEE7FEE7FEE7FEE7FEE7FEE7E7
:1001F000FEE7FEE7FEE7FEE7FEE7FEE7FEE7FEE7D7
:10020000FEE7FEE7FEE7FEE7FEE7FEE7FEE7FEE7C6
:10021000FEE7FEE7FEE7FEE7FEE7FEE7FEE7FEE7B6
:10022000FEE7000004480549054A064B70470000F8
:1002300081250000C1000000E8000020E820002027
:10024000E8100020E81000200FB4054910B503AAFB
:10025000029800F0D7FF10BC08BC04B0184700009B
:1002600090000020F8B50E4604460020206220468B
:10027000E1688847002829D0252802D06268A16853
:1002800020E0E16820460027884705001ED0284668
:100290004138192802D80127FF022035324620466E
:1002A00027602946FFF74AFF002808D0012804D01C
:1002B000F61DF608F6000836D9E7361DD7E762685E
:1002C0002846A1689047206A401CCFE7206AF8BD05
:1002D00070B50C460546012A05D02878800600D561
:1002E000EA69002302E0012305E05B1C934202D28D
:1002F000E05C0028F9D1A869E618C01AA861286A4C
:10030000C01828622846C046C04604E06A682078C3
:10031000A968641C9047B442F8D32846C046C0463A
:1003200070BD0000F7B5002575291068009914A666
:1003300011D0C046C046002802DA404211A608E0AB
:10034000009909688A0701D50FA602E0490704D57C
:100350000EA6012501E0C046C046009F00242437B8
:1003600004E000F063FF30313955641C0028F8D1F7
:100370002B4632462146009800F0CAFCFEBD000024
:10038000000000002D0000002B00000020000000F5
:1003900010B5044603E002F04BFA401C08D0207868
:1003A0000549641C0028F6D10A2002F041FA10BD6C
:1003B0000020C04310BD000090000020F8B5042AC2
:1003C0002CD3830712D00B78491C0370401C521E9B
:1003D00083070BD00B78491C0370401C521E830707
:1003E00004D00B78491C0370401C521E8B079B0FD6
:1003F00005D0C91ADF002023DE1B08C90AE0FFF779
:10040000CBFEF8BD1D4608C9FD401C46B4402C4338
:1004100010C0121F042AF5D2F308C91A521EF0D4D4
:100420000B78491C0370401C521EEAD40B78491CFF
:100430000370401C012AE4D409780170F8BD01E082
:1004400004C0091F0429FBD28B0701D50280801C40
:10045000C90700D00270704700290BD0C30702D033
:100460000270401C491E022904D3830702D5028072
:10047000801C891EE3E70022EEE70022DFE700226E
:1004800003098B422CD3030A8B4211D300239C46D1
:100490004EE003460B433CD4002243088B4231D349
:1004A00003098B421CD3030A8B4201D394463FE0DD
:1004B000C3098B4201D3CB01C01A524183098B423D
:1004C00001D38B01C01A524143098B4201D34B0126
:1004D000C01A524103098B4201D30B01C01A524189
:1004E000C3088B4201D3CB00C01A524183088B4210
:1004F00001D38B00C01A524143088B4201D34B00F9
:10050000C01A5241411A00D201465241104670476A
:100510005DE0CA0F00D04942031000D3404253406F
:100520009C46002203098B422DD3030A8B4212D32F
:100530008901FC2212BA030A8B420CD38901921161
:100540008B4208D3890192118B4204D389013AD09E
:10055000921100E08909C3098B4201D3CB01C01A73
:10056000524183098B4201D38B01C01A5241430986
:100570008B4201D34B01C01A524103098B4201D374
:100580000B01C01A5241C3088B4201D3CB00C01AE1
:10059000524183088B4201D38B00C01A5241D9D2F9
:1005A00043088B4201D34B00C01A5241411A00D27A
:1005B00001465241104663465B1001D34042002B76
:1005C00000D54942704763465B1000D3404201B5F5
:1005D0000020C046C04602BD70477047704700000B
:1005E000F0B5F94D0C091E092C402E402F468BB05A
:1005F000A7437DD0B543FCD0002E7AD0002CFCD090
:100600000D465D40ED0F2543AC1BFF25AD0464197D
:100610000894C502440DC9022143500DDC02044375
:100620000120C00701430443D2020191200C110CA8
:1006300000958C46010423468B430A9161460904C8
:10064000E24D8A430991010A7D44491980390978AC
:1006500005464D4301266D18F605751B6943C90C07
:10066000640B891C4C436418B5012C1B250C2E040B
:10067000B4434C434D43210C691889090591009DF1
:10068000E90701D00121C90704912C4601996708A7
:10069000CD072F434C08059DE10B4D432D0C2946FA
:1006A0006646754302950D4645432E46029D7D1BC9
:1006B000B44100950D465D4301942C0C2F040D466A
:1006C0005543AE462D0C3D43029503947546049C5C
:1006D0002D04641B049406D2029C039D641C002616
:1006E00075410395029401AC70CC009F7D1B01E025
:1006F0003EE162E1B4410904009507910194059936
:10070000A4086143090C0C464443650BE7040C46FE
:1007100066467443A646640B3C43039502947446B4
:10072000049DE4042C1B049406D2029C039D641CCB
:10073000002675410395029401AC70CC009F7D1B8F
:10074000B44101940C465C430095650FE7000C46EC
:100750005443A646640F3C43039502947446049D9B
:10076000E4002C1B049406D2029C039D641C00260A
:1007700075410395029401AC70CC009F7D1BB44180
:10078000AE09AF06049DC900AD092F43049DA40620
:10079000AD060495079D344369180791059DE10B4B
:1007A0004D432D0C29466646754302950D4645433B
:1007B0002E46029D7D1BB44100950D465D4301947C
:1007C0002C0C2F040D465543AE462D0C3D4302958F
:1007D00003947546049C2D04641B049406D2029C69
:1007E000039D641C002675410395029401AC70CCF6
:1007F000009F7D1BB44101948C050694079C890AD7
:10080000611800950791019C0599A4086143090CA2
:100810000D464543680BEF040D46644665436C0B7B
:100820003C43049FED047D1BAC4602D20025641CB2
:100830006841009E019D371B85410846584301953C
:100840000C46460FC5005443600F28436546E4003C
:100850002C1B02D20025401C6E41019D3F1AB54160
:100860002846BD09800628438446A009BF064E02DB
:100870000699A40676180743079D002068410A9947
:10088000079019430020099B00906046FF1913430D
:100890004041E20F64003A43A4460446D71A8C4113
:1008A000A04203D90120009020463A46C70F941871
:1008B00040416246D20F2243644664000494009C87
:1008C000BE466400D71AA446044602978C41774678
:1008D000002F01D1A04204D96046401C8446029AF0
:1008E0002046C40FA64694184041049A0546D20FEC
:1008F000224364466400D31A8D417146002901D118
:10090000A84202D928461A46641C10430122002836
:1009100000D0164361020020079B891904465C4100
:100920000223002C02DB491813466441089DCE0ABD
:100930002D145D194B056705E10A2C050D19089961
:100940003E43C9076940002B08D0934006D30022DC
:10095000761C5141002B01D1760876001C4A002DEF
:1009600043DB154241D0AA433FD030460BB0F0BD27
:1009700006180D464D41174C7642AC411AD39518D6
:100980001C465C41134A6D42A24113D30122520519
:100990004C00D4420AD15C00D4420BD04B4002D56B
:1009A00092021143E2E749004908DFE75940C90FC5
:1009B000C90718E000200849D8E7054801420DD1D1
:1009C0000342F7D0F2E700000000FF0738230000E1
:1009D0000000F07F0000E0FF0000F87F1148594060
:1009E0000143C01241400020C0E70123089A9B0642
:1009F0009A4205DC032252078918C90FC907B5E7D7
:100A0000052252078918074A1143D2125140ADE717
:100A100070B515461C4602460B4628462146FFF790
:100A2000DFFD70BDFFFFFF7F0346CA02400D10B51A
:100A300010430A1504D00124E4072043002A05DBF3
:100A40000A4CA21A04D4D040FF2A00DD002010BDB9
:100A50004A00002B01D0012000E0002010180122E4
:100A60005205D042F2D8C817C04310BD1E04000082
:100A70001F22030C02D10F22000402D0030E03D068
:100A800004E00020014670470002083A030F01D13C
:100A90000001121F830F01D18000921E002801DB8C
:100AA0004000521E120551184205C012411810464E
:100AB0007047C10FC90700D040420122920711437D
:100AC000D6E701218907D3E7F0B58B4C0F092546FE
:100AD00089B0BD437BD01D092646AE43FAD00E46F1
:100AE0005E402740F60F3E43254071D0240121424D
:100AF000FBD0FF24AD19A4042D1B039501252D0562
:100B0000DB02DB0AC9022B43C90A29431E01090182
:100B1000040F130F050121431701880B8203914332
:100B20002D098C46A90B1E438A039543B30B9A03E8
:100B300096433F09BA0B9403A74302962E467E4381
:100B40000497B6464E19D7190C460196544305979B
:100B50007E43371B7646BF1B3601B646BE0B3619A1
:100B600000967646BC043719009C01D3641C00949F
:100B70006400002F01D001263443029E049F754378
:100B800066467E430496760034196E00341900944C
:100B9000029C019E1C196643751BAE460694654671
:100BA0004519059C05956C43594375460891691A8A
:100BB0000191049E01465143A41B0491611A009CBB
:100BC0000791E10605D061090122114302E072E0BC
:100BD0006EE06109089D00272C0A2D066918049D06
:100BE0007C412A0A2D066918019D6241AC0DAD02B7
:100BF0006D185441079A910D920255196141029A5C
:100C0000644658435443069B059A5A43121A131BD1
:100C10009A0E9B015B187A41010B0005C3185141E4
:100C2000220A200644195A419A4200D2491C012046
:100C30004002814203D315230226F64302E0142327
:100C40000326F6432020C51AA9401746AF40DA40D4
:100C50000A4320460399D8400914731819055118FE
:100C6000039A3843D2075140AC4009D00122944046
:100C700006D30022401C5141002C01D14008400005
:100C80001E4A934212D3012203989206904207DB38
:100C90000520400709181A480143C012414004E0EA
:100CA000032040070818C10FC907002009B0F0BD94
:100CB0000020F107FAE705180C464C4111486D4237
:100CC000A04115D394181A465A410E4864429041E7
:100CD0000ED301204A004005824209D35A008242C5
:100CE00006D35940C90F084AC90700201143DDE760
:100CF00000200649DAE700000000FF07FE070000B9
:100D0000FFFFFF7F0000E0FF0000F07F0000F87FA2
:100D1000FFB504460D4681B0243000902168880656
:100D200004D51022E0699143216000E00120A8422F
:100D300001DD471B00E000270498A1697A1910180B
:100D4000081AA0612078C00602D42046C046C046DA
:100D5000002608E003986268A168805D9047206AD9
:100D6000401C761C206204988642F3DB2078C00683
:100D70000AD52046C046C04606E06268A168302019
:100D80009047206A401C206238467F1E0028F4DC11
:100D900007E000986268A168405D9047206A401CA7
:100DA000206228466D1E0028F3DC2046C046C0465F
:100DB0002078000602D5022005B0F0BD0120FBE737
:100DC000FFB50C461E468FB003CA089009914F002C
:100DD0007D0D00D16D1E002108460020C046032174
:100DE000099A89050840002A03DA82008018400821
:100DF0000840800D01280A9002DD0020C0430A90BF
:100E0000089807430DD0F048F049281848430714C4
:100E1000189800281DD07542291E1DDD0A984242EF
:100E20001BE01898012802D00020302104E00020A7
:100E3000F24305E02154401CB042FBDB3046002267
:100E4000189B002121540F998B600A60486013B0F1
:100E5000F0BDBD1B6D1CDFE70A9A002900DA69426C
:100E60000BA800F095FA0BAB07CB03AB07C30899AF
:100E7000099800F0F9FA6B4607C30146D4480918EF
:100E8000002D00910BDDD24903980A9A494240187F
:100E9000002303A90390684600F056FD08E003997B
:100EA0000A9A0023081803A90390684600F0F6FC8C
:100EB0006B4607C30004000C03D00020C043410868
:100EC00000E01046189A002A03D00022009215462E
:100ED0001EE0751E05D400F0C1F9303262556D1E5A
:100EE000F9D501220843079602D000227F1C04E0B6
:100EF0002078302801D100227F1E002A069787D053
:100F00001EE0112D07DA00F0A9F9303262556D1C90
:100F100002460A43F5D1084303D00098002819D0AF
:100F20000EE00021681E05E0235C625C63542254DD
:100F3000401E491C8142F7DBA81B401E0795069006
:100F4000079A18990020A0540F98079B069A816071
:100F50000CC07CE711260020189059E7D21DF0B58F
:100F60000D460446D10893B0C90003C90C900D91F9
:100F700001F0D4FC02460D98C00F01D02D2007E0EF
:100F80002068810701D52B2002E04007C00F4001F7
:100F9000032A0F9001D0072A05DB03462946204685
:100FA00000F0B2F90EE12078800601D5E76900E093
:100FB00006272846652D04D0662814D0672D69D1F0
:100FC0002DE00020112F009001DB112300E07B1C9D
:100FD0000CAA03A910A8FFF7F3FE11990026109898
:100FE0007D1C0E9142E001203B460CAAC0070B90ED
:100FF0000120009003A910A8FFF7E2FE119D1298AE
:101000001099002600280E9501D1781C0D18781B28
:1010100002D446427D1C761EE81B00903AE0012F68
:1010200000DA01270020112F009001DD112300E0DC
:101030003B460CAA03A910A8FFF7C2FE11993D4632
:10104000109800260E91217809070BD40E99A94219
:1010500000DA0D4603A9012D04DD4A19203AD27F9A
:10106000302A06D0B84201DA011D04DA01210091CC
:101070000FE06D1EEFE7002802DC86192D1A03E051
:10108000411CA94200DD0D46801B401C0090012040
:10109000C0070B902078000705D40098A84202DB17
:1010A0000020C043009069460020C8720B980121BF
:1010B00002AF0337C907884225D0022010902B20A9
:1010C00011900B9800280BDA40420B902D201190C4
:1010D00006E00B9800F0AAF830317F1E0B903970B3
:1010E0001099481E00291090F3DC0B980028F0D1CD
:1010F00011987F1E38702088000501D5452000E03A
:1011000065207F1E387001A8C01BC01D0B900F9872
:10111000002800D0012041190098C01709180B9829
:101120000818A169081A401EA0612078C00602D4E0
:101130002046C046C0460F98002805D06268A168C6
:101140009047206A401C20622078C00625D52046A2
:10115000C046C04621E0002E07DB0E98B04204DDF9
:1011600003A86268805DA16802E06268A16830201F
:101170009047206A761C401C20620098401E002880
:1011800000900AD100F066F8C06862680168405CAF
:10119000A1689047206A401C206228466D1E0028E6
:1011A000D9DC07E062683878A1687F1C9047206A24
:1011B000401C20620B99481E00290B90F2DC20464F
:1011C000C046C046032042E601FCFFFF104D000070
:1011D000E1DFFFFF10B54369002B02D0C046C046D7
:1011E00001E0FFF775F8012010BD127801462431A7
:1011F0000A7000224A700122ECE711680022D243F3
:10120000E8E70000084B70B50D467B4400F069F834
:101210000446284601F00AFB002802D00020C04303
:1012200070BD204670BD00002316000001468008F6
:10123000081A02091018020A1018020C1018C00827
:10124000820012185200891A01E0401C0A390A294A
:10125000FBD2704700487047480000200B4670B52D
:10126000024689078008084319469D08141AA941B7
:1012700025090807054308092C194841250A0106D4
:101280000D43010A2C194141200C0D0428430D0C7B
:1012900000194D41002140194D41C008690708431C
:1012A000E908840F8D002543840024184D4124193A
:1012B0006D41121BAB4107E00925ED432C1152197A
:1012C00063410024401C61411C460A250026551B31
:1012D000B441F1D270BD000001694A1C0261087876
:1012E000704700B58FB00291002105910549019327
:1012F00079440391114604906846FEF7B3FF0FB09E
:1013000000BD0000E5FFFFFFF8B51F4604460123BE
:101310000068DB02032601461840072A05DB002887
:1013200001D017A506E017A504E0002801D016A5F6
:1013300000E016A5102081432160A069C01E002F87
:10134000A06101D0401EA0612046C046C046002FCB
:1013500009D038466268A1689047206A401C206224
:10136000C01C206206E0206AFAE762682878A1685B
:101370006D1C9047761EF8D22046C046C046F8BD88
:101380004E414E006E616E00494E4600696E660029
:10139000F7B516468AB0334878446C4603467C332A
:1013A000C06F5A689B680DC42E487844763003ACF1
:1013B0000DC80DC43720C001081837211B30FFF7B6
:1013C00068F805460C46803D1B3C02D5644201206E
:1013D00000E000200027099010E0E0070CD00C206E
:1013E00020497843794432464C39411868460123F4
:1013F00000F054FA6B4607C364107F1C002CECD13C
:10140000184F7F442E3F16E0E80712D02001C01984
:101410000EC80691089307920068F04201D198190E
:1014200008903246012306A903A800F037FA03AB5F
:1014300007C36D10641C002DE6D10998002806D062
:1014400032466946012303A800F07EFA05E0012335
:101450003246694603A800F021FA0A9B07C30DB083
:10146000F0BD000068160000034640000A4610B5B3
:10147000400D0BD00121C9070F24A40200191C0341
:1014800064082143540D2143D20207E000210120CA
:10149000F2E7D40F490021435200401E0029F8DA38
:1014A000DB0FDB07184310BDFFB50D46144685B0B2
:1014B0004868516801F01AFA00910190A868A16883
:1014C00001F014FA02910390A868616801F00EFA25
:1014D000029A12188242029201D2012000E00020FA
:1014E000019A0B18D2180028019202D08A4202D920
:1014F00003E08A4201D2012000E000200099081890
:1015000000906868A16801F0F1F9029A121882420D
:10151000029201D2012000E00020019A0B18D2189B
:101520000028019202D08A4202D903E08A4201D205
:10153000012000E000200099081800902868216828
:1015400040004900400849084018FA49471814E08B
:1015500001994000C90F084300900198029940008A
:10156000C90F08430190029803994000C90F08432E
:101570000290039840007F1E039000980028E7DA4D
:101580000898002801D0EC4E00E00026B74201DAAE
:10159000012000E00020002804902AD0F71BF80664
:1015A000C00E15D0029B2021091A039A8B401A43C2
:1015B0000392029A019BC2408B401A430292019A05
:1015C000009BC2408B4000991A430192C140009198
:1015D0007B110DD06F460320C11A03D50021820074
:1015E000B95003E08A008100BA587A50401EF3D502
:1015F000374603980299002800D00120014308983B
:101600000291002808460CD0002800D00120019942
:10161000019A490508430121D20AC902D202019266
:1016200000E001210E9B0122D207012B02D0002BEA
:1016300003D013E0002807D120E0904204D8904264
:101640000CD1019B0B4209D0019B5918019105D186
:101650000099491C009101D17F1C009200280DD0F7
:10166000102108460020C0460498002806D00F9894
:10167000002803D0082108460020C04628682168B9
:10168000019B009A4840C10F0598C90739430EC015
:1016900009B0F0BDFFB587B0099A0898089953685A
:1016A00092684068896896460022039317469446DC
:1016B000089A12685300099A5B081268520052088F
:1016C0009A1A9E4BD4180A9A002A01D0352200E0BB
:1016D000402206920022012315460492DB0705935F
:1016E00024E0002D05D175460346039E4D1BB341F2
:1016F00009D375466646039B491B049D9841059B8B
:101700007519AC465F4163463B4308D0059B049E78
:10171000DD0776082E435B080496059301E0521E10
:10172000641EC50FED0749184041521C069B9A42A2
:10173000D7DB002D04D17546039A6B1A824101D282
:1017400003200CE0039A0B466B404240134303D046
:10175000014303D0012002E0022000E000206146A6
:1017600001910021009702910A99002905D0614654
:1017700040020143704B019102E080070023029078
:101780009C4201DA012000E0002007003AD01A1B39
:10179000D006C00E15D0029D2021019C091AC5401B
:1017A0008C402543029C8C4000D001242543019CA1
:1017B0000295009DC4408D4000992C430194C14086
:1017C000009154111DD06D460221002202290CD136
:1017D0000320001B07E0002804DB8600AE59002E22
:1017E00000D00122401C0328F5DB081B02D588002D
:1017F0002A5004E08000285810438A00A850491E4F
:10180000E3D51C460A98002802980CD0002800D086
:1018100001200199019A490508430121D20AC90210
:10182000D202019200E00121109B0122D207012B7C
:1018300002D0002B03D013E0002807D11FE0904214
:1018400004D890420CD1019B0B4209D0019B59183E
:10185000019105D10099491C009101D1641C0092AD
:1018600000280CD0102108460020C046002F06D0CA
:101870001198002803D0082108460020C046089887
:101880000999019A009B006809684840C10F0798B0
:10189000C907214382600AC00BB0F0BD00B585B016
:1018A000019300920A460146002302A8FFF7FCFDBF
:1018B00002A807C805B000BDFFB50A461F4685B09F
:1018C0000799019301230091014602A8FFF7ECFD5F
:1018D00002990398049ECA0F4900D20700920F2272
:1018E000490892028C1A0021002800DB0C464500B2
:1018F00013486D08844214D3079A002A04DA441E60
:101900000026104DF64302E004460D460E46102117
:1019100008460020C046002F03D0042108460020BE
:10192000C0462005E90A0843009908436905F20A00
:101930001143ADE602C0FFFF013C0000FF3F000085
:10194000FF070000FFFFFF7F00B585B00193009205
:101950000A460146002302A8FFF79CFE02A807C81A
:10196000A8E7FFB50A461F4685B0079901930123F2
:101970000091014602A8FFF78DFE02990398049E8C
:10198000CA0F4900D20700920F22490892028C1A0E
:101990000021002800DB0C46450011486D088442F8
:1019A00014D3079A002A04DA441E00260D4DF6438C
:1019B00002E004460D460E46102108460020C046AF
:1019C000002F03D0042108460020C0462005E90A64
:1019D0000843009908436905F20A114358E60000DC
:1019E000FF070000FFFFFF7F00487047280000202E
:1019F0007546FFF7F9FFAE46050069465346C00835
:101A0000C000854618B020B5FEF70CFC60BCB64699
:101A100000260027C0C5C0C5C0C5C0C5C0C5C0C55B
:101A2000C0C5C0C5403D490849008D46704710B546
:101A30000446C046C0462046FEF7A7FB10BD000086
:101A4000024670B50A4392072AD11E4DEE0104C822
:101A500008C9541B9443344017D0D0B2D9B2401AAD
:101A60002106014310D190B299B2401A21040143DA
:101A70000AD110021902000A090A401A2102014380
:101A800002D1100E190E401A70BD9A42DFD010BA62
:101A900019BA884201D9012070BD0020C04370BD31
:101AA00002780B78401C491C002A09D09A4207D1C1
:101AB00002780B78401C491C002A01D09A42EFD0D2
:101AC000D01A70BD0101010101491820ABBEFEE72B
:101AD00026000200704710B5444244410C700228B1
:101AE00006D3032807D0022807D10120107010BDAB
:101AF0000020107000E00120187010BD70B5114971
:101B00000C68114B1C40020215180604AD190006A2
:101B1000281804430C600C691C4004430C610C6AD7
:101B20001C4004430C624868084B1840104348604E
:101B30004869184010434861486A18401043486299
:101B400070BDC04604110040F8F8F8F8F8F8FFFF3F
:101B500080B50078FFF7D2FF80BD000080B5002877
:101B600001D000F0CFFC0148006880BD00000020DB
:101B700070B51C4615460646244802680F201040E2
:101B80000B2800D30B20A84201D1022070BD62684F
:101B900023780846194600F0C5F8002814D00498A8
:101BA00061780818C1B2E36822460832304600F076
:101BB00003F900280AD0059B218A123428462246C0
:101BC00000F006F8002070BD012070BD032070BD3C
:101BD000F8B50C4605460D4E0D4F002B0AD01046A9
:101BE000FFF7B6FF0F20054035607068384020438E
:101BF0007060F8BD0F2005403560706838402043A4
:101C000070601046FFF7A4FFF8BDC0460400004016
:101C10000000FFFF002802D000BF401EFDD170472A
:101C20007CB5044601A88170012101802168134D13
:101C300000290FD00868826843681E6816431E603A
:101C4000006805600B7A496801AA6E46326001227D
:101C500000F0DFF8616800290FD0086882684368E7
:101C60001C6814431C60006805600B7A496801AA6F
:101C70006C462260012200F0DDF87CBDA1AA5585EA
:101C8000B0B50D2803D1084600F038F8B0BD0246C3
:101C9000052803D8900011A10858B0BD0D48072AA7
:101CA00016D80D490C68A10F022911D86004450E01
:101CB00000D10225600F00F01BF868430F2121407E
:101CC000491CFEF7DCFBE106C90F491CFEF7D7FBF8
:101CD000B0BDC04600127A007800004000127A00C1
:101CE00000127A0000127A00409C00000080000080
:101CF0008000014908587047D02A000080B50028AC
:101D000001D000F0FFFB0148406880BD00000020CA
:101D100010B50446000FFFF7B3FFA1B2491CFEF750
:101D2000AEFB10BD80B502290AD001290AD00029D6
:101D300012D10321090703688B430360012107E0E7
:101D4000072105E00121490703688B430360032154
:101D5000C90603680B430360114600F001F880BD1B
:101D600080B50A46034908600349104600F03AFD71
:101D700080BDC0468800002005280000B0B503687B
:101D800054780F2525400B4C1C4049070919491967
:101D900013785B065B0CC9189278D207D20E8918AB
:101DA0000322D2060A4302600122D206891801608A
:101DB000B0BDC046E080FF17B0B51C460546FFF732
:101DC000DDFF2846214600F001F8B0BD80B50A4687
:101DD000034908600349104600F004FD80BDC04679
:101DE0008C00002019280000F0B593B014460D4671
:101DF00006466F464C213846FEF73FFB28462146F3
:101E00003A4600F042F83046394600F04EF913B039
:101E1000F0BDFEB516460C460546089A01AF3046A1
:101E200019463B4600F047F9284621463A46FFF757
:101E3000DBFFFEBDBCB500246D466C60069C2C60CB
:101E400000F001F8BCBDF0B597B0029317460C4600
:101E5000039004AD4C212846FEF70FFB1C351C9B5C
:101E60001D98002802D00120A0400B9004AE6846C7
:101E7000066020463946029A00F0B2F803982946D7
:101E8000324600F032F917B0F0BDF0B598B0034615
:101E900010463030179010462C30169010462830DF
:101EA00015901046243014901046103013901046B0
:101EB0000C301290104608301190101D10901046F2
:101EC00048300F900E90104644300D900C90104604
:101ED00018300B900A901046143009900890106842
:101EE00018431060039108780021012807931846D1
:101EF00000D00846D3690343D36103984078012892
:101F0000079800D00846136A034313620398C07809
:101F10000128079800D00846536B03435363039886
:101F200000790128079800D00846936B0343936318
:101F3000039840790128079800D00846D36B0343E3
:101F4000D363039880790128079800D00846136C62
:101F5000034313640E460A463EE00291C807C50ECD
:101F60000092920008A88018069010AB981805906F
:101F70000CAB9818049014ACA2180024019623E02E
:101F80000120B040079908421BD0039B9878A040DD
:101F900011680F6807430F60D879A8400499096851
:101FA0000F6807430F600F20A040059909680F686C
:101FB00007430F600320A840069909680F6807438C
:101FC0000F60AD1C761C241D202CD9D10299491C10
:101FD000019E0836009A521C042ABED118B0F0BDEA
:101FE000F0B5012635468540059C676B2F43676336
:101FF000012900D800268640A76B3743A763E76B0B
:102000003743E7634E424E418640216A31432162A5
:10201000216829435D7821608540216C2943216432
:10202000C508032D27D84107C90EC0467D442D7928
:102030006D00AF4401070E158A40656A154365625D
:10204000221D13E08A40A56A1543A5622246083284
:102050000CE08A40E56A1543E56222460C3205E051
:102060008A40256B15432563224610320F258D408B
:1020700011682943116001090007C00E012908D029
:10208000002911D199788140626C0A43626414344A
:1020900005E099788140A26C0A43A26418340321B8
:1020A0008140206808432060F0BD80B50A461C319D
:1020B00000F01BF880BDBCB500246D462C6000F01C
:1020C00001F8BCBD70B51C4615460E46591C1A1DBC
:1020D0005B1DFFF700FDA670049820702878E07063
:1020E0006878A071A878E07170BD1368C363136845
:1020F00043611368436553690366936943661368D4
:10210000C360536883629368C362D36803631369CF
:102110004363136843641268C2648A688261CA6850
:10212000C2610A6902624A694262CA6902640A6A51
:1021300082644A6A02658A6A8265CA6AC2650A68F6
:1021400082604A68026189698163704770B50C4694
:1021500041880088800141189000FEF790F9011B2A
:1021600064204843FEF7ADFC05460E462046FEF7C8
:10217000A8FC02460B4628463146FEF731FA70BDF0
:1021800010B5044689081046FEF779F93F21014051
:10219000618080B28009208010BD00004A684262E0
:1021A0008A688262CA68C2620A6802624A694263D5
:1021B0008A698263CA698264154A42640969016353
:1021C0007047C04610B5026B036B0124A343036341
:1021D0008163026310BDB0B5026BC36A84692407D2
:1021E000FCD4046B0125AC4304630C884462498829
:1021F0008162C3620263B0BD0021016341628162FA
:10220000C162016241638163816401494164704735
:10221000FF070000F8B5054611480068012100F0ED
:1022200053F906466C46204629463246FFF7A8FF7A
:10223000204629463246FFF789FF06460F4609A089
:102240002946FEF701F8364832463B46FDF7FCFFCB
:102250000348006800682146FFF7BDFFF8BDC0468F
:1022600020000020426175645261746520436861FA
:102270006E6765643A2025640A00000080B5EF4867
:10228000006800F00FF980BDFEB515460C46074604
:1022900002AE3046FFF774FF1348006839463246F5
:1022A00000F026F9114800907868400701D5002019
:1022B00000E00F48019068460221FFF7B1FC30466C
:1022C00021462A46FFF742FF05460E4609A0FEF7C3
:1022D0005FF80FA02146FDF7B7FF11482A463346A5
:1022E000FDF7B2FFFEBDC04620000020C42A00005A
:1022F000B82A000057656C6C636F6D6520746F20A1
:10230000554152542044656275674F757421000031
:1023100042617564526174653A2025640A000000C8
:10232000F02A0000B0B50C460546C4480068C168F4
:102330000A68074B1340074A9A180A60012100F007
:10234000C3F8024628462146FFF79EFFB0BDC046AF
:102350000000FE0F000001D070B586B016460C4696
:102360000546684607A11822FEF728F8002E01D17D
:1023700004200190684629462246FFF7D3FF06B0A5
:1023800070BDC04603000100000000000000000016
:10239000000000000000000000000000F0B589B05F
:1023A00014460D46064601AF20213846FEF765F873
:1023B000284621463A4600F007F830463946FFF7EE
:1023C000EDFE09B0F0BD0000B0B50B8853604B883E
:1023D0002D4911613F241C40946043789B002BA43D
:1023E000E45883781D0103789B075B0E2B4323433E
:1023F000D3600478042C03D1012424022343D36046
:102400004468002C16D009252C402343D360436830
:102410009C0702D52249116143685C0705D5012359
:102420001B025B1C194011614368DB0602D5802347
:10243000194311618368002B0AD01B68936183687C
:102440005C79072525401B795B079B0E5B1953615F
:102450000369002B09D01B789B00194301230B4310
:10246000136101690979116000E00B464169002997
:1024700003D00968890259181161C068002801D089
:102480000068D061B0BDC04601030000000000003C
:10249000020000000600000082000000860000002C
:1024A0000102000010B504460068FFF7A5FE0120F8
:1024B0000004E1680A6882430A60A06861680A68EB
:1024C00082430A6010BD000010B504460648201A79
:1024D000421E90418000054A8058FFF719FCE168D0
:1024E000096889B2884010BDA42A00008801004014
:1024F000B0B58368446825681D4325600068FFF710
:102500004DFFB0BDB0B51C4C22680F210A40072A10
:1025100003D890001949085824E024480A2A21D8F1
:10252000092A04D00A2A05D122469C3204E0224618
:10253000883201E0224674321568AA0F022A11D8A7
:102540006804420E00D10222680F80000B4B18581D
:1025500050432940491CFDF792FFE906C90F491C69
:10256000FDF78DFF6168104C606089B2491CFDF772
:1025700086FF2060B0BDC04604000040D02A0000A5
:10258000D148D04901600121090702690A4302616B
:10259000026A0A430262026B0A430263002101607D
:1025A00001480249016070470000002000127A00D3
:1025B0007047000080B502A0FDF7EAFE80BDC0466E
:1025C00048656C6C6F212049276D2046696E652136
:1025D0002000000080B5FFF751FE80BD10B5174CFC
:1025E000206800688169C90622D40168C9B25229ED
:1025F00001D1022205E012A0FDF726FE2068006846
:1026000001228169C90608D40068D030C1B2062908
:1026100007D31BA0FDF718FE0AE00FA0FDF7B8FED8
:1026200006E0022A04D188000FA10858FFF7F2FD46
:10263000206800681021416410BDC04620000020C1
:10264000556E646566696E656420436F6D6D616E7D
:10265000643A2025630A000053656E642074776F26
:10266000206368617273210080250000004B000028
:102670000096000000E1000000C201000084030099
:10268000556E646566696E65642052617465496E55
:102690006465783A2025640A0000000070B54B207C
:1026A000C001012421462246FFF756FE1D4E306828
:1026B000006810252946FFF785FD3068405700283F
:1026C00010DB032102468A43184953588507ED0E53
:1026D000FF26AE40B34353501F2101408C401448A5
:1026E00004600CE08107C90EFF228A400F210140DF
:1026F0000839032081430C480B5893430B500DA01D
:10270000124CA04712A0A04718A0A0471BA0A047AA
:102710001EA0A04721A0A04724A0A04727A0A04713
:1027200070BDC046200000201CED00E000E400E089
:1027300000E100E04465627567206368616E67656B
:102740002072617465207465737421009103000028
:10275000546F206368616E676520626175645261C1
:1027600074652073656E643A0000000020205230CA
:102770003A202D2039363030000000002020523120
:102780003A202D20313932303000000020205232E2
:102790003A202D20333834303000000020205233CE
:1027A0003A202D20353736303000000020205234BA
:1027B0003A202D2031313532303000002020523582
:1027C0003A202D20323330343030000080B5444878
:1027D0000069804780BDC04680B541484069804758
:1027E00080BDC046B0B50C4601460D46A047002D41
:1027F00002D0691E0028F8D0002D00D00125284302
:10280000B0BD0000012000050249096809690140C6
:10281000080D704788000020012000050249096862
:1028200009690140080D70478C00002000207047A6
:102830000449096809688A699206FCD4C2B20A6030
:102840007047C0462000002088B01D48FFF7E2F91D
:102850000124A5071B4828601B49086003AE1BA183
:1028600014223046FDF7AAFD6846022112C0284610
:1028700078305035082229463346FFF779F920464B
:10288000FFF76CF90446164D286880472046FEF78E
:1028900018F90024134B2246FEF716F9124B224674
:1028A000FDF79EFEFF2293052246FEF70DF9FEF787
:1028B000BBF804462046FFF7ADF9E8688047F9E722
:1028C000C0CF6A00A1AA5585F010004000000000AA
:1028D000000600000A000100008000000000060061
:1028E0000800002000409F4000408F40F8B5040CD5
:1028F0008BB2264682B25E43104658430D0C370C0D
:10290000360400218019164679416E43370C36048F
:102910008019264679416E438919F8BD4900CA02DB
:102920000243100000D004204A0D01D001221043C0
:10293000044A490D914201D102210843012800D1E6
:1029400005207047FF07000010B500290AD008785D
:10295000002807D005487844FFF772F8002801D016
:10296000002010BD0248784410BD0000CA010000DC
:10297000C201000003B402487844844603BC6047A7
:10298000E1E5FFFF80807F7E7D7C7B7A79787776BA
:1029900076757473727171706F6E6E6D6C6C6B6A3C
:1029A0006A696868676666656464636362616160DA
:1029B000605F5F5E5E5D5D5C5C5B5B5A5A59595857
:1029C00058575756565555555454535352525251C1
:1029D000515050504F4F4F4E4E4D4D4D4C4C4C4B17
:1029E0004B4B4A4A4A49494948484847474747465E
:1029F000464645454544444444434343434242429A
:102A00004241414102400000000000A000000000DF
:102A100005400000000000C8000000000C4000005D
:102A20000000409C00000000194000000020BCBED7
:102A30000000000034400000BFC91B8E00000004ED
:102A4000B5400000504BCFD06607E2CF0100000038
:102A50006C4100003E8251AADFEEA7340100000065
:102A6000D9420000DCB5A0E23A301F97FFFFFFFF1C
:102A7000B4450000FD25A0C8E9A3C14FFFFFFFFF3B
:102A8000FF3F00000000008000000000FF3F00004A
:102A90000000008000000000004008400C000040E2
:102AA00000000200009009401000004040000000BB
:102AB0008801004012000000982A00001000000069
:102AC00005000000982A00000F000000050000002B
:102AD00000127A0000093D0000127A0000093D0052
:102AE00000127A0000093D00409C000000800000B8
:102AF000426175644572726F723A2025660A000061
:102B0000402B00000000002028000000040100000D
:102B1000682B000028000020C020000020010000D9
:102B20001C00000043000000F8FFFFFF0C00000045
:102B30000E0000000F0000002E000000000000004A
:102B400000127A0000127A009D260000D5250000B0
:102B5000B1250000B5250000DD250000DD250000C1
:082B6000A42A0000000000009F
:04000005000000C136
:00000001FF
