:020000040000FA
:10000000083400209D010000A5010000A7010000A8
:1000100000000000000000000000000000000000E0
:10002000000000000000000000000000A901000026
:100030000000000000000000AB010000AD01000066
:10004000AF010000B1010000B3010000B5010000E4
:10005000B7010000B9010000810C0000BD010000E3
:10006000BF010000C1010000C3010000C501000084
:10007000C7010000C9010000CB010000CD01000054
:10008000CF010000D1010000D3010000D501000024
:10009000D7010000D9010000DB010000DD010000F4
:1000A000DF010000E1010000E3010000E5010000C4
:1000B000E7010000E9010000EB010000ED01000094
:1000C00000F002F800F03EF80CA030C80838241800
:1000D0002D18671EA246AB4654465D46AC4201D180
:1000E00000F030F87E460F3EB6460FCC0126334274
:1000F00000D0FB1A3343A246AB46184788190000CC
:10010000A8190000103A02D378C878C1FAD852076B
:1001100001D330C830C101D504680C6070470000BD
:100120000023002400250026103A01D378C1FBD813
:10013000520700D330C100D50B6070471FB51FBDFB
:1001400010B510BD00F010FD1146FFF7F7FF01F0EC
:10015000F5FA00F028FD03B4FFF7F2FF03BC00F04E
:100160002FFD000070B505460C46164602E00FCC88
:100170000FC5103E102EFAD2082E02D303CC03C5B1
:10018000083E042E07D301CC01C5361F03E02178B9
:100190002970641C6D1C761EF9D270BD174880470B
:1001A00017480047FEE7FEE7FEE7FEE7FEE7FEE74B
:1001B000FEE7FEE7FEE7FEE7FEE7FEE7FEE7FEE717
:1001C000FEE7FEE7FEE7FEE7FEE7FEE7FEE7FEE707
:1001D000FEE7FEE7FEE7FEE7FEE7FEE7FEE7FEE7F7
:1001E000FEE7FEE7FEE7FEE7FEE7FEE7FEE70000CC
:1001F00004480549054A064B70470000891600006F
:10020000C100000008140020083400200824002049
:1002100008240020F8B5042A2CD3830712D00B78C9
:10022000491C0370401C521E83070BD00B78491CDD
:100230000370401C521E830704D00B78491C0370C6
:10024000401C521E8B079B0F05D0C91ADF002023CC
:10025000DE1B08C90AE0FFF785FFF8BD1D4608C987
:10026000FD401C46B4402C4310C0121F042AF5D296
:10027000F308C91A521EF0D40B78491C0370401CB5
:10028000521EEAD40B78491C0370401C012AE4D4A6
:1002900009780170F8BD01E004C0091F0429FBD2F0
:1002A0008B0701D50280801CC90700D002707047FF
:1002B00000290BD0C30702D00270401C491E02293E
:1002C00004D3830702D50280801C891EE3E7002245
:1002D000EEE70022DFE7002203098B422CD3030A5A
:1002E0008B4211D300239C464EE003460B433CD483
:1002F000002243088B4231D303098B421CD3030AEB
:100300008B4201D394463FE0C3098B4201D3CB011A
:10031000C01A524183098B4201D38B01C01A52414A
:1003200043098B4201D34B01C01A524103098B424E
:1003300001D30B01C01A5241C3088B4201D3CB0039
:10034000C01A524183088B4201D38B00C01A52411C
:1003500043088B4201D34B00C01A5241411A00D2CC
:1003600001465241104670475DE0CA0F00D0494235
:10037000031000D3404253409C46002203098B42A5
:100380002DD3030A8B4212D38901FC2212BA030A2D
:100390008B420CD3890192118B4208D389019211AF
:1003A0008B4204D389013AD0921100E08909C30934
:1003B0008B4201D3CB01C01A524183098B4201D336
:1003C0008B01C01A524143098B4201D34B01C01A21
:1003D000524103098B4201D30B01C01A5241C30899
:1003E0008B4201D3CB00C01A524183088B4201D308
:1003F0008B00C01A5241D9D243088B4201D34B0023
:10040000C01A5241411A00D2014652411046634679
:100410005B1001D34042002B00D549427047634630
:100420005B1000D3404201B50020C046C04602BD6B
:100430007047704770470000F0B5F94D0C091E0970
:100440002C402E402F468BB0A7437DD0B543FCD027
:10045000002E7AD0002CFCD00D465D40ED0F2543D8
:10046000AC1BFF25AD0464190894C502440DC902F4
:100470002143500DDC0204430120C0070143044323
:10048000D2020191200C110C00958C4601042346E8
:100490008B430A9161460904E24D8A430991010A9E
:1004A0007D4449198039097805464D4301266D1868
:1004B000F605751B6943C90C640B891C4C43641811
:1004C000B5012C1B250C2E04B4434C434D43210C89
:1004D000691889090591009DE90701D00121C90723
:1004E00004912C4601996708CD072F434C08059DC0
:1004F000E10B4D432D0C29466646754302950D468A
:1005000045432E46029D7D1BB44100950D465D433B
:1005100001942C0C2F040D465543AE462D0C3D4343
:10052000029503947546049C2D04641B049406D222
:10053000029C039D641C002675410395029401AC46
:1005400070CC009F7D1B01E03EE162E1B4410904F3
:100550000095079101940599A4086143090C0C4684
:100560004443650BE7040C4666467443A646640B99
:100570003C43039502947446049DE4042C1B0494AC
:1005800006D2029C039D641C0026754103950294CB
:1005900001AC70CC009F7D1BB44101940C465C43C0
:1005A0000095650FE7000C465443A646640F3C4394
:1005B000039502947446049DE4002C1B049406D217
:1005C000029C039D641C002675410395029401ACB6
:1005D00070CC009F7D1BB441AE09AF06049DC900DD
:1005E000AD092F43049DA406AD060495079D344331
:1005F00069180791059DE10B4D432D0C2946664670
:10060000754302950D4645432E46029D7D1BB44120
:1006100000950D465D4301942C0C2F040D46554367
:10062000AE462D0C3D43029503947546049C2D0463
:10063000641B049406D2029C039D641C0026754131
:100640000395029401AC70CC009F7D1BB4410194D2
:100650008C050694079C890A611800950791019CF6
:100660000599A4086143090C0D464543680BEF0446
:100670000D46644665436C0B3C43049FED047D1BB3
:10068000AC4602D20025641C6841009E019D371BC8
:1006900085410846584301950C46460FC500544312
:1006A000600F28436546E4002C1B02D20025401C45
:1006B0006E41019D3F1AB5412846BD098006284379
:1006C0008446A009BF064E020699A4067618074381
:1006D000079D002068410A99079019430020099B53
:1006E00000906046FF1913434041E20F64003A4313
:1006F000A4460446D71A8C41A04203D90120009099
:1007000020463A46C70F941840416246D20F224312
:10071000644664000494009CBE466400D71AA44654
:10072000044602978C417746002F01D1A04204D99C
:100730006046401C8446029A2046C40FA646941880
:100740004041049A0546D20F224364466400D31AFE
:100750008D417146002901D1A84202D928461A4686
:10076000641C10430122002800D0164361020020BF
:10077000079B891904465C410223002C02DB4918BF
:1007800013466441089DCE0A2D145D194B0567057B
:10079000E10A2C050D1908993E43C9076940002B51
:1007A00008D0934006D30022761C5141002B01D182
:1007B000760876001C4A002D43DB154241D0AA433F
:1007C0003FD030460BB0F0BD06180D464D41174CDA
:1007D0007642AC411AD395181C465C41134A6D42CF
:1007E000A24113D3012252054C00D4420AD15C002D
:1007F000D4420BD04B4002D592021143E2E74900AC
:100800004908DFE75940C90FC90718E00020084927
:10081000D8E7054801420DD10342F7D0F2E70000C6
:100820000000FF07C01400000000F07F0000E0FFA0
:100830000000F87F114859400143C0124140002098
:10084000C0E70123089A9B069A4205DC032252075F
:100850008918C90FC907B5E7052252078918074A41
:100860001143D2125140ADE770B515461C46024601
:100870000B4628462146FFF7DFFD70BDFFFFFF7FD7
:100880000346CA02400D10B510430A1504D00124D6
:10089000E4072043002A05DB0A4CA21A04D4D04006
:1008A000FF2A00DD002010BD4A00002B01D00120EE
:1008B00000E00020101801225205D042F2D8C817DB
:1008C000C04310BD1E0400001F22030C02D10F22E2
:1008D000000402D0030E03D004E00020014670475C
:1008E0000002083A030F01D10001121F830F01D14A
:1008F0008000921E002801DB4000521E1205511894
:100900004205C012411810467047C10FC90700D0F8
:100910004042012292071143D6E701218907D3E71C
:10092000F0B58B4C0F09254689B0BD437BD01D091E
:100930002646AE43FAD00E465E402740F60F3E43B1
:10094000254071D024012142FBD0FF24AD19A4041D
:100950002D1B039501252D05DB02DB0AC9022B4364
:10096000C90A29431E010901040F130F0501214380
:100970001701880B820391432D098C46A90B1E4356
:100980008A039543B30B9A0396433F09BA0B94032A
:10099000A74302962E467E430497B6464E19D719B2
:1009A0000C460196544305977E43371B7646BF1B82
:1009B0003601B646BE0B361900967646BC0437198A
:1009C000009C01D3641C00946400002F01D0012618
:1009D0003443029E049F754366467E430496760028
:1009E00034196E0034190094029C019E1C19664350
:1009F000751BAE46069465464519059C05956C43E6
:100A0000594375460891691A0191049E0146514364
:100A1000A41B0491611A009C0791E10605D06109AD
:100A20000122114302E072E06EE06109089D002797
:100A30002C0A2D066918049D7C412A0A2D06691886
:100A4000019D6241AC0DAD026D185441079A910DA4
:100A5000920255196141029A644658435443069BD9
:100A6000059A5A43121A131B9A0E9B015B187A417E
:100A7000010B0005C3185141220A200644195A41AE
:100A80009A4200D2491C01204002814203D315231F
:100A90000226F64302E014230326F6432020C51A5B
:100AA000A9401746AF40DA400A4320460399D84090
:100AB0000914731819055118039A3843D207514085
:100AC000AC4009D00122944006D30022401C514181
:100AD000002C01D1400840001E4A934212D301224B
:100AE00003989206904207DB0520400709181A4830
:100AF0000143C012414004E0032040070818C10F21
:100B0000C907002009B0F0BD0020F107FAE7051879
:100B10000C464C4111486D42A04115D394181A4619
:100B20005A410E48644290410ED301204A004005CC
:100B3000824209D35A00824206D35940C90F084A5B
:100B4000C90700201143DDE700200649DAE700006D
:100B50000000FF07FE070000FFFFFF7F0000E0FF2F
:100B60000000F07F0000F87F754600F025F8AE46E3
:100B7000050069465346C008C000854618B020B538
:100B8000FFF736FB60BCB64600260027C0C5C0C5CF
:100B9000C0C5C0C5C0C5C0C5C0C5C0C5403D490869
:100BA00049008D46704710B50446C046C0462046F1
:100BB000FFF7D1FA10BD0000004870470004002084
:100BC00001491820ABBEFEE7260002007047000076
:100BD000B0B51648401C0021074A134B07E00478C3
:100BE0001D78A54200D0491C401C5B1C521E002AE7
:100BF000F5D148424841B0BDFF030000F8B50120DF
:100C00008402094D094E0A4F0AE03868411C3960D8
:100C100000F0ECFB287000203070761C6D1C641E08
:100C2000002CF2D1F8BDC0467808002078040020DE
:100C30007404002070B5234DE868401CE860084942
:100C400088420CD30026EE600124204600F070F8A4
:100C50002869401C28610A2801D3EC702E6170BD00
:100C6000A1860100A6480021016041600161C943DD
:100C70004161C16141620163816301218164704707
:100C800070B5104C207801250F4E0028284609D158
:100C90003068C00705D1002000F080F92570284693
:100CA00000E000206178002909D13168890705D466
:100CB000012000F073F96570207800E00025054000
:100CC000A57070BD600400202860004010B544424B
:100CD00044410C70022806D3032807D0022807D10C
:100CE0000120107010BD0020107000E0012018706D
:100CF00010BD70470020704710B510498A684B68D6
:100D00001C6814431C600B6803491960C1B20122BE
:100D1000184600F006FA10BDA1AA5585002901D198
:100D20000C2100E00821054A126850507047C04667
:100D3000024909684A6842404A607047F019000059
:100D400070B511490C68114B1C40020215180604BD
:100D5000AD190006281804430C600C691C400443BC
:100D60000C610C6A1C4004430C624868084B184034
:100D7000104348604869184010434861486A184069
:100D80001043486270BDC04604110040F8F8F8F8FE
:100D9000F8F8FFFF80B50078FFF7D2FF80BD0000B4
:100DA00080B5002801D000F031FC0148006880BD0A
:100DB0000000002070B51C4615460646244802680F
:100DC0000F2010400B2800D30B20A84201D1022095
:100DD00070BD626823780846194600F0F2F80028D2
:100DE00014D0049861780818C1B2E368224608322A
:100DF000304600F031F900280AD0059B218A1234D0
:100E00002846224600F006F8002070BD012070BD83
:100E1000032070BDF8B50C4605460D4E0D4F002B56
:100E20000AD01046FFF7B6FF0F2005403560706806
:100E3000384020437060F8BD0F2005403560706871
:100E40003840204370601046FFF7A4FFF8BDC0464D
:100E5000040000400000FFFF70B51C682401A50FCE
:100E6000049C032D02D0561EAE40301820601D6831
:100E700007202E460640042E01D10C3105E0AD0FAF
:100E8000032D02D0561EAE40711861600321090780
:100E90001D682E010E4011010A4A8918114029438C
:100EA00031435A68002A02D01268920400E082049A
:100EB00011439A68002A00D0106840050143A160E0
:100EC00070BDC046F03F000080B50248072100F029
:100ED00003F880BD00100020B0B50C460546012087
:100EE000C00206490A6802430A60FFF7BBFE0448D5
:100EF00045606101491C0160B0BDC0460C00004066
:100F000004600040BFB51D46044601A86B4618604A
:100F1000089B084611462A46FFF79EFF06480068D0
:100F20002101019A42504018029941600399816061
:100F3000039804B0B0BDC046086000400121814064
:100F4000014801604160704724600040B0B5032251
:100F500083079043044A8458DB0EFF259D40AC4331
:100F6000994021438150B0BD5060004010B501242C
:100F700084400948002901D0046000E04460002A50
:100F800001D0046200E04462002B01D0C46100E0A3
:100F90008461C460046110BD18600040012181407B
:100FA00001480160816070472060004081B000907E
:100FB0000098002803D00098401E0090FBD101B09B
:100FC000704780B502290AD001290AD0002912D120
:100FD0000321090703688B430360012107E0072110
:100FE00005E00121490703688B4303600321C9061B
:100FF00003680B430360114600F002F880BD000057
:1010000080B50A46034908600349104600F072FBA8
:1010100080BDC0460014002015170000B0B503685D
:1010200054780F2525400B4C1C40490709194919D4
:1010300013785B065B0CC9189278D207D20E891818
:101040000322D2060A4302600122D20689180160F7
:10105000B0BDC046E080FF17B0B51C460546FFF79F
:10106000DDFF2846214600F001F8B0BD80B50A46F4
:10107000034908600349104600F03CFB80BDC046B0
:101080000414002029170000F0B593B014460D4653
:1010900006466F464C213846FFF71BF92846214685
:1010A0003A4600F047F83046394600F054F913B09C
:1010B000F0BDFEB516460C460546089A01AF30460F
:1010C00019463B4600F04DF9284621463A46FFF7BF
:1010D000DBFFFEBD91705070012010707047F0B5BD
:1010E00095B01E4617460C46019002AD4C2128468D
:1010F000FFF7EFF8684605601A9B204639463246EE
:1011000000F0C4F829461C3101982A4600F03CF949
:1011100015B0F0BD1CB56C4623600023FFF7C9FF76
:101120001CBDE0B501AB9A7001221A800022FFF7C6
:10113000F1FF8CBDF0B598B00346104630301790E3
:1011400010462C301690104628301590104624304A
:10115000149010461030139010460C301290104628
:1011600008301190101D1090104648300F900E90CE
:10117000104644300D900C90104618300B900A9099
:1011800010461430099008901068184310600391BD
:101190000878002101280793184600D00846D36933
:1011A0000343D361039840780128079800D008468C
:1011B000136A034313620398C0780128079800D08C
:1011C0000846536B0343536303980079012807983B
:1011D00000D00846936B034393630398407901283A
:1011E000079800D00846D36B0343D36303988079F4
:1011F0000128079800D00846136C034313640E4679
:101200000A463EE00291C807C50E0092920008A867
:101210008018069010AB981805900CAB98180490A5
:1012200014ACA2180024019623E00120B0400799D5
:1012300008421BD0039B9878A04011680F680743B1
:101240000F60D879A840049909680F6807430F60B8
:101250000F20A040059909680F6807430F6003201D
:10126000A840069909680F6807430F60AD1C761CFB
:10127000241D202CD9D10299491C019E0836009AC0
:10128000521C042ABED118B0F0BD0000F0B50126F2
:1012900035468540059C676B2F436763012900D85D
:1012A00000268640A76B3743A763E76B3743E763A6
:1012B0004E424E418640216A3143216221682943D2
:1012C0005D7821608540216C29432164C508032D88
:1012D00027D84107C90EC0467D442D796D00AF4423
:1012E00001070E158A40656A15436562221D13E0E9
:1012F0008A40A56A1543A562224608320CE08A405E
:10130000E56A1543E56222460C3205E08A40256B0A
:1013100015432563224610320F258D40116829435D
:10132000116001090007C00E012908D0002911D160
:1013300099788140626C0A436264143405E09978BC
:101340008140A26C0A43A2641834032181402068C2
:1013500008432060F0BD80B50A461C3100F014F847
:1013600080BD70B51C4615460E46591C1A1D5B1DE6
:10137000FFF7ACFCA670002020702878E070687839
:10138000A071A878E07170BD1368C36313684361EE
:101390001368436553690366936943661368C360C2
:1013A000536883629368C362D368036313694363BA
:1013B000136843641268C2648A688261CA68C26141
:1013C0000A6902624A694262CA6902640A6A8264FC
:1013D0004A6A02658A6A8265CA6AC2650A68826068
:1013E0004A680261896981637047000081B000909A
:1013F00000220E48114606E06B469B5CCB18434327
:1014000099095940521C042AF6D10122120203E024
:1014100041438B095940521E002AF9D10920484303
:10142000C10A41400248484301B07047010400002E
:10143000018000004A6842628A688262CA68C262A9
:101440000A6802624A6942638A698263CA6982647D
:10145000024A4264096901637047C046FF07000001
:1014600000E001688169C906FBD57047F0B589B015
:1014700014460D46064601AF20213846FEF729FFE7
:10148000284621463A4600F035F830463946FFF7FF
:10149000D1FF09B0F0BD00007CB50446002001AAD0
:1014A000FFF718FE21688F4D00290FD00868826869
:1014B00043681E6816431E60006805600B7A496821
:1014C00001AA6E4632600122FFF709FE6168002919
:1014D0000FD00868826843681C6814431C60006869
:1014E00005600B7A496801AA6C4622600122FFF769
:1014F000F6FD7CBDB0B50B8853604B882D4911615A
:101500003F241C40946043789B002BA4E4588378CC
:101510001D0103789B075B0E2B432343D3600478A4
:10152000042C03D1012424022343D3604468002CFB
:1015300016D009252C402343D36043689C0702D56D
:101540002249116143685C0705D501231B025B1C1E
:10155000194011614368DB0602D5802319431161EC
:101560008368002B0AD01B68936183685C79072528
:1015700025401B795B079B0E5B1953610369002BA8
:1015800009D01B789B00194301230B4313610169A8
:101590000979116000E00B464169002903D0096810
:1015A000890259181161C068002801D00068D06113
:1015B000B0BDC046010300000000000002000000B2
:1015C000060000008200000086000000010200000A
:1015D000BCB50C46054691081846FEF77CFE3F2137
:1015E000014001AA518080B280091080284621461E
:1015F00000F001F8BCBDB0B58368446825681D43A0
:1016000025600068FFF732FFB0BD0000B0B51C4C8C
:1016100022680F210A40072A03D890001949085868
:1016200024E033480A2A21D8092A04D00A2A05D1FD
:1016300022469C3204E02246883201E0224674327F
:101640001568AA0F022A11D86804420E00D102229E
:10165000680F80000B4B185850432940491CFEF777
:101660003AFEE906C90F491CFEF735FE61681F4CBA
:10167000606089B2491CFEF72EFE2060B0BDC046F6
:1016800004000040641A000010B51548154A0260B5
:1016900001210B0704691C430461046A1C430462B2
:1016A000046B1C43046389070A60CB6808241C434D
:1016B000CC600D490A6000224A658A65CA650A66DF
:1016C0004A6604E08B180024E4431C62121D342A8D
:1016D000F8D100220A60026004480549016010BD8B
:1016E000F0100040A1AA5585003000400000002005
:1016F00000127A00B0B50C4601460D46A047002DF9
:1017000002D0691E0028F8D0002D00D00125284302
:10171000B0BD0000012000050249096809690140C7
:10172000080D7047001400200120000502490968D7
:1017300009690140080D7047041400208CB06F48FF
:10174000FFF734FC06AC6EA114222046FEF762FDC2
:10175000012668460221059142C06E49084628309C
:1017600008222346FFF726FB3046FFF719FB074602
:10177000FFF7D3F800240494674B2246FFF7D0F814
:10178000FF22039293052246FFF7CAF8634B2246D5
:10179000FEF752FEFFF774F8FFF7ABFA0320FFF7EE
:1017A000ABFA5F48C06801685E4A11405E4BC918D9
:1017B00001605E48C06801681140C9180160E120FD
:1017C00004035B4D5648294622463B46FFF700FF7F
:1017D0005648294622463B46FFF7FAFE5548059CE7
:1017E0002146FFF759FE54482146FFF755FE4C4865
:1017F0000768B86C2043B8644C480468A06C304358
:10180000A064FFF761FB4D4869460860B3024C498C
:1018100004983A461F46FFF775FB0B900B98494D0D
:101820006860494869460860484A30460594214640
:101830003B46FFF767FB0B900B98A8603221049C96
:101840002046FFF783FB37213046FFF77FFB4048F8
:10185000402101603F480160039800043E490A6846
:1018600082430A603046214622463346FFF77EFB1C
:101870003446002738463146FFF73CFA002806D1A7
:10188000E87801282AD1EF703548FFF78FFB032055
:101890003146FFF743FAFFF7B1F92F80E00707D091
:1018A00000242046214622463346FFF75FFB15E021
:1018B0000598FFF7D5FD6868A9680B910B99274A31
:1018C0001346126891610B900B981968886001208B
:1018D000FFF734FB3846FFF731FB3C46A878002879
:1018E00008D0FFF775F9002803D002200021FFF788
:1018F00015FAAF70FFF79EF9BBE7C046C0CF6A008C
:1019000000000000000600000A0001000080000046
:1019100000000600500000400000244000408F40BE
:101920000C1A00000000FE0F000001D0201A000079
:1019300008000020041A0000FC190000581A0000DA
:1019400078080020600400204C1A00007804002071
:1019500080E200E000E100E004E400E00860004014
:1019600040420F0080807F7E7D7C7B7A797877761D
:1019700076757473727171706F6E6E6D6C6C6B6A6C
:101980006A6968686766666564646363626161600A
:10199000605F5F5E5E5D5D5C5C5B5B5A5A59595887
:1019A00058575756565555555454535352525251F1
:1019B000515050504F4F4F4E4E4D4D4D4C4C4C4B47
:1019C0004B4B4A4A4A49494948484847474747468E
:1019D00046464545454444444443434343424242CA
:1019E00042414141001008400C000040004000000E
:1019F000002008400C0000400080000000000000B3
:101A0000341A0000401A0000000000000090094055
:101A1000100000404000000088010040120000005B
:101A200000A0094010000040800000008C01004030
:101A300013000000E41900000E0000000500000083
:101A4000E41900000F000000050000000100000C78
:101A50000000000000000000010000C000000000C5
:101A60000000000000127A0000093D0000127A0018
:101A700000093D0000127A0000093D00409C000072
:101A800000800000001C0000000000200004000096
:101A900004010000002000000004002008300000C5
:101AA0002001000000000000000000000000000015
:101AB0000000000000000000000000000000000026
:101AC0000000000000000000000000000000000016
:101AD0000000000000000000000000000000000006
:101AE00000000000000000000000000000000000F6
:101AF00000000000000000000000000000000000E6
:101B000000000000000000000000000000000000D5
:101B100000000000000000000000000000000000C5
:101B200000000000000000000000000000000000B5
:101B300000000000000000000000000000000000A5
:101B40000000000000000000000000000000000095
:101B50000000000000000000000000000000000085
:101B60000000000000000000000000000000000075
:101B70000000000000000000000000000000000065
:101B80000000000000000000000000000000000055
:101B90000000000000000000000000000000000045
:101BA0000000000000000000000000000000000035
:101BB0000000000000000000000000000000000025
:101BC0000000000000000000000000000000000015
:101BD0000000000000000000000000000000000005
:101BE00000000000000000000000000000000000F5
:101BF00000000000000000000000000000000000E5
:101C000000127A0000127A000300000000000000B9
:101C100000000000000000000000000000000000C4
:101C200000000000000000000000000000000000B4
:101C300000000000000000000000000000000000A4
:101C40000000000000000000000000000000000094
:04000005000000C136
:00000001FF
